:020000040800F2
:10000000A00B00209D0100086B220008451F00087E
:10001000692200083D0B000851290008000000007B
:100020000000000000000000000000002B25000878
:100030003F0B0008000000008D2200082D2500085D
:10004000B7010008B7010008B7010008B7010008B0
:10005000B7010008B7010008B7010008B7010008A0
:10006000B7010008B7010008B7010008B701000890
:10007000B7010008B7010008B7010008B701000880
:10008000B7010008B7010008B7010008B701000870
:10009000B7010008B7010008B7010008B701000860
:1000A000B7010008B701000831260008B7010008B1
:1000B000B7010008B7010008B7010008B701000840
:1000C000B7010008B7010008B7010008B701000830
:1000D00059240008B7010008B7010008B70100085B
:1000E000B7010008B7010008B7010008B701000810
:1000F000B7010008B7010008B7010008B701000800
:10010000B7010008B7010008B7010008B7010008EF
:10011000B7010008B7010008B7010008B7010008DF
:10012000B7010008B7010008B7010008B7010008CF
:10013000B7010008B7010008B7010008B7010008BF
:10014000B7010008B7010008B7010008B7010008AF
:10015000B7010008B7010008B7010008B70100089F
:10016000B7010008B7010008B7010008B70100088F
:10017000B7010008B7010008B7010008000000003F
:10018000B7010008B7010008DFF80CD000F090FAC2
:1001900000480047C92E0008A00B002006488047F1
:1001A00006480047FEE7FEE7FEE7FEE7FEE7FEE75C
:1001B000FEE7FEE7FEE7FEE7DD250008890100080F
:1001C000D2B201E000F8012B491EFBD27047002299
:1001D000F6E710B513460A4604461946FFF7F0FF46
:1001E000204610BD2DE9FE4F804681EA0300C00F76
:1001F0000C46009021F0004123F00045B8EB0200CE
:10020000A94105D24046214690461C460B4602466F
:1002100023F00040104347D0270DC7F30A00C3F373
:100220000A510290401A019040286BDAC3F3130080
:1002300040F4801B0098924620B10023D2EB030AC1
:1002400063EB0B0B01985946C0F14002504600F099
:10025000A1F906460D4650465946019A00F0B9F9F3
:1002600010EB08006141002487EA115284EAE77329
:100270001A4340D0009A62B3019A012A4FEA07520A
:1002800015DC001B61EB02014FF0004202EA07524D
:10029000CDE90042001C41F5801132462B4600F0AA
:1002A000B9F903B0BDE8F08F40462146F9E7001BDD
:1002B00061EB0201001C41F5801300185B4120181E
:1002C000A2F5001747EB030140EAD570B6196D415E
:1002D00011E06D084FEA360645EAC0754FEA07524D
:1002E000001B61EB0201001C41F5801149084FEA37
:1002F00030000019514132462B4603B0BDE8F04FA3
:1003000000F079B90098012240000023D0EB0202EE
:1003100063EBE073009821464FEAE074B8EB00000D
:1003200061EB0401E9E783F000435BE781F0004102
:1003300058E72DE9FE4F81EA030404F0004421F060
:10034000004100944FF0000B23F0004350EA0104F9
:100350005ED052EA03045BD0C3F30A54C1F30A55DA
:100360002C44A4F2F3340194A0FB0254C1F3130112
:1003700041F48011C3F3130343F4801301FB0244DF
:1003800000FB034E840A970A44EA815447EA8357E4
:10039000A4FB076802958D0A05FB07854FEA932C9D
:1003A00004FB0C542705029D4FEA065847EA16370E
:1003B000B5EB08056EEB070C870E920E47EA811726
:1003C00042EA8312A7FB0201B6EB0B0164EB0004C7
:1003D0002B0D43EA0C335E1844EB1C50DA465146B1
:1003E000E7FB0201C5F313044FEA0B3343EA14534E
:1003F0004FEA0432019C43EA0603A4F10C04029480
:10040000009CCDE900B400F005F903B0BDE8F08F21
:1004100000200146F9E72DE9F04D81EA030404F0DC
:10042000004B21F0004514464FF0000A23F0004134
:1004300050EA050220D054EA01021DD0C5F30A5744
:100440000246C5F31303C1F31300C1F30A5640F487
:10045000801543F48013A7EB0608101BD64608F25C
:10046000FD3873EB050002D308F1010801E0921892
:100470005B41B8F1000F03DA00200146BDE8F08DC2
:1004800000204FF48011064684460EE0171B73EBE4
:10049000050705D3121B63EB050306434CEA010C69
:1004A00049084FEA300092185B4150EA0107EDD14C
:1004B00052EA030012D082EA040083EA05010843ED
:1004C00005D0101BAB4106D20122002306E000221A
:1004D0004FF0004302E06FF0010253101AEB0600E8
:1004E0004CEB085110EB0A0041EB0B01BDE8F04D5D
:1004F00000F081B80EB5C10F80EAE0700844CA0769
:10050000002140F233438DE80E000A460B4600F00E
:1005100081F803B000BD0EB540F2334102910021D5
:10052000CDE900110A460B4600F074F803B000BD97
:10053000C1F30A5210B5C1F3130140F2FF3341F485
:1005400080119A4201DA002010BD40F233439A42F2
:10055000A2F2334203DC524200F02BF810BD90406F
:1005600010BD000030B5041E71F1000404DB4FF033
:100570000044404264EB0101141E73F1000405DBEA
:100580001C464FF00043524263EB04038B4208BF0A
:10059000824230BD202A04DB203A00FA02F100201A
:1005A00070479140C2F1200320FA03F319439040B1
:1005B0007047202A04DB203A21FA02F0002170471C
:1005C00021FA02F3D040C2F12002914008431946BB
:1005D0007047202A06DBCB17203A41FA02F043EAA3
:1005E000E07306E041FA02F3D040C2F120029140EC
:1005F00008431946704710B5141E73F1000408DA59
:10060000401C41F1000192185B411A4301D120F0D6
:10061000010010BD2DE9F04D92469B4611B1B1FA93
:1006200081F202E0B0FA80F220329046FFF7B2FF8A
:1006300004460F4640EA0A0041EA0B0153465A4677
:10064000084313D0114653EA010019D0C8F1400203
:100650005046FFF7AEFF05460E4650465946424605
:10066000FFF798FF084305D0012004E020463946F3
:10067000BDE8F08D0020054346EAE0762C43374381
:100680000A986305E40AA0EB08000022FD0A44EA88
:1006900047540A3002D500200146E9E70105101948
:1006A0006941DDE9084500196941BDE8F04DA2E75F
:1006B000064C074D06E0E06840F0010394E80700AF
:1006C00098471034AC42F6D3FFF762FDF8540008A7
:1006D0001855000870B50A4E00243568306007E0F0
:1006E00000F0F2F982B2A1B2002000F031F9641CEE
:1006F00000F0F0F9A042F3D8A8B2306070BD00005D
:100700004807002070B5094C0646258860682060BF
:1007100000F0DAF982B2A068C38803FB06F081B268
:10072000002000F0B9F9A8B2206070BD4807002091
:10073000074B30B49B68DD881C689B88DB1DDB0899
:10074000203A13FB02F205FB024230BC01F0FCBB75
:100750004807002001480068806800474C000020DE
:100760002DE9F0470446002799468A461546B846C3
:10077000104601E008F1010810F8011B0029F9D129
:1007800000F0A2F91C4E4A46B9F1010FB168898800
:10079000B0FBF1F002D0022A17D105E0A0EB08006F
:1007A000484304EB500003E0A0EB08004843001B63
:1007B00084B20AE051462046FFF7BAFFB0687F1CBA
:1007C000BFB280886D1C204484B200F07DF90146E0
:1007D000B068808807FB101189B2814201D30120E3
:1007E00000E000202A780AB1012100E0002108423F
:1007F000E0D1BDE8F087000048070020054A032348
:100800009268D288424390B20A4601460020FFF720
:10081000A7BF00004807002070B50D460646508A65
:10082000117D144640EA0140D18A127E41EA02411C
:100830008BB282B22946304601F00CFC0A480068AF
:10084000036B1BB1224629463046984700F042F917
:1008500084B200F039F92346BDE8704082B200212D
:10086000084601F0F7BB00004C0000202DE9FE4FC8
:10087000814603208846A0EB4207002514465EE02F
:10088000314EA8EB040A1FFA8AF1308882B209EBD4
:100890000500029080B201F0C7FB30881FFA8AF190
:1008A00082B2A9EB0500019080B201F0BDFB308857
:1008B000A8EB050A82B209EB040000901FFA8AF146
:1008C00080B201F0B1FB3088A9EB040B82B21FFAB1
:1008D0008AF11FFA8BF001F0A7FB308808EB040ABD
:1008E00082B202981FFA8AF180B201F09DFB308833
:1008F0001FFA8AF182B2019880B201F095FB30882C
:1009000008EB050A82B200981FFA8AF180B201F062
:100910008BFB30881FFA8AF182B21FFA8BF001F04C
:1009200083FB0A48B060002F03DA07EB8507BF1D81
:1009300004E0281B07EB8007641E0A376D1CA542E4
:100940009ED9BDE8FE8F000048070020500000201F
:100950002DE9F04106460F4800240F4F0068154668
:100960008846D0F820C0BCF1000F0FD0134638885D
:100970000A463146BDE8F04180B2604738884146BA
:1009800082B2301980B201F04FFB641CAC42F5D347
:10099000BDE8F0814C000020480700202DE9F0411F
:1009A00080460F4800240F4F006815460E46D0F8C9
:1009B00024C0BCF1000F0FD0134638880A464146C8
:1009C000BDE8F04180B26047388882B2301981B208
:1009D000404601F029FB641CAC42F5D3BDE8F08130
:1009E0004C000020480700202DE9F74F0F46DFF8A4
:1009F000A49090460321A1EB4806B9F8001082B0FC
:100A000089B2002415464FF6FF7AC9F8001031E08C
:100A10008DB1381981B202980AEA4502401B009054
:100A2000934680B2FFF794FF381B81B200985A4674
:100A300080B2FFF78DFF8CB1781B81B202980AEA71
:100A40004402001B0090934680B2FFF781FF7819A3
:100A500081B200985A4680B2FFF77AFF002E03DA7F
:100A600006EB8406B61D04E0601B06EB80066D1ED7
:100A70000A36641CAC42CBD9B9F80010424689B2A0
:100A8000C9F80010029805B03946BDE8F04FFFF7ED
:100A9000EDBE0000480700202DE9F0410646094858
:100AA0000F461C460188154689B201603946781CFC
:100AB00087B22A463046FFF74BFF641EA4B2F5D238
:100AC000BDE8F0814807002001480068806A0047BF
:100AD0004C00002001480068C06A00474C0000201C
:100AE00070B50D4C4FF6FF70012660600B48A0609A
:100AF0000B4D0020206068688047A0F51341253920
:100B000007D10648001F0560286880470348002673
:100B1000A060304670BD0000480700205000002053
:100B2000100000200149886070470000480700203D
:100B3000014908607047000048070020FEE7704741
:100B40008000401EFDD2704770B504460D380D463A
:100B500080B20A22FFF7FCFE201D80B20A2229463D
:100B6000FFF7F6FEA5F10D0081B20A222046FFF73D
:100B700015FF2D1DA9B22046BDE870400A22FFF7DF
:100B80000DBFFEE770B5B3F5804F05D06FF0704133
:100B900040F82210002070BD50F82240084B8E898A
:100BA0001C40D1E9003543EA05138D6889692D029F
:100BB00045EA06452B430B43234340F82230E9E73F
:100BC0000000F0CFF0B50C6850F82430114A134003
:100BD000D1E90125D1E903672A433E4332434E69F7
:100BE00032438E693243CE6932430E6A32434E6AD3
:100BF00032438E6A3243CE6A3243CE6B096B324344
:100C00000A431A43082D01D142F0400240F8242043
:100C10000020F0BD8000F0FF30B500EB820250688C
:100C20008D8900F04043D1E9000440EA04108C684B
:100C3000240244EA054420430C8A074D05EB045482
:100C400020430C7D6D0105EB046489692043084352
:100C500018435060002030BD0000F0FF90F83510C0
:100C6000022903D08021416501207047052180F8C9
:100C700035100068016821F0010101600020704713
:100C800031B500F02DF9044600F02AF90099001B57
:100C90008842F9D338BD0000F0B51B4887B0016821
:100CA00000292ED10121016018480024016841F07B
:100CB000010101600068022500F0010005904FF677
:100CC0008070CDE9000502AA03260C2782E8D00037
:100CD00069460F4800F022F84CF2B370CDE90005E8
:100CE00002AA694682E8D0000A4800F017F82020DE
:100CF000CDE9000502AA694682E8D000064800F066
:100D00000DF807B0F0BD00000800002038380240A0
:100D100000100240000C0240001802402DE9F84F7C
:100D2000DFF87CB100224FF001084FF0030A4FF0CA
:100D30000F090BF1040E00BF0B6808FA02F4234000
:100D4000A3426ED14D68022D01D0122D0ED1D508CF
:100D500000EB850CDCF820505607F70E09FA07F671
:100D6000B5430E69BE402E43CCF82060066855009E
:100D70000F790AFA05FC07F0030726EA0C06AF40D4
:100D8000374307604E68012E05D0022E03D0112E86
:100D900001D0122E0ED18668CF6826EA0C06AF402D
:100DA000374387604668A6430C79C4F30014944027
:100DB00034434460C6688C6826EA0C06AC40344371
:100DC000C4604C68E40065D5364C256845F4804520
:100DD0002560246822F0030504F480440094324C1A
:100DE0002E19D6F8084895072F0F09FA07F5AC43D6
:100DF0002E4DA84201D1002524E02D4DA84201D15D
:100E000001251FE02B4DA84201D102251AE02A4DF1
:100E1000A84201D1032515E0284DA84202D104259E
:100E200010E037E0264DA84201D105250AE0254D06
:100E3000A84201D1062505E0234DA84201D107258E
:100E400000E00825BD402543C6F80858DBF80040FF
:100E50005D464E689C43F60300D51C432C60DEF8CB
:100E6000004075464E689C43B60300D51C432C6079
:100E70000B4D08352C684E689C43F60200D51C4388
:100E80002C60074D0C352C684E689C43B60200D58B
:100E90001C432C60521C102AFFF44EAFBDE8F88FA3
:100EA000003C014044380240003001400000024054
:100EB0000004024000080240000C02400010024002
:100EC0000014024000180240001C02400069084063
:100ED00000D0012070470AB1816170470904FBE727
:100EE00001480068704700000000002002480168C7
:100EF000491C016070470000000000200B4810B53D
:100F0000016841F400710160016841F48061016091
:100F1000016841F480710160032000F075F8002041
:100F200000F006F800F018F8002010BD003C024068
:100F300010B5044607484FF47A710068B0FBF1F031
:100F400000F056FE00222146501E00F03DF8002021
:100F500010BD00000400002010B5032000F054F87C
:100F6000002211466FF00B0000F02EF8002211460F
:100F70006FF00A0000F028F8002211466FF0090017
:100F800000F022F800221146501F00F01DF8002248
:100F90001146101F00F018F800221146901E00F0B4
:100FA00013F80022BDE810401146501E00F00CB8A6
:100FB00000F01F02012191404009800000F1E02073
:100FC000C0F8001170470000F0B40E4B1B680C46CF
:100FD000C3F30223C3F10705042D00D90425191D0D
:100FE000072901D2002300E0DB1E012606FA05F1E5
:100FF000491E214099409E40761E16403143F0BC68
:1010000001F034B90CED00E0064900F00702086871
:101010004FF6FF03184040EA0220034A10430860DD
:10102000704700000CED00E00000FA052DE9F047E4
:10103000DFF8649105460F46D9F8000000F00F0173
:10104000F8B28046B94208D2014689F80010D9F8B2
:10105000000000F00F00B84274D128784F4C800790
:1010600005D52068A96820F0F000084320602878A2
:10107000C00759D049496868083901281AD00228A0
:101080001BD0032819D00968890700295ADA21687A
:1010900021F0030101432160FFF722FF6968064642
:1010A00041F28830012911D002291DD0032982463E
:1010B00027D035E009688903E7E709688901E4E793
:1010C000FFF70EFF811B514501D926E082462068BB
:1010D000C0F381000128F3D126E000BFFFF700FF35
:1010E000811B514501D918E082462068C0F3810078
:1010F0000228F3D118E000BFFFF7F2FE811B514533
:101100000BD82068C0F381000328F5D10CE000BFA4
:10111000FFF7E6FE811B514502D90320BDE8F087A9
:10112000206810F00C0FF3D1D9F80010484601F0F8
:101130000F01B94208D980F80080006800F00F0064
:10114000B84201D00120E9E72878400705D520689A
:10115000E96820F4E050084320602878000706D5AD
:101160002068296920F4604040EAC100206000F056
:1011700021F82168F02292FAA2F201F0F001B2FA0D
:1011800082F2D140064A515CC840064908600020FE
:10119000FFF7CEFE0020C1E7003C024008380240C5
:1011A000C4320008040000200148006870470000B5
:1011B0000400002030B51948006810F00C011848F0
:1011C00012D0441004290ED008290DD11349091F4B
:1011D0000A6802F03F030A68550247F6C07204D558
:1011E000B4FBF3F003E0204630BDB0FBF3F00B6836
:1011F0000968134092FAA2F2B2FA82F2D34058433D
:101200004FF4403292FAA2F201F44031B2FA82F283
:10121000D140491C4900B0FBF1F030BD0838024014
:101220000024F4002DE9F84F0546DFF8FC92007821
:10123000A9F1040BC007ABF1040449D0D9F80010A0
:101240004846C1F38101012908D00068C0F381003C
:1012500002280AD1DBF80000400206D5206880038E
:1012600036D5686800286ED032E06868B0F5803FF7
:1012700010D0B0F5A02F206810D020F4803020606E
:10128000206820F4802020606868A0B1FFF728FE65
:1012900006460CE0206840F48030F4E740F48020FB
:1012A0002060F7E7FFF71CFE801B642871D82068D8
:1012B0008003F7D50CE0FFF713FE064605E000BFFC
:1012C000FFF70EFE801B6428F0D820688003F7D457
:1012D0002878964F80074FF0010A4FF0000841D55B
:1012E000D9F80010484611F00C0F08D00068C0F380
:1012F000810002280AD1DBF80000400206D42068F1
:10130000800713D5E86801281DD10FE0E868D8B13F
:10131000C7F800A0FFF7E4FD064604E0FFF7E0FD94
:10132000801B0228C2D820688007F7D52068F822E1
:1013300092FAA2F22969B2FA82F220F0F800914002
:10134000084320600EE0ECE0C7F80080FFF7C8FD1E
:10135000064604E0FFF7C4FD801B022819D8206868
:101360008007F7D42878000724D57148696989B1C6
:10137000C0F800A0FFF7B4FD064604E0FFF7B0FD9B
:10138000801B022805D868486C3000688007F5D5B6
:1013900010E07AE0C0F80080FFF7A2FD064604E006
:1013A000FFF79EFD801B02286FD85F486C300068F5
:1013B0008007F5D42878400753D55B48383001685A
:1013C00041F080510160006800F080500090594861
:1013D000016841F480710160FFF782FD064604E078
:1013E000FFF77EFD801B02284FD852480068C005D9
:1013F000F6D54D4EA868683601280FD0052830680C
:1014000010D020F001003060306820F0040030601F
:10141000A868B8B1FFF764FD00900FE0306840F0B5
:101420000100F4E740F004003060F7E7FFF758FDF3
:101430000099411A41F2883081426AD830688007A9
:10144000F4D50EE0FFF74CFD009007E0FFF748FDF4
:101450000099411A41F2883081425AD83068800799
:10146000F4D4A869E8B3D9F80010C1F381010229C6
:1014700057D00228C7F8608003D0FFF731FD05463A
:101480004AE0FFF72DFD064605E042E0FFF728FDA4
:10149000801B02283DD820688001F7D4D5E90701D8
:1014A000084347F6C07292FAA2F2696AB2FA82F26F
:1014B0009140AA6A4FF0FF3303EB52024FF44033DE
:1014C00093FAA3F3B3FA83F39A40114308434FF01E
:1014D000706292FAA2F2E96AB2FA82F2914008438B
:1014E00000E01CE0CBF80000C7F860A0FFF7F8FCB4
:1014F000054604E0FFF7F4FC401B022809D82068E9
:101500008001F7D50BE000BFFFF7EAFC401B022883
:1015100002D90320BDE8F88F20688001F4D40020B0
:10152000F8E70120F6E700000838024000004742D3
:10153000800E4742007000407047000038B50446F6
:101540000068426881684B0605D4CB0703D0530678
:1015500001D5216C04E08B0707D5130605D5616C16
:1015600001B02046BDE83040084711F4B07F48D0B4
:10157000930646D54B060AD594F85130032B3DD03F
:10158000636D43F004036365C368836800938B064F
:1015900009D5636D43F001036365836800930368B5
:1015A00023F040030360C80506D5606D40F00800D5
:1015B0006065206880680090606D002821D02068F8
:1015C000416821F0E0014160012084F8510090075A
:1015D00018D02068416821F0030141600B4DE06C98
:1015E00018B10565E06CFFF739FBA06C002808D046
:1015F0000565A06CBDE83840FFF730BBC168806866
:10160000009038BD2046FFF797FF38BD85240008BD
:1016100070B5040005D00025A56294F8510010B102
:1016200006E0012070BD84F85050204600F030F8EC
:10163000022084F851002068016821F04001016017
:10164000D4E901010843D4E9031211430843616955
:101650000843218B01F400710843E1690843216AC2
:101660000843A16A084321680860A069042101EACF
:101670001040616A0843216848602068C16921F40C
:101680000061C1616565012084F85100002070BDD2
:1016900000B50068124987B088421ED11148002168
:1016A000026842F480420260006800F480400590C5
:1016B0000E2000900220CDE90101032003900520B7
:1016C000049069460848FFF729FB002211462420B0
:1016D000FFF77AFC2420FFF76BFC07B000BD000089
:1016E0000038004040380240002002402DE9F84F09
:1016F000044640680026984617460D464FF00409F8
:10170000B0F5827F01D1A06890B194F85000012813
:1017100019D04FF0010B84F850B0FFF7E1FB0090B7
:1017200094F851004FF0000A01280ED002267FE005
:1017300084F8519013460A462046CDF8008000F008
:1017400031F9BDE8F88F0220FBE7002D6FD0002FA4
:101750006DD084F85190C4F854A0A563A787E7879B
:10176000C4F830A0A4F834A0A4F836A0C4F840A06F
:10177000C4F844A0A0684FF40047B84204D12068E0
:10178000016821F48041016020680168490603D4A2
:10179000016841F040010160E068B8B133E02068C1
:1017A0008168C90706D0007B05F8010BE08F401E59
:1017B000E0870BE0B8F1000F23D0B8F1FF3F05D070
:1017C000FFF78EFB0099411A41451AD2E08F00289D
:1017D000E5D11BE020688168C90706D0C06825F8FC
:1017E000020BE08F401EE0870DE0B8F1000F08D03B
:1017F000B8F1FF3F07D0FFF773FB0099411A41454D
:1018000001D3032614E0E08F0028E3D16068B0F52F
:10181000827F0AD1A068B84202D0B0F5806F04D1AF
:101820002068016821F040010160606D00B101266F
:1018300084F851B084F850A0304682E72DE9F84F83
:10184000044690F850000026994617460D46012898
:101850000DD04FF0010B84F850B0FFF741FB8046EC
:1018600094F85100B246012804D0022694E00220E8
:10187000BDE8F88F002D7BD0002F79D0032084F8AD
:101880005100C4F854A02563A786E786C4F838A0A1
:10189000A4F83CA0A4F83EA0C4F844A0C4F840A01A
:1018A000A068B0F5004F04D12068016841F4804180
:1018B000016020680168490603D4016841F04001D5
:1018C0000160E068B0F5006F606804D030B3E08E6E
:1018D000012823D03EE010B1E08E01281AD135F85E
:1018E000021B206805E020688168890706D535F865
:1018F000021BC160E08E401EE0860BE0B9F1000FD4
:1019000034D0B9F1FF3F05D0FFF7EAFAA0EB0801A8
:1019100049452BD2E08E0028E5D11EE0216815F85C
:10192000010B087306E020688168890706D515F861
:10193000011B0173E08E401EE0860BE0B9F1000F41
:1019400014D0B9F1FF3F05D0FFF7CAFAA0EB0801A8
:1019500049450BD2E08E0028E5D14B4601220221F9
:101960002046CDF8008000F095FD10B1032613E06D
:1019700011E042464946204600F074FD18B10126A8
:101980002020606508E0A06818B92068C1688068F8
:101990000090606D00B1012684F851B084F850A029
:1019A000304665E72DE9F84F044690F850000026D0
:1019B0000A9F9A4693460D464FF0010801280ED023
:1019C000012084F85000FFF78BFA814694F851000B
:1019D000616801280CD0B1F5827F07D102E00220B6
:1019E000BDE8F88FA16809B9042801D00226BDE03E
:1019F00055B1BBF1000F07D0BAF1000F04D094F835
:101A00005100012802D004E00126AFE0052084F84F
:101A1000510000206065C4F838B0A4F83EA0A4F8D6
:101A20003CA02563A4F836A0A4F834A02064606428
:101A300020680168490603D4016841F04001016053
:101A4000E068B0F5006F606804D0E8B3E08E01286C
:101A50003BD06AE010B1E08E01282ED1216835F824
:101A6000020BC860E08E401EE08626E0B8F1000F51
:101A70000DD0E08E58B120688168890707D535F808
:101A8000021BC160E08E401EE0864FF00008E08F30
:101A900058B120688168C90707D0C0682BF8020BCD
:101AA000E08F401EE0874FF00108781C05D0FFF75B
:101AB00017FAA0EB0900B84246D2E08E0028D5D133
:101AC000E08F0028D2D136E0FFE7216815F8010B3E
:101AD0000873E08E401EE08627E000BFB8F1000FDB
:101AE0000DD0E08E58B120688168890707D515F8B8
:101AF000011B0173E08E401EE0864FF00008E08F6E
:101B000058B120688168C90707D0C0680BF8010B7D
:101B1000E08F401EE0874FF00108781C05D0FFF7EA
:101B2000DFF9A0EB0900B8420ED2E08E0028D5D133
:101B3000E08F0028D2D13B46012202212046CDF879
:101B4000009000F0A7FC08B103260FE04A46394692
:101B5000204600F087FC18B101262020606505E0D2
:101B6000A06818B92068C16880680090012084F8D6
:101B70005100002084F85000304631E770B515461A
:101B80000E46040003D094F8490010B107E001208C
:101B900070BD002084F84800204600F01AF804F1D7
:101BA00008012068FFF70EF83146A2682068FFF7A9
:101BB00033F8D4E901022946236BFEF7E3FFA1685D
:101BC000206850F8212042F0010240F82120002036
:101BD00070BDFFF761B84FF0E0210428086903D019
:101BE00020F004000861704740F00400FAE77047F5
:101BF00010B5401EB0F1807F01D3012010BD4FF021
:101C0000E02460610F21601700F030FB0020A0612C
:101C100007202061002010BD10B5FFF7E8FF10BDC0
:101C20007047704710B5040003D094F8390010B124
:101C300007E0012010BD002084F83800204600F0A5
:101C40000DF8022084F83900211D206800F0F6FC10
:101C5000012084F83900002010BD000008B500689C
:101C60000B49884212D10B48016841F48021016080
:101C70000068002200F48020009011461A20FFF72F
:101C8000A3F9BDE808401A20FFF792B908BD00008B
:101C90000048014044380240704770B5044600686F
:101CA00001694FF00005C943890715D4C168C943CC
:101CB000890711D4E91E016101202076206880691E
:101CC0008007204602D0FFF7E7FF04E000F0B2F8FB
:101CD000204600F034F9257620680169C943490798
:101CE00017D4C168C943490713D46FF004010161D7
:101CF000022020762068806910F4407F204602D0C0
:101D0000FFF7CAFF04E000F095F8204600F017F94D
:101D1000257620680169C943090716D4C168C943FB
:101D2000090712D46FF008010161042020762068B1
:101D3000C0698007204602D0FFF7AEFF04E000F044
:101D400079F8204600F0FBF8257620680169C94340
:101D5000C90617D4C168C943C90613D46FF010016E
:101D60000161082020762068C06910F4407F204679
:101D700002D0FFF791FF04E000F05CF8204600F08D
:101D8000DEF8257620680169C943C90708D1C16812
:101D9000C943C90704D1891E0161204600F0D0F86B
:101DA00020680169C943090609D4C168C943090605
:101DB00005D46FF0800101612046FFF731FF2068F4
:101DC0000169C943490609D4C168C943490605D414
:101DD0006FF040010161204600F0B3F8206801690E
:101DE000C94389060BD4C168C943890607D46FF07B
:101DF000200101612046BDE87040FFF712BF70BDB1
:101E000000B50068094985B088420CD18020009057
:101E10000220019000200290039003200490694664
:101E20000348FEF77BFF05B000BD000000480140FD
:101E300000140240704770B5044690F838000D4613
:101E400001280DD0012684F83860022084F839007A
:101E500042B1042A18D0082A2AD00C2A4DD139E0E0
:101E6000022070BD206800F049FC2068816941F0C3
:101E7000080181612068816921F004018161206885
:101E800081692A69114311E0206800F063FC206831
:101E9000816941F4006181612068816921F4806178
:101EA0008161206881692A6941EA0221816124E017
:101EB000206800F081FC2068C16941F00801C1611F
:101EC0002068C16921F00401C1612068C1692A69E3
:101ED000114311E0206800F09FFC2068C16941F4C3
:101EE0000061C1612068C16921F48061C16120681D
:101EF000C1692A6941EA0221C16184F83960002080
:101F000084F8380070BD10B5040003D094F839008F
:101F100010B107E0012010BD002084F838002046F1
:101F200000F00CF8022084F83900211D206800F030
:101F300085FB012084F83900002010BD70477047F0
:101F400070477047FEE700002DE9F74FDFF8D0A09B
:101F50004FF0360BAAF55A79DAF8080000252A4620
:101F60008188C488C81D04FB01F30BEB4306A9F864
:101F70000260360CA9F80460A9F80AB0A9F812109A
:101F8000A9F8145020F00703A9F816405B1AA9F825
:101F9000185003F0FF084FF0010E37E0029BC6080F
:101FA00006FB05330326B6EBD00F06D11A785E7810
:101FB000120442EA06229E7832430226B6EBD00F84
:101FC00001D11A8852BABEEBD00F00D11A78002383
:101FD00019E0661B761E06FB01370BEB4706CF1A8E
:101FE00007EB080CACF1010C0EFA0CF7174202D00B
:101FF000BAF8007001E0BAF8047009F806703F0AF8
:102000004E445B1C77708B42E3D36D1CA542C5D355
:10201000DDE9000103B0034ABDE8F04FFEF7FCBB69
:1020200048070020E0030020034B1B685B69002B7E
:1020300000D01847704700004C000020002906D04F
:10204000034A00BF30F8023B1380891EFAD1704763
:102050000000016030B4054C2468E469002C02D013
:10206000A44630BC604730BC704700004C000020E4
:1020700000B5174887B04FF0204101601549416015
:10208000002181601022C160C0E904128161C16138
:1020900013020162C0E90913C162016341638163F4
:1020A0004164042000900F20019002AB282083E8B7
:1020B00007001120CDE90501002269460448FFF719
:1020C0005DFD002801D0FEF75CFD07B000BD0000FB
:1020D00010010020040100A02DE9F041334886B032
:1020E0000024016841F020010160016801F0200135
:1020F0000591016841F080010160016801F08001F3
:102100000591016841F010010160016801F01001C2
:102110000591016841F008010160016801F00801C2
:102120000591016841F040010160016801F0400142
:102130000591016841F004010160016801F00401AA
:102140000591016841F4807101600068184F00F446
:1021500080700590002201213846FEF7BCFEDFF8B2
:1021600054804FF48046002231464046FEF7B3FECD
:102170004020CDE9000469460F480294FEF7CEFDE9
:102180000220CDE9020401250095694601953846F3
:10219000FEF7C4FD0096CDE901546946404603941C
:1021A000FEF7BCFD06B0BDE8F0810000303802400B
:1021B000002002400018024000080240104810B5FC
:1021C0000E4901604FF48271416000218160C1605D
:1021D0004FF400720161C0E905122022C0E9072115
:1021E000416281620A21C162FFF712FA002803D01E
:1021F000BDE81040FEF7C5BC10BD0000003800402F
:102200007C00002010B5174888B01549016040F2E5
:10221000A3110024C0E9011440F2CF71C1604FF452
:1022200000710161FFF7FEFC08B1FEF7AAFC0D4842
:10223000FFF769FE08B1FEF7A4FC6020CDE90004B9
:1022400002940022694607480494FFF7F4FD08B1A0
:10225000FEF797FC0348FFF7D3FD08B010BD000060
:1022600000480140D4000020FEE770470907090E2E
:10227000002806DA00F00F0000F1E02080F8141DBD
:10228000704700F1E02080F80014704770470000AC
:1022900008B54FF47A73022269460648FFF726FA1A
:1022A0009DF801009DF8001000EB0120C0F3CC0068
:1022B00008BD00007C000020F0B595B00024482146
:1022C0006846FDF784FF464E6D4613A912A800F03C
:1022D000CBFA129845F8240005EB84011398486264
:1022E000641CE4B240213046FEF7F0FD08B9092C29
:1022F000EBD3092C71D1DDE90001084402990324D4
:10230000084490FBF4F5DDE903010844059908440D
:1023100090FBF4F7DDE9060108440899084490FBB6
:10232000F4F6E81BBA1B711B002800DC4042002AAF
:1023300000DC5242002900DC4942022803DD022A67
:1023400001DD022949DC274B904205DA814201DA9E
:10235000A81904E0E81902E09142F9DBB81900EB92
:10236000D07040081880DDE9090108440B99084441
:1023700090FBF4F5DDE90C0108440E99084490FB4C
:10238000F4F6DDE90F0108441199084490FBF4F4D8
:10239000A81B311B621B002800DC4042002900DC26
:1023A0004942002A00DC5242022803DD022901DDF5
:1023B000022A12DC884205DA824201DA281904E096
:1023C000A81902E08A42F9DB301900EBD07040080E
:1023D0005880044815B0F0BDFFE70020FAE7000080
:1023E000000802406800002070B50C4D0022012159
:1023F0002846FEF770FD0120FEF7A2FB902000F0BA
:10240000A9FA0120FEF79CFBFFF742FF04460122D8
:1024100011462846FEF75FFD204670BD00200240B1
:1024200070B50C4D002201212846FEF754FD012015
:10243000FEF786FBD02000F08DFA0120FEF780FB2E
:10244000FFF726FF0446012211462846FEF743FD0A
:10245000204670BD002002400148FFF76FB8000021
:102460007C00002038B50B460092044600228021F3
:1024700000F010F8002804D0606D40F02000606586
:10248000032038BD10B5806B0021C187C186FFF7DE
:1024900053F810BD2DE9F0411D4617460E4604467F
:1024A000DDF8188035E0681C33D02DB1FEF718FD3B
:1024B000A0EB0800A8422CD32068416821F0E0017D
:1024C00041606068B0F5827F0BD1A068B0F5004F25
:1024D00002D0B0F5806F04D12068016821F040017E
:1024E0000160A06AB0F5005F0AD1206801684DF66E
:1024F000FF72114001602068016841F400510160E1
:10250000012084F85100002084F850000320BDE829
:10251000F0812068806836EA000004D00020B842CC
:10252000C1D10020F3E70120F9E7704710B5FEF7AD
:10253000DDFCBDE81040FFF76FBB000030B525485B
:1025400093B00025016841F080510160006800F0FF
:10255000805011902048016841F48041016000687A
:10256000022400F480401190012003901020049078
:10257000009406940820CDE90750A820CDE909046D
:1025800004200B906846FEF74DFE00B1FEE70CA953
:102590000F2081E831004FF4A0500F904FF480508D
:1025A000109005210CA8FEF741FD00B1FEE7FEF7F3
:1025B000FBFD4FF47A71B0FBF1F0FFF719FB04203B
:1025C000FFF709FB00221146501EFEF7FDFC13B079
:1025D00030BD0000403802400070004010480168E3
:1025E00041F4700101600F48016841F00101016090
:1025F0000C4A00210832116002680B4B1A4002603D
:10260000031D0A4A1A60026822F48022026005480B
:102610000C3001600249580680390860704700009C
:1026200088ED00E000380240FFFFF6FE1030002485
:102630000148FFF732BB0000D4000020F0B502686B
:10264000234B244D244E254F254C4FF0804C98426F
:1026500009D0604507D0A84205D0B04203D0B842A7
:1026600001D0A04204D122F0700E4A6842EA0E0264
:1026700098421BD0604519D0A84217D0B04215D05F
:10268000B84213D0A04211D0164DA8420ED0164D1C
:10269000A8420BD0154DA84208D0154DA84205D030
:1026A000144DA84202D0144DA84203D122F4407523
:1026B000CA682A4302608A68C2620A6882629842D3
:1026C00001D0A04201D10969016301214161F0BD3E
:1026D000000001400004004000080040000C0040E1
:1026E0000004014000400140004401400048014016
:1026F00000180040001C00400020004030B5026A75
:1027000022F001020262026A436884690D6824F0C3
:102710007304254322F002048A6822430B4CA04232
:1027200002D00B4CA0420BD122F00804CA6823F45B
:10273000407322434C6922F004021C438B692343FB
:102740004360856149684163026230BD0000014019
:102750000004014030B5026A22F010020262026AEF
:10276000436884690D6824F4E64444EA05248D68CE
:1027700022F0200242EA05120D4DA84202D00D4D72
:10278000A8420ED1CD6822F0800242EA05124D69BE
:1027900023F4406343EA85038D6922F0400243EA53
:1027A00085034360846149688163026230BD000033
:1027B000000001400004014030B5026A22F480723A
:1027C0000262036A4268C46923F4007324F073054B
:1027D0000C682C438D6843EA05230D4DA84202D0B6
:1027E0000C4DA8420ED1CD6823F4006343EA0523C3
:1027F0004D6922F4405242EA05128D6923F4806348
:1028000042EA05124260C4614968C163036230BD97
:10281000000001400004014030B5026A22F48052F9
:102820000262046A4268C3690D6823F4E64343EA1E
:1028300005238D6824F4005444EA0534084DA84269
:1028400002D0084DA84204D14D6922F4804242EAE8
:1028500085124260C36149680164046230BD0000B2
:10286000000001400004014070B50D460646FFF728
:10287000BBFD04460120FEF763F9FFF7D1FD34608C
:10288000286070BD70B51F4D00244FF6FF761E48BE
:10289000FEF748F93046FDF71DFF1F20FEF748F907
:1028A0001AA10120FDF7AAFF2248FEF73BF922A159
:1028B0000520FDF7A3FFC820FEF7E2F905EB840031
:1028C000418835F82400FEF73FF900BFFFF7F4FC1C
:1028D0000028FBD01D49028821F8242001EB840147
:1028E000641C4088E4B24880032CD0D3174A1749AF
:1028F000383A044800F038FCBDE870400020FDF78D
:10290000E9BE00006C00002058000020202020209C
:1029100020202020546F7563682063726F73736882
:1029200061697220746F2063616C696272617465A1
:1029300000000000500000202020205761766573C1
:1029400068617265204C434400000000900700203D
:10295000FEE7000001B54FF47A7301226946024890
:10296000FEF76CFF08BD00007C00002002E008C8F4
:10297000121F08C1002AFAD170477047002001E0F9
:1029800001C1121F002AFBD1704700002DE9F04160
:102990009FED321B14462DED028B0D4692ED0C0B74
:1029A0000746012653EC112B51EC100BFDF7DAFD15
:1029B0004ED06888FDF7AFFD94ED021B53EC112B50
:1029C000FDF7B7FC41EC180B2888FDF7A4FD94ED4A
:1029D000001B53EC112BFDF7ACFC53EC182BFDF74F
:1029E00001FC94ED041B53EC112BFDF7FBFB94ED64
:1029F0000C1B53EC112BFDF70EFDFDF799FD3880F4
:102A00006888FDF788FD94ED081B53EC112BFDF74A
:102A100090FC41EC180B2888FDF77DFD94ED061B1A
:102A200053EC112BFDF785FC53EC182BFDF7DAFB6B
:102A300094ED0A1B53EC112BFDF7D4FB94ED0C1B0A
:102A400053EC112BFDF7E7FCFDF772FD788000E0F9
:102A50000026BDEC028B3046BDE8F081000000008E
:102A60000000000030B5054600214FF496340846BA
:102A700000F0EAF92220E1040880034800E0058024
:102A8000641EFCD230BD00000000016000B50021D2
:102A9000102000F010FA0021112000F00CFA0021A3
:102AA000122000F008FA0021132000F004FA00219F
:102AB000292000F000FA002107205DF804EB00F067
:102AC000FAB900B50021102000F0F5F9002111201D
:102AD00000F0F1F90021122000F0EDF9002113209F
:102AE00000F0E9F941F2B071102000F0E4F940F291
:102AF0003711112000F0DFF940F23911122000F0F7
:102B0000DAF94FF4E851132000F0D5F91321292008
:102B100000F0D1F940F2731107205DF804EB00F0EA
:102B2000CAB9F0B5064650880D46918840EA014181
:102B30005089938940EA0340091A4C08171841F25A
:102B40003801032000F0B7F92946304600F07CF93F
:102B50004FF0C0412220088061003846FFF76EFA2E
:102B6000BDE8F04041F22801032000F0A4B90000C4
:102B700070B51D460B46064600241146184600F067
:102B800063F94FF0C04122200880074804E000BFED
:102B900020F81460641CA4B2AC42F9D36900BDE80B
:102BA00070400148FFF74ABA6001002030B502FBCF
:102BB00003F4039D00F048F94FF0C0412220088043
:102BC00061002846BDE83040FFF738BA2DE9F041F2
:102BD000884606461D46174600244FF481510320BF
:102BE00000F069F93946404600F02EF94FF0C04137
:102BF00022200880094803E020F81460641CA4B275
:102C0000AC42F9D369000548FFF718FABDE8F04176
:102C100041F22801032000F04EB9000060010020BD
:102C2000F02070474FF4A070704770B5012100206C
:102C300000F041F94FF48071012000F03CF94FF4AD
:102C4000E061022000F037F941F21801032000F0A2
:102C500032F90021042000F02EF940F20221082070
:102C600000F029F90021092000F025F900210A20AF
:102C700000F021F900210C2000F01DF900210D20A9
:102C800000F019F900210F2000F015F900211020A3
:102C900000F011F90021112000F00DF9002112209F
:102CA00000F009F90021132000F005F941F2B0719C
:102CB000102000F000F940F23711112000F0FBF86D
:102CC00040F23911122000F0F6F84FF4E8511320C9
:102CD00000F0F1F81321292000F0EDF80021202068
:102CE00000F0E9F80021212000F0E5F8072130206C
:102CF00000F0E1F840F20231312000F0DCF840F25F
:102D000005142146322000F0D6F840F20625294667
:102D1000352000F0D0F840F608063146362000F0A5
:102D2000CAF82946372000F0C6F840F2045138208E
:102D300000F0C1F80721392000F0BDF821463C2001
:102D400000F0B9F831463D2000F0B5F83220FDF72B
:102D500097FF0021502000F0AEF8EF21512000F045
:102D6000AAF80021522000F0A6F840F23F115320AB
:102D700000F0A1F84FF42741602000F09CF80121F9
:102D8000612000F098F800216A2000F094F80021FA
:102D9000802000F090F80021812000F08CF80021C4
:102DA000822000F088F80021832000F084F80021C0
:102DB000842000F080F80021852000F07CF81021AC
:102DC000902000F078F80021922000F074F80321A0
:102DD000932000F070F84FF48871952000F06BF8A4
:102DE0000021972000F067F80021982000F063F898
:102DF00041F22801032000F05EF840F27311072031
:102E000000F059F80021084600F01EF8222029079A
:102E1000088070BD002000F00FB8000000B500F081
:102E200013F84FF0C0412220088002480188008832
:102E300000BD0000000001604FF0C0410880014863
:102E4000008870470000016010B50446C1F1EF0032
:102E500081B2202000F02FF82146BDE8104021204B
:102E600000F029B870B50546C1F1F0000C46C01A53
:102E700081B21646502000F01EF8C4F1EF0081B276
:102E8000512000F018F82946522000F014F8A81933
:102E9000BDE87040401E81B2532000F00CB807B569
:102EA000FFF7D2FF4FF0C04122200880022102A884
:102EB000FFF7C4F80EBD03B54FF0C04108800221F2
:102EC00001A8FFF7BBF80CBDFEF718F8FFF736FBBB
:102ED000FFF702F9FFF7CCF8FFF794F9FFF76EF967
:102EE00000224FF480418E48FDF7F5FFFDF7F8FD15
:102EF000FDF730FCFFF7C6FC4FF6FF70FDF7EAFB6D
:102F00008848FDF70FFE0020FDF712FE0521032380
:102F100085A20846FDF724FC032389A2142105207D
:102F2000FDF71EFC4FF478452846FDF701FE1E23F1
:102F30001A46C8210520FDF7AFFD1F20FDF7F8FD5B
:102F40001E231A46C8212820FDF7A6FD4FF4FC6871
:102F50004046FDF7EDFD1E231A46C8214B20FDF724
:102F60009BFD0020FDF7E4FD1E231A46C8216E20BC
:102F7000FDF792FD4FF61F094846FDF7D9FD1E23C8
:102F80001A46C8219120FDF787FD4FF6205A50467A
:102F9000FDF7CEFD1E231A46C821B420FDF77CFDA7
:102FA00040F2FF7B5846FDF7C3FD1E231A46C82199
:102FB000D720FDF771FD4FF6E070FDF7B9FD1E2338
:102FC0001A46C821FA20FDF767FD0020FDF7B0FD85
:102FD0006148FDF7A7FD4322CD214FF49170FDF725
:102FE000A7FB4FF4A0742246C4210020FDF7B0FCDB
:102FF0002322C6210120FDF7D1FC2322C621252052
:10300000FDF7CCFC2322C6214820FDF7C7FC232274
:10301000C6216B20FDF7C2FC2322C6218E20FDF7BE
:10302000BDFC2322C621B120FDF7B8FC2322C62116
:10303000D420FDF7B3FC2322C621F720FDF7AEFC18
:103040002322C6214FF48D70FDF7A8FC2322C62150
:10305000E01EFDF7A3FC2246E8210120FDF778FCE5
:103060003E4C4FF49E7600BFFFF726F901463C4ADE
:103070003A48FFF78BFC6188881EBC2807D220885D
:10308000821EB242F0D20222FDF7AEFCECE7BE395E
:103090002829E9D82088B42803D3D22801D850465B
:1030A0002AE0D72803D3F52801D8584624E0FA2887
:1030B00005D3B0F58C7F02D84FF6E0701CE00528F0
:1030C00003D3232801D8284616E0282803D346280E
:1030D00001D81F2010E04B2803D3692801D84046AF
:1030E0000AE06E2803D38C2801D8002004E0912840
:1030F00005D3AF2803D84846FDF71AFDB4E7B0F56D
:103100008E7FB1D9B042AFD21648FDF70BFD002734
:103110003846FDF7F7FA7F1CBFB2182FF8D3A3E7A4
:103120000018024058000020546F756368205061F9
:103130006E656C205061696E7420202000000000D4
:103140004578616D706C6520202020202020202093
:1031500020202020000000005000002078000020E7
:1031600058070020600000202DE9F0470C46054676
:10317000088809891646421AE388608901271B1AC4
:103180005A43A388C91A6388181A01FB0020FDF767
:10319000B1F941EC100B86ED0C0B9FED481B53EC85
:1031A000112BFDF7DFF901D1002783E02888298959
:1031B000E388421A60891B1A5A43AB88C91A63888C
:1031C000181A01FB0020FDF795F9C6E900012188D6
:1031D0002089AB880A1A29895B1A5A432B88C91A95
:1031E000A388181A01FB0020FDF784F9C6E9020143
:1031F0002389AA88A188B5F8088003FB02F001FBA7
:10320000180C608891460CFB00FC208800FB08F23B
:10321000B5F8008003FB182201FB08F1E38800FBEE
:10322000191002FB03C3618900FB0130FDF762F94D
:10323000C6E9040169886889E3880A1A61895B1A0A
:103240005A43EB88C01A6388591A00FB0120FDF726
:1032500051F9C6E9060121882089EB880A1A698993
:103260005B1A5A436B88C91AA388181A01FB0020FD
:10327000FDF740F9C6E908012289B5F80680A18862
:103280006B8902FB08F001FB130C60886D880CFB56
:1032900000FC20886943434302FB1532E38800FBAE
:1032A000181002FB03C2618900FB0120FDF722F91F
:1032B000C6E90A013846BDE8F087000000000000BA
:1032C00000000000000000000102030401020304EA
:1032D00006070809000000000000000000000000D0
:1032E00000000000000000000000000000000000DE
:1032F00000000000000000000000000000000000CE
:1033000000000000000000000000000000000000BD
:1033100000000000000000000000000000000000AD
:10332000000003800003800003800003800003800E
:103330000003800003800003800003800001000080
:103340000100000000000000000380000380000076
:10335000000000000000000000000000000000006D
:10336000000000000000000000000000000E7000DF
:103370000E70000E700004200004200004200004E1
:10338000200000000000000000000000000000001D
:10339000000000000000000000000000000000002D
:1033A000000000000000000000000000000000001D
:1033B000000006600006600006600006600006600F
:1033C000003FF8003FF8000660000CC0003FF80026
:1033D0003FF8000CC0000CC0000CC0000CC0000C7A
:1033E000C00000000000000000000000000000001D
:1033F0000000000000000001800001800007B00014
:103400000FF0001870001870001C00000F800007FB
:10341000E00000F0001830001C30001C70001FE0BD
:10342000001BC000018000018000018000018000BD
:10343000000000000000000000000000000000008C
:1034400000000780000FC0001CE00018600018603A
:10345000001CE0000FF80007E0001FF00007380034
:1034600006180006180007380003F00001E000000D
:10347000000000000000000000000000000000004C
:10348000000000000000000000000000000000003C
:1034900003F00007F0000C60000C00000C000006B8
:1034A00000000700000F9C001DFC0018F0001870C1
:1034B000000FFC0007DC000000000000000000001E
:1034C00000000000000000000000000000000000FC
:1034D0000000000000038000038000038000010062
:1034E00000010000010000010000000000000000D9
:1034F00000000000000000000000000000000000CC
:1035000000000000000000000000000000000000BB
:10351000000000000000000000000018000038005B
:1035200000700000F00000E00000E00001C00001B9
:10353000C00001C00001C00001C00001C00000E0E7
:103540000000E0000070000070000038000018006B
:10355000000000000000000000000000000000006B
:1035600000001800001C00000E00000E0000070004
:103570000007000003800003800003800003800038
:103580000380000380000700000700000F00000E0A
:1035900000001C00001800000000000000000000F7
:1035A0000000000000000000000001800001800019
:1035B0000180001DB8001FF80007E00003C00003F1
:1035C000C00006600006600000000000000000006F
:1035D00000000000000000000000000000000000EB
:1035E00000000000000000000000000000000000DB
:1035F0000000000000000000018000018000018048
:10360000000180000180003FFC003FFC00018000C1
:1036100001800001800001800001800000000000A6
:10362000000000000000000000000000000000009A
:10363000000000000000000000000000000000008A
:10364000000000000000000000000000000000007A
:10365000000000000000000000000000000000E08A
:103660000000C00001C000018000018000030000D4
:103670000300000000000000000000000000000047
:10368000000000000000000000000000000000003A
:10369000000000000000001FF8001FF800000000FC
:1036A000000000000000000000000000000000001A
:1036B000000000000000000000000000000000000A
:1036C00000000000000000000000000000000000FA
:1036D00000000000000000000000000000000000EA
:1036E000000000000000000000000000000003C017
:1036F0000003C00003C00000000000000000000044
:1037000000000000000000000000000000180000A1
:1037100018000038000030000070000060000060F9
:103720000000C00000C00001800001800003000014
:103730000300000600000600000E00000C00001C44
:103740000000180000180000000000000000000049
:103750000000000000000000000003C00007E000BF
:103760000C30000C30001818001818001818001839
:1037700018001818001818001818000C30000C3029
:103780000007E00003C0000000000000000000008F
:103790000000000000000000000000000000000029
:1037A00000000080000780001F80001D8000018055
:1037B0000001800001800001800001800001800084
:1037C0000180000180000180001FF8001FF8000048
:1037D00000000000000000000000000000000000E9
:1037E0000000000000000000000007C0001FF00003
:1037F0003830003018003018000018000030000089
:10380000600001C0000380000600000C00001800EA
:10381000003FF8003FF8000000000000000000003A
:103820000000000000000000000000000000000098
:10383000000003C0000FE0000C70000030000030FA
:103840000000600003C00003E000007000001800EA
:103850000018000018001838001FF0000FC000000A
:103860000000000000000000000000000000000058
:103870000000000000000000000000E00001E00087
:1038800001E0000360000660000660000C60000CB0
:1038900060001860003060003FF8003FF8000060F2
:1038A0000003F80003F80000000000000000000022
:1038B0000000000000000000000000000000000008
:1038C00000001FF0001FF000180000180000180092
:1038D000001BC0001FF0001C300000180000180082
:1038E0000018000018003030003FF0000FC000004A
:1038F00000000000000000000000000000000000C8
:103900000000000000000000000000F80003F800C4
:103910000700000E00000C00001800001BC0001F74
:10392000F0001C30001818001818001818000C3887
:10393000000FF00003E000000000000000000000A5
:103940000000000000000000000000000000000077
:1039500000001FF8001FF800181800183800003089
:103960000000300000700000600000600000E00017
:1039700000C00000C00001C0000180000180000004
:103980000000000000000000000000000000000037
:103990000000000000000000000007E0000FF00041
:1039A0001C38001818001818000C300007E0000739
:1039B000E0000C30001818001818001818001C3807
:1039C000000FF00007E00000000000000000000011
:1039D00000000000000000000000000000000000E7
:1039E000000007C0000FF0001C3000181800181865
:1039F000001818000C38000FF80003D80000180059
:103A000000300000700000E0001FC0001F00000038
:103A100000000000000000000000000000000000A6
:103A20000000000000000000000000000000000096
:103A300000000000000003C00003C00003C000003D
:103A4000000000000000000000000000000003C0B3
:103A50000003C00003C000000000000000000000E0
:103A60000000000000000000000000000000000056
:103A7000000000000000000000000000000000F056
:103A80000000F00000F00000000000000000000056
:103A900000000000E00001C0000180000180000380
:103AA0000000020000000000000000000000000014
:103AB0000000000000000000000000000000000006
:103AC000001C00003C0000F00003C0000F00003CA0
:103AD0000000F000003C00000F000003C00000F0F8
:103AE00000003C00001C000000000000000000007E
:103AF00000000000000000000000000000000000C6
:103B000000000000000000000000000000000000B5
:103B1000007FFC007FFC000000000000007FFC0034
:103B20007FFC00000000000000000000000000001A
:103B30000000000000000000000000000000000085
:103B40000000000000000000000000000000000075
:103B50007000007800001E000007800001E00000F7
:103B60007800001E0000780001E0000780001E00C1
:103B7000007800007000000000000000000000005D
:103B80000000000000000000000000000000000035
:103B9000000000000007C0000FE00018700018309F
:103BA0000018300000700000E00003C00003800037
:103BB00003000000000000000007000007000000F4
:103BC00000000000000000000000000000000000F5
:103BD0000000000000000000000003E00007F0000B
:103BE0000E38000C180018780018F80019D80019C1
:103BF000980019980019980018F800187800180013
:103C0000000C00000E180007F80003E000000000A0
:103C100000000000000000000000000000000000A4
:103C200000000000001F80001FC00001C0000360F2
:103C3000000360000630000630000C30000FF80072
:103C40001FF800180C00300C00FC7F00FC7F000007
:103C50000000000000000000000000000000000064
:103C6000000000000000000000000000007FE000F5
:103C70007FF0001838001818001818001838001FB6
:103C8000F0001FF800181C00180C00180C00180C8D
:103C9000007FF8007FF0000000000000000000003E
:103CA0000000000000000000000000000000000014
:103CB000000000000003EC000FFC001C1C00180CAE
:103CC00000300C00300000300000300000300000F8
:103CD000300000180C001C1C000FF80003F000005E
:103CE00000000000000000000000000000000000D4
:103CF000000000000000000000000000007FC00085
:103D00007FF000183800181800180C00180C001864
:103D10000C00180C00180C00180C001818001838AB
:103D2000007FF0007FE000000000000000000000C5
:103D30000000000000000000000000000000000083
:103D400000000000007FF8007FF800181800181825
:103D5000001998001980001F80001F800019800042
:103D60001998001818001818007FF8007FF8000054
:103D70000000000000000000000000000000000043
:103D8000000000000000000000000000003FFC00F8
:103D90003FFC000C0C000C0C000CCC000CC0000F05
:103DA000C0000FC0000CC0000CC0000C00000C00D4
:103DB000003FC0003FC00000000000000000000005
:103DC00000000000000000000000000000000000F3
:103DD000000000000003EC000FFC001C1C00180C8D
:103DE00000300C0030000030000030FE0030FE00DB
:103DF000300C00380C001C1C000FFC0003F000000D
:103E000000000000000000000000000000000000B2
:103E1000000000000000000000000000007E7E00A6
:103E20007E7E001818001818001818001818001FB7
:103E3000F8001FF8001818001818001818001818B3
:103E4000007E7E007E7E000000000000000000007A
:103E50000000000000000000000000000000000062
:103E600000000000001FF8001FF800018000018022
:103E700000018000018000018000018000018000BD
:103E80000180000180000180001FF8001FF8000081
:103E90000000000000000000000000000000000022
:103EA0000000000000000000000000000007FE000D
:103EB00007FE00003000003000003000003000003D
:103EC00030003030003030003030003030003060B2
:103ED000003FE0000F800000000000000000000034
:103EE00000000000000000000000000000000000D2
:103EF00000000000007F3E007F3E00183000186088
:103F00000018C0001980001B80001FC0001CE000CA
:103F10001870001830001838007F1F007F1F000045
:103F20000000000000000000000000000000000091
:103F3000000000000000000000000000007F800082
:103F40007F80000C00000C00000C00000C00000C36
:103F500000000C00000C0C000C0C000C0C000C0CF5
:103F6000007FFC007FFC000000000000000000005B
:103F70000000000000000000000000000000000041
:103F80000000000000F00F00F81F00381C003C3C4F
:103F9000003C3C00366C00366C0033CC0033CC0067
:103FA000318C00300C00300C00FE7F00FE7F0000E2
:103FB0000000000000000000000000000000000001
:103FC0000000000000000000000000000078FE007B
:103FD00078FE001C18001E18001F18001B18001B7C
:103FE000980019D80018D80018F800187800183868
:103FF000007F18007F180000000000000000000093
:1040000000000000000000000000000000000000B0
:10401000000000000003C0000FF0001C380018185A
:1040200000381C00300C00300C00300C00300C004C
:10403000381C001818001C38000FF00003C00000E6
:104040000000000000000000000000000000000070
:10405000000000000000000000000000003FF00031
:104060003FF8000C1C000C0C000C0C000C0C000C9D
:1040700018000FF8000FE0000C00000C00000C000E
:10408000003FC0003FC00000000000000000000032
:104090000000000000000000000000000000000020
:1040A000000000000003C0000FF0001C38001818CA
:1040B00000381C00300C00300C00300C00300C00BC
:1040C000381C001818001C38000FF00007C000074B
:1040D000CC000FFC000C38000000000000000000C5
:1040E000000000000000000000000000007FE00071
:1040F0007FF0001838001818001818001838001F32
:10410000F0001FC00018E0001870001830001838C8
:10411000007F1E007F0E0000000000000000000075
:10412000000000000000000000000000000000008F
:10413000000000000007D8000FF8001C3800181815
:10414000001818001E00000FC00003F000007800E7
:104150001818001818001C38001FF0001BE00000A1
:10416000000000000000000000000000000000004F
:10417000000000000000000000000000003FFC0004
:104180003FFC00318C00318C00318C00318C0001FF
:10419000800001800001800001800001800001801A
:1041A000000FF0000FF00000000000000000000011
:1041B00000000000000000000000000000000000FF
:1041C00000000000007E7E007E7E00181800181897
:1041D00000181800181800181800181800181800EF
:1041E0001818001818000C30000FF00003C0000071
:1041F00000000000000000000000000000000000BF
:10420000000000000000000000000000007F7F00B0
:104210007F7F00180C000C18000C18000C1800060A
:10422000300006300003600003600003600001C03E
:104230000001C0000080000000000000000000003D
:10424000000000000000000000000000000000006E
:104250000000000000FE3F80FE3F80300600300678
:104260000030860019CC0019CC001B6C001B6C00C0
:104270001E7C000E38000E38000C18000C180000D0
:10428000000000000000000000000000000000002E
:10429000000000000000000000000000007E7E0022
:1042A0007E7E001818000C300006600003C000017C
:1042B000800001800003C0000660000C3000181868
:1042C000007E7E007E7E00000000000000000000F6
:1042D00000000000000000000000000000000000DE
:1042E00000000000007C7E007C7E001818000C306E
:1042F0000006600006600003C0000180000180002D
:104300000180000180000180000FF0000FF000002C
:10431000000000000000000000000000000000009D
:10432000000000000000000000000000001FF80076
:104330001FF80018180018300018600018C000019D
:1043400080000300000618000C1800181800301830
:10435000003FF8003FF800000000000000000000EF
:10436000000000000000000000000000000000004D
:10437000000001F00001F0000180000180000180D8
:1043800000018000018000018000018000018000A8
:104390000180000180000180000180000180000197
:1043A000800001F00001F0000000000000000000AB
:1043B000000000001800001800001C00000C0000A5
:1043C0000E000006000006000003000003000001CC
:1043D000800001800000C00000C00000600000609C
:1043E00000007000003000003800001800001800C5
:1043F00000000000000000000000000000000000BD
:1044000000000F80000F800001800001800001800B
:104410000001800001800001800001800001800017
:104420000180000180000180000180000180000106
:1044300080000F80000F80000000000000000000DE
:104440000000000000000000800001C00003E00048
:104450000770000630000C1800180C001004000053
:10446000000000000000000000000000000000004C
:10447000000000000000000000000000000000003C
:10448000000000000000000000000000000000002C
:10449000000000000000000000000000000000001C
:1044A000000000000000000000000000000000000C
:1044B00000000000000000000000000000000000FC
:1044C0000000000000000000000000000000FFFFEE
:1044D00000FFFF0000000003000003800000E00078
:1044E000006000000000000000000000000000006C
:1044F00000000000000000000000000000000000BC
:1045000000000000000000000000000000000000AB
:10451000000000000000000000000000000000009B
:1045200000000000000000000000000000000FC0BC
:10453000001FE00000300000300007F0001FF00016
:104540003830003030003070001FFC000FBC00001D
:10455000000000000000000000000000000000005B
:10456000000000000000000000007800007800005B
:104570001800001800001BE0001FF8001C180018AD
:104580000C00180C00180C00180C00180C001C185B
:10459000007FF8007BE00000000000000000000049
:1045A000000000000000000000000000000000000B
:1045B000000000000000000000000000000003EC0C
:1045C000000FFC001C1C00380C00300C00300000F8
:1045D000300000380C001C1C000FF80003F0000035
:1045E00000000000000000000000000000000000CB
:1045F00000000000000000000000007800007800CB
:1046000000180000180007D8001FF8001838003004
:104610001800301800301800301800301800183812
:10462000001FFE0007DE0000000000000000000088
:10463000000000000000000000000000000000007A
:10464000000000000000000000000000000007E083
:10465000001FF800181800300C003FFC003FFC0061
:10466000300000300000180C001FFC0007F00000B4
:10467000000000000000000000000000000000003A
:104680000000000000000000000001FC0003FC002E
:104690000600000600003FF8003FF8000600000694
:1046A00000000600000600000600000600000600EC
:1046B000003FF0003FF0000000000000000000009C
:1046C00000000000000000000000000000000000EA
:1046D000000000000000000000000000000007DEF5
:1046E000001FFE0018380030180030180030180085
:1046F0003018003018001838001FF80007D80000E4
:1047000018000018000038000FF0000FC000000073
:1047100000000000000000000000780000780000A9
:104720001800001800001BE0001FF0001C380018E3
:104730001800181800181800181800181800181871
:10474000007E7E007E7E0000000000000000000071
:104750000000000000000000000000000000000059
:1047600000000180000180000000000000001F80A8
:10477000001F800001800001800001800001800096
:104780000180000180000180003FFC003FFC000030
:104790000000000000000000000000000000000019
:1047A0000000000000000000000000C00000C00089
:1047B0000000000000001FF0001FF00000300000AB
:1047C00030000030000030000030000030000030C9
:1047D00000003000003000003000003000007000A9
:1047E0001FE0001F8000000000000000000000002B
:1047F00000003C00003C00000C00000C00000CF825
:10480000000CF8000CC0000D80000F80000F0000AD
:104810000F80000DC0000CE0003C7C003C7C0000E0
:104820000000000000000000000000000000000088
:10483000000000000000000000001F80001F80003A
:1048400001800001800001800001800001800001E2
:104850008000018000018000018000018000018053
:10486000003FFC003FFC00000000000000000000D2
:104870000000000000000000000000000000000038
:104880000000000000000000000000000000F778B9
:1048900000FFFC0039CC00318C00318C00318C00E1
:1048A000318C00318C00318C00FDEF00FDEF0000F9
:1048B00000000000000000000000000000000000F8
:1048C00000000000000000000000000000000000E8
:1048D0000000000000007BE0007FF0001C380018A2
:1048E00018001818001818001818001818001818C0
:1048F000007E7E007E7E00000000000000000000C0
:1049000000000000000000000000000000000000A7
:10491000000000000000000000000000000003C0D4
:10492000000FF0001C3800381C00300C00300C0068
:10493000300C00381C001C38000FF00003C00000D1
:104940000000000000000000000000000000000067
:104950000000000000000000000000000000000057
:104960000000000000007BE0007FF8001C18001829
:104970000C00180C00180C00180C00180C001C1867
:10498000001FF8001BE000180000180000180000CD
:104990007F00007F00000000000000000000000019
:1049A000000000000000000000000000000007DE22
:1049B000001FFE00183800301800301800301800B2
:1049C0003018003018001838001FF80007D8000011
:1049D000180000180000180000FE0000FE00000093
:1049E00000000000000000000000000000000000C7
:1049F0000000000000003E78003EFC0007CC0007ED
:104A00000000060000060000060000060000060088
:104A1000003FF0003FF00000000000000000000038
:104A20000000000000000000000000000000000086
:104A3000000000000000000000000000000007F877
:104A4000000FF8001818001818001F80000FF00061
:104A500000F8001818001838001FF0001FE00000D0
:104A60000000000000000000000000000000000046
:104A7000000000000000000000000C00000C00001E
:104A80000C00000C00003FF0003FF0000C00000C98
:104A900000000C00000C00000C00000C00000C1CBE
:104AA0000007FC0003F00000000000000000000010
:104AB00000000000000000000000000000000000F6
:104AC00000000000000000000000000000007878F6
:104AD0000078780018180018180018180018180026
:104AE0001818001818001838000FFE0007DE000024
:104AF00000000000000000000000000000000000B6
:104B000000000000000000000000000000000000A5
:104B10000000000000007C3E007C3E0018180018D9
:104B200018000C30000C300006600006600007E042
:104B30000003C00003C000000000000000000000EF
:104B40000000000000000000000000000000000065
:104B50000000000000000000000000000000783CA1
:104B600000783C003118003398003398001AB000E8
:104B70001EF0001EF0001C60000C60000C600000C5
:104B80000000000000000000000000000000000025
:104B90000000000000000000000000000000000015
:104BA0000000000000003E7C003E7C000C3000064F
:104BB000600003C00001800003C0000660000C30EC
:104BC000003E7C003E7C0000000000000000000071
:104BD00000000000000000000000000000000000D5
:104BE00000000000000000000000000000007E1F28
:104BF000007E1F00180C000C18000C180006300076
:104C000006300003600003E00001C00000C00001A6
:104C100080000180000300003FC0003FC000000092
:104C20000000000000000000000000000000000084
:104C30000000000000001FF8001FF80018300018E6
:104C4000600000C0000180000300000618000C187E
:104C5000001FF8001FF80000000000000000000026
:104C60000000000000000000000000000000000044
:104C7000000000E00001E0000180000180000180F0
:104C80000001800001800001800003800007000017
:104C9000038000018000018000018000018000018C
:104CA000800001E00000E0000000000000000000C3
:104CB00000000000000000000000018000018000F2
:104CC000018000018000018000018000018000015E
:104CD00080000180000180000180000180000180CF
:104CE000000180000180000180000180000180003F
:104CF00000000000000000000000000000000000B4
:104D00000000070000078000018000018000018092
:104D10000001800001800001800001C00000E0006F
:104D200001C00001800001800001800001800001BD
:104D30008000078000070000000000000000000065
:104D40000000000000000000000000000000000063
:104D50000000000000000000000000000E00001F26
:104D600018003BB80031F00000E000000000000037
:104D70000000000000000000000000000000000033
:104D80000000000000000000000000000000000023
:104D900000000000000000000010101010100000C3
:104DA00010000000006C48480000000000000000F7
:104DB000001414287C287C28505000000010384033
:104DC0004038487010100000002050200C7008146B
:104DD00008000000000000182020544834000000A3
:104DE0000010101010000000000000000008081063
:104DF00010101010100808000020201010101010C3
:104E00001020200000107C10282800000000000066
:104E10000000101010FE1010100000000000000034
:104E2000000000181030200000000000007C00008E
:104E30000000000000000000000000303000000012
:104E400000040408081010202040000000384444EA
:104E5000444444443800000000301010101010107A
:104E60007C00000000384404081020447C0000004E
:104E7000003844041804044438000000000C1414E2
:104E800024447E040E000000003C2020380404442A
:104E900038000000001C20407844444438000000E2
:104EA000007C440408080810100000000038444446
:104EB000384444443800000000384444443C04086A
:104EC00070000000000000303000003030000000B2
:104ED00000000018180000183020000000000C101E
:104EE000608060100C000000000000007C007C006E
:104EF000000000000000C02018041820C0000000BE
:104F00000000182404081000300000003844444C0D
:104F100054544C40443800000030102828287C4469
:104F2000EE00000000F8444478444444F8000000D7
:104F3000003C4440404040443800000000F04844F9
:104F400044444448F000000000FC44507050404489
:104F5000FC000000007E222838282020700000007D
:104F6000003C4440404E44443800000000EE4444BD
:104F70007C444444EE000000007C1010101010101F
:104F80007C000000003C0808084848483000000049
:104F900000EE444850704844E600000000702020B5
:104FA000202024247C00000000EE6C6C5454444407
:104FB000EE00000000EE64645454544CEC00000019
:104FC0000038444444444444380000000078242419
:104FD00024382020700000000038444444444444F5
:104FE000381C000000F8444444784844E2000000C3
:104FF00000344C40380404645800000000FE921055
:10500000101010103800000000EE444444444444A2
:105010003800000000EE444428282810100000004A
:1050200000EE4444545454542800000000C6442860
:1050300010102844C600000000EE4428281010106C
:1050400038000000007C4408101020447C00000060
:105050000038202020202020202038000040202060
:105060002010100808080000003808080808080880
:10507000080838000010102844000000000000005C
:105080000000000000000000000000FE001008000A
:10509000000000000000000000000038443C4444D0
:1050A0003E00000000C0405864444444F800000042
:1050B0000000003C4440404438000000000C043430
:1050C0004C4444443E00000000000038447C404012
:1050D0003C000000001C207C202020207C000000E0
:1050E000000000364C4444443C04380000C04058A2
:1050F00064444444EE0000000010007010101010D2
:105100007C000000001000780808080808087000FB
:1051100000C0405C48705048DC00000000301010B7
:10512000101010107C000000000000E8545454548B
:10513000FE000000000000D864444444EE0000007B
:10514000000000384444444438000000000000D807
:10515000644444447840E000000000364C44444439
:105160003C040E000000006C302020207C00000079
:105170000000003C44380444780000000000207C1B
:10518000202020221C000000000000CC4444444C9D
:1051900036000000000000EE444428281000000003
:1051A000000000EE4454545428000000000000CCDD
:1051B00048303048CC000000000000EE442428189D
:1051C000101078000000007C481020447C00000093
:1051D00000081010101020101010080000101010FF
:1051E00010101010101000000020101010100810E7
:1051F00010102000000000000024580000000000F3
:1052000000000000000000002020202000200000FE
:1052100050500000000000002850F850F850A00046
:105220002030603010602000202018601010000036
:10523000003820605078000020202000000000008E
:10524000102020202020100040202020202040007E
:105250002070205000000000002020F820200000D6
:10526000000000001020200000000070000000007E
:10527000000000000020000010202020404080009E
:1052800020505050502000006020202020F80000C6
:10529000205020204070000020501020106000009E
:1052A000103050781038000070406010502000001E
:1052B00030406050506000007050102020200000EE
:1052C000205020505020000030505030106000001E
:1052D000000020000020000000001000102000004E
:1052E000001020C0201000000070007000000000BE
:1052F0000040201820400000205010200020000016
:1053000030484858484038006020507088D8000025
:10531000F048704848F000007050404040300000B5
:10532000F048484848F00000F848604048F800005D
:10533000F848604040E000007040405850300000A5
:10534000E848784848E800007020202020700000DD
:105350003810105050200000D850607050D8000015
:10536000E040404048F80000D8D8D8A888D80000CD
:10537000D868685858E8000030484848483000006D
:10538000F048487040E00000304848484830180075
:10539000F048487048E8000070502010507000003D
:1053A000F8A8202020700000D84848484830000065
:1053B000D888485050300000D888A8A8A8500000CD
:1053C000D850202050D80000D888502020700000ED
:1053D000784810204878000030202020202030001D
:1053E00080404020202010006020202020206000ED
:1053F000202050000000000000000000000000F825
:105400002010000000000000000030107078000044
:10541000C040704848F0000000007040407000003C
:10542000180838484838000000007070403000000C
:1054300010207020207000000000384848380830E4
:10544000C040704848E80000200060202070000044
:105450002000701010101070C040587050D800001C
:1054600060202020207000000000D0A8A8A8000024
:105470000000F04848C800000000304848300000F4
:105480000000F048487040E00000384848380818EC
:105490000000782020700000000030201060000024
:1054A0000040F040483000000000D8484838000074
:1054B0000000C848303000000000D8A8A850000004
:1054C00000004830304800000000D85050202060D4
:1054D0000000785028780000102020602020100064
:1054E00020202020202020004020203020204000AC
:1054F000000000285000000018550008000000209F
:105500007C0000006C290008945500087C000020F5
:10551000240B00007C290008000000000024F40097
:1055200000000000000000002B2C0008152E0008D1
:10553000C32A00088D2A0008492E00089F2E000863
:105540001D2E0008652E0008712B0008CD2B0008C9
:10555000252C0008212C0008232B0008AD2B000867
:10556000652A000800000000D4320008110018006D
:105570008C4D000807000C000052000805000800D0
:10558000000000001E002D00DC002D00A000D20055
:045590000000000017
:040000050800018965
:00000001FF
