:020000040800F2
:10000000500400209D0100086F0C0008070C000838
:100010006D0C0008E5010008A910000800000000B0
:10002000000000000000000000000000930C000829
:10003000E701000800000000910C0008950C000882
:10004000B7010008B7010008B7010008B7010008B0
:10005000B7010008B7010008B7010008B7010008A0
:10006000B7010008B7010008B7010008B701000890
:10007000B7010008B7010008B7010008B701000880
:10008000B7010008B7010008B7010008B701000870
:10009000B7010008B7010008B7010008B701000860
:1000A000B7010008B7010008B7010008B701000850
:1000B000B7010008B7010008B7010008B701000840
:1000C000B7010008B7010008B7010008B701000830
:1000D000B7010008B7010008B7010008B701000820
:1000E000B7010008B7010008B7010008B701000810
:1000F000B7010008B7010008B7010008B701000800
:10010000B7010008B7010008B7010008B7010008EF
:10011000B7010008B7010008B7010008B7010008DF
:10012000B7010008B7010008B7010008B7010008CF
:10013000B7010008B7010008B7010008B7010008BF
:10014000B7010008B7010008B7010008B7010008AF
:10015000B7010008B7010008B7010008B70100089F
:10016000B7010008B7010008B7010008B70100088F
:10017000B7010008B7010008B7010008000000003F
:10018000B7010008B7010008DFF80CD000F018F83C
:100190000048004715110008500400200648804719
:1001A00006480047FEE7FEE7FEE7FEE7FEE7FEE75C
:1001B000FEE7FEE7FEE7FEE7450D000889010008BF
:1001C000064C074D06E0E06840F0010394E80700A4
:1001D00098471034AC42F6D3FFF7DAFFAC110008B1
:1001E000CC110008FEE77047FEE731B500F0E0F8FB
:1001F000044600F0DDF80099001B8842F9D338BDB1
:100200002DE9F84FDFF87CB100224FF001084FF0E4
:10021000030A4FF00F090BF1040E00BF0B6808FA38
:1002200002F42340A3426ED14D68022D01D0122D5D
:100230000ED1D50800EB850CDCF820505607F70EE0
:1002400009FA07F6B5430E69BE402E43CCF820608C
:10025000066855000F790AFA05FC07F0030726EA3D
:100260000C06AF40374307604E68012E05D0022EC2
:1002700003D0112E01D0122E0ED18668CF6826EA47
:100280000C06AF40374387604668A6430C79C4F339
:100290000014944034434460C6688C6826EA0C0617
:1002A000AC403443C4604C68E40065D5364C2568E6
:1002B00045F480452560246822F0030504F4804459
:1002C0000094324C2E19D6F8084895072F0F09FADA
:1002D00007F5AC432E4DA84201D1002524E02D4D59
:1002E000A84201D101251FE02B4DA84201D10225D2
:1002F0001AE02A4DA84201D1032515E0284DA84255
:1003000002D1042510E037E0264DA84201D1052591
:100310000AE0254DA84201D1062505E0234DA8425B
:1003200001D1072500E00825BD402543C6F808583F
:10033000DBF800405D464E689C43F60300D51C4345
:100340002C60DEF8004075464E689C43B60300D52D
:100350001C432C600B4D08352C684E689C43F602FC
:1003600000D51C432C60074D0C352C684E689C430F
:10037000B60200D51C432C60521C102AFFF44EAF6D
:10038000BDE8F88F003C0140443802400030014095
:10039000000002400004024000080240000C02403D
:1003A000001002400014024000180240001C0240ED
:1003B0000148006870470000000000200248016802
:1003C000491C016070470000000000200B4810B578
:1003D000016841F400710160016841F480610160CD
:1003E000016841F480710160032000F069F8002089
:1003F00000F006F800F018F8002010BD003C0240A4
:1004000010B5044607484FF47A710068B0FBF1F06C
:1004100000F02DFB00222146501E00F031F8002094
:1004200010BD00000400002010B5032000F048F8C3
:10043000002211466FF00B0000F022F80022114656
:100440006FF00A0000F01CF8002211466FF009005E
:1004500000F016F800221146501F00F011F800229B
:100460001146101F00F00CF800221146901E00F0FB
:1004700007F80022BDE810401146501EAFF300807F
:10048000F0B40E4B1B680C46C3F30223C3F10705FF
:10049000042D00D90425191D072901D2002300E0ED
:1004A000DB1E012606FA05F1491E214099409E40B7
:1004B000761E16403143F0BC00F0DABB0CED00E0D4
:1004C000064900F0070208684FF6FF03184040EAAB
:1004D0000220034A10430860704700000CED00E062
:1004E0000000FA052DE9F047DFF8649105460F4654
:1004F000D9F8000000F00F01F8B28046B94208D2E6
:10050000014689F80010D9F8000000F00F00B84249
:1005100074D128784F4C800705D52068A96820F051
:10052000F000084320602878C00759D0494968681E
:10053000083901281AD002281BD0032819D00968CD
:10054000890700295ADA216821F00301014321605B
:10055000FFF72EFF6968064641F28830012911D065
:1005600002291DD00329824627D035E00968890376
:10057000E7E709688901E4E7FFF71AFF811B5145A6
:1005800001D926E082462068C0F381000128F3D11A
:1005900026E000BFFFF70CFF811B514501D918E091
:1005A00082462068C0F381000228F3D118E000BF22
:1005B000FFF7FEFE811B51450BD82068C0F3810078
:1005C0000328F5D10CE000BFFFF7F2FE811B514577
:1005D00002D90320BDE8F087206810F00C0FF3D19A
:1005E000D9F80010484601F00F01B94208D980F847
:1005F0000080006800F00F00B84201D00120E9E758
:100600002878400705D52068E96820F4E0500843C1
:1006100020602878000706D52068296920F460400A
:1006200040EAC100206000F051F82168F02292FAFF
:10063000A2F201F0F001B2FA82F2D140064A515C16
:10064000C840064908600020FFF7DAFE0020C1E735
:10065000003C02400838024050110008040000200D
:10066000014800687047000004000020084809495C
:10067000006809684FF4E05292FAA2F201F4E051E6
:10068000B2FA82F2D140044A515CC840704700007F
:1006900004000020083802405011000808480949A9
:1006A000006809684FF4604292FAA2F201F46041D6
:1006B000B2FA82F2D140044A515CC840704700004F
:1006C00004000020083802405011000830B51948D5
:1006D000006810F00C01184812D0184C04290ED0F4
:1006E00008290DD11349091F0A6802F03F030A685F
:1006F000550247F6C07204D5B4FBF3F003E0204680
:1007000030BDB0FBF3F00B680968134092FAA2F217
:10071000B2FA82F2D34058434FF4403292FAA2F236
:1007200001F44031B2FA82F2D140491C4900B0FBD9
:10073000F1F030BD083802400024F40000366E01AC
:100740002DE9F84F0546DFF8FC920078A9F1040B7B
:10075000C007ABF1040449D0D9F800104846C1F3F2
:100760008101012908D00068C0F3810002280AD164
:10077000DBF80000400206D52068800336D56868A3
:1007800000286ED032E06868B0F5803F10D0B0F538
:10079000A02F206810D020F480302060206820F442
:1007A000802020606868A0B1FFF702FE06460CE0DA
:1007B000206840F48030F4E740F480202060F7E7C0
:1007C000FFF7F6FD801B642871D820688003F7D5F9
:1007D0000CE0FFF7EDFD064605E000BFFFF7E8FD82
:1007E000801B6428F0D820688003F7D42878964FBF
:1007F00080074FF0010A4FF0000841D5D9F80010EA
:10080000484611F00C0F08D00068C0F381000228A0
:100810000AD1DBF80000400206D42068800713D517
:10082000E86801281DD10FE0E868D8B1C7F800A03A
:10083000FFF7BEFD064604E0FFF7BAFD801B022865
:10084000C2D820688007F7D52068F82292FAA2F271
:100850002969B2FA82F220F0F80091400843206042
:100860000EE0ECE0C7F80080FFF7A2FD064604E0CA
:10087000FFF79EFD801B022819D820688007F7D457
:100880002878000724D57148696989B1C0F800A0AB
:10089000FFF78EFD064604E0FFF78AFD801B022865
:1008A00005D868486C3000688007F5D510E07AE01C
:1008B000C0F80080FFF77CFD064604E0FFF778FDF6
:1008C000801B02286FD85F486C3000688007F5D421
:1008D0002878400753D55B483830016841F0805193
:1008E0000160006800F0805000905948016841F4B0
:1008F00080710160FFF75CFD064604E0FFF758FDDC
:10090000801B02284FD852480068C005F6D54D4ECE
:10091000A868683601280FD00528306810D020F06C
:1009200001003060306820F004003060A868B8B181
:10093000FFF73EFD00900FE0306840F00100F4E763
:1009400040F004003060F7E7FFF732FD0099411AEC
:1009500041F2883081426AD830688007F4D50EE0D1
:10096000FFF726FD009007E0FFF722FD0099411AEE
:1009700041F2883081425AD830688007F4D4A8699F
:10098000E8B3D9F80010C1F38101022957D0022839
:10099000C7F8608003D0FFF70BFD05464AE0FFF77C
:1009A00007FD064605E042E0FFF702FD801B022836
:1009B0003DD820688001F7D4D5E90701084347F600
:1009C000C07292FAA2F2696AB2FA82F29140AA6AFD
:1009D0004FF0FF3303EB52024FF4403393FAA3F38B
:1009E000B3FA83F39A40114308434FF0706292FACE
:1009F000A2F2E96AB2FA82F29140084300E01CE0F8
:100A0000CBF80000C7F860A0FFF7D2FC054604E071
:100A1000FFF7CEFC401B022809D820688001F7D5DB
:100A20000BE000BFFFF7C4FC401B022802D90320E3
:100A3000BDE8F88F20688001F4D40020F8E7012099
:100A4000F6E700000838024000004742800E4742A7
:100A5000007000404FF0E0210428086903D020F026
:100A600004000861704740F00400FAE7704710B5D1
:100A7000401EB0F1807F01D3012010BD4FF0E02473
:100A800060610F21601700F0F3F80020A0610720DB
:100A90002061002010BD10B5FFF7E8FF10BD70B554
:100AA000040004D094F83900002510B106E00120BC
:100AB00070BD84F83850204600F022F8242084F8D5
:100AC00039002068C16821F40051C160204600F05F
:100AD00063F92068016921F490410161206841694E
:100AE00021F02A0141612068C16841F40051C160D0
:100AF000E563202084F8390084F83A00002070BDB6
:100B000000B500680E4987B0884217D10D480168CA
:100B100041F4802101600068694600F4802005905E
:100B20004FF44060009002200190012002900320C9
:100B30000390072004900448FFF762FB07B000BD54
:100B40000048004040380240000802402DE9F843C8
:100B5000044690F839001F4616460D46202850D10D
:100B6000A5B19EB194F8380001284AD0012084F83C
:100B700038004FF00008C4F83C80212084F8390088
:100B8000FFF716FCA6848146E68426E00120BDE836
:100B9000F883E08C401EE084A0684B46B0F5805F8F
:100BA0004FF000024FF080012046009703D000F084
:100BB00049FAE8B90DE000F045FAC8B9288821687B
:100BC000C0F308004860206908B16D1C05E0AD1C49
:100BD00003E0216815F8010B4860E08C0028D8D1AB
:100BE0004B46002240212046009700F02BFA08B126
:100BF0000320CCE7202084F8390084F838800020D6
:100C0000C5E70220C3E7FEE7094808B5016841F0DF
:100C100080010160016801F080010091016841F0EC
:100C200004010160006800F00400009008BD0000AD
:100C3000303802400C4810B50A4901604FF4E131E8
:100C40004160002181600C22C160C0E90412816111
:100C5000C161FFF724FF002803D0BDE81040FFF773
:100C6000C3BA10BD004800400C000020FEE77047EA
:100C70000907090E002806DA00F00F0000F1E02055
:100C800080F8141D704700F1E02080F800147047D0
:100C90007047704710B5FFF791FBBDE81040FFF7B4
:100CA000FABE000030B5254893B00025016841F038
:100CB00080510160006800F0805011902048016868
:100CC00041F4804101600068022400F480401190EA
:100CD0000120039010200490009406940820CDE990
:100CE0000750A820CDE9090404200B906846FFF7BF
:100CF00027FD00B1FEE70CA90F2081E831004FF479
:100D0000A0500F904FF48050109005210CA8FFF7D1
:100D1000E9FB00B1FEE7FFF7A3FC4FF47A71B0FBEB
:100D2000F1F0FFF7A4FE0420FFF794FE0022114625
:100D3000501EFFF7A5FB13B030BD00004038024045
:100D4000007000401048016841F4700101600F48D4
:100D5000016841F0010101600C4A00210832116074
:100D600002680B4B1A400260031D0A4A1A600268AF
:100D700022F48022026005480C30016002495806C6
:100D8000803908607047000088ED00E000380240BC
:100D9000FFFFF6FE103000242DE9F0410446006804
:100DA000016921F44052E168114301612168C8687A
:100DB00049F20C6290432369A268E5691A436369AA
:100DC0002B431A430243CA602168486920F44072E9
:100DD000A06910434861E1696425B1F5004F974867
:100DE000974A21684FF032083FD0914201D08142AA
:100DF0007CD1FFF753FC00EBC00101EB00106168F0
:100E00008900B0FBF1F6FFF749FC00EBC00101EBF4
:100E1000001061688900B0FBF1F0B0FBF5F06FF0F5
:100E20001801484306EB800108EB0110B0FBF5F018
:100E300000F0F006FFF732FC00EBC00101EB001000
:100E400061688900B0FBF1F0B0FBF5F006EB00162D
:100E5000FFF724FC00EBC00101EB00106168890082
:100E6000B0FBF1F7FFF71AFCD2E0914201D08142CA
:100E70003DD1FFF713FC00EBC00101EB00106168EE
:100E80004900B0FBF1F0B0FBF5F00601FFF706FCFE
:100E900000EBC00101EB001061684900B0FBF1F705
:100EA000FFF7FCFB00EBC00101EB0010616849009B
:100EB000B0FBF1F0B0FBF5F06FF01801484307EB21
:100EC000800108EBC100B0FBF5F000F0F80006EB84
:100ED0004006FFF7E3FB00EBC00101EB0010616887
:100EE0004900B0FBF1F7FFF7D9FB3CE055E0FFF715
:100EF000BDFB00EBC00101EB001061684900B0FBD5
:100F0000F1F0B0FBF5F00601FFF7B0FB00EBC0011C
:100F100001EB001061684900B0FBF1F7FFF7A6FB99
:100F200000EBC00101EB001061684900B0FBF1F07B
:100F3000B0FBF5F06FF01801484307EB800108EBB8
:100F4000C100B0FBF5F000F0F80006EB4006FFF73B
:100F50008DFB00EBC00101EB001061684900B0FBA4
:100F6000F1F7FFF783FB00EBC00101EB00106168B4
:100F70004900B0FBF1F0B0FBF5F06FF01801484309
:100F800007EB800108EBC100B0FBF5F000F00700B3
:100F9000216830448860BDE8F081FFF767FB00EB13
:100FA000C00101EB001061688900B0FBF1F6FFF7AA
:100FB0005DFB00EBC00101EB001061688900B0FB34
:100FC000F1F0B0FBF5F06FF01801484306EB80013B
:100FD00008EB0110B0FBF5F000F0F006FFF746FB60
:100FE00000EBC00101EB001061688900B0FBF1F07B
:100FF000B0FBF5F006EB0016FFF738FB00EBC00185
:1010000001EB001061688900B0FBF1F7FFF72EFBE0
:1010100000EBC00101EB001061688900B0FBF1F04A
:10102000B0FBF5F06FF01801484307EB800108EBC7
:101030000110B0FBF5F000F00F00A9E7001401402B
:10104000001001402DE9F041984617460E4604462F
:10105000069D1DE0681C1BD02DB1FFF7A9F9A0EB80
:101060000800A84214D92068C16821F4D071C16079
:101070002068416921F001014161202084F8390094
:1010800084F83A00002084F838000320BDE8F0819D
:101090002068006836EA000004D00020B842D9D0A9
:1010A0000020F3E70120F9E7FEE70000014A0249CA
:1010B00000F013B8FD1000080800002002E008C886
:1010C000121F08C1002AFAD170477047002001E0C2
:1010D00001C1121F002AFBD170472DE9F0411646CD
:1010E0000F460446002503E03946B047641C6D1CDA
:1010F00020780028F8D12846BDE8F08113B54FF6D6
:10110000FF73012269460248FFF720FD00981CBDCD
:101110000C000020FFF75AF9FFF7C4FDFFF774FD3C
:10112000FFF788FD0548FFF7C1FF4FF47A7404A06C
:10113000FFF7BCFF2046FFF758F8F8E760110008FA
:1011400048656C6C6F20576F726C64210D0A00004B
:10115000000000000102030401020304060708095D
:1011600055415254205072696E7466204578616D05
:10117000706C653A2072657461726765742074687A
:10118000652043206C696272617279207072696EA9
:1011900074662066756E6374696F6E20746F207458
:1011A000686520554152540D0A000000CC1100081A
:1011B000000000200C000000BC100008D81100083E
:1011C0000C00002044040000CC10000800000000C7
:0811D0000024F40000000000FF
:040000050800018965
:00000001FF
