:020000040800F2
:10000000A0110220C1010008C9010008CB010008AD
:10001000CD010008CF010008D10100080000000058
:10002000000000000000000000000000D3010008F4
:10003000D501000800000000D701000879DD0008A4
:10004000DB010008DB010008DB010008DB01000820
:10005000DB010008DB010008DB010008DB01000810
:10006000DB010008EB140008DB010008DB010008DD
:10007000DB010008DB010008DB010008DB010008F0
:10008000DB010008DB010008DB010008DB010008E0
:10009000DB010008DB010008DB010008DB010008D0
:1000A000DB010008DB010008DB010008DB010008C0
:1000B000DB010008DB010008DB010008DB010008B0
:1000C000DB010008DB010008DB010008DB010008A0
:1000D000DB010008DB010008DB010008DB01000890
:1000E000DB010008DB010008DB010008DB01000880
:1000F000DB010008DB010008DB010008DB01000870
:10010000DB010008DB010008DB010008DB0100085F
:10011000DB010008DB010008DB010008DB0100084F
:10012000DB010008DB010008DB010008DB0100083F
:10013000DB010008DB010008DB010008DB0100082F
:10014000DB010008DB010008DB010008DB0100081F
:10015000DB010008DB010008DB010008DB0100080F
:10016000DB010008DB010008DB010008DB010008FF
:10017000DB010008DB010008DB01000800000000D3
:10018000DB010008DB010008DB010008DB010008DF
:10019000DB010008DB010008DB010008DB010008CF
:1001A000F9CA0008DB010008DB010008DFF80CD009
:1001B00000F0FCFB0048004765FC0108A01102208C
:1001C0000648804706480047FEE7FEE7FEE7FEE7F1
:1001D000FEE7FEE7FEE7FEE7FEE7FEE759DE000882
:1001E000AD0100080649074A0868504343F2390246
:1001F00010440860400870470149086070470000DB
:10020000E00C00206D4EC64110B5431A934209D24E
:100210008318881803E010F8011D03F8011D521E11
:10022000F9D210BD40EA01039B0703D009E008C9D9
:10023000121F08C0042AFAD203E011F8013B00F8AB
:10024000013B521EF9D210BDD2B201E000F8012BE1
:10025000491EFBD270470022F6E710B513460A4646
:1002600004461946FFF7F0FF204610BD421E12F863
:10027000013F002BFBD111F8013B02F8013B002BA1
:10028000F9D17047421C10F8011B0029FBD1801ADC
:10029000704710B5002200E0521C835C8C5CA342C6
:1002A00001D1002BF8D1D8B2E1B2401A10BD30B55F
:1002B00004460020034600E05B1C934203D2E05C4E
:1002C000CD5C401BF8D030BD034611F8012B00F87F
:1002D000012B002AF9D1184670472DE9FE4F8046C0
:1002E00081EA0300C00F0C46009021F0004123F08A
:1002F0000045B8EB0200A94105D240462146904690
:100300001C460B46024623F00040104347D0270D01
:10031000C7F30A00C3F30A510290401A0190402823
:100320006BDAC3F3130040F4801B0098924620B1AF
:100330000023D2EB030A63EB0B0B01985946C0F183
:100340004002504600F004FA06460D465046594613
:10035000019A00F01CFA10EB08006141002487EAC2
:10036000115284EAE7731A4340D0009A62B3019AAB
:10037000012A4FEA075215DC001B61EB02014FF026
:10038000004202EA0752CDE90042001C41F580110B
:1003900032462B4600F053FA03B0BDE8F08F4046DA
:1003A0002146F9E7001B61EB0201001C41F58013B7
:1003B00000185B412018A2F5001747EB030140EA43
:1003C000D570B6196D4111E06D084FEA360645EA61
:1003D000C0754FEA0752001B61EB0201001C41F59A
:1003E000801149084FEA30000019514132462B462E
:1003F00003B0BDE8F04F00F013BA009801224000AE
:100400000023D0EB020263EBE073009821464FEA31
:10041000E074B8EB000061EB0401E9E783F000430E
:100420005BE781F0004158E72DE9FE4F81EA0304C4
:1004300004F0004421F0004100944FF0000B23F041
:10044000004350EA01045ED052EA03045BD0C3F3D8
:100450000A54C1F30A552C44A4F2F3340194A0FBCE
:100460000254C1F3130141F48011C3F3130343F4A5
:10047000801301FB024400FB034E840A970A44EAFE
:10048000815447EA8357A4FB076802958D0A05FB50
:1004900007854FEA932C04FB0C542705029D4FEA75
:1004A000065847EA1637B5EB08056EEB070C870EC2
:1004B000920E47EA811742EA8312A7FB0201B6EBCC
:1004C0000B0164EB00042B0D43EA0C335E1844EB84
:1004D0001C50DA465146E7FB0201C5F313044FEA0C
:1004E0000B3343EA14534FEA0432019C43EA0603F8
:1004F000A4F10C040294009CCDE900B400F09FF933
:1005000003B0BDE8F08F00200146F9E72DE9F04D7A
:1005100081EA030404F0004B21F0004514464FF03B
:10052000000A23F0004150EA050220D054EA0102FB
:100530001DD0C5F30A570246C5F31303C1F31300D8
:10054000C1F30A5640F4801543F48013A7EB060864
:10055000101BD64608F2FD3873EB050002D308F1F4
:10056000010801E092185B41B8F1000F03DA0020A6
:100570000146BDE8F08D00204FF480110646844608
:100580000EE0171B73EB050705D3121B63EB050386
:1005900006434CEA010C49084FEA300092185B41CF
:1005A00050EA0107EDD152EA030012D082EA0400BA
:1005B00083EA0501084305D0101BAB4106D2012296
:1005C000002306E000224FF0004302E06FF001023A
:1005D00053101AEB06004CEB085110EB0A0041EBEC
:1005E0000B01BDE8F04D00F01BB90EB5C10F80EA5C
:1005F000E0700844CA07002140F233438DE80E0042
:100600000A460B4600F01BF903B000BD0EB540F2E0
:10061000334102910021CDE900110A460B4600F05A
:100620000EF903B000BD70B5C1F30A5201F00045E8
:100630000024C1F3130140F2FF3341F480119A42C8
:1006400001DA002070BD40F233439A42A2F23342F5
:1006500003DC524200F08BF800E090402C43F1D0D4
:10066000404270BDC1F30A5210B5C1F3130140F20C
:10067000FF3341F480119A4201DA002010BD40F2AC
:1006800033439A42A2F2334203DC524200F06FF845
:1006900010BD904010BD00F0004230F000400AD084
:1006A000C10D01F56071C0F3160042EA0151C208A4
:1006B00040071143704700200146704730B5041EC3
:1006C00071F1000404DB4FF00044404264EB01018F
:1006D000141E73F1000405DB1C464FF00043524228
:1006E00063EB04038B4208BF824230BD01F000433C
:1006F00030B421F0004150EA010206D00A0DA2F503
:100700006072C1F31301002A02DC30BC0020704784
:10071000440F44EAC104C100E01830BC00EBC250F1
:1007200000F047B830B50B460146002020220124D6
:1007300009E021FA02F59D4205D303FA02F5491BAF
:1007400004FA02F52844151EA2F10102F1DC30BDC5
:10075000202A04DB203A00FA02F100207047914081
:10076000C2F1200320FA03F3194390407047202A76
:1007700004DB203A21FA02F00021704721FA02F34B
:10078000D040C2F120029140084319467047202A08
:1007900006DBCB17203A41FA02F043EAE07306E0A9
:1007A00041FA02F3D040C2F12002914008431946B9
:1007B00070470029A8BF7047401C490008BF20F0BF
:1007C0000100704710B4B0FA80FC00FA0CF050EA57
:1007D000010404BF10BC704749B1CCF1200421FAD8
:1007E00004F411FA0CF118BF012121430843A3EBD3
:1007F0000C01CB1D4FEA00614FEA102042BF0020E0
:1008000010BC704700EBC35010440029A4BF10BCBB
:100810007047401C490008BF20F0010010BC704721
:1008200010B5141E73F1000408DA401C41F10001F8
:1008300092185B411A4301D120F0010010BD2DE94F
:10084000F04D92469B4611B1B1FA81F202E0B0FA46
:1008500080F220329046FFF77BFF04460F4640EAC5
:100860000A0041EA0B0153465A46084313D0114689
:1008700053EA010019D0C8F140025046FFF777FF54
:1008800005460E46504659464246FFF761FF08436B
:1008900005D0012004E020463946BDE8F08D002057
:1008A000054346EAE0762C4337430A986305E40A99
:1008B000A0EB08000022FD0A44EA47540A3002D5A2
:1008C00000200146E9E7010510196941DDE9084505
:1008D00000196941BDE8F04DA2E72DE9F04D002374
:1008E0001A461B1A8A4103DB00200146BDE8F08D41
:1008F000C1F30A52C1F3130141F480154FF0000B0C
:10090000D10702D100186D41521E0027044640F263
:10091000FF11384601EB620A3E468046024600203F
:100920004FF48011FFF723FFC2197141BB1846EB4A
:100930000100B4EB030C75EB000C04D3E41A65EB77
:10094000000517460E46241908F101006D41804646
:100950003428E3DDF91946EB0600091BA84103D250
:100960004FF0FF32134601E0002213461BEB070055
:1009700046EB0A51BDE8F04DFFF752BF30B5041EFB
:1009800071F1000404DB4FF00044404264EB0101CC
:10099000141E73F1000405DB1C464FF00043524265
:1009A00063EB0403994208BF904230BD064C074DEB
:1009B00006E0E06840F0010394E80700984710342F
:1009C000AC42F6D3FFF7F6FB60D20A0880D20A08E1
:1009D00070B58C1810F8015B15F0070301D110F801
:1009E000013B2A1106D110F8012B03E010F8016B2E
:1009F00001F8016B5B1EF9D12B0705D40023521EB1
:100A00000DD401F8013BFAE710F8013BCB1A921C18
:100A100003E013F8015B01F8015B521EF9D5A14216
:100A2000D8D3002070BD002800DC40427047000091
:100A300000B583B00CF044FD01460D4A0D481FF08F
:100A4000A5F80C480188B1F5F07F0ED84288B2F5C0
:100A5000887F0AD800208DF809000091019206A035
:100A60001EF096FA684605F0A9FF03B000BD00002D
:100A7000100F00202E00002058592020256420252A
:100A800064200D0A0000000010B540F26A5000F02A
:100A900005F80148007810BD1C0000202DE9F84F32
:100AA0001D4C0025012608270095C4E90067C4E90C
:100AB000026582464FF6FF794A462146174808F0FC
:100AC00024FF012007F03EFB0220C4E90007C4E92F
:100AD00002654A462146114808F017FF03204FF0EF
:100AE0000408E56084E881014A4621460B4808F085
:100AF0000CFF4FF40C700090C4E90260C4E9008759
:100B00004A462146054808F000FF5146BDE8F84F27
:100B1000024808F0E7BE0000000F0020140E00207D
:100B200038B545680446014628460EF031F80028DD
:100B30002BD02068304A11280DD006DC0B2825D098
:100B40000E2833D00F2852D112E0282849D0B0F512
:100B5000107F4CD108E09268002A16D02146284622
:100B600001B0BDE830401047214628465268F7E7FB
:100B7000284603F0CBFB0090406E0468684603F003
:100B80000FFC002C01D02846A04738BD284603F0B2
:100B9000BDFB0090683003F013FB009803216C301C
:100BA00003F016FB684603F0FBFB20E0E1684868B1
:100BB00009680D2902D0202913D105E0002810DD95
:100BC000284619F0B4FC06E0002804DD2846BDE8FC
:100BD000384019F0ACBC2846BDE83840022119F075
:100BE000BCBCE06818B90021284600F08FF9204607
:100BF000BDE838400EF06EBA8C070020F0B5044610
:100C000085B08069B4F90850668A0027CDE902658D
:100C1000CDE900170490B4F90C00B4F91060C118C4
:100C2000B4F90A00B4F90E50104433462A4600F0D5
:100C300007F80546616800F07FF905B02846F0BD69
:100C4000F0B585B00C46DDE90D51DFF854C04C31EC
:100C5000DDE90A67CDE902C12146CDE900670EF062
:100C60008BF9040018D003F051FB102229460490A0
:100C70000EF0BEF8049830220A493430FFF7C4FA67
:100C8000084D04990C3D2868486604A803F088FBC9
:100C9000286841682046884705B02046F0BD00001E
:100CA000210B000898070020F0B5044680688B49A6
:100CB00089B051F82050606800287DD0052804D004
:100CC00006287AD0122879D1AEE0E86900284FD002
:100CD00095E80E008DE80F0004F110010FC906F031
:100CE000FBFB002655F8260005F0F0FCA169E86939
:100CF0000A1A216901446069304404F027FBA169A4
:100D0000E8690A1A21690144E069801B04F01EFBAE
:100D1000E169E8690A1A616901442069304404F014
:100D2000D1FBE169E8690A1A61690144A069801B85
:100D300004F0C8FB761C022ED4DBA86805F0C6FCC4
:100D4000E069E9696669431A206942183144801CE8
:100D5000521E04F0F9FBE169E869A2690B1A6169A6
:100D60000144101A401C921E04F0EEFBEE6913E0E1
:100D70005FF0000655F8260005F0A8FCE069831B2B
:100D8000A069821B606981192069304404F040FB2E
:100D9000761C022EEEDB0226D5E90301CDE9000127
:100DA0006169E06908444310A069891C821B2069BD
:100DB000304404F073FA02E089E012E08AE0D5E9F9
:100DC0000501CDE90001E36960690121184401EBE7
:100DD0006001A0699B1E821B2069304404F05EFA0A
:100DE00078E0206803F092FA049020680FF0B8FCD5
:100DF00040B1A06808B1002008E00498006F28B155
:100E0000012003E00498406F00B10220049901EB37
:100E10008000C56E04A803F0C3FA00231A462846D2
:100E2000216803F025FF55E0206803F06FFA049075
:100E3000866EEEB3B0F95C70A168D1B3032942D0DD
:100E40005FF0000100EB8101406D0C6C05F04CFC83
:100E5000204605F03BFC05A804F016FCBDF8141074
:100E6000A88B0144ADF81410BDF81810081AADF89D
:100E70001800BDF81600801CADF81600BDF81A0069
:100E8000801EADF81A000498B0F96020B0F95E1029
:100E900005A805F065F904A803F082FA022005F020
:100EA00081FC304603F032FA3A4605A9079001E08A
:100EB0000BE006E004F006F80DF11C0003F070FAF8
:100EC00008E00121BEE70221BCE704A8F6E720689C
:100ED0000FF0CEF809B00020F0BD0000789C0A08A1
:100EE000044A0349116004494A6A4862104670473F
:100EF000C80700208C0700209807002000294FF029
:100F0000100101D00DF0D4BE0DF028BE4FF4807258
:100F10000029114601D00DF0CBBE0DF01FBE000020
:100F20000348024941600349816070471BBE0108C4
:100F30008C070020E1B801082DE9FF410E460500AD
:100F40004FF001041CD003F0E1F90190876E01A875
:100F5000009703F025FA3146684606F061FE78B145
:100F600000980024B84208D0284603F0CFF9019039
:100F70000099816601A803F013FA28460EF09BFD44
:100F800004B02046BDE8F0817CB5214C05462168BF
:100F900031F8220F4A8D104408804888CA8D1044C9
:100FA0004880284604F060FB2168498CADF80010A9
:100FB0004618284606F084FC3044401EADF8040074
:100FC00004F086FB2168898CADF802100844401EAD
:100FD000ADF8060068460FF04FFA04E0284601F02D
:100FE00047F80FF0E3F90028F8D10A2D04D0BDF836
:100FF00004002168401C4884206830F8221F428D7C
:10100000891A01804188C28D891A41807CBD000007
:10101000B4060020FEB514460D46064606F03CFF19
:101020000A4FC6EBC60357F8232000FB052100FB3F
:10103000042207EB830500202B69CDE900300290E4
:101040003046EB6800F014F9AC60FEBD54A30120FB
:101050002DE9FE4F9846DDE90C9416460F460546ED
:10106000DDF838A006F018FF02461148C5EBC501AF
:1010700050F821C000EB81004168C36802FB01C148
:1010800006FB03774669406807FB061102FB00C7B1
:1010900009FB038000FB0672181B0026CDF800A098
:1010A000CDE901062346284600F0E2F8BDE8FE8FB0
:1010B00054A301202DE9F0471D46DDE908491646F5
:1010C0000F46804604F0F6FA012831D0ED1BA41B30
:1010D0004046641C6D1C06F0DFFE01461D48C8EB4F
:1010E000C80350F8232000EB8300836801FB032230
:1010F000C168406906FB017303FB00264046A1EB73
:1011000005084F460AF02CF81449134A0A608F6309
:10111000CE63C1F84080486365F31F444C6408689F
:1011200040F0010008600868C007FCD1BDE8F08706
:101130000022192140460AF089FA23462A46314600
:10114000384609F021FE4046BDE8F047044A19211F
:101150000AF07CBA54A301200002030000B0024050
:10116000B510000838B50324009400F053F838BDDA
:1011700038B50424009400F04DF838BD38B5022489
:10118000009400F047F838BD38B50024009400F012
:1011900041F838BD38B50024009400F03BF838BD64
:1011A00070B515460E461C461A46154909F079FBDE
:1011B00022461449304609F074FB1448114A104B7A
:1011C000114EA2F570510660C3604261C1630021F7
:1011D000016181610164C16141624163012101EBEF
:1011E00004414164016841F0010101600168C907DF
:1011F000FCD122462946BDE87040054809F051BBA4
:1012000070C1012070DF01200002020000B0024026
:1012100070A30120F8B50E4614460649069D09F054
:1012200047FB2B46002231460248009400F004F8A8
:10123000F8BD000070A3012070B50C4C4FF481364E
:10124000049D2660E060E163002020612064E2618B
:101250006363012000EB05406064206840F00100FA
:1012600020602068C007FCD170BD000000B00240C3
:101270002DE9F0470E4608A91C4691E88003154663
:1012800009F06EFF0B494FF400720A60CE60CD6327
:10129000C1F81080C1F84090C861384664F31F401F
:1012A0004864086840F0010008600868C007FCD185
:1012B000BDE8F08700B0024038B514460D46049AE8
:1012C000002305490094FFF7B7FF22462946BDE8F1
:1012D0003840014809F0ECBA70A301200EB5FF2395
:1012E000B3EB116F26D080F07F40009081F07F40FB
:1012F0000190124810490160C0F80CD001A9416169
:1013000002A9C1634FF4803141EA0261C161C2F1B7
:10131000FF0109064162002141634FF00111416460
:10132000016841F0010101600168C907FCD1029820
:1013300080F07F400EBD00000002020000B00240BD
:1013400001680A4BCAB2103AA3FB02321209084BD9
:101350009B5CC365032A04D96FF30901091D8165EC
:1013600002E06FF309018165806D7047ABAAAAAAFC
:1013700068FE0108014600208A6A8B69002B0FD0A5
:10138000B3F5005F23D07AB3012A38D0022A36D0D1
:10139000032A04D1C96A11F0807F00D00120704770
:1013A0004AB1012A0DD0022AF9D1C96A11F0807F11
:1013B000F5D001207047C96A11F0807FFAD0012072
:1013C0007047C96AB1F1C07FFAD10120704762B19C
:1013D000012A0CD0022A10D0032AF7D1C96AB1F130
:1013E000C07FF3D10120704709E001207047C96A2E
:1013F00011F0807FFAD00120704701207047012052
:10140000704700EB80004000401EFDD27047000096
:101410002DE9FC5F15460746DFF8908028440190CF
:10142000D8F800201C460E46526E21448946526868
:101430009047D8F80020781B4946526E8246526881
:101440009047711938190090D8F800208946526EDB
:1014500052689047D8F80020711B8B46526E009856
:1014600052689047002C1ED0D8F80010361B454615
:10147000496E01984A68314690472A68314650467D
:10148000526E5268904728683C1B4946406E42683D
:10149000204690472A6859462046526E526802B04C
:1014A000BDE8F05F1047BDE8FC9F0000B4060020D7
:1014B00070B50C460546C21EA0F10D01204603F092
:1014C00045FF05F10E02291D204603F03FFFE21EF5
:1014D000A4F10D01284603F0F5FF04F10E02211DD1
:1014E0002846BDE8704003F0EDBF082006F042BF7B
:1014F000FEE710B48B684A68D1F810C01A43CB6875
:101500000C6843EA0C031A434B69D1F820C01A4314
:101510008B691A43CB69496A012C09D004686FF3BF
:101520000E041A4342EA0C021143214301600CE00D
:10153000046824F4F84443EA0C0321430B43416854
:101540006FF30E0111430360416010BC002070472F
:10155000426942EA4101416100207047F8B5054601
:1015600014464A68086810438A68C968521E5201C6
:1015700042EA4121084300900098286107F020F8D2
:101580000646A86910F0200F0ED0B4F1FF3F07D037
:1015900024B107F015F8801BA04201D90320F8BD43
:1015A000A86910F0200FF0D10020F8BD30B40B680E
:1015B000D1F804C05B1EACF1010C43EA0C13D1F866
:1015C00008C00C69ACF1010C43EA0C23D1F80CC043
:1015D0004D698969641E6D1E491EACF1010C012A1A
:1015E0000DD0826802F0704243EA0C3343EA0443B0
:1015F00043EA055343EA01611143816016E08268C2
:1016000022F4704222F470024FEA0C3C4CEA055C72
:101610004CEA0202D0F80CC00CF0704C43EA0443D0
:1016200043EA016141EA0C018260C16030BC0020E4
:1016300070472DE9F047044640688EB00027804689
:1016400002F064FE0090B0F87CA0D0F86890D0F86A
:101650008060D0F88850C06D00B10768684602F01D
:101660009FFE05E0696820468847002843D12D6821
:10167000002DF7D12068172853D00CDC0F283DD05F
:1016800004DC0B2877D00D2825D18BE0112810D051
:10169000142820D13BE0262846D004DC1E2851D057
:1016A000202818D18AE02A2816D0B0F5107F12D150
:1016B00028E04046E56802F029FE0290697A39B9CF
:1016C000297A012904D130F87C1F41F4807101800E
:1016D00002A802F065FE75E0404602F017FE009099
:1016E000E16811B1C0F8841002E0D0F88400E06035
:1016F000684602F055FE0EB0BDE8F087D7B340460D
:10170000B8475FE0214640461AF05CF9F3E705A9C7
:10171000404600F061FBE06806990160079941606E
:10172000E9E7C4F80C90E6E7E0680228E3D1CDF8D9
:101730003080E0680D9027200A900AA9A0680FF079
:101740001FFAD8E7E068012804D00021404600F0E5
:10175000B9FAD0E730460EF010FA68B130460EF014
:1017600011FC30460EF0DEF898B1012130460DF044
:101770009FFA0EE026E02FE048460EF051FC0646A8
:10178000404602F0C3FD0090C0F88060684602F059
:1017900007FE0121404600F095FA002EABD1002053
:1017A000E060A8E75FEA0A700CD4E068C06848B15E
:1017B000007A38B140460EF0E5FB03E02146404692
:1017C00018F0E8FE214640460DF0E2F9002892D0DC
:1017D00020460DF07FFC8EE7404602F097FD00901A
:1017E000703002F0EDFC684673E7F0B587B0B0F9F1
:1017F00008400DF10C0C0C9E876945688CE8F000E0
:10180000448A0025CDE900150294B0F90C10B0F916
:101810001050B0F90E40B0F90A00194410442B469C
:10182000224600F003F807B0F0BD00002DE9F047B4
:101830008AB00DF14C0CDDE917849CE86006129F1C
:1018400045F48055DFF8BCC06034CDE902C4CDE971
:1018500000750DF091FB04004FD002F057FD3022CF
:10186000494604900DF0C4FA0498282226493430E1
:10187000FEF7CAFC0498244FC0F86480A0F87C608E
:101880000026C0F88060C666083FC0F888607968A6
:10189000C16504A802F084FD05A9204600F09CFA69
:1018A0001A4841F2827103960094CDE90110BDF906
:1018B0001E00BDF91A10BDF91C20431ABDF918000D
:1018C0005B1C121A521C0DF057FB064678684168E3
:1018D00020468847204602F019FD0490866604A839
:1018E00002F05EFD42F20400054202D120460DF0F6
:1018F00097FC5146204600F027FA0AB02046BDE882
:10190000F0870000331600085C080020931F0008D1
:101910002DE9F041044694B0006800F0B7F908B131
:10192000D94D01E0D84D2C35606815281ED00CDC4F
:101930000B281FD004DC00287ED005287DD12FE1A4
:101940000E287BD01228F9D141E1162806D017289D
:1019500008D0182808D01C28F0D109E0E86914B094
:10196000BDE8F081286AFAE7686AF8E7A86AF6E74E
:101970006869F4E720680B901C200C90206802F046
:10198000C5FC0390016D0BA88847064603A802F02A
:1019900007FD022E0FDB95E807008DE80700D4E96C
:1019A00004023346A16905F065FD20698719A06925
:1019B000A0EB06082CE0286804F088FE2169E8699D
:1019C0000A18521E606903F0C1FCA269E869111A85
:1019D000491C606903F0BAFCD4E904077F1C39464E
:1019E00003F0F6FC3946A06903F0F2FC686804F0E5
:1019F0006DFE20693946401C03F0EAFCA0693946B7
:101A0000401E03F0E5FCA0692769A0F10208BF1C95
:101A1000286804F05BFE42463946606903F096FC94
:101A2000686804F053FE606942463946401C03F082
:101A30008DFC686A022802E015E1B0E000E10BDDF0
:101A4000A86804F043FE61696A6A881C8B18014625
:101A5000424638465B1E27E0296AB14226DD6069AE
:101A6000022E074600F1020801DB374401E007F1CE
:101A70000207206901DB304401E000F10200226925
:101A80003B460A444146A2F1010203F05DFD022EED
:101A900002DBA069821B01E0A269921EA069E969CC
:101AA0003B46401A4146401C03F04EFD022E02DB2D
:101AB0006069064401E06669B61CE76928687F1E14
:101AC00004F004FE3A463146206903F0FBFC3A4636
:101AD0003146A06903F0F6FCE7696868BF1E04F0B0
:101AE000F5FD20693A463146401C03F0EBFCA06945
:101AF0003A463146401E03F0E5FCE869022802DC64
:101B0000286A022823DDA86A022802DDE1690F1A8B
:101B100001E0E769BF1EA86804F0D8FDE969022961
:101B200009DD20693B46421800F1020C314660464F
:101B3000521E03F009FD286A022808DDA269E8693F
:101B40003B46101A3146401C921E03F0FDFC2868EB
:101B500004F0BCFDD4E90620216903F0F7FB6868B6
:101B600004F0B4FDD4E906202169401E491C521E30
:101B700003F0ECFBA86A022811DDA1692669E4697B
:101B8000A1F10208271AA41EB61C7F1CA86804F045
:101B90009DFD234642463946304603F0D5FC71E0B0
:101BA000208A00B2ADF81400A18A09B2ADF816106F
:101BB000228B12B2ADF81820A38B1BB2ADF81A30ED
:101BC0002C69ED68CDE9005403F068FB5AE0208AE7
:101BD000298B0844ADF81400A08AADF81600208BBC
:101BE000298B401AADF81800A08BADF81A002068B8
:101BF00002F08CFB0390006FF0B1022004F0D2FDE4
:101C0000039890F87C10C1F3C00100EB8100006CD8
:101C100004F05CFD0398406B04F066FD0398006FD0
:101C200002F074FB03990990B1F95A2005A903F059
:101C300049F909A802F0B4FB03A802F0B1FB21E0C6
:101C4000208AADF81400A08AADF81600208BADF8FC
:101C50001800A08BADF81A00A86804F037FD05A89D
:101C600003F096FC0EE0206802F050FB039030F881
:101C70005A1F41F00C01018003A802F091FB20687B
:101C80000EF0F6F900206AE69808002038B5002426
:101C900050B102F03BFB009090F87C00000700D5AB
:101CA0000124684602F07CFB204638BD022905D29B
:101CB000034A52F821102C22FEF7A6BA7047000002
:101CC000889C0A08002801D01AF050BF7047000015
:101CD000074A0649054B1160064A083BD16958601E
:101CE0001B68C2E906300846704700008C080020D7
:101CF000580800205C08002070B50D460146022DF2
:101D00001ED2104C2C2254F82500FEF77DFA54F810
:101D100025100220CA69022A00DAC86154F8251089
:101D20000A6A022A00DA086254F825104A6A022A6E
:101D300000DA486254F825108A6A022A00DA8862BA
:101D400070BD0000889C0A087CB50D46040019D0BF
:101D500002F0DCFA0090006F0190684602F020FB70
:101D6000294601A805F05CFF00280BD0204602F0B0
:101D7000CDFA009001990167684602F011FB2046F8
:101D80000DF099FE7CBD38B50C4605000ED002F072
:101D9000BDFA0090B0F95A10A14204D0A0F85A4000
:101DA00028460DF088FE684602F0FAFA38BD38B5CC
:101DB0000C4605000FD002F0A9FA0022009000EBBB
:101DC0008201521C0C64022AF9D3684602F0E8FA38
:101DD00028460DF070FE38BD2DE9F34F85B0002781
:101DE0000C46B846059802F091FA0090C06D0121AA
:101DF000856805982A68904782462A6803210598D5
:101E0000904704902A6802210598904703902A6819
:101E1000002105989047064600980EF01EFB834669
:101E200000980EF021FB8146009890F83210890648
:101E300001D5B0F9588000F036F805460098C06E1C
:101E400010B10DF096FB074625806780A4F804A02A
:101E5000049AABEB020006EB0802401E2A442081E4
:101E60003A44E280039BA9EB0302521E6281A4F86C
:101E70000CA020827019E681401E6082684602F044
:101E80008FFAB4F90C000190B4F91000029002AA84
:101E900001A9059800F03AF80198A08102982082E3
:101EA00007B0BDE8F08F10B50146002091F8322050
:101EB000920607D5B1F95400002803D1486B03F00E
:101EC00052FC801C10BD70B58AB00C46054602F06D
:101ED0001DFA0990C06D866809A802F061FA0095A4
:101EE00034B1012C06D0022C0BD0032C04D10AE013
:101EF000182000E0162001907168684688470AB0F3
:101F000070BD1520F7E71720F5E700002DE9FC412B
:101F100017468846044602F0F9F90090C16D05683D
:101F200068468E6802F03CFA3268002120469047ED
:101F3000064620460DF008FA27E000BF02F0E6F959
:101F40000190B0F900102AB2B0F90430891A9A1A37
:101F5000B0F90230A3EB2543B34210D190F828002A
:101F6000000605D53868884209DB491E396006E05D
:101F7000D8F80000904202DC521CC8F8002001A8EA
:101F800002F00EFA20460DF06FFA0400D6D1BDE83B
:101F9000FC812DE9F0430446406889B005460DF008
:101FA0007BFA814602F0B2F90290D0F84880D0F86E
:101FB0008070466E02A802F0F3F92068172853D00B
:101FC00008DC0E283AD00F2811D014284CD0152840
:101FD0003DD149E01E281ED01F282AD0222840D0FB
:101FE000312834D10020E06009B0BDE8F0836FF003
:101FF00070414046884503D009F0DEFA02F0F4FC57
:10200000002EF1D0D4E902122068CDE90405CDE913
:10201000061204A81FE0E0680028E5D02FB1AF4207
:1020200003D038460DF0AEFFDEE728460DF0F8FF8E
:10203000DAE7214648460CF0ABFDD5E7E068416899
:10204000002904DD00680928EFD00A2805D05EB118
:102050002046C4F80490B047C6E728460DF0E8FFD4
:10206000C2E7C4F80C80BFE720460DF033F8BBE7A9
:1020700010B504460A280FD00D2C11D0094800686D
:10208000C06901682046884707480168002907D0D1
:102090002046BDE810400847BDE8104002F04CBEA5
:1020A00010BD0000B4060020E00600202DE9F0433A
:1020B0000446C56887B090468946002004F012FBAC
:1020C000064625B1287910B146F0020001E026F05D
:1020D000020004F007FB2069012558B1D4E902127F
:1020E0008DE82600039563882288046841464846A7
:1020F000A0471EE0124F134B214638681B68427CF4
:10210000E068984730B9E088012801D0002001E05C
:102110003868806BA288E388A1680095CDE9041037
:10212000CDE902320195638822884146484608F08D
:1021300033FC07B03046BDE8F04304F0D3BA0000EA
:10214000B4060020AC0600202DE9F0478146884601
:1021500040F2C32050434FF47A7190FBF1F502FB3B
:1021600002F002EBD27100EB6106174600234146F4
:1021700048466D1CFFF74CF9012413E004FB04F002
:1021800007FB0700B04206DD3B4622464146484673
:10219000FFF73EF97F1E3B46224641464846FFF781
:1021A00037F9641CAC42E9DDBDE8F0871CB50024BA
:1021B000019401AC009400F0E7F81CBD2DE9FF4F3D
:1021C00083B0814606988A46A0EB0A08109E00203C
:1021D0000090A2EB09043568934654EA080018D031
:1021E0002046FEF720FC07464046FEF71CFC8742CF
:1021F0000BDA2046444680464846D1468246584639
:10220000DDF818B0069001200090002C07DD204674
:1022100006E007B04846BDE8F04F00F03BB9604229
:10222000A0420AD04846D9466442C8F10008834615
:102230004FF0FF37DDF818A000E001275148B8F152
:10224000000F11D004EBD4714FEA610B01DACBF12E
:10225000000B4C480068807E88B3002F02DA30689B
:102260002044306000257BE000990029016821D0DE
:10227000897E11B10027804615E007B05A464946CD
:102280005046BDE8F04F08F055BD28466D1C1AF0C9
:10229000ADFF38B9D8F8000009EB0701406E42687D
:1022A000504690477F1CA742EFDD6D1E356007B09A
:1022B000BDE8F08F8A7E1AB10027804617E019E04A
:1022C000486E5A465146036807B04846BDE8F04F8D
:1022D000184728466D1C1AF089FF38B9D8F8001045
:1022E00009EB0700496E4A68514690477F1CA74298
:1022F000EFDDDAE700250FE008FB05B090FBF4F115
:1023000001EB0A00009951B11E4A09EB0501126860
:10231000526E526890476D1CA542EDDDC7E7194922
:1023200009EB05030968496E4A6801461846F1E75A
:1023300008FB05B090FBF4F101EB0A000190306856
:10234000384430601AF052FF48B9009890B10D48F7
:1023500009EB05010068406E4268019890476D1CCA
:10236000A542E5DD3068002F01DA20443060C01B53
:1023700030609CE7034909EB05000968496E4A682B
:102380000199EBE7B40600202DE9FF470F464049CD
:102390001646804609680C981D460A7E012A1CD004
:1023A000A8EB0600791B50EA01031CD0A2F1010939
:1023B0001CF07CFF00F58060824605F03CFD00FBD0
:1023C00009F4504605F03CFD00FB09F1002C0CDA45
:1023D000C4F50070801240420AE00090324639464F
:1023E0004046FFF7EBFEBDE8FF8704F50074A0123E
:1023F000002904DAC1F5007189124C4202E001F5AE
:1024000000718C12002804DD411C01EBD1714910D0
:1024100003E000EBD0714910401E00EBD070421079
:10242000002C04DD601C00EBD070401003E004EBD6
:10243000D4704010641E04EBD47308EB0104ADF8B3
:1024400000403C18ADF80240A8EB02045B10B21A41
:10245000ADF80440ADF808203144FC1AEA1AADF892
:102460000C102844ADF80A20ADF80E000023ADF89A
:1024700006401A460421684600F07AF8394640467C
:1024800013F030FD2946304613F02CFDABE7000079
:10249000B4060020064A13681A7E012A05D0521E8F
:1024A00002EBD272521000F005B85A6E5268104713
:1024B000B40600202DE9F05F0646884640F2C320AE
:1024C00002FB00F14FF47A7091FBF0F702FB02F18E
:1024D00002EBD27001EB600B1446B118234A301B9B
:1024E0007F1C1268526E13680A46414698470125C0
:1024F00038E000BF05FB05F004FB040159451CDD75
:10250000BC4219DD194B06EB050AA6EB05091B6851
:10251000AAF1010208EB04015B6E09F101001B68DE
:102520009847124BAAF10102A8EB04011B6809F1BC
:1025300001005B6E1B689847641E0C4B3219301B00
:102540001B68924608EB05015B6E81461B68984745
:10255000064B5246A8EB05011B6848465B6E1B689C
:1025600098476D1CBD42C5DDBDE8F09FB406002054
:102570002DE9FF4F43F6FF740F46664283B09B463A
:10258000814600210BE000BF09EB8100B0F9020099
:10259000A04200DA0446B04200DD0646491CB942BA
:1025A000F2DB67480068406900280DD0B0F90610DA
:1025B0001A46A1EB0B01B14200DA0E46B0F9020057
:1025C000801AA04200DD0446B4E0DFF878A10020C4
:1025D0000546CAF8000088E0781E854201DA6B1CC7
:1025E00000E0002309EB850C09EB8302BCF9020033
:1025F000B2F90210A04244D1A14215D139F92330D9
:10260000059A39F9251003EB020C4D4A059812681A
:10261000084404EB0B01526E6045136801DA624610
:102620002AE00246604627E02846A4464FF000080C
:102630007A1E0BE008B1401E00E0781E09EB800313
:10264000B3F90230634504D108F101089045F1DB8C
:102650002346A34248D01A1B39F92500A1EB040CEC
:10266000059B92EA0C0F09D4354A184404EB0B0180
:102670001268526E13680246984735E00EF0A4FCCB
:1026800032E0A14230D001DBA04203DDA0422BDBCF
:10269000A14229DCE04688420ADC0346A04223DC52
:1026A0000846A14220DBB8F900C0B2F9001008E0EA
:1026B0000B46A14218DCA04216DBB2F900C0B8F903
:1026C0000010E21AA1EB0C0151430029A0EB030218
:1026D00002DD01EB620102E0A1EB6201491CC01ABC
:1026E00091FBF0F06044C9E76D1CBD42FFF674AF8A
:1026F0000598009004EB0B000190002080460546F1
:1027000013E01149B8F1000F31F915A009D0009973
:1027100001EB0A0208440A490968496E0B680199ED
:10272000984788F0010850466D1C064909688D429B
:10273000E7DB641CB4427FF748AF07B0BDE8F08F19
:10274000B4060020D80C00206C01022010B5002037
:1027500003F0B8FF6FF07F4003F0B8FF012004F0F2
:102760000FF8002004F014F8002004F01BF80020FB
:1027700003F0B8FF0448006803F0B6FFBDE810405E
:10278000002003F0D9BF0000B006002033B583B0AD
:10279000040016D001F0BAFD0190456E01A801F0C9
:1027A000FFFD049801F0B2FD00908460684601F0DE
:1027B000F7FD042204A9284601F016FE20460DF07C
:1027C0007AF905B030BD33B583B0040016D001F0FE
:1027D0009DFD0190856E01A801F0E2FD049801F0D5
:1027E00095FD00908460684601F0DAFD042204A99A
:1027F000284601F0F9FD20460DF05DF905B030BD29
:102800002DE9F04104460025D4E90007B0F5407FEA
:1028100000D10125214638460CF0BAF9064615B11B
:10282000384617F0EDFB002E2FD02068052806D083
:102830000B280ED00F2806D0262821D10EE03846CE
:1028400017F0DEFB1CE03846E168BDE8F04118F007
:10285000F0B93846BDE8F04117F0CBBEE068052876
:102860000ED138460CF045FEA168884205D03846A6
:102870000CF036FEA168884202D1606819F052F867
:102880002046BDE8F0410CF025BCBDE8F081F0B574
:1028900085B00DF1280C9CE8F0004FF0000C8DE89D
:1028A000F01000F003F805B0F0BD00002DE9F04194
:1028B00086B00DF1300CDDE90F849CE8E0006C344B
:1028C000DFF850C003948DE860100CF055FB040055
:1028D0001BD001F0C6FD054601F0C3FD06462046AB
:1028E00001F014FD0490C0E91956002241460CF095
:1028F0007FFA0498302208493430FDF785FC0498AB
:10290000A0F8787004A801F04BFD06B02046BDE8A1
:10291000F081000001280008F008002003B583B012
:1029200001F0F4FC009060B1406A01F0EFFC014658
:102930000190022304AA009800F07EF901A801F09A
:102940002FFD684601F02CFD05B000BD2DE9F043D8
:10295000814685B01D4690460F462C2001F0EDFBC8
:10296000060024D0780001F0E8FB04000ED0B8F196
:10297000000F0BD055B1204601F0C8FC6A0041465B
:102980000090FDF741FC684601F00AFD304601F079
:10299000BDFC0949029000F10C02446282E8A202E7
:1029A000064901600649416002A801F0F9FC05B042
:1029B0003046BDE8F083000001990108DDAD010853
:1029C00083A6010817F05DBE2DE9FC478946070084
:1029D00026D001F09BFC0190466E01A801F0E0FCBE
:1029E000304601F092FD0546002414E021463046B1
:1029F00001F097FD70B101F089FC0090D0F80080E3
:102A0000684601F0CDFCC84504D12146304601F0AE
:102A100053FD02E0641CAC42E8DB38460DF04BF895
:102A2000BDE8FC872DE9FC478946070026D001F068
:102A30006DFC0190866E01A801F0B2FC304601F0F9
:102A400064FD0546002414E02146304601F069FD8E
:102A500070B101F05BFC0090D0F80080684601F096
:102A60009FFCC84504D12146304601F025FD02E017
:102A7000641CAC42E8DB38460DF01DF8BDE8FC876D
:102A80002DE9F8430746984615460E46302001F0DA
:102A900054FB040015D001F039FC0090C0E9057624
:102AA0008584094AB7EE000AC0F81C8080ED0A0A46
:102AB000D2E90012C0E9031204490160684601F03E
:102AC0006FFC2046BDE8F88320090020B5AE010860
:102AD00001F04EBB38B50D46002460B101F016FC84
:102AE0000090046AAC4203D0056280680CF0E3FFFA
:102AF000684601F055FC204638BD38B50D46002427
:102B000060B101F003FC00904469AC4203D0456120
:102B100080680CF0D0FF684601F042FC204638BDCA
:102B20002DE9F8431D46DDF8208016460F460400C7
:102B300010D001F0EBFB0090C0F860804765C0E961
:102B40001665684601F02CFC204617F059FA20461D
:102B50000CF0B1FFBDE8F883F8B515460E46070046
:102B60004FF0000410D001F0D1FB0090042D08D2EA
:102B700000EB8500446BB44203D0466338460CF04A
:102B80009AFF684601F00CFC2046F8BDF8B50D46EA
:102B900006004FF000040CD001F0B8FB0090446C2C
:102BA000AC4203D0456430460CF085FF684601F026
:102BB000F7FB2046F8BDF8B50D4606004FF00004BF
:102BC0000CD001F0A3FB0090846CAC4203D0856470
:102BD00030460CF070FF684601F0E2FB2046F8BD7D
:102BE000F8B50D4606004FF000040CD001F08EFB46
:102BF0000090046DAC4203D00565304600F04EF8FD
:102C0000684601F0CDFB2046F8BDF8B50D4606003C
:102C10004FF000040ED001F079FB009090F86C406A
:102C2000AC4204D080F86C5030460CF044FF68464B
:102C300001F0B6FB2046F8BD2DE9F041044680685E
:102C40001D4617460E46002826D0D4E904029042BD
:102C50000ED1521E6A4371193046FDF7D5FA20692C
:102C60002A46401E05FB00603946FDF7CDFA0EE00E
:102C700005FB0013401C20612A4639461846FDF723
:102C8000C3FAE16819B12046BDE8F0410847A068E1
:102C9000BDE8F04100F002B8BDE8F08110B58AB09F
:102CA000044601F033FB09A904AACDE9002105ABD4
:102CB000089006AA07A915F0CBFC08A801F070FB44
:102CC00002A920460CF07EFBBDF8080007990844D5
:102CD000ADF80800BDF80A0006990844ADF80A00EE
:102CE000BDF80C000599401AADF80C00BDF80E00B7
:102CF0000499401AADF80E0002A920460CF0A0FE7F
:102D00000AB010BD014AC2E9000170476006002008
:102D1000014AC2E90001704768060020014AC2E981
:102D2000000170474C070020014AC2E900017047CA
:102D300070060020014AC2E90001704754070020D4
:102D400030B5002300E05B1CC25C002AFBD10124EB
:102D5000224603E004EB84046400521CB1FBF4F54A
:102D60000A2DF7D2002403440A209C540BE000BF34
:102D7000B1FBF0F400FB1414B1FBF0F19D183034FA
:102D800005F8014C521E002AF2D130BD10B50022C8
:102D9000134600E0521C845C002CFBD102E08454FA
:102DA000521C5B1CCC5C002CF9D10021815410BD5D
:102DB00010B508A115A000F041FD00F039FD00207C
:102DC00000F00EFA0EF078FBBDE810404FF47A6088
:102DD00000F0F8BE53686F77696E670A64696666CB
:102DE0006572656E74206269746D617073207769B5
:102DF00074680A616E6420776974686F7574206303
:102E00006F6D7072657373696F6E00004269746DE7
:102E10006170730010B5084C02E00A2001F060FFF9
:102E2000606A0128F9D0A06A01284FF0000001D1A2
:102E3000A062012010BD00003C0000202DE9F04FF1
:102E400097B0502102A8FDF706FA08F08FF88346E4
:102E500008F098F80446864986A000F0EFFC0120AF
:102E600000F0BEF96FF07F49484603F02FFC84481C
:102E700003F03AFC4FEA6B010C2282A002F008F842
:102E8000834803F031FC2B22012182A001F0F8FFDE
:102E90003F22012180A001F0F3FF5322012180A0F5
:102EA00001F0EEFF622201217FA001F0E9FF712213
:102EB00001217FA001F0E4FF852201217EA001F025
:102EC000DFFF992201217EA001F0DAFF7E4803F0A6
:102ED0000BFC07F085FF014602A8FFF731FF7BA13D
:102EE00002A8FFF753FF092007F096FF05000BD05B
:102EF00078A102A8FFF74AFF294602A8FFF720FFA2
:102F000075A102A8FFF742FFA4F119020C2102A843
:102F100001F0B6FF00F074F906464FF4FA7A41F278
:102F2000707798E000F06CF9801B4FF4FA6190FB29
:102F3000F1F201FB1200491090FBF1F16FF07C02FD
:102F40004A4300EBC20050457EDCC0EB002090FB02
:102F5000FAF0C1EB0121484000EB002101EB0044F5
:102F60004FF0FF08CDE90084A9EB040534235A464D
:102F70002B213C2002F05EF9CDE900853E235A4624
:102F800035213C2002F056F94FF47F48CDE900840A
:102F900048235A463F213C2002F04CF9CDE90085F8
:102FA00052235A4649213C2002F044F94FF47F084D
:102FB000CDE900845C235A4653213C2002F03AF9C3
:102FC000CDE9008566235A465D213C2002F032F9A6
:102FD0004348CDE9000470235A4667213C2002F0A3
:102FE00029F94FF6FF78CDE900857A235A467121F9
:102FF0003C2002F01FF9CDE9008484235A467B214E
:103000003C2002F017F94FEA0828CDE900858E230D
:103010005A4685213C2002F00DF9CDE90084982321
:103020005A468F213C2002F005F94FF0FF18CDE9F8
:103030000085A2235A4699213C2002F0FBF8AC23DC
:10304000A3215A463C2000E005E0CDE9008402F0CF
:10305000F1F802F057FA00F0D3F8801BB84204DA16
:10306000FFF7D8FE00283FF45DAF17B0BDE8F08F42
:10307000C8C60A08436F6C6F72206261720000005C
:1030800058580808436F6C6F7220626172730000B9
:1030900054760A0852656400477265656E00000048
:1030A000426C756500000000477265790000000001
:1030B00059656C6C6F7700004379616E0000000009
:1030C0004D6167656E746100F4530A082062707088
:1030D000000000002C20000020636F6C6F727300F2
:1030E00080808000034901600B214160052101813E
:1030F000704700006C00002010B50DA115A000F075
:103100009DFB012000F06CF801F054FB0FF0D8FD9E
:103110004FF47A6000F056FD01F028FC00210846CB
:1031200001F0E4FBBDE810400C4801F073BB000067
:103130005354656D57696E20737570706F72747338
:103140000A736F66747761726520637572736F724C
:1031500000000000437572736F720000BC4B0A08D8
:103160002DE9F0471D4F04464FF404794946B868ED
:103170000CF0E2F88046642C05DD4946B8680CF096
:10318000DBF80CF0EBFF002140460AF07BF822460A
:10319000002140460AF04DF802F0BAFA4FEA000664
:1031A00000F02EF8851B642C03DD294640460AF00A
:1031B00069F8052001F094FDFFF72CFEA54201D22D
:1031C0000028EDD0642C05DD4946B8680CF0B4F851
:1031D0000CF0B8FBBDE8F04702F094B93C000020C9
:1031E00001490969084700003C000020034909899A
:1031F000014201D0012070470020704770FD01207E
:1032000010B5054C606A08B1206A10BD02F080FA62
:10321000E169401A10BD00003C00002010B506A175
:1032200012A000F00BFB00F003FB15F023FDBDE83E
:10323000104000F0ABBA00004F7074696D697A6598
:10324000642064726177696E6720726F7574696E4D
:10325000650A666F722064726177696E67206772B3
:1032600061706820646174610000000044726177DD
:10327000696E67206120677261706800054810B54B
:10328000C0680CF05FFB0CF041F8BDE810400CF09A
:1032900079BF00003C0000202DE9F04F8FB065A100
:1032A0006FA000F0CBFAFFF7E9FF0CF02FF80BF05E
:1032B000C2FF0CF02BF86E490CF0D0FD83460CF0E9
:1032C00025F86CA14FF4B072CDE90321002502244A
:1032D0008DE831001E234FF4A072294628460AF0DB
:1032E0001AFE824669490AF08DFE0E2150460AF008
:1032F000C0FE674950460AF0CCFE0CF007F865A105
:1033000040F26112CDE903218DE8310064238C2263
:103310002821A0200AF0FFFD81465F4A06A95F48E8
:1033200002F0D4FF06A948460AF06CFE6FF07F4118
:1033300048460AF0AEFE012148460AF0BCFE0E21C6
:1033400048460AF096FE07F01DFE05460BF0DEFF2C
:103350003C213722CDE904214FF414730321CDE938
:103360000243CDE90001A5F1280388221E210A208D
:1033700007F0E6F94A4D0024CDF8000004EB4400C4
:1033800005EB80014A6855F82010009807F014F901
:10339000641C092CF2D3434A0121009807F035FA46
:1033A0004149009807F048FA00980CF0EBFD01261F
:1033B0000025FFF725FF42F228314718FFF720FFCD
:1033C00000F57A744FF0FF38322001F089FC0BF0E1
:1033D0009DFF4FF480610CF030FDFFF711FFA0421C
:1033E0000DDB04F57A7415B1082D02D002E0012638
:1033F00000E0464635442946009807F02FFAFFF7CB
:10340000FFFEB84203DAFFF705FD0028DCD0504686
:103410000BF094FE48460BF091FE00980BF08EFEE8
:103420000BF074FF59460CF019FD00F0AFF90FB026
:10343000BDE8F08F44656D6F6E737472617465736F
:103440002074686520757365206F660A746865204E
:1034500049434F4E56494557207769646765740064
:1034600049636F6E20566965772044656D6F000073
:1034700055F801085354656D57696E2049434F4E06
:10348000564945572073616D706C6500585808089F
:103490004040FF0000000000044D0A081CCA040858
:1034A00090AC05080000FFC0B46B0A082DE9F0419C
:1034B00088B0202238496846FCF7A6FE07F056FD82
:1034C000054607F05FFD04466E100020FFF788FEFA
:1034D000022003F067F96FF07F48404603F0F6F8EA
:1034E0002E4803F001F944F3191231462CA001F0E3
:1034F000CFFC2D4803F0F8F804EB440000EBC400C7
:103500008211314629A001F0C3FC364803F0DEF8F1
:10351000162004FB00F7BA11314633A001F0B8FCC5
:103520003D4803F0E1F8122000EBA71231463BA022
:1035300001F0AEFC404603F0C9F81B4803F0D4F894
:1035400002F0E8F801466846FCF790FEC4EB441030
:1035500082113146684601F09BFC262060438211AF
:1035600036480088281A4110354801F05BFD404676
:1035700003F0ACF8094803F0B7F8C4EBC40040F31B
:10358000D90231462FA001F083FC41F28830FFF7C9
:10359000E7FD08B0BDE8F081FCDC060858580808D3
:1035A0005354656D57696E0054760A08556E6976F6
:1035B000657273616C206772617068696320736FF4
:1035C0006674776172650A666F7220656D62656404
:1035D000646564206170706C69636174696F6E7397
:1035E00000000000FF882200466F722053544D33C4
:1035F00032204D43552050726F6475637473202DD3
:1036000020436F72746578204D33202D20436F72F4
:10361000746578204D340000DC5A0A08436F6D70E1
:10362000696C656420417567203132203230313653
:103630002031303A35343A3433000000D082080863
:10364000041C09087777772E73742E636F6D2F73C0
:10365000746D33320000000010B506A110A000F018
:10366000EDF80120FFF7BCFD00F0E2F8BDE81040E6
:103670000FF03AB953686F777320736F6D652066EA
:1036800065617475726573206F660A746865204C95
:1036900049535456455720776964676574000000A4
:1036A0004C697374766965772064656D6F000000FE
:1036B0008CB02949294802F02BFB0BF027FE284942
:1036C0000CF0CCFBFDF72CFC00216846FEF7EEFA6F
:1036D0000024214668460594FEF70EFB012168464A
:1036E000FEF7E4FA012168460594FEF705FB1D4844
:1036F000FEF7EEFA1C4809F07FFD1C48FDF7F0FBD1
:103700001B480AF0D5F91B480AF0C0FA1A4806F01F
:10371000CDFE022003F046F81848FFF7E3FC07F05F
:103720005FFB0D4C2C3C102813DB0420FFF75EFDE3
:1037300078B100F0D3FDB0F5001F01DD104800E0C6
:1037400010482061012000F049F800BF16F09CFAF3
:10375000FCE70D48F5E700006800002079F5010856
:1037600031F301081D71010875D10008A90C00088A
:10377000FDD8000861DB0008D1A3000870FD01201E
:10378000FD500108B95001082D520108054810B537
:103790008169491C81610EF067FABDE8104000F0B4
:1037A000A1B900003C00002010B5FFF767FD0749F4
:1037B00007A000F043F801200CF0E2F918F0B4FF84
:1037C000BDE8104000200CF0DBB9000030D10A0841
:1037D00052616469616C204D656E750000B1012015
:1037E00001490870704700003C000020044810B5F3
:1037F00080680CF0B3FCBDE8104001F083BE00000F
:103800003C00002070B5094C0546E0680CF0A8F9B2
:10381000002809D04FF4B071E0680BF08DFD294607
:10382000BDE870400AF000BC70BD00003C00002004
:103830000148C0680CF092BC3C0000202DE9F0412A
:103840000C46064607F092FB054607F09BFB6D1001
:103850004710FFF713FDFFF7C9FF01F053FE0120EA
:10386000FFF7BEFC6FF07F4002F030FF022002F055
:1038700099FF104802F038FF3C222946304601F0FB
:1038800007FB0D4802F030FF01F01AFF3A1A2946F3
:1038900020460A3201F0FCFA002200E0521CA05C33
:1038A0000028FBD1BDE8F04102EB8200000100F0EE
:1038B00089B900005858080854760A082DE9F04FD5
:1038C000A1B0282107A8FCF7C6FC07F04FFB05466E
:1038D00007F058FB044607F03DFB074600F06AFF7F
:1038E000A7420BDD0020ADF87400ADF87600ADF80E
:1038F0007850ADF87A401DA802F0E6FE54A160A011
:10390000FFF79CFFDFF8849100270DF1440800BF0A
:1039100059F8270001F0B0F848F827007F1C082F5D
:10392000F6DBFFF76DFC07464FF0000941F2883ADD
:1039300051E000BF09F0070158F8210002F0C8FE6D
:10394000FCF750FC90FBF5F105FB110005EBD57180
:10395000A0EB61000FFA80FBFCF744FC90FBF4F154
:1039600004FB110004EBD471A0EB610001B21F91C4
:10397000FCF738FC90FBF5F105FB1101143101EB6C
:103980000B0002B262F30F060592FCF72BFC90FBD2
:10399000F4F104FB11001F991430084403B263F3DF
:1039A0001F4602935846059A01F0CEFD059AAA4299
:1039B00002DB681E60F30F060298A04202DB601E65
:1039C00060F31F46301402D5002060F31F4601F05B
:1039D00099FD09F10109FFF713FCC11B514503DAF9
:1039E000FFF718FA0028A5D0FFF7D0FE14F081FEEB
:1039F0000646002002F068FE0020FFF7F1FB6FF0A2
:103A00007F4002F063FE022002F0CCFE204802F06C
:103A10006BFE052211461F4801F004FB1EA107A8FA
:103A2000FFF7B4F9314607A8FFF78AF901F050FE15
:103A3000201A4210691007A801F02AFA4FF47A60A0
:103A4000FFF78EFB00F092FF21B0BDE8F08F000081
:103A50004D756C7469206C6179657220636C697056
:103A600070696E670A486967686C79206F7074695D
:103A70006D697A656420647269766572730000000E
:103A800048696768207370656564000074420908BE
:103A90005858080860420908506978656C732F739C
:103AA00065633A200000000010B5094909A0FFF73E
:103AB000C5FEFFF7BDFE0020FFF792FB00F07AFE87
:103AC0000EF04AFF00F052FFBDE81040FFF75EBE67
:103AD00010D20A0854726565766965772064656D51
:103AE0006F00000030B585B014216846FCF7B3FBC9
:103AF000134C4FF4B071A0680BF01EFC054611A1E9
:103B00006846FFF743F961696846491CFFF718F9F1
:103B10000EA16846FFF73AF96846A169FFF710F968
:103B20000BA16846FFF732F90A4841686846491E0A
:103B3000FFF706F9694628460AF076FA05B030BD67
:103B40003C00002044656D6F200000002E00000046
:103B50002F00000070FD012010B507F013FA044695
:103B600007F0F8F9B0EB440F0EDB08A111A0FFF746
:103B700065FE0120FFF734FB0EF058FF0021BDE881
:103B80001040084602F0E0BD10BD000044656D6FB6
:103B90006E7374726174657320686F7720746F2020
:103BA0007573650A7669727475616C2073637265EA
:103BB000656E73005653637265656E2064656D6F44
:103BC0000000000010B5FFF7CBFABDE81040FFF78A
:103BD000DDBD00002DE9F04FDFF828B191B04FF0C6
:103BE000FF35DBF80030B3F922100691DE69B3F936
:103BF0002490F469A189814206D8E289824203D3E4
:103C0000471AD4F8008012E0D4E9018100296FD06E
:103C10000A8882426CD84D88854269D3801A82B264
:103C2000486800EB8200B0F90070B0F90250781CCF
:103C30005ED0307EA17C10FB01FA217CCDE907012A
:103C4000B3F92A60304607F017FDC0B20E90DBF8DA
:103C5000000007FB0A81A37C826B0127CDE90412D7
:103C6000CDE90273C069089AC17E807ECDE900016A
:103C7000DDE90603494606F08FFE681C18D046F0C1
:103C8000020007F0F9FCDBF80000A37C05FB0A81C9
:103C9000826BCDE90273CDE90412C069089AC17E36
:103CA000807ECDE90001DDE90603494606F074FE99
:103CB000DBF800005D46C069417E007E814214D978
:103CC000022E12D086F0040007F0D6FC2868C069E6
:103CD000027EC37E12FB0391437E857E089A06987E
:103CE0004B4412FB050207F04FF80E9807F0C4FC96
:103CF000DBF80000627C418C1144418411B0BDE8C6
:103D0000F08F0000B406002004480068C069C06954
:103D100009B1027C0A60407C70470000B4060020B4
:103D2000022008807047C06982898A4202D8C2890D
:103D30008A4210D2806880B102888A420DD84388B6
:103D40008B420AD3406800EB8100A0EB8200B0F9FF
:103D50000000002801DB01207047002070470000B0
:103D6000F0B52C4D044687B028682146B0F92A608A
:103D7000C069C06900F066F9002848D04168008831
:103D8000201A00EB400001EB80042078401C47081B
:103D9000304607F071FC06461F48D0F800C0BCF161
:103DA000000F1AD00021A068CDE9040104220120EF
:103DB00001A9009081E88500286894F90320DCF8C7
:103DC0000070B0F92410B0F92200114494F90220D7
:103DD000637810442278B84711E0A068CDE90070FC
:103DE000286894F903206378B0F92410B0F9220010
:103DF000114494F902201044227800F067F930460B
:103E000007F03AFC28682279418C1144418407B0BC
:103E1000F0BD0000B4060020F00600202DE9F043BC
:103E2000304C034687B020681946B0F92A60C06953
:103E3000C06900F040F9002850D041680088181A85
:103E400001EBC0053046AF7807F016FC81462068CC
:103E50006A680123816BCDE90237CDE90421C1698C
:103E6000CB7E8A7ECDE900230B7EB0F924102A7820
:103E7000B0F9220006F090FD2068C069417E027E04
:103E800091421FD9C07E11FB00F812FB00F7022EF1
:103E900018D001F0FEFB064601F0DEFB02F016FC36
:103EA00021682A78CB69B1F92200DB7E12FB03027C
:103EB000B1F9241001EB0803394406F065FF3046E0
:103EC00002F004FC484607F0D7FB20686A78C36913
:103ED000B0F922109B7E12FB0311418407B0BDE8AC
:103EE000F0830000B406002030B5104C05460B46A8
:103EF00020682946C069C06900F0A4F8002814D0E1
:103F0000416800882468281A00EB40020420E46914
:103F100000EB8200085CA47E10FB04F0002B04D0B0
:103F200011F8221011FB04F1196030BDB406002015
:103F300003460C4810B500680C461946C069C069B4
:103F400000F080F858B141680088181A00EB400072
:103F500001EB800007C884E80700002010BD0120A5
:103F600010BD0000B406002001200880704700B595
:103F7000C06900F067F8002800D0012000BD0000F3
:103F80002DE9F3411C4E0F46002530682C46C069D0
:103F9000417EC07E11FB00F81DE0684602F024FD62
:103FA000054630682946C069C06900F04BF890B1F9
:103FB00041680088281A00EB400001EB800090F96E
:103FC0000210007908443168C969897E10FB01F04C
:103FD000002800DD04447F1EDFD51DB1284603F014
:103FE0006FFC0444414620460DF046FE0349012083
:103FF0000870BDE8FC810000B40600200407002022
:104000002DE9F3410D4D0E4F0E462868B0F92A40B8
:10401000A0070AD17A680098904706E0684602F047
:10402000E3FC2968C96909688847761EF6D500202F
:10403000387028684485BDE8FC810000B406002083
:104040000407002006E002888A4202D842888A4299
:1040500002D280680028F6D17047000030B50F4CBE
:1040600005460B4620682946C069C06900F023F860
:10407000002812D04168008824682A1A0120E469C7
:1040800000EBC200085CA47E10FB04F0002B04D0FF
:1040900011F8321011FB04F1196030BDB406002094
:1040A00001200880704700B5C06900F004F80028BE
:1040B00000D0012000BD06E002888A4202D8428872
:1040C0008A4202D280680028F6D170477CB5084E3B
:1040D000DDE906543668367CCDE90054B60702D4D3
:1040E00011F05CF97CBD034C2468A0477CBD000046
:1040F000B4060020BC0B0020F8B505460C000DD01E
:10410000084600F015F8060010D000F0FFF822462F
:1041100000902DB12946FCF777F804E00020F8BDA7
:10412000002103F028FE684600F03AF93046F8BD59
:10413000002801D00DF062B9704738B50546FFF789
:10414000F7FF040009D000F0E1F82A4600210090B2
:1041500003F011FE684600F023F9204638BD000048
:10416000024A106021F0030050607047F0FE012009
:1041700010B5002814D004460A48406B10F83410DB
:1041800000290DD002290BD2042101EBC4014158B2
:1041900048680CF07DFF2046BDE8104018F0B0BA2A
:1041A00010BD000030FE0120002805D0034AD16B6D
:1041B000016001B14860D0637047000030FE01200B
:1041C00010B504460068FFF7D3FF0020206010BD43
:1041D00070B50D460646002405E000BF06EB8400DE
:1041E000FFF7EEFF641CAC42F8DB70BD2DE9F04137
:1041F000044615F093F92848E41C24F00305016CEB
:104200002D1DA94200D90D46C46B13E054F8042CAF
:10421000AA420ED184B1216809B162684A6061681E
:1042200009B122680A60C26BA24231D12168C16320
:104230002EE02468002CE9D18046816BC0680F18FD
:1042400057F8040C3E1A306838B1002018F09CFB77
:1042500057F8040C3E1A3068D0B97068A84217DBD2
:104260003044441B3046241D18F046FBD8F80C108F
:10427000491BC8F80C10D8F814102944C8F81410B9
:104280007068401B02D031460CF002FF44F8045C19
:104290002046BDE8F081000030FE012010B500246A
:1042A00015F03CF90C490F2001EBC002526C1AB119
:1042B00001EBC000406C08E0401EF5D508E0416805
:1042C000A14200D90C46806810B180680028F6D160
:1042D000A4F10C0010BD000030FE0120034800686E
:1042E0000C38002800DC00207047000030FE012060
:1042F000002138B10449042202EBC000496B085880
:1043000041680C390846704730FE01200549CA69EA
:10431000521CCA61496B01EBC0010A78521C0A7039
:1043200000F056B830FE01207CB506460C46084623
:10433000FFF7FEFE05001CD0DEB13046FFF7D8FFC8
:10434000A04200DA04462846FFF7E0FF009030461E
:10435000FFF7DCFF0146019022460098FBF754FF6F
:10436000684600F01DF801A800F01AF83046FFF783
:10437000FFFE28467CBD000010B5FFF78FFF6422CA
:104380000649B0F5800F04D990FBF2F0096A484362
:1043900010BD096A4143B1FBF2F010BD30FE0120AF
:1043A0000A4902684B6B52F8082C03EBC2021378DF
:1043B000022B03D3CB690BB15B1ECB611178491E75
:1043C00011700021016008467047000030FE012096
:1043D000002806D00349042202EBC000496B0858AC
:1043E0000830704730FE01202DE9FC414FF00006F7
:1043F0000B465FEA000834462BD032B1114618460E
:10440000FFF77AFE060000D101244046FFF77EFF49
:104410000090078845686846FFF7C2FFCCB9B9002D
:104420002846091DFFF780FF050015D0FFF76EFF36
:10443000019040F8276001A8FFF7B2FF4046FFF760
:1044400065FF009045600188491C01806846FFF7C0
:10445000A7FF2046BDE8FC813046FFF789FE012416
:10446000F7E70820FFF769BE7CB5050023D0FFF70A
:104470004DFF00904068C0B1FFF748FF0024019055
:1044800005E0019800EB8400FFF79AFE641C009899
:104490000088A042F5DC01A8FFF782FF0098001D0C
:1044A000FFF78EFE0099002008806846FFF778FF2E
:1044B0002846FFF75DFE7CBD1CB50C46FFF726FFC6
:1044C00000900188A1421CD94068D0B1FFF71EFFBF
:1044D000019000EB8400FFF773FE00990888401EEE
:1044E00080B20880401E019906E000BF01EB840203
:1044F000526841F82420641C8442F7DD01A8FFF7CC
:104500004FFF6846FFF74CFF1CBD38B5002430B1A3
:10451000FFF7FCFE009004886846FFF741FF204645
:1045200038BD38B50D46002448B1FFF7EFFE2946E7
:10453000009000F0B4F804466846FFF731FF2046CB
:1045400038BD38B50D46002448B1FFF7DFFE2946D7
:10455000009000F0B6F804466846FFF721FF2046B9
:1045600038BD2DE9FE430C465FEA00083DD0FFF759
:10457000CDFE0090068847686846FFF711FFB442F9
:1045800033D2B000001DFFF7D8FD05002DD0FFF796
:10459000BDFE01903846FFF7B9FE01460290A20029
:1045A0000198FBF731FE301B8200029800EB84017A
:1045B000019800EB8400001DFBF726FE01A8FFF721
:1045C000EFFE02A8FFF7ECFE3846FFF7D1FD4046AC
:1045D000FFF79CFE009045600188491C01806846F9
:1045E000FFF7DEFE0120BDE8FE830020FBE72DE99A
:1045F000F04115460E4607460024FFF7B2FF30B1E2
:104600002B4600223146384600F004F80446204686
:10461000BDE8F0812DE9FE43984691460D46002401
:10462000D0B3FFF773FE01900788466801A8FFF733
:10463000B7FEBD4230D27EB33046FFF767FE009032
:1046400050F825406846FFF7ABFE24B12046FFF73F
:104650004FFE404511D04046FFF76FFD04000CD0DF
:104660003046FFF753FE00EB850500902846FFF724
:10467000A7FD68462C60FFF793FEB9F1000F0BD041
:1046800054B12046FFF742FE424649460290FBF7EE
:10469000BBFD02A8FFF784FE2046BDE8FE8338B5C7
:1046A0000D4601880024A94209D9406838B1FFF7B6
:1046B0002DFE009050F825406846FFF771FE204619
:1046C00038BD10B50024FFF7EAFF10B1FFF71EFE5A
:1046D0000446204610BD70B50C46054601F094F81E
:1046E000C1B223462846BDE870400022AFF30080E7
:1046F000F0B52D271C68B0F1004F08D00026002827
:104700000DDA651C1D6027704042012408E0651C1D
:1047100001261D606FF000402770491E01E0002453
:10472000091BC9B22AB3491EC9B222E00C46491E70
:10473000C9B2944205D1124C27781C68651C1D60D3
:104740002770104C54F8215090FBF5F4E4B20A2C79
:1047500011D804FB150011B90EB1641CE4B20A2C87
:1047600002D10124491CC9B21D686F1C30341F607E
:104770002C700029DAD1196800200870F0BD000003
:10478000A8060020FCC50A0810B5002807DD0A6845
:104790002B24531C0B601470096800220A7010BD92
:1047A000034900EB800001EB800040797047000076
:1047B0006CFF012002480068407C00F003B8000054
:1047C000B406002070B5054600EB850110480026B0
:1047D00000EB81046671236953B150F82100E2684F
:1047E00081684068521AA168091A184601F090FEC3
:1047F000284600F055FF18B1002101F09BFF05E0AD
:104800002079002803D0206901F036FE267170BDA2
:104810006CFF012002490968497C00F003B80000E0
:10482000B40600202DE9FC5F04468946084600F0E6
:1048300037FF2B4E09EB8907824656F82700019077
:1048400028484FF00108016841B92649C0F80080A6
:10485000091D25480860084603F0A2F9204A09EB23
:1048600089015FEA0A0002EB81051BD001F0DCFE42
:1048700083464FF07F4001F025FF00F0B5F800229D
:104880001146206800F0CEFB20684288018850461F
:1048900001F04EFF46F8274085F80580584601F0A4
:1048A000C3FE17E046F8274085F80580286946468C
:1048B00018B101F0C3FD0020286174B10096E868CA
:1048C000A1684B46421AA8686168411A206801F045
:1048D00043FE2861484619F0DDF90198BDE8FC9FC8
:1048E0006CFF0120F806002031A70108024A126877
:1048F000527C00F003B80000B406002070B50646F4
:104900000D461446104600F0CBFE0300164804EB9B
:1049100084010AD050F8210041688068711A2A1A6F
:10492000BDE87040184601F001BF00EB8104A268A9
:10493000B24201D0012200E00022E368AB4201D084
:10494000012300E000231A430CD0236943B150F83F
:104950002100816840686A1A311A184601F0D8FDB2
:10496000C4E9026570BD00006CFF012002480068C8
:10497000407C00F003B80000B406002030B40949C0
:1049800000EB800201EB82040123637151F82210D5
:1049900011B130BC19F07EB9014630BC0248FFF7B6
:1049A00041BF00006CFF0120BC4B0A0810B5C2B229
:1049B000CBB2D21A00D5524293B25B43C0F3072266
:1049C000C1F30724121B00D55242000C92B2A0EB97
:1049D000114002FB023200B2002801DA404200B26C
:1049E00080B200FB002010BD10B50021084600F089
:1049F000CFFE43F6FF725042BDE810401346014619
:104A0000AFF300802DE9FC4107461C4615460E46D3
:104A1000042006F031FE80461148C068C16C006D6C
:104A20000F4406440D440444ADF80070ADF8045042
:104A3000ADF80260ADF8064068460BF01DFD07E0DA
:104A400023462A463146384606F09EF90BF0AEFC66
:104A50000028F5D1404606F00FFEBDE8FC810000BD
:104A6000A8060020B0F90630B0F90420B0F9021011
:104A7000B0F90000FFF7C6BF05F054BF2DE9F843B9
:104A80001C00DDE9089816460F46054602D10AF0DB
:104A90003DFC044600962E6843464A462146284679
:104AA000B047060035D00AF025FC8146698A3046B9
:104AB0000AF0FEF830460BF051FB48460BF04EFB77
:104AC0004FF000080CE000BFCDF8008055F81CCF77
:104AD00000231A4649462846E047E0B10BF03EFB6A
:104AE0007F1E002FF0DC1D2148460BF0A6F9601C4C
:104AF0000ED00AF03BFC30B1FFF76AFC8469B44287
:104B000001D02000F8D1B44202D030460BF088FA30
:104B10003046BDE8F88330460AF010FB0020F8E785
:104B20002DE9F0411C4616460D460746022B02DBD6
:104B30000020BDE8F0811C20FFF758FB0028F8D0CA
:104B40000DB105610AE0094A52F8241009B905E0DF
:104B500011460A68002AFBD10969016184618682D5
:104B6000002101604160C0E90217E2E7CC060020A5
:104B700070B51D46FFF7D4FF040009D000F00EF811
:104B8000E068006820B90348006800EB8500846590
:104B9000204670BDB4060020FFF706BB70B590B389
:104BA0008269022A30DA1E4C54F8221019B944F8EE
:104BB000220032E019464B68002BFBD106E0CB689F
:104BC000C5681B682D68AB4203DD09680029F6D172
:104BD0001AE0C1B1CB68C6681B683668B3420CD115
:104BE000838A012B05D008E01946DB681B68AB42BD
:104BF00003DB0B68002BF7D129B14B6833B1186088
:104C00004A68426004E0FFE7012070BD44F82200DA
:104C10004860884200D100210160002070BD000082
:104C2000CC06002019F096BC022801DB002070475A
:104C3000054A52F8200004E0C26812688A42F6D0A1
:104C400000680028F8D17047CC060020022801DB5C
:104C500000207047054951F8200004E0C168096848
:104C60000029F6D000680028F8D17047CC06002053
:104C70002DE9F8431D461646884604000CD0FFF780
:104C800045FB0090006807686846FFF789FB2B46E4
:104C9000324641462046B847BDE8F88338B504009F
:104CA0004FF000000AD02046FFF730FB009000686C
:104CB00045686846FFF774FB2046A84738BD38B5FD
:104CC00004004FF000000AD02046FFF71FFB0090C1
:104CD000006885686846FFF763FB2046A84738BD33
:104CE00070B5044601F0C6FF051908E000F00AFCA3
:104CF000052C01DD052000E0204601F0AFFF01F0AA
:104D0000B9FF2C1A002CF1DC70BD0000024B1B68AF
:104D100059849A84FCF738B9B40600201FB503AB58
:104D2000CDF80CD0FFF7E4FC684600F029F81FBD71
:104D300000210EF02DB8000000B500F0C1FC0449C0
:104D400009688A8C10448884088C488400BD00005F
:104D5000B40600207FB50C461546CDF80CD003A94B
:104D6000FFF712FD002801DD641EE4B203AB2A4602
:104D70002146FFF7BDFC684600F002F87FBD000049
:104D80002DE9FC4706005BD000F09AFC3B4C8146C5
:104D90002068B0F9228000F0C9FC216807468A8C9F
:104DA000D01B888441E000BF47F6FF71304602F017
:104DB0004FFD82460146304602F020FD216805463F
:104DC00091F82C0000F0030001283FD0022839D0D0
:104DD00000204A8C101A4884ADF800006A1E104466
:104DE000ADF80400888CADF80200A9F10101084477
:104DF000ADF806006A465146304602F04BF921688C
:104E0000BDF8020088845146304601F003FE064496
:104E100030780A281CD00D281AD0BDF8000021686F
:104E200028444884307818B1761C30780028BBD1EB
:104E30002068818C39448184818D21F00301818532
:104E4000BDE8FC8705EBD5704010C2E72846C0E7F7
:104E5000206890F82C1001F0030101290BD00229E1
:104E600009D0018C418431780A29DBD1828C02EB94
:104E700009018184D6E7A0F82280F4E7B406002077
:104E8000024B1B6859849A84FFF77ABFB40600204E
:104E90002DE9F04107460A4815460E460068B0F96C
:104EA0002C0040F0020001F073FC04462A46314613
:104EB0003846FFF7E5FF2046BDE8F04101F068BC49
:104EC000B406002047F6FF73AFF300802DE9FC41E4
:104ED0001F46904606000D464FF0000416D065B1FF
:104EE00008460BF01DF9040007D002462946684623
:104EF00002F01BFD68460BF013F93B46424629467B
:104F0000304602F01FF920460BF00AF9BDE8FC819B
:104F10002DE9FF4F87B090468946070079D00C688D
:104F2000D9F8045021B228B2401A401C029000F077
:104F3000C7FB064618F00C0F1ED038460A9A029995
:104F400001F071FE08F00C01042904D0082902D0F8
:104F50000C2911D104E0291400FB1610401C09E0B3
:104F60002114C1EB254200FB1620401C00EBD07041
:104F700001EB600060F31F4448460BF0D1F85FEA94
:104F8000000B09D00246494604A8CDE9044502F0C9
:104F9000CCFC04A80BF0C4F8A6F1010A38460A9A22
:104FA000029902F0B7FE03900AEB244060F31F451C
:104FB000CDE900453846039902F020FC18F00301C2
:104FC0000ED0012928D002290ED1B9F90420B9F94F
:104FD0000010521A101A00EBD07001EB600001E0D3
:104FE000B9F80000ADF800006A463846039902F0AF
:104FF00051F838460A9A029902F082FE074406EBFD
:10500000244060F31F4438780028C7D158460BF07D
:1050100087F80BB0BDE8F08FB9F80410081A401CEF
:10502000E0E700007CB5064610480068C36C006DE0
:105030005D1884183188681E0844ADF80400ADF886
:1050400000507188601E0844ADF80600ADF80240BB
:1050500068460BF011FA06E0224629463046FDF775
:1050600025F80BF0A3F90028F6D17CBDB40600208A
:105070002DE9FF4F324F98460446B0F800B0B0F823
:1050800002A0C66838682F4B89B0427C1B68DDF8E7
:105090005890214630469847050005D1E088012800
:1050A00000D001E03868856B1EB1307908B102206C
:1050B00000E0002001F016FB069038680A99C26CE7
:1050C0005718016D0B98ADF81C700E18781E0BFB6D
:1050D0000800ADF82000701E0AFB0900ADF82200A0
:1050E000ADF81E6007A80BF0C7F920E0206968B191
:1050F000D4E9023CCDE9003CCDE90289D0F800C0FA
:105100006388228831463846E0470EE0A188E2886D
:10511000A068CDE90221CDE9040553465A4631463F
:105120003846CDE9008905F037FC0BF03FF900283F
:10513000DCD106980DB0BDE8F04F01F0D3BA000005
:10514000B4060020AC0600207CB514460F4A126855
:10515000D36C1E18106D4518301BADF800003019C7
:10516000ADF80400281BADF802002819ADF80600C0
:1051700068460BF081F906E0224629463046FCF7E6
:10518000E3FF0BF013F90028F6D17CBDB406002034
:105190001CB50A460146684602F0F5FC2448BDF8F5
:1051A0000010006830F84C2F1144ADF80010BDF825
:1051B000021082881144ADF80210BDF80410028874
:1051C0001144ADF80410BDF8061080880844ADF80D
:1051D000060068460BF050F927E000BFBDF900401B
:1051E0000BE000BFBDF90210204605F06FFDBDF9D0
:1051F0000610204605F06AFDA41CBDF90400A0427B
:10520000F0DABDF902400AE0BDF90000214605F0E0
:105210005DFDBDF90400214605F058FDA41CBDF953
:105220000600A042F0DA0BF0C1F80028D6D11CBD70
:10523000B40600202DE9F04F0C46164987B00D68E2
:10524000DDE91098E96C0F18286D8D180619C4183F
:10525000ADF81070ADF81450ADF81260ADF816400E
:1052600004A80BF009F9002811D0DFF82CB04FF09A
:10527000000ACDE90098CDE902BA2B46224639460C
:10528000304610F063FA0BF091F80028F1D107B026
:10529000BDE8F08FB406002035AD00082DE9F04FD1
:1052A000164C87B02568DDE91098EC6C2718286D3E
:1052B000A5184618C418ADF81070ADF81450ADF824
:1052C0001260ADF8164004A80BF0D6F8002811D0F3
:1052D000DFF82CB04FF0010ACDE90098CDE902BA11
:1052E00023462A463146384610F030FA0BF05EF875
:1052F0000028F1D107B0BDE8F08F0000B40600200F
:1053000075AC00082DE9FE4F82460F488946DDE95D
:105310000D6500680C9FC16C006D01EB0208C4189C
:1053200000200BF0A9F80AE00097CDE901652346BB
:1053300042464946504610F0C9FA0BF037F80028AB
:10534000F2D1BDE8FE8F0000B40600202DE9FC413B
:10535000104F04463B68D86C4518196DADF80050E5
:105360000E198418ADF80440ADF80260ADF806607F
:1053700068460BF081F808E0386822463146406EF6
:105380000368284698470BF011F80028F4D1BDE8CF
:10539000FC810000B40600202DE9F0410B4C25688B
:1053A000EC6C2718286DA5184618C41800200BF0BF
:1053B00063F807E023462A4631463846FCF7F6FEF6
:1053C0000AF0F4FF0028F5D1BDE8F081B406002012
:1053D0007CB50E4D2A68D36C1E18106DADF80460B4
:1053E0004418ADF80060ADF80640ADF802406846DC
:1053F0000BF042F807E028682146406E42683046CC
:1054000090470AF0D3FF0028F5D17CBDB4060020F8
:105410002DE9FC411C4C2468E66C94F818C0371840
:10542000206DACF1010C4518C418A7EB0C00164414
:10543000ADF8000006EB0C00ADF80400A5EB0C0085
:10544000ADF8020004EB0C00ADF8060068460BF066
:1054500013F815E032462946384605F00BFC324673
:105460002146384605F006FC621E691C384605F0E8
:1054700061FC621E691C304605F05CFC0AF096FF78
:105480000028E7D1BDE8FC81B406002070B50E46C7
:105490008EB004460146154606A802F051FBBDF841
:1054A0001A30642B0CD1002000900AAB01AA2146CF
:1054B00006A801F0D1FD2A46314601A8FFF7B2FD4A
:1054C0000EB070BD7CB50E4B1B68DC6C2618186DD9
:1054D000ADF8006045188418ADF80460ADF80250CE
:1054E000ADF8064068460AF0C7FF06E022462946A6
:1054F000304605F01FFC0AF059FF0028F6D17CBDAC
:10550000B406002010B5002400E0012400F004F8E7
:105510000028FAD1204610BD094810B500680024C3
:1055200010B1804700B1012409F090FE00B10124C0
:105530000448006810B1804700B10124204610BD26
:10554000D8060020D40600202DE9FC410F4C256828
:10555000EC6C2718286DA5184618C418ADF8007013
:10556000ADF80450ADF80260ADF8064068460AF0A8
:1055700083FF07E023462A463146384605F004FCFF
:105580000AF014FF0028F5D1BDE8FC81B406002024
:10559000B0F90630B0F90420B0F90210B0F90000FB
:1055A000FFF7D2BF08B50B46002805D000928188CE
:1055B0008268C08800F001F808BD10B50828029C78
:1055C00030D008DC04FB01F401280AD0022813D0F3
:1055D000042804D11CE0102828D020282CD000203A
:1055E00010BD04EBD30003F00701105CC1F107010B
:1055F000C84000F0010010BD04EB93000621105CD0
:1056000001EA4301C1F10601C84000F0030010BDEA
:1056100004EB5300D907105C02D000F00F0010BD5E
:10562000000910BD04FB0130105C10BD481004FBE4
:10563000003032F8100010BD881004FB003052F822
:10564000200010BD034951F82000C1688A6A082172
:1056500010470000CC06002010B505F0CDFBBDE8DA
:10566000104005F0C3BC000002490968C9694A68D6
:1056700000211047B4060020024A1268D26952681D
:1056800010470000B4060020002801D009F022BE17
:10569000704710B505F0B8FBBDE8104005F0A6BC9A
:1056A0000021022802D2024951F820100846704712
:1056B0004407002001480068007C7047B4060020C1
:1056C00002480068C069407E70470000B4060020B0
:1056D00002F08AB870B514460D4605F01BFC002890
:1056E00002D000202860206070BD000001480068E2
:1056F000807E7047B406002002F0D4B810B504468E
:1057000002F0C2F801462046BDE8104002F076B82B
:1057100001F0B0BA0448352101703221817038217E
:10572000C1706221017170470C0700200A490020F6
:10573000096891F82C2002F00C02042A07D0082AEC
:1057400001D00C2A02D1C869007E40087047C869A0
:10575000007E401E70470000B4060020417EC07EDF
:1057600011FB00F07047017EC07E11FB00F0704716
:10577000024951F82000006900687047CC060020FB
:10578000024951F82000006940687047CC060020AB
:1057900070B50D4613F05EFA0446284613F062FA1F
:1057A000204370BD124810B5016821F0010101606D
:1057B0001048012181601049016000680F4988424A
:1057C00000D0FEE701F074FB0D492E20087001F0B7
:1057D00057FA0C4813F038FE1AF084F904460021F9
:1057E000084600F0B1FF0AF0C1F8204610BD0000E5
:1057F000002000E000300240C2A507F4CDB5E8B5B6
:10580000A8060020FCFE012010B5011E01DD0246A5
:1058100000E04A42064B012053F82040944202D84F
:10582000401C0A28F8DB002900DA401C10BD0000EB
:10583000FCC50A081CB520B90C480068006E002899
:1058400012D0FEF763FD009044696846FEF7A8FD9C
:10585000002C09D02046FEF759FD01908168896827
:10586000884701A8FEF79CFD1CBD0000B40600207F
:1058700001490A4600F002B801F0FFFF2DE9F043AC
:1058800087B015460C465FEA000842D0002000F0C1
:1058900029FF814620480068066E4046FEF736FD27
:1058A00000900068806900F0BFFE074640F6FF7078
:1058B000C44204D10098B0F90440B0F906500098F1
:1058C000611E0289ADF804401144ADF80810418909
:1058D000681E0844ADF80650ADF80A0009F0B2FAA7
:1058E0006846FEF75DFD01A80AF0C6FD06E02A46FF
:1058F0002146404600F0D4FB0AF058FD0028F6D1BE
:10590000384600F091FE304600F0E0F9484600F0DD
:10591000E9FE07B0BDE8F083B40600202DE9FE4F94
:10592000834619488A46194900680C9E9846407C6F
:105930009146002751F82040E1680968042903D006
:105940002468002CF8D100E014B9FFF77FF9044671
:105950000121E068C26A20469047050011D0246901
:10596000A0688047401C02D1094C46F00106009611
:10597000CDE9015443464A465146584600F030FAB4
:1059800007463846BDE8FE8FB4060020CC0600204E
:10599000504D0A08FEB50546DDE909640020089F60
:1059A000002C05D00097CDE90164284600F018FAD4
:1059B000FEBD000038B5040018D00D480068006E28
:1059C000A04201D100F026FE2046FEF79FFC009089
:1059D000406908B101F015F900980068FFF7DCF89C
:1059E0006846FEF7DDFC2046FEF7C2FB38BD00002E
:1059F000B40600202DE9FF4F0746464883B099467C
:105A00000068DDF840B08A46447C434800570128CE
:105A1000204606DD05F0B2FA8046204605F0BAFAC7
:105A200005E005F090FA8046204605F09BFA044612
:105A300017B302A901A8FFF75FFEB7F90060002EB7
:105A400000DA0026B7F90250002D00DA002501998E
:105A5000B7F904004144491E14F039FB804602980E
:105A60000119B7F90600491E14F031FBA8EB060234
:105A7000441B521C641C02E0002635464246B9F124
:105A8000000F01D1C4F10009002A01DD002C03DC64
:105A9000002007B0BDE8F08F4B4629463046CDF8D0
:105AA00000B0FFF73BFF5FEA000909D000F0D4F82F
:105AB0008046484600F00AF90027DFF860B01FE092
:105AC0005146059888470120E3E7E11B414502DA8A
:105AD000484600F0E5F83FB1EA193146484600F083
