:020000040800F2
:10000000E00A00209D010008CF1300084D110008F0
:10001000CD130008F50300083117000800000000A8
:10002000000000000000000000000000F3130008C2
:10003000F703000800000000F1130008F5130008A2
:10004000B7010008B7010008B7010008B7010008B0
:10005000B7010008B7010008B7010008B7010008A0
:10006000B7010008B7010008B7010008B701000890
:10007000B7010008B7010008B7010008B701000880
:10008000B7010008B7010008B7010008B701000870
:10009000B7010008B7010008B7010008B701000860
:1000A000B7010008B7010008F9140008B7010008FB
:1000B000B7010008B7010008B7010008B701000840
:1000C000B7010008B7010008B7010008B701000830
:1000D000B7010008B7010008B7010008B701000820
:1000E000B7010008B7010008B7010008B701000810
:1000F000B7010008B7010008B7010008B701000800
:10010000B7010008B7010008B7010008B7010008EF
:10011000B7010008B7010008B7010008B7010008DF
:10012000B7010008B7010008B7010008B7010008CF
:10013000B7010008B7010008B7010008B7010008BF
:10014000B7010008B7010008B7010008B7010008AF
:10015000B7010008B7010008B7010008B70100089F
:10016000B7010008B7010008B7010008B70100088F
:10017000B7010008B7010008B7010008000000003F
:10018000B7010008B7010008DFF80CD000F018F83C
:1001900000480047B51B0008E00A002006488047D9
:1001A00006480047FEE7FEE7FEE7FEE7FEE7FEE75C
:1001B000FEE7FEE7FEE7FEE7A51400088901000858
:1001C000064C074D06E0E06840F0010394E80700A4
:1001D00098471034AC42F6D3FFF7DAFF0843000823
:1001E0002843000870B50A4E00243568306007E0E7
:1001F00000F0C0F882B2A1B2002000F095F8641CB3
:1002000000F0BEF8A042F3D8A8B2306070BD000084
:10021000D4060020074B30B49B68DD881C689B889F
:10022000DB1DDB08203A13FB02F205FB024230BC67
:1002300000F08EBFD40600202DE9F04704460027C9
:1002400099468A461546B846104601E008F101086D
:1002500010F8011B0029F9D100F08CF81C4E4A4619
:10026000B9F1010FB1688988B0FBF1F002D0022A20
:1002700017D105E0A0EB0800484304EB500003E071
:10028000A0EB08004843001B84B20AE05146204618
:10029000FFF7C0FFB0687F1CBFB280886D1C204490
:1002A00084B200F067F80146B068808807FB10113F
:1002B00089B2814201D3012000E000202A780AB1EE
:1002C000012100E000210842E0D1BDE8F0870000F4
:1002D000D406002070B50D460646508A117D14469E
:1002E00040EA0140D18A127E41EA02418BB282B2D9
:1002F0002946304600F0B2FF0A480068036B1BB184
:10030000224629463046984700F03AF884B200F079
:1003100031F82346BDE8704082B20021084600F063
:100320009DBF00004C0000202DE9F04106460F481B
:1003300000240F4F006815468846D0F820C0BCF155
:10034000000F0FD0134638880A463146BDE8F04109
:1003500080B260473888414682B2301980B200F0DE
:1003600067FF641CAC42F5D3BDE8F0814C0000206F
:10037000D406002001480068806A00474C00002035
:1003800001480068C06A00474C00002070B50D4C61
:100390004FF6FF70012660600B48A0600B4D0020F7
:1003A000206068688047A0F51341253907D10648C9
:1003B000001F05602868804703480026A06030467B
:1003C00070BD0000D4060020500000201000002066
:1003D0000149486070470000D40600200149886048
:1003E00070470000D40600200149086070470000F3
:1003F000D4060020FEE77047FEE7000070B5B3F5B5
:10040000804F05D06FF0704140F82210002070BD81
:1004100050F82240084B8E891C40D1E9003543EA50
:1004200005138D6889692D0245EA06452B430B4368
:10043000234340F82230E9E70000F0CFF0B50C6824
:1004400050F82430114A1340D1E90125D1E903675E
:100450002A433E4332434E6932438E693243CE696A
:1004600032430E6A32434E6A32438E6A3243CE6A58
:100470003243CE6B096B32430A431A43082D01D134
:1004800042F0400240F824200020F0BD8000F0FF40
:1004900030B500EB820250688D8900F04043D1E90D
:1004A000000440EA04108C68240244EA0544204316
:1004B0000C8A074D05EB045420430C7D6D0105EBC0
:1004C000046489692043084318435060002030BD0C
:1004D0000000F0FF31B500F029F9044600F026F9DC
:1004E0000099001B8842F9D338BD0000F0B51B48C5
:1004F00087B0016800292ED101210160184800242D
:10050000016841F0010101600068022500F001006E
:1005100005904FF68070CDE9000502AA03260C274E
:1005200082E8D00069460F4800F022F84CF2B37020
:10053000CDE9000502AA694682E8D0000A4800F029
:1005400017F82020CDE9000502AA694682E8D0000C
:10055000064800F00DF807B0F0BD000008000020CC
:100560003838024000100240000C024000180240DF
:100570002DE9F84FDFF87CB100224FF001084FF071
:10058000030A4FF00F090BF1040E00BF0B6808FAC5
:1005900002F42340A3426ED14D68022D01D0122DEA
:1005A0000ED1D50800EB850CDCF820505607F70E6D
:1005B00009FA07F6B5430E69BE402E43CCF8206019
:1005C000066855000F790AFA05FC07F0030726EACA
:1005D0000C06AF40374307604E68012E05D0022E4F
:1005E00003D0112E01D0122E0ED18668CF6826EAD4
:1005F0000C06AF40374387604668A6430C79C4F3C6
:100600000014944034434460C6688C6826EA0C06A3
:10061000AC403443C4604C68E40065D5364C256872
:1006200045F480452560246822F0030504F48044E5
:100630000094324C2E19D6F8084895072F0F09FA66
:1006400007F5AC432E4DA84201D1002524E02D4DE5
:10065000A84201D101251FE02B4DA84201D102255E
:100660001AE02A4DA84201D1032515E0284DA842E1
:1006700002D1042510E037E0264DA84201D105251E
:100680000AE0254DA84201D1062505E0234DA842E8
:1006900001D1072500E00825BD402543C6F80858CC
:1006A000DBF800405D464E689C43F60300D51C43D2
:1006B0002C60DEF8004075464E689C43B60300D5BA
:1006C0001C432C600B4D08352C684E689C43F60289
:1006D00000D51C432C60074D0C352C684E689C439C
:1006E000B60200D51C432C60521C102AFFF44EAFFA
:1006F000BDE8F88F003C0140443802400030014022
:10070000000002400004024000080240000C0240C9
:10071000001002400014024000180240001C024079
:100720000AB1816170470904FBE7000001480068D5
:10073000704700000000002002480168491C016069
:1007400070470000000000200B4810B5016841F41C
:1007500000710160016841F480610160016841F449
:1007600080710160032000F075F8002000F006F8A9
:1007700000F018F8002010BD003C024010B50446FF
:1007800007484FF47A710068B0FBF1F000F034FBD9
:1007900000222146501E00F03DF8002010BD000050
:1007A0000400002010B5032000F054F80022114688
:1007B0006FF00B0000F02EF8002211466FF00A00D7
:1007C00000F028F8002211466FF0090000F022F82E
:1007D00000221146501F00F01DF800221146101F84
:1007E00000F018F800221146901E00F013F80022C5
:1007F000BDE810401146501E00F00CB800F01F027A
:10080000012191404009800000F1E020C0F8001172
:1008100070470000F0B40E4B1B680C46C3F3022374
:10082000C3F10705042D00D90425191D072901D29C
:10083000002300E0DB1E012606FA05F1491E2140D7
:1008400099409E40761E16403143F0BC00F0C0BD7A
:100850000CED00E0064900F0070208684FF6FF03C0
:10086000184040EA0220034A104308607047000025
:100870000CED00E00000FA052DE9F047DFF8649187
:1008800005460F46D9F8000000F00F01F8B2804687
:10089000B94208D2014689F80010D9F8000000F0EA
:1008A0000F00B84274D128784F4C800705D52068D6
:1008B000A96820F0F000084320602878C00759D0CC
:1008C00049496868083901281AD002281BD0032832
:1008D00019D00968890700295ADA216821F0030133
:1008E00001432160FFF722FF6968064641F2883024
:1008F000012911D002291DD00329824627D035E0D5
:1009000009688903E7E709688901E4E7FFF70EFF53
:10091000811B514501D926E082462068C0F3810041
:100920000128F3D126E000BFFFF700FF811B5145EE
:1009300001D918E082462068C0F381000228F3D173
:1009400018E000BFFFF7F2FE811B51450BD820686D
:10095000C0F381000328F5D10CE000BFFFF7E6FEED
:10096000811B514502D90320BDE8F087206810F0B3
:100970000C0FF3D1D9F80010484601F00F01B9422D
:1009800008D980F80080006800F00F00B84201D05C
:100990000120E9E72878400705D52068E96820F4B8
:1009A000E050084320602878000706D520682969B0
:1009B00020F4604040EAC100206000F021F8216886
:1009C000F02292FAA2F201F0F001B2FA82F2D140E2
:1009D000064A515CC840064908600020FFF7CEFE79
:1009E0000020C1E7003C024008380240601C0008BB
:1009F0000400002001480068704700000400002047
:100A000030B51948006810F00C01184812D0441095
:100A100004290ED008290DD11349091F0A6802F0D4
:100A20003F030A68550247F6C07204D5B4FBF3F0E1
:100A300003E0204630BDB0FBF3F00B6809681340BB
:100A400092FAA2F2B2FA82F2D34058434FF4403203
:100A500092FAA2F201F44031B2FA82F2D140491C7A
:100A60004900B0FBF1F030BD083802400024F4002A
:100A70002DE9F84F0546DFF8FC920078A9F1040B48
:100A8000C007ABF1040449D0D9F800104846C1F3BF
:100A90008101012908D00068C0F3810002280AD131
:100AA000DBF80000400206D52068800336D5686870
:100AB00000286ED032E06868B0F5803F10D0B0F505
:100AC000A02F206810D020F480302060206820F40F
:100AD000802020606868A0B1FFF728FE06460CE081
:100AE000206840F48030F4E740F480202060F7E78D
:100AF000FFF71CFE801B642871D820688003F7D59F
:100B00000CE0FFF713FE064605E000BFFFF70EFE00
:100B1000801B6428F0D820688003F7D42878964F8B
:100B200080074FF0010A4FF0000841D5D9F80010B6
:100B3000484611F00C0F08D00068C0F3810002286D
:100B40000AD1DBF80000400206D42068800713D5E4
:100B5000E86801281DD10FE0E868D8B1C7F800A007
:100B6000FFF7E4FD064604E0FFF7E0FD801B0228E6
:100B7000C2D820688007F7D52068F82292FAA2F23E
:100B80002969B2FA82F220F0F8009140084320600F
:100B90000EE0ECE0C7F80080FFF7C8FD064604E071
:100BA000FFF7C4FD801B022819D820688007F7D4FE
:100BB0002878000724D57148696989B1C0F800A078
:100BC000FFF7B4FD064604E0FFF7B0FD801B0228E6
:100BD00005D868486C3000688007F5D510E07AE0E9
:100BE000C0F80080FFF7A2FD064604E0FFF79EFD77
:100BF000801B02286FD85F486C3000688007F5D4EE
:100C00002878400753D55B483830016841F080515F
:100C10000160006800F0805000905948016841F47C
:100C200080710160FFF782FD064604E0FFF77EFD5C
:100C3000801B02284FD852480068C005F6D54D4E9B
:100C4000A868683601280FD00528306810D020F039
:100C500001003060306820F004003060A868B8B14E
:100C6000FFF764FD00900FE0306840F00100F4E70A
:100C700040F004003060F7E7FFF758FD0099411A93
:100C800041F2883081426AD830688007F4D50EE09E
:100C9000FFF74CFD009007E0FFF748FD0099411A6F
:100CA00041F2883081425AD830688007F4D4A8696C
:100CB000E8B3D9F80010C1F38101022957D0022806
:100CC000C7F8608003D0FFF731FD05464AE0FFF723
:100CD0002DFD064605E042E0FFF728FD801B0228B7
:100CE0003DD820688001F7D4D5E90701084347F6CD
:100CF000C07292FAA2F2696AB2FA82F29140AA6ACA
:100D00004FF0FF3303EB52024FF4403393FAA3F357
:100D1000B3FA83F39A40114308434FF0706292FA9A
:100D2000A2F2E96AB2FA82F29140084300E01CE0C4
:100D3000CBF80000C7F860A0FFF7F8FC054604E018
:100D4000FFF7F4FC401B022809D820688001F7D582
:100D50000BE000BFFFF7EAFC401B022802D903208A
:100D6000BDE8F88F20688001F4D40020F8E7012066
:100D7000F6E700000838024000004742800E474274
:100D80000070004070B515460E46040003D094F87C
:100D9000490010B107E0012070BD002084F8480030
:100DA000204600F01AF804F108012068FFF746FB1E
:100DB0003146A2682068FFF76BFBD4E9010229469F
:100DC000236BFFF71BFBA168206850F8212042F03D
:100DD000010240F82120002070BDFFF787BB4FF0D3
:100DE000E0210428086903D020F00400086170475E
:100DF00040F00400FAE7704710B5401EB0F1807F64
:100E000001D3012010BD4FF0E02460610F21601775
:100E100000F0DEFA0020A06107202061002010BD54
:100E200010B5FFF7E8FF10BD7047704710B504001C
:100E300003D094F8390010B107E0012010BD002064
:100E400084F83800204600F00DF8022084F83900BC
:100E5000211D206800F056FB012084F83900002095
:100E600010BD000008B500680B49884212D10B483C
:100E7000016841F4802101600068002200F48020B4
:100E8000009011461A20FFF7C5FCBDE808401A2063
:100E9000FFF7B4BC08BD00000048014044380240E0
:100EA000704770B50446006801694FF00005C943FA
:100EB000890715D4C168C943890711D4E91E0161A6
:100EC00001202076206880698007204602D0FFF745
:100ED000E7FF04E000F0B2F8204600F034F9257690
:100EE00020680169C943490717D4C168C943490744
:100EF00013D46FF00401016102202076206880691C
:100F000010F4407F204602D0FFF7CAFF04E000F053
:100F100095F8204600F017F9257620680169C94345
:100F2000090716D4C168C943090712D46FF0080134
:100F30000161042020762068C0698007204602D025
:100F4000FFF7AEFF04E000F079F8204600F0FBF870
:100F5000257620680169C943C90617D4C168C94309
:100F6000C90613D46FF010010161082020762068B3
:100F7000C06910F4407F204602D0FFF791FF04E0E3
:100F800000F05CF8204600F0DEF825762068016964
:100F9000C943C90708D1C168C943C90704D1891E1B
:100FA0000161204600F0D0F820680169C9430906B4
:100FB00009D4C168C943090605D46FF080010161F5
:100FC0002046FFF731FF20680169C943490609D46B
:100FD000C168C943490605D46FF04001016120464C
:100FE00000F0B3F820680169C94389060BD4C168D1
:100FF000C943890607D46FF0200101612046BDE88E
:101000007040FFF712BF70BD00B50068094985B098
:1010100088420CD180200090022001900020029094
:1010200003900320049069460348FFF7A1FA05B036
:1010300000BD00000048014000140240704770B538
:10104000044690F838000D4601280DD0012684F89A
:101050003860022084F8390042B1042A18D0082AE6
:101060002AD00C2A4DD139E0022070BD206800F052
:10107000A9FA2068816941F00801816120688169CD
:1010800021F004018161206881692A69114311E01E
:10109000206800F0C3FA2068816941F40061816131
:1010A0002068816921F480618161206881692A69F1
:1010B00041EA0221816124E0206800F0E1FA206821
:1010C000C16941F00801C1612068C16921F00401D2
:1010D000C1612068C1692A69114311E0206800F0EC
:1010E000FFFA2068C16941F40061C1612068C169EB
:1010F00021F48061C1612068C1692A6941EA022145
:10110000C16184F83960002084F8380070BD10B5E2
:10111000040003D094F8390010B107E0012010BD9D
:10112000002084F83800204600F00CF8022084F8F3
:101130003900211D206800F0E5F9012084F839000C
:10114000002010BD7047704770477047FEE70000F1
:101150002DE9F74FDFF8D0A04FF0360BAAF55A79FA
:10116000DAF8080000252A468188C488C81D04FBD7
:1011700001F30BEB4306A9F80260360CA9F80460F2
:10118000A9F80AB0A9F81210A9F8145020F0070322
:10119000A9F816405B1AA9F8185003F0FF084FF0A1
:1011A000010E37E0029BC60806FB05330326B6EBAB
:1011B000D00F06D11A785E78120442EA06229E7891
:1011C00032430226B6EBD00F01D11A8852BABEEBD9
:1011D000D00F00D11A78002319E0661B761E06FB9B
:1011E00001370BEB4706CF1A07EB080CACF1010CEB
:1011F0000EFA0CF7174202D0BAF8007001E0BAF804
:10120000047009F806703F0A4E445B1C77708B42ED
:10121000E3D36D1CA542C5D3DDE9000103B0034A49
:10122000BDE8F04FFFF756B8D40600206C0300204D
:10123000034B1B685B69002B00D018477047000008
:101240004C000020002906D0034A00BF30F8023BC2
:101250001380891EFAD170470000016030B4054C3C
:101260002468E469002C02D0A44630BC604730BC3E
:10127000704700004C00002000B5174887B04FF0C1
:101280002041016015494160002181601022C16048
:10129000C0E904128161C16113020162C0E909134E
:1012A000C1620163416381634164042000900F20A7
:1012B000019002AB282083E807001120CDE9050149
:1012C000002269460448FFF75DFD002801D0FFF7C2
:1012D00093F807B000BD000060000020040100A0EA
:1012E00070B51F4886B00024016841F020010160FC
:1012F000016801F020010591016841F08001016061
:10130000016801F080010591016841F01001016060
:10131000016801F010010591016841F008010160C8
:10132000016801F008010591016841F04001016088
:1013300000680C4E00F040004FF4804505900022FC
:1013400029463046FFF7ECF901200095CDE901046C
:10135000694630460394FFF70BF906B070BD0000F4
:10136000303802400018024010B5174888B01549BF
:10137000016040F2A3110024C0E9011440F2CF71D2
:10138000C1604FF400710161FFF750FD08B1FFF734
:1013900033F80D48FFF7BBFE08B1FFF72DF86020CA
:1013A000CDE9000402940022694607480494FFF73F
:1013B00046FE08B1FFF720F80348FFF725FE08B006
:1013C00010BD000000480140B0000020FEE770475B
:1013D0000907090E002806DA00F00F0000F1E020EE
:1013E00080F8141D704700F1E02080F80014704769
:1013F0007047704710B5FFF79FF9BDE81040FFF741
:101400000FBD000030B5254893B00025016841F0BC
:1014100080510160006800F0805011902048016800
:1014200041F4804101600068022400F48040119082
:101430000120039010200490009406940820CDE928
:101440000750A820CDE9090404200B906846FFF757
:101450000FFB00B1FEE70CA90F2081E831004FF42B
:10146000A0500F904FF48050109005210CA8FFF76A
:1014700003FA00B1FEE7FFF7BDFA4FF47A71B0FB53
:10148000F1F0FFF7B9FC0420FFF7A9FC0022114698
:10149000501EFFF7BFF913B030BD000040380240C6
:1014A000007000401048016841F4700101600F486D
:1014B000016841F0010101600C4A0021083211600D
:1014C00002680B4B1A400260031D0A4A1A60026848
:1014D00022F48022026005480C300160024958065F
:1014E000803908607047000088ED00E00038024055
:1014F000FFFFF6FE103000240148FFF7D2BC0000C9
:10150000B0000020F0B50268234B244D244E254F37
:10151000254C4FF0804C984209D0604507D0A84236
:1015200005D0B04203D0B84201D0A04204D122F08D
:10153000700E4A6842EA0E0298421BD0604519D0EC
:10154000A84217D0B04215D0B84213D0A04211D053
:10155000164DA8420ED0164DA8420BD0154DA842EC
:1015600008D0154DA84205D0144DA84202D0144D04
:10157000A84203D122F44075CA682A4302608A68EF
:10158000C2620A688262984201D0A04201D1096910
:10159000016301214161F0BD0000014000040040F1
:1015A00000080040000C00400004014000400140E1
:1015B000004401400048014000180040001C004069
:1015C0000020004030B5026A22F001020262026A85
:1015D000436884690D6824F07304254322F00204F3
:1015E0008A6822430B4CA04202D00B4CA0420BD184
:1015F00022F00804CA6823F4407322434C6922F0A5
:1016000004021C438B69234343608561496841633D
:10161000026230BD000001400004014030B5026AA2
:1016200022F010020262026A436884690D6824F4A1
:10163000E64444EA05248D6822F0200242EA0512BD
:101640000D4DA84202D00D4DA8420ED1CD6822F01A
:10165000800242EA05124D6923F4406343EA8503A0
:101660008D6922F0400243EA850343608461496842
:101670008163026230BD00000000014000040140AF
:1016800030B5026A22F480720262036A4268C46959
:1016900023F4007324F073050C682C438D6843EA2F
:1016A00005230D4DA84202D00C4DA8420ED1CD68A5
:1016B00023F4006343EA05234D6922F4405242EAD1
:1016C00005128D6923F4806342EA05124260C46109
:1016D0004968C163036230BD00000140000401405D
:1016E00030B5026A22F480520262046A4268C36919
:1016F0000D6823F4E64343EA05238D6824F400547F
:1017000044EA0534084DA84202D0084DA84204D14D
:101710004D6922F4804242EA85124260C361496801
:101720000164046230BD000000000140000401407B
:10173000FEE702E008C8121F08C1002AFAD170476C
:101740007047002001E001C1121F002AFBD1704741
:1017500030B5054600214FF49634084600F0EAF90A
:101760002220E1040880034800E00580641EFCD2CA
:1017700030BD00000000016000B50021102000F025
:1017800010FA0021112000F00CFA0021122000F0C4
:1017900008FA0021132000F004FA0021292000F0AB
:1017A00000FA002107205DF804EB00F0FAB900B55B
:1017B0000021102000F0F5F90021112000F0F1F9CE
:1017C0000021122000F0EDF90021132000F0E9F9CA
:1017D00041F2B071102000F0E4F940F2371111200D
:1017E00000F0DFF940F23911122000F0DAF94FF47D
:1017F000E851132000F0D5F91321292000F0D1F988
:1018000040F2731107205DF804EB00F0CAB9F0B59F
:10181000064650880D46918840EA014150899389D7
:1018200040EA0340091A4C08171841F23801032016
:1018300000F0B7F92946304600F07CF94FF0C0417E
:101840002220088061003846FFF7FCFCBDE8F0402C
:1018500041F22801032000F0A4B9000070B51D4634
:101860000B46064600241146184600F063F94FF077
:10187000C04122200880074804E000BF20F814601F
:10188000641CA4B2AC42F9D36900BDE870400148C1
:10189000FFF7D8BCEC00002030B502FB03F4039D39
:1018A00000F048F94FF0C04122200880610028462E
:1018B000BDE83040FFF7C6BC2DE9F041884606463A
:1018C0001D46174600244FF48151032000F069F9AA
:1018D0003946404600F02EF94FF0C04122200880E2
:1018E000094803E020F81460641CA4B2AC42F9D3A8
:1018F00069000548FFF7A6FCBDE8F04141F2280168
:10190000032000F04EB90000EC000020F0207047EA
:101910004FF4A070704770B50121002000F041F92C
:101920004FF48071012000F03CF94FF4E061022097
:1019300000F037F941F21801032000F032F90021DC
:10194000042000F02EF940F20221082000F029F9CD
:101950000021092000F025F900210A2000F021F9DA
:1019600000210C2000F01DF900210D2000F019F9D4
:1019700000210F2000F015F90021102000F011F9CE
:101980000021112000F00DF90021122000F009F9CA
:101990000021132000F005F941F2B071102000F091
:1019A00000F940F23711112000F0FBF840F2391134
:1019B000122000F0F6F84FF4E851132000F0F1F88F
:1019C0001321292000F0EDF80021202000F0E9F893
:1019D0000021212000F0E5F80721302000F0E1F897
:1019E00040F20231312000F0DCF840F205142146CB
:1019F000322000F0D6F840F206252946352000F0C6
:101A0000D0F840F608063146362000F0CAF82946DC
:101A1000372000F0C6F840F20451382000F0C1F839
:101A20000721392000F0BDF821463C2000F0B9F82C
:101A300031463D2000F0B5F83220FEF74BFD002185
:101A4000502000F0AEF8EF21512000F0AAF800215C
:101A5000522000F0A6F840F23F11532000F0A1F808
:101A60004FF42741602000F09CF80121612000F034
:101A700098F800216A2000F094F80021802000F0FE
:101A800090F80021812000F08CF80021822000F0E5
:101A900088F80021832000F084F80021842000F0E1
:101AA00080F80021852000F07CF81021902000F0C3
:101AB00078F80021922000F074F80321932000F0C0
:101AC00070F84FF48871952000F06BF80021972092
:101AD00000F067F80021982000F063F841F2280137
:101AE000032000F05EF840F27311072000F059F86F
:101AF0000021084600F01EF822202907088070BD4A
:101B0000002000F00FB8000000B500F013F84FF00F
:101B1000C0412220088002480188008800BD0000E2
:101B2000000001604FF0C041088001480088704704
:101B30000000016010B50446C1F1EF0081B2202021
:101B400000F02FF82146BDE81040212000F029B810
:101B500070B50546C1F1F0000C46C01A81B21646B8
:101B6000502000F01EF8C4F1EF0081B2512000F0C7
:101B700018F82946522000F014F8A819BDE8704062
:101B8000401E81B2532000F00CB807B5FFF7D2FF1A
:101B90004FF0C04122200880022102A8FFF752FB2B
:101BA0000EBD03B54FF0C0410880022101A8FFF728
:101BB00049FB0CBDFEF7C8FDFFF724FCFFF790FBC7
:101BC000FFF75AFBFFF7D0FB00224FF48041174884
:101BD000FEF7A6FDFEF7DAFB4FF6FF752846FEF787
:101BE00001FB4FF6E070FEF7F3FB1F20FEF7FCFB56
:101BF0004FF47A742846FEF7F5FA0D48FEF7EEFB2F
:101C000001230CA264210020FEF716FB2046FEF7FC
:101C100061FC2846FEF7E6FA01230CA27821002099
:101C2000FEF70AFB2046FEF755FCE3E700180240EA
:101C300058000020436F70797269676874286329BF
:101C4000205761766573686172650000332E3269D2
:101C50006E6368204C43442044656D6F00000000B3
:101C60000000000001020304010203040607080942
:101C70000000000000000000000000000000000064
:101C80000000000000000000000000000000000054
:101C90000000000000000000000000000000000044
:101CA0000000000000000000000000000000000034
:101CB00000000000000000000000000000000380A1
:101CC0000003800003800003800003800003800085
:101CD0000380000380000380000100000100000079
:101CE00000000000000380000380000000000000EE
:101CF00000000000000000000000000000000000E4
:101D00000000000000000000000E70000E70000EC9
:101D100070000420000420000420000420000000C3
:101D200000000000000000000000000000000000B3
:101D300000000000000000000000000000000000A3
:101D4000000000000000000000000000000006602D
:101D5000000660000660000660000660003FF800B4
:101D60003FF8000660000CC0003FF8003FF8000C90
:101D7000C0000CC0000CC0000CC0000CC000000073
:101D80000000000000000000000000000000000053
:101D900000000001800001800007B0000FF0001873
:101DA00070001870001C00000F800007E00000F0B9
:101DB000001830001C30001C70001FE0001BC00029
:101DC000018000018000018000018000000000000F
:101DD000000000000000000000000000000007807C
:101DE000000FC0001CE0001860001860001CE0003C
:101DF0000FF80007E0001FF0000738000618000683
:101E0000180007380003F00001E0000000000000A7
:101E100000000000000000000000000000000000C2
:101E200000000000000000000000000003F00007B8
:101E3000F0000C60000C00000C0000060000070021
:101E4000000F9C001DFC0018F0001870000FFC0033
:101E500007DC00000000000000000000000000009F
:101E60000000000000000000000000000000000072
:101E700000038000038000038000010000010000D7
:101E80000100000100000000000000000000000050
:101E90000000000000000000000000000000000042
:101EA0000000000000000000000000000000000032
:101EB0000000000000000018000038000070000062
:101EC000F00000E00000E00001C00001C00001C01F
:101ED0000001C00001C00001C00000E00000E000FF
:101EE00000700000700000380000180000000000C2
:101EF00000000000000000000000000000001800CA
:101F0000001C00000E00000E00000700000700008B
:101F1000038000038000038000038000038000032F
:101F200080000700000700000F00000E00001C00EA
:101F30000018000000000000000000000000000089
:101F40000000000000000180000180000180001DF1
:101F5000B8001FF80007E00003C00003C0000660DF
:101F6000000660000000000000000000000000000B
:101F70000000000000000000000000000000000061
:101F80000000000000000000000000000000000051
:101F9000000000000180000180000180000180003D
:101FA0000180003FFC003FFC000180000180000137
:101FB000800001800001800000000000000000009F
:101FC0000000000000000000000000000000000011
:101FD0000000000000000000000000000000000001
:101FE00000000000000000000000000000000000F1
:101FF0000000000000000000000000E00000C00041
:1020000001C0000180000180000300000300000007
:1020100000000000000000000000000000000000C0
:1020200000000000000000000000000000000000B0
:102030000000001FF8001FF8000000000000000072
:102040000000000000000000000000000000000090
:102050000000000000000000000000000000000080
:102060000000000000000000000000000000000070
:102070000000000000000000000000000000000060
:102080000000000000000000000003C00003C000CA
:1020900003C000000000000000000000000000007D
:1020A00000000000000000000018000018000038C8
:1020B0000000300000700000600000600000C00000
:1020C00000C0000180000180000300000300000642
:1020D00000000600000E00000C00001C00001800AC
:1020E00000180000000000000000000000000000D8
:1020F00000000000000003C00007E0000C30000CEE
:1021000030001818001818001818001818001818AF
:10211000001818001818000C30000C300007E00000
:1021200003C00000000000000000000000000000EC
:10213000000000000000000000000000000000801F
:10214000000780001F80001D8000018000018000CA
:1021500001800001800001800001800001800001F9
:1021600080000180001FF8001FF800000000000040
:10217000000000000000000000000000000000005F
:1021800000000000000007C0001FF00038300030E1
:10219000180030180000180000300000600001C076
:1021A000000380000600000C00001800003FF8004B
:1021B0003FF80000000000000000000000000000E8
:1021C000000000000000000000000000000003C04C
:1021D000000FE0000C7000003000003000006000D4
:1021E00003C00003E00000700000180000180000A9
:1021F00018001838001FF0000FC000000000000099
:1022000000000000000000000000000000000000CE
:1022100000000000000000E00001E00001E0000319
:1022200060000660000660000C60000C6000186032
:10223000003060003FF8003FF80000600003F80045
:1022400003F8000000000000000000000000000093
:1022500000000000000000000000000000001FF06F
:10226000001FF0001800001800001800001BC0003C
:102270001FF0001C300000180000180000180000BB
:1022800018003030003FF0000FC0000000000000D8
:10229000000000000000000000000000000000003E
:1022A00000000000000000F80003F8000700000E26
:1022B00000000C00001800001BC0001FF0001C30C4
:1022C000001818001818001818000C38000FF0003B
:1022D00003E000000000000000000000000000001B
:1022E00000000000000000000000000000001FF8D7
:1022F000001FF800181800183800003000003000E7
:1023000000700000600000600000E00000C00000FD
:10231000C00001C00001800001800000000000003A
:1023200000000000000000000000000000000000AD
:1023300000000000000007E0000FF0001C3800184B
:1023400018001818000C300007E00007E0000C30FF
:10235000001818001818001818001C38000FF0009A
:1023600007E0000000000000000000000000000086
:10237000000000000000000000000000000007C096
:10238000000FF0001C300018180018180018180072
:102390000C38000FF80003D80000180000300000CF
:1023A000700000E0001FC0001F00000000000000DF
:1023B000000000000000000000000000000000001D
:1023C000000000000000000000000000000000000D
:1023D000000003C00003C00003C0000000000000B4
:1023E0000000000000000000000003C00003C00067
:1023F00003C000000000000000000000000000001A
:1024000000000000000000000000000000000000CC
:102410000000000000000000000000F00000F000DC
:1024200000F00000000000000000000000000000BC
:10243000E00001C0000180000180000300000200F4
:10244000000000000000000000000000000000008C
:10245000000000000000000000000000001C000060
:102460003C0000F00003C0000F00003C0000F00042
:10247000003C00000F000003C00000F000003C0022
:10248000001C000000000000000000000000000030
:10249000000000000000000000000000000000003C
:1024A000000000000000000000000000007FFC00B1
:1024B0007FFC000000000000007FFC007FFC0000AB
:1024C000000000000000000000000000000000000C
:1024D00000000000000000000000000000000000FC
:1024E0000000000000000000000000007000007804
:1024F00000001E000007800001E000007800001EC0
:102500000000780001E0000780001E000078000055
:10251000700000000000000000000000000000004B
:1025200000000000000000000000000000000000AB
:102530000007C0000FE000187000183000183000CD
:1025400000700000E00003C00003800003000000F2
:10255000000000000007000007000000000000006D
:10256000000000000000000000000000000000006B
:1025700000000000000003E00007F0000E38000C2F
:10258000180018780018F80019D800199800199840
:102590000019980018F8001878001800000C0000C6
:1025A0000E180007F80003E0000000000000000023
:1025B000000000000000000000000000000000001B
:1025C000001F80001FC00001C00003600003600006
:1025D0000630000630000C30000FF8001FF800181D
:1025E0000C00300C00FC7F00FC7F000000000000AD
:1025F00000000000000000000000000000000000DB
:102600000000000000000000007FE0007FF00018E4
:1026100038001818001818001838001FF0001FF8AC
:1026200000181C00180C00180C00180C007FF80093
:102630007FF000000000000000000000000000002B
:10264000000000000000000000000000000000008A
:102650000003EC000FFC001C1C00180C00300C00E8
:102660003000003000003000003000003000001862
:102670000C001C1C000FF80003F00000000000001C
:10268000000000000000000000000000000000004A
:102690000000000000000000007FC0007FF0001874
:1026A0003800181800180C00180C00180C00180C32
:1026B00000180C00180C001818001838007FF000E3
:1026C0007FE00000000000000000000000000000AB
:1026D00000000000000000000000000000000000FA
:1026E000007FF8007FF800181800181800199800EB
:1026F0001980001F80001F800019800019980018A1
:1027000018001818007FF8007FF800000000000093
:1027100000000000000000000000000000000000B9
:102720000000000000000000003FFC003FFC000C27
:102730000C000C0C000CCC000CC0000FC0000FC033
:10274000000CC0000CC0000C00000C00003FC000DA
:102750003FC000000000000000000000000000007A
:102760000000000000000000000000000000000069
:102770000003EC000FFC001C1C00180C00300C00C7
:1027800030000030000030FE0030FE00300C003819
:102790000C001C1C000FFC0003F0000000000000F7
:1027A0000000000000000000000000000000000029
:1027B0000000000000000000007E7E007E7E001809
:1027C00018001818001818001818001FF8001FF833
:1027D000001818001818001818001818007E7E003D
:1027E0007E7E0000000000000000000000000000ED
:1027F00000000000000000000000000000000000D9
:10280000001FF8001FF80001800001800001800017
:102810000180000180000180000180000180000132
:1028200080000180001FF8001FF800000000000079
:102830000000000000000000000000000000000098
:1028400000000000000000000007FE0007FE00007E
:102850003000003000003000003000003000303028
:10286000003030003030003030003060003FE00099
:102870000F800000000000000000000000000000C9
:102880000000000000000000000000000000000048
:10289000007F3E007F3E0018300018600018C00026
:1028A0001980001B80001FC0001CE0001870001879
:1028B00030001838007F1F007F1F0000000000005C
:1028C0000000000000000000000000000000000008
:1028D0000000000000000000007F80007F80000CEE
:1028E00000000C00000C00000C00000C00000C00AC
:1028F000000C0C000C0C000C0C000C0C007FFC00FD
:102900007FFC00000000000000000000000000004C
:1029100000000000000000000000000000000000B7
:1029200000F00F00F81F00381C003C3C003C3C004D
:10293000366C00366C0033CC0033CC00318C003068
:102940000C00300C00FE7F00FE7F00000000000045
:102950000000000000000000000000000000000077
:1029600000000000000000000078FE0078FE001C5F
:1029700018001E18001F18001B18001B980019D8FB
:102980000018D80018F8001878001838007F1800D0
:102990007F180000000000000000000000000000A0
:1029A0000000000000000000000000000000000027
:1029B0000003C0000FF0001C3800181800381C007D
:1029C000300C00300C00300C00300C00381C0018AB
:1029D00018001C38000FF00003C0000000000000C9
:1029E00000000000000000000000000000000000E7
:1029F0000000000000000000003FF0003FF8000C65
:102A00001C000C0C000C0C000C0C000C18000FF837
:102A1000000FE0000C00000C00000C00003FC000A4
:102A20003FC00000000000000000000000000000A7
:102A30000000000000000000000000000000000096
:102A40000003C0000FF0001C3800181800381C00EC
:102A5000300C00300C00300C00300C00381C00181A
:102A600018001C38000FF00007C00007CC000FFC56
:102A7000000C380000000000000000000000000012
:102A80000000000000000000007FE0007FF0001860
:102A900038001818001818001838001FF0001FC060
:102AA0000018E0001870001830001838007F1E0071
:102AB0007F0E000000000000000000000000000089
:102AC0000000000000000000000000000000000006
:102AD0000007D8000FF8001C38001818001818005C
:102AE0001E00000FC00003F0000078001818001846
:102AF00018001C38001FF0001BE000000000000060
:102B000000000000000000000000000000000000C5
:102B10000000000000000000003FFC003FFC00310E
:102B20008C00318C00318C00318C000180000180E0
:102B3000000180000180000180000180000FF00092
:102B40000FF0000000000000000000000000000086
:102B50000000000000000000000000000000000075
:102B6000007E7E007E7E00181800181800181800DD
:102B7000181800181800181800181800181800184D
:102B800018000C30000FF00003C00000000000002F
:102B90000000000000000000000000000000000035
:102BA0000000000000000000007F7F007F7F001811
:102BB0000C000C18000C18000C1800063000063031
:102BC0000003600003600003600001C00001C0005A
:102BD0000080000000000000000000000000000075
:102BE00000000000000000000000000000000000E5
:102BF00000FE3F80FE3F8030060030060030860039
:102C000019CC0019CC001B6C001B6C001E7C000E44
:102C100038000E38000C18000C18000000000000EE
:102C200000000000000000000000000000000000A4
:102C30000000000000000000007E7E007E7E001884
:102C400018000C300006600003C000018000018005
:102C50000003C0000660000C30001818007E7E00E3
:102C60007E7E000000000000000000000000000068
:102C70000000000000000000000000000000000054
:102C8000007C7E007C7E001818000C30000660007E
:102C900006600003C0000180000180000180000187
:102CA00080000180000FF0000FF000000000000025
:102CB0000000000000000000000000000000000014
:102CC0000000000000000000001FF8001FF80018BE
:102CD000180018300018600018C0000180000300C0
:102CE000000618000C18001818003018003FF800F3
:102CF0003FF800000000000000000000000000009D
:102D0000000000000000000000000000000001F0D2
:102D10000001F000018000018000018000018000BE
:102D2000018000018000018000018000018000011D
:102D3000800001800001800001800001800001F01E
:102D40000001F00000000000000000000000000092
:102D50001800001800001C00000C00000E00000607
:102D60000000060000030000030000018000018055
:102D70000000C00000C000006000006000007000A3
:102D800000300000380000180000180000000000AB
:102D900000000000000000000000000000000F80A4
:102DA000000F800001800001800001800001800090
:102DB000018000018000018000018000018000018D
:102DC00080000180000180000180000180000F80F0
:102DD000000F800000000000000000000000000064
:102DE00000000000800001C00003E0000770000642
:102DF00030000C1800180C00100400000000000047
:102E000000000000000000000000000000000000C2
:102E100000000000000000000000000000000000B2
:102E200000000000000000000000000000000000A2
:102E30000000000000000000000000000000000092
:102E40000000000000000000000000000000000082
:102E50000000000000000000000000000000000072
:102E600000000000000000000000FFFF00FFFF0066
:102E700000000003000003800000E000006000008C
:102E80000000000000000000000000000000000042
:102E90000000000000000000000000000000000032
:102EA0000000000000000000000000000000000022
:102EB0000000000000000000000000000000000012
:102EC000000000000000000000000FC0001FE00034
:102ED00000300000300007F0001FF00038300030F4
:102EE00030003070001FFC000FBC0000000000002C
:102EF00000000000000000000000000000000000D2
:102F000000000000000078000078000018000018A1
:102F100000001BE0001FF8001C1800180C00180C23
:102F200000180C00180C00180C001C18007FF8008A
:102F30007BE0000000000000000000000000000036
:102F40000000000000000000000000000000000081
:102F50000000000000000000000003EC000FFC0077
:102F60001C1C00380C00300C003000003000003811
:102F70000C001C1C000FF80003F000000000000013
:102F80000000000000000000000000000000000041
:102F90000000000000000078000078000018000029
:102FA000180007D8001FF800183800301800301833
:102FB000003018003018003018001838001FFE00CC
:102FC00007DE00000000000000000000000000001C
:102FD00000000000000000000000000000000000F1
:102FE0000000000000000000000007E0001FF800E3
:102FF000181800300C003FFC003FFC00300000308F
:103000000000180C001FFC0007F00000000000008A
:1030100000000000000000000000000000000000B0
:1030200000000000000001FC0003FC000600000698
:1030300000003FF8003FF800060000060000060010
:10304000000600000600000600000600003FF00039
:103050003FF0000000000000000000000000000041
:103060000000000000000000000000000000000060
:103070000000000000000000000007DE001FFE004E
:1030800018380030180030180030180030180030A0
:1030900018001838001FF80007D8000018000018A2
:1030A000000038000FF0000FC0000000000000001A
:1030B00000000000000078000078000018000018F0
:1030C00000001BE0001FF0001C3800181800181842
:1030D000001818001818001818001818007E7E0034
:1030E0007E7E0000000000000000000000000000E4
:1030F000000000000000000000000000000001804F
:10310000000180000000000000001F80001F800000
:103110000180000180000180000180000180000129
:1031200080000180003FFC003FFC00000000000028
:10313000000000000000000000000000000000008F
:1031400000000000000000C00000C00000000000FF
:1031500000001FF0001FF0000030000030000030C1
:10316000000030000030000030000030000030006F
:103170000030000030000030000070001FE0001F31
:1031800080000000000000000000000000003C0083
:10319000003C00000C00000C00000CF8000CF800D3
:1031A0000CC0000D80000F80000F00000F80000D8C
:1031B000C0000CE0003C7C003C7C000000000000F3
:1031C00000000000000000000000000000000000FF
:1031D0000000000000001F80001F8000018000012F
:1031E00080000180000180000180000180000180DA
:1031F000000180000180000180000180003FFC0090
:103200003FFC000000000000000000000000000083
:1032100000000000000000000000000000000000AE
:1032200000000000000000000000F77800FFFC0034
:1032300039CC00318C00318C00318C00318C003164
:103240008C00318C00FDEF00FDEF0000000000005D
:10325000000000000000000000000000000000006E
:10326000000000000000000000000000000000005E
:1032700000007BE0007FF0001C38001818001818D0
:10328000001818001818001818001818007E7E0082
:103290007E7E000000000000000000000000000032
:1032A000000000000000000000000000000000001E
:1032B0000000000000000000000003C0000FF0004C
:1032C0001C3800381C00300C00300C00300C00386A
:1032D0001C001C38000FF00003C0000000000000BC
:1032E00000000000000000000000000000000000DE
:1032F00000000000000000000000000000000000CE
:1033000000007BE0007FF8001C1800180C00180C6F
:1033100000180C00180C00180C001C18001FF800F6
:103320001BE0001800001800001800007F00007F5C
:10333000000000000000000000000000000000008D
:103340000000000000000000000007DE001FFE007B
:1033500018380030180030180030180030180030CD
:1033600018001838001FF80007D8000018000018CF
:103370000000180000FE0000FE0000000000000039
:10338000000000000000000000000000000000003D
:1033900000003E78003EFC0007CC0007000006005D
:1033A000000600000600000600000600003FF000D6
:1033B0003FF00000000000000000000000000000DE
:1033C00000000000000000000000000000000000FD
:1033D0000000000000000000000007F8000FF800E7
:1033E0001818001818001F80000FF00000F80018CF
:1033F00018001838001FF0001FE000000000000057
:1034000000000000000000000000000000000000BC
:103410000000000000000C00000C00000C00000C7C
:1034200000003FF0003FF0000C00000C00000C001A
:10343000000C00000C00000C00000C1C0007FC003D
:1034400003F0000000000000000000000000000089
:10345000000000000000000000000000000000006C
:10346000000000000000000000007878007878007C
:103470001818001818001818001818001818001844
:1034800018001838000FFE0007DE000000000000E2
:10349000000000000000000000000000000000002C
:1034A000000000000000000000000000000000001C
:1034B00000007C3E007C3E001818001818000C30FC
:1034C000000C300006600006600007E00003C0004A
:1034D00003C0000000000000000000000000000029
:1034E00000000000000000000000000000000000DC
:1034F00000000000000000000000783C00783C0064
:103500003118003398003398001AB0001EF0001EE6
:10351000F0001C60000C60000C6000000000000067
:10352000000000000000000000000000000000009B
:10353000000000000000000000000000000000008B
:1035400000003E7C003E7C000C300006600003C0A2
:103550000001800003C0000660000C30003E7C00CB
:103560003E7C0000000000000000000000000000A1
:10357000000000000000000000000000000000004B
:10358000000000000000000000007E1F007E1F0001
:10359000180C000C18000C18000630000630000350
:1035A000600003E00001C00000C000018000018055
:1035B000000300003FC0003FC0000000000000000A
:1035C00000000000000000000000000000000000FB
:1035D00000001FF8001FF80018300018600000C03D
:1035E000000180000300000618000C18001FF800FE
:1035F0001FF80000000000000000000000000000B4
:10360000000000000000000000000000000000E0DA
:103610000001E000018000018000018000018000C5
:10362000018000018000038000070000038000018A
:10363000800001800001800001800001800001E025
:103640000000E0000000000000000000000000009A
:1036500000000000000001800001800001800001E6
:103660008000018000018000018000018000018055
:1036700000018000018000018000018000018000C5
:103680000180000180000180000180000000000036
:103690000000000000000000000000000000070023
:1036A000000780000180000180000180000180008F
:1036B00001800001800001C00000E00001C00001A5
:1036C00080000180000180000180000180000780EF
:1036D00000070000000000000000000000000000E3
:1036E00000000000000000000000000000000000DA
:1036F00000000000000000000E00001F18003BB892
:103700000031F00000E000000000000000000000B8
:1037100000000000000000000000000000000000A9
:103720000000000000000000000000000000000099
:103730000000000000000000000000000000000089
:10374000000000000000000000000C000C000C0055
:103750000C000C000C000C000C0000000C00000021
:103760000000000000000000000000001DC01DC09F
:1037700008800880088000000000000000000000B1
:10378000000000000000000000000D800D800D8092
:103790000D803FC01B003FC01B001B001B001B0017
:1037A000000000000000000004001F803180318014
:1037B00038001E000F000380318031803F0004007C
:1037C0000400000000000000000018002400240095
:1037D00018C007801E0031800240024001800000B6
:1037E0000000000000000000000000000F001800B2
:1037F000180018000C001D80370033001D800000E9
:1038000000000000000000000000000007000700AA
:1038100002000200020000000000000000000000A2
:10382000000000000000000000000300030006008C
:103830000E000C000C000C000C000E000600030033
:1038400003000000000000000000180018000C0039
:103850000600060006000600060006000C001C001C
:1038600018000000000000000000060006003FC035
:103870003FC00F001F801980000000000000000002
:103880000000000000000000000000000000040034
:10389000040004003F800400040004000000000055
:1038A0000000000000000000000000000000000018
:1038B00000000000000000000000060004000C00F2
:1038C00008000800000000000000000000000000E8
:1038D000000000003F800000000000000000000029
:1038E00000000000000000000000000000000000D8
:1038F000000000000000000000000C000C000000B0
:10390000000000000000000000C000C00180018035
:103910000300030006000C000C0018001800300023
:10392000300000000000000000000E001B0031808D
:10393000318031803180318031801B000E000000E9
:103940000000000000000000000006003E0006002D
:103950000600060006000600060006003FC0000044
:10396000000000000000000000000F0019803180FE
:103970003180030006000C00180030003F8000007A
:10398000000000000000000000003F006180018096
:1039900003001F0003800180018061803F00000060
:1039A00000000000000000000000070007000F00FA
:1039B0000B001B00130033003F8003000F8000004A
:1039C000000000000000000000001F801800180028
:1039D00018001F0011800180018021801F0000005D
:1039E0000000000000000000000007801C0018001C
:1039F0003000370039803180318019800F0000009D
:103A0000000000000000000000007F0043000300F1
:103A100006000600060006000C000C000C0000006A
:103A2000000000000000000000001F003180318015
:103A300031801F0031803180318031801F000000D3
:103A4000000000000000000000001E003300318074
:103A5000318033801D800180030007003C0000009E
:103A60000000000000000000000000000000000056
:103A70000C000C000000000000000C000C00000016
:103A80000000000000000000000000000000000036
:103A9000030003000000000000000600040008000E
:103AA00008000000000000000000000000C003004B
:103AB00004001800600018000400030000C00000AB
:103AC00000000000000000000000000000000000F6
:103AD00000007FC000007FC0000000000000000068
:103AE000000000000000000000000000600018005E
:103AF0000400030000C00300040018006000000080
:103B00000000000000000000000000001F003180E5
:103B10003180018007000C000C0000000C00000048
:103B2000000000000000000000000E001100210055
:103B300021002700290029002700200011000E0085
:103B40000000000000000000000000003F000F0027
:103B50000900198019801F8030C030C079E0000052
:103B60000000000000000000000000007F00318025
:103B7000318031803F003180318031807F00000012
:103B80000000000000000000000000001F4030C0E6
:103B90006040600060006000604030801F000000F6
:103BA0000000000000000000000000007F003180E5
:103BB00030C030C030C030C030C031807F00000025
:103BC0000000000000000000000000007F80308046
:103BD000308032003E003200308030807F80000034
:103BE0000000000000000000000000007FC0304026
:103BF000304032003E003200300030007C000000D7
:103C00000000000000000000000000001E80318065
:103C100060806000600067C0618031801F0000002C
:103C20000000000000000000000000007BC03180A8
:103C3000318031803F803180318031807BC0000015
:103C40000000000000000000000000003FC006006F
:103C50000600060006000600060006003FC0000041
:103C60000000000000000000000000001FC0030072
:103C70000300030003006300630063003E000000D4
:103C80000000000000000000000000007BC0318048
:103C9000330036003C003E003300318079C0000024
:103CA0000000000000000000000000007E0018007E
:103CB0001800180018001840184018407FC0000075
:103CC000000000000000000000000000E0E060C014
:103CD00071C07BC06AC06EC064C060C0FBE0000001
:103CE00000000000000000000000000073C03180F0
:103CF00039803D8035803780338031807980000085
:103D00000000000000000000000000001F003180E3
:103D100060C060C060C060C060C031801F00000033
:103D20000000000000000000000000007F00318063
:103D30003180318031803F00300030007E00000053
:103D40000000000000000000000000001F003180A3
:103D500060C060C060C060C060C031801F000CC027
:103D60001F80000000000000000000007F00318084
:103D7000318031803E003300318031807CE00000B2
:103D80000000000000000000000000001F803180E3
:103D9000318038001F000380318031803F000000F7
:103DA0000000000000000000000000007F804C8048
:103DB0004C804C800C000C000C000C003F000000FC
:103DC0000000000000000000000000007BC0318007
:103DD0003180318031803180318031801F0000009E
:103DE0000000000000000000000000007BC03180E7
:103DF00031801B001B001B000A000E000E0000009B
:103E0000000000000000000000000000FBE060C0B7
:103E100064C06EC06EC02A803B803B803180000051
:103E20000000000000000000000000007BC03180A6
:103E30001B000E000E000E001B0031807BC0000036
:103E400000000000000000000000000079E030C029
:103E500019800F0006000600060006001F80000003
:103E60000000000000000000000000003F802180F2
:103E70002300060004000C00188030803F80000002
:103E8000000000000000000000000780060006009F
:103E900006000600060006000600060006000600F2
:103EA00007800000000000003000300018001800FB
:103EB0000C000C000600030003000180018000C01C
:103EC00000C000000000000000001E000600060008
:103ED00006000600060006000600060006000600B2
:103EE0001E0000000000000004000A000A0011008B
:103EF0002080208000000000000000000000000082
:103F000000000000000000000000000000000000B1
:103F100000000000000000000000000000000000A1
:103F2000000000000000FFE00800040002000000A4
:103F30000000000000000000000000000000000081
:103F40000000000000000000000000000000000071
:103F50001F00018001801F80318033801DC0000060
:103F60000000000000000000000070003000300081
:103F70003700398030C030C030C039807700000051
:103F80000000000000000000000000000000000031
:103F90001E80318060806000608031801F000000E2
:103FA000000000000000000000000380018001808C
:103FB0001D80338061806180618033801DC000007E
:103FC00000000000000000000000000000000000F1
:103FD0001F00318060C07FC0600030C01F800000C3
:103FE0000000000000000000000007E00C000C00D2
:103FF0003F800C000C000C000C000C003F80000007
:1040000000000000000000000000000000000000B0
:104010001DC0338061806180618033801D8001809C
:1040200001801F0000000000000070003000300020
:104030003700398031803180318031807BC0000091
:104040000000000000000000000006000600000064
:104050001E00060006000600060006003FC0000025
:104060000000000000000000000006000600000044
:104070003F000300030003000300030003000300EC
:1040800003003E000000000000007000300030001F
:10409000378036003C003C003600330077C000001B
:1040A000000000000000000000001E0006000600E6
:1040B0000600060006000600060006003FC00000DD
:1040C00000000000000000000000000000000000F0
:1040D0007F8036C036C036C036C036C076E00000BD
:1040E00000000000000000000000000000000000D0
:1040F0007700398031803180318031807BC0000091
:1041000000000000000000000000000000000000AF
:104110001F00318060C060C060C031801F0000009F
:10412000000000000000000000000000000000008F
:104130007700398030C030C030C03980370030005F
:1041400030007C00000000000000000000000000C3
:104150001DC0338061806180618033801D8001805B
:10416000018007C000000000000000000000000007
:104170007B801CC018001800180018007F00000089
:10418000000000000000000000000000000000002F
:104190001F8031803C001F00038031803F00000001
:1041A00000000000000000000000180018001800C7
:1041B0007F00180018001800180018800F00000079
:1041C00000000000000000000000000000000000EF
:1041D0007380318031803180318033801DC0000098
:1041E00000000000000000000000000000000000CF
:1041F0007BC0318031801B001B000E000E000000D0
:1042000000000000000000000000000000000000AE
:10421000F1E060C064C06EC03B803B803180000034
:10422000000000000000000000000000000000008E
:104230007BC01B000E000E000E001B007BC00000A8
:10424000000000000000000000000000000000006E
:1042500079E030C0198019800B000F0006000600BD
:104260000C003E0000000000000000000000000004
:104270003F80218003000E00180030803F80000046
:104280000000000000000000000006000C000C0010
:104290000C000C000C0018000C000C000C000C00B2
:1042A00006000000000000000000060006000600F6
:1042B00006000600060006000600060006000600CE
:1042C000060000000000000000000C0006000600D0
:1042D00006000600060003000600060006000600B1
:1042E0000C000000000000000000000000000000C2
:1042F00000001800248003000000000000000000FF
:10430000000000000000000028430008000000201A
:104310006000000032170008884300086000002099
:10432000800A000042170008000000000024F4008A
:10433000000000000000000017190008011B000821
:10434000AF17000879170008351B00088B1B000801
:10435000091B0008511B00085D180008B918000867
:10436000111900080D1900080F1800089918000805
:104370005117000800000000701C00081100180010
:08438000283700080B001000B3
:040000050800018965
:00000001FF
