:020000040800F2
:10000000A87600209D0100082F1C00084118000858
:100010002D1C0008C90400088D32000800000000F3
:10002000000000000000000000000000E71C0008C5
:100030007505000800000000E51C0008E91C000828
:10004000B7010008B7010008B7010008B7010008B0
:10005000B7010008B7010008B7010008B7010008A0
:10006000B7010008B7010008B7010008B701000890
:10007000B7010008B7010008B7010008B701000880
:10008000B7010008B7010008B7010008B701000870
:10009000B7010008B7010008B7010008B701000860
:1000A000B7010008B7010008B7010008B701000850
:1000B000B7010008B7010008B7010008B701000840
:1000C000B7010008B7010008B7010008B701000830
:1000D000B7010008B7010008B7010008B701000820
:1000E000B7010008B7010008B7010008B701000810
:1000F000B7010008B7010008B7010008B701000800
:10010000B7010008B7010008B7010008B7010008EF
:10011000B7010008B7010008B7010008B7010008DF
:10012000B7010008B7010008B7010008B7010008CF
:10013000B7010008B7010008B7010008B7010008BF
:10014000B7010008B7010008B7010008511C0008FA
:10015000B7010008B7010008B7010008B70100089F
:10016000B7010008B7010008B7010008B70100088F
:10017000B7010008B7010008B7010008000000003F
:10018000B7010008B7010008DFF80CD000F02AF82A
:10019000004800475D390008A876002006488047DF
:1001A00006480047FEE7FEE7FEE7FEE7FEE7FEE75C
:1001B000FEE7FEE7FEE7FEE7991D0008890100085B
:1001C00040EA01039B0703D009E008C9121F08C0D9
:1001D000042AFAD203E011F8013B00F8013B521E59
:1001E000F9D27047064C074D06E0E06840F0010385
:1001F00094E8070098471034AC42F6D3FFF7C8FFE5
:10020000786500089865000870B58C1810F8015BD7
:1002100015F0070301D110F8013B2A1106D110F89F
:10022000012B03E010F8016B01F8016B5B1EF9D1A3
:100230002B0705D40023521E0DD401F8013BFAE729
:1002400010F8013BCB1A921C03E013F8015B01F894
:10025000015B521EF9D5A142D8D3002070BD000029
:1002600070B50A4E00243568306007E000F0ECF805
:1002700082B2A1B2002000F0A3F8641C00F0EAF8FA
:10028000A042F3D8A8B2306070BD0000680E002014
:10029000074B30B49B68DD881C689B88DB1DDB083E
:1002A000203A13FB02F205FB024230BC01F0CABA4D
:1002B000680E00202DE9F0470446002799468A463B
:1002C0001546B846104601E008F1010810F8011B78
:1002D0000029F9D100F0B8F81C4E4A46B9F1010FD7
:1002E000B1688988B0FBF1F002D0022A17D105E08D
:1002F000A0EB0800484304EB500003E0A0EB08002B
:100300004843001B84B20AE051462046FFF7C0FF75
:10031000B0687F1CBFB280886D1C204484B200F09E
:1003200093F80146B068808807FB101189B28142BA
:1003300001D3012000E000202A780AB1012100E069
:1003400000210842E0D1BDE8F0870000680E0020DF
:10035000054A03239268D288424390B20A46014676
:100360000020FFF7A7BF0000680E002070B50D4603
:100370000646508A117D144640EA0140D18A127E19
:1003800041EA02418BB282B22946304601F0ACFB11
:100390000A480068036B1BB122462946304698473D
:1003A00000F058F884B200F04FF82346BDE87040E2
:1003B00082B20021084601F097BB000090000020A7
:1003C0002DE9F04106460F4800240F4F00681546FE
:1003D0008846D0F820C0BCF1000F0FD013463888F3
:1003E0000A463146BDE8F04180B260473888414650
:1003F00082B2301980B201F095FA641CAC42F5D398
:10040000BDE8F08190000020680E00202DE9F04149
:10041000064609480F461C460188154689B2016008
:100420003946781C87B22A463046FFF7C9FF641E5A
:10043000A4B2F5D2BDE8F081680E002001488068C2
:1004400070470000680E002001480068806A00477D
:100450009000002001480068C06A0047900000201A
:1004600070B50D4C4FF6FF70012660600B48A06020
:100470000B4D0020206068688047A0F513412539A6
:1004800007D10648001F05602868804703480026FA
:10049000A060304670BD0000680E0020940000206F
:1004A000540000200149486070470000680E002099
:1004B0000149886070470000680E0020014908600B
:1004C00070470000680E0020FEE700207047002003
:1004D0007047000010B500220549064801F056FD9E
:1004E00003490448091F01F04BFD002010BD000026
:1004F000140000205C0600202DE9F0410546086844
:100500000E46401C03F074FA04460D4801F01CFD31
:100510000746002004E000BF15F8011B2154401CD1
:1005200031688142F8D800212154214605A002F00B
:10053000AFFE7DB2204602F0B7FF2846BDE8F0814D
:100540005C06002025730A00094A10B5D2F818226B
:10055000D2F814220AB1012010BD0A46014604480F
:1005600001F014FDBDE81040014801F04FBD00004E
:100570005C0600207047FEE770B5B3F5804F05D0EC
:100580006FF0704140F82210002070BD50F82240FA
:10059000084B8E891C40D1E9003543EA05138D686C
:1005A00089692D0245EA06452B430B43234340F856
:1005B0002230E9E70000F0CFF0B50C6850F82430A5
:1005C000114A1340D1E90125D1E903672A433E438B
:1005D00032434E6932438E693243CE6932430E6AEA
:1005E00032434E6A32438E6A3243CE6A3243CE6B16
:1005F000096B32430A431A43082D01D142F04002ED
:1006000040F824200020F0BD8000F0FF30B500EB62
:10061000820250688D8900F04043D1E9000440EA2D
:1006200004108C68240244EA054420430C8A074DD8
:1006300005EB045420430C7D6D0105EB04648969CE
:100640002043084318435060002030BD0000F0FFF5
:1006500031B500F029F9044600F026F90099001B95
:100660008842F9D338BD0000F0B51B4887B0016857
:1006700000292ED10121016018480024016841F0B1
:10068000010101600068022500F0010005904FF6AD
:100690008070CDE9000502AA03260C2782E8D0006D
:1006A00069460F4800F022F84CF2B370CDE900051E
:1006B00002AA694682E8D0000A4800F017F8202014
:1006C000CDE9000502AA694682E8D000064800F09C
:1006D0000DF807B0F0BD00004C0000203838024093
:1006E00000100240000C0240001802402DE9F84FB3
:1006F000DFF87CB100224FF001084FF0030A4FF001
:100700000F090BF1040E00BF0B6808FA02F4234036
:10071000A3426ED14D68022D01D0122D0ED1D50805
:1007200000EB850CDCF820505607F70E09FA07F6A7
:10073000B5430E69BE402E43CCF8206006685500D4
:100740000F790AFA05FC07F0030726EA0C06AF400A
:10075000374307604E68012E05D0022E03D0112EBC
:1007600001D0122E0ED18668CF6826EA0C06AF4063
:10077000374387604668A6430C79C4F3001494405D
:1007800034434460C6688C6826EA0C06AC403443A7
:10079000C4604C68E40065D5364C256845F4804556
:1007A0002560246822F0030504F480440094324C50
:1007B0002E19D6F8084895072F0F09FA07F5AC430C
:1007C0002E4DA84201D1002524E02D4DA84201D193
:1007D00001251FE02B4DA84201D102251AE02A4D28
:1007E000A84201D1032515E0284DA84202D10425D5
:1007F00010E037E0264DA84201D105250AE0254D3D
:10080000A84201D1062505E0234DA84201D10725C4
:1008100000E00825BD402543C6F80858DBF8004035
:100820005D464E689C43F60300D51C432C60DEF801
:10083000004075464E689C43B60300D51C432C60AF
:100840000B4D08352C684E689C43F60200D51C43BE
:100850002C60074D0C352C684E689C43B60200D5C1
:100860001C432C60521C102AFFF44EAFBDE8F88FD9
:10087000003C01404438024000300140000002408A
:100880000004024000080240000C02400010024038
:100890000014024000180240001C02400AB18161AD
:1008A00070470904FBE7000001480068704700003A
:1008B000DC01002002480168491C0160704700000B
:1008C000DC0100200B4810B5016841F400710160A3
:1008D000016841F480610160016841F48071016048
:1008E000032000F075F8002000F006F800F018F87A
:1008F000002010BD003C024010B5044607484FF4EC
:100900007A710068B0FBF1F000F082FF002221460E
:10091000501E00F03DF8002010BD0000C000002077
:1009200010B5032000F054F8002211466FF00B00C0
:1009300000F02EF8002211466FF00A0000F028F8AF
:10094000002211466FF0090000F022F80022114643
:10095000501F00F01DF800221146101F00F018F87B
:1009600000221146901E00F013F80022BDE810404E
:100970001146501E00F00CB800F01F0201219140FA
:100980004009800000F1E020C0F80011704700002D
:10099000F0B40E4B1B680C46C3F30223C3F10705EA
:1009A000042D00D90425191D072901D2002300E0D8
:1009B000DB1E012606FA05F1491E214099409E40A2
:1009C000761E16403143F0BC01F032B90CED00E068
:1009D000064900F0070208684FF6FF03184040EA96
:1009E0000220034A10430860704700000CED00E04D
:1009F0000000FA050068416200207047F0B5006809
:100A00000023446A31B1856A4FF4827604EB1544C1
:100A10004D1E0AE044EA024181620FE006EB8307C3
:100A2000C7595B1C04EB1744DBB2AB42F6D34FF45F
:100A3000807303EB810144EA024242500020F0BD82
:100A4000D0F8EC0301F00ABDC1EBC10200EB820259
:100A5000D0F8EC03526C01F077BCC1EBC10200EBA3
:100A60008202D0F8EC03D2F8042201F0C2BCD0F824
:100A7000EC0301F0F5BC10B504460A460B0601F084
:100A80007F00C0EBC00104EB810101D5383101E0EA
:100A900001F5FC710870D009487094F8B80301287A
:100AA00009D0012084F8B803206802F00BF8002078
:100AB00084F8B80310BD022010BD70B50A46044684
:100AC000090602F07F0005D5C0EBC00104EB8101EF
:100AD000383105E0C2EBC20104EB810101F5FC7184
:100AE00000258D700870D009487094F8B80301286B
:100AF00009D0012084F8B803206802F09AF984F83C
:100B0000B853002070BD022070BD01F00F01C1EB91
:100B1000C10100EB8100B0F8100280B2704770B5DF
:100B200004460D460E0601F07F00C0EBC00104EB49
:100B3000810101D5383101E001F5FC71ED09087042
:100B40004D708A60CB7000D0C8800025022B00D188
:100B50000D7194F8B803012809D0012084F8B80376
:100B6000206801F007FF284684F8B85370BD0220C2
:100B700070BD000070B504460E4601F07F00C0EB6A
:100B8000C00104EB81010025C1F80422C1E98335CD
:100B900081F8F95181F8F801206901F5FC7101280B
:100BA00000D10A6194F8B80301280DD0012084F81F
:100BB000B8037006227C206808D002F09BF900BFC1
:100BC00084F8B853002070BD022070BD02F072F8A6
:100BD000F6E770B50D460446090605F07F0005D519
:100BE000C0EBC00104EB8101383105E0C5EBC50164
:100BF00004EB810101F5FC7101228A700870E8099B
:100C0000487094F8B803012807D084F8B823206806
:100C100002F041F9680602D007E0022070BD217C95
:100C200004F56F72206802F0E5F8002084F8B8033C
:100C300070BD70B504460E4601F07F00C0EBC001E8
:100C400004EB810100254A64C1E91335012381F8D1
:100C5000393001F8380F2069012800D10A6194F871
:100C6000B80301280BD084F8B8337006227C2068C2
:100C700007D002F03FF984F8B853002070BD02207D
:100C800070BD02F017F8F6E72DE9F84F044600684A
:100C90000026054602F082FA002875D1206802F08D
:100CA000A6FA002870D0206802F0A1FA800704D5C7
:100CB0002068416901F002014161206802F097FA61
:100CC000010304F56F704FF0010B4FF0000A009024
:100CD0004DD5206802F06DFA074646E0F80742D08D
:100CE000F1B2206802F07BFA8046C00728D005EBFD
:100CF0004611C1F808BB2069012811D1C6EBC60016
:100D000004EB8000D1F8101BD0F80022C1F31201CF
:100D1000511AC0F81012D0F804121144C0F804128D
:100D2000F1B22046FFF799FE2069012808D13EB9AB
:100D3000D4F80C0220B920680121009A02F05AF878
:100D40005FEA087007D5204600F06EFA05EB461101
:100D50000820C1F8080B5FEAC86004D505EB46110E
:100D60001020C1F8080B7F08761C002FB6D1206830
:100D700002F03DFA40034FF040095ED5206802F0D2
:100D800011FA0746002656E07BE1F80751D0F1B290
:100D9000206802F015FA8046C00724D0D5F8341830
:100DA0000BFA06F08143C5F8341805EB4610C0F87D
:100DB00008B92069012807D1C6EBC60004EB800002
:100DC000D0E9102111444164F1B22046FFF73CFE06
:100DD0002069012807D136B9E06C20B920680121CB
:100DE000009A02F007F85FEA087004D505EB461197
:100DF0000820C1F808095FEAC86004D505EB461170
:100E00001020C1F808095FEA486003D505EB4611D8
:100E1000C1F808995FEA887004D505EB46110220F5
:100E2000C1F808095FEA086003D53146204600F0A2
:100E300015FF7F08761C002FA7D1206802F0D7F994
:100E400000280DDAD5F8040820F00100C5F80408E0
:100E5000204600F0CFF92068416901F0004141616E
:100E6000206802F0C4F900050BD5D5F80808C007C2
:100E700002D0204600F0F4F92068416901F40061D5
:100E80004161206802F0B3F9C0044CD5D5F80408DC
:100E900020F00100C5F804080021206802F04EF996
:100EA0000020FF2107E000BF05EB4012C2F808193F
:100EB000C2F8081B401C62688242F5D84FF0FF3030
:100EC000C5F81808D5F81C0840F00110C5F81C0832
:100ED000206B60B1D5F8840840F00B00C5F8840899
:100EE000D5F8440840F00B00C5F844080BE0D5F8ED
:100EF000140840F00B00C5F81408D5F8100840F0AD
:100F00000B00C5F81008D5F8000820F4FE60C5F8FD
:100F10000008217C2068009A01F06CFF206841697C
:100F200001F480514161206802F061F980041CD510
:100F3000206801F05FFD2068C16821F47051C16034
:100F4000206802F00DF958B30320C4F81490E06053
:100F50002068C16841F4C051C160204600F03AF9F0
:100F60002068416901F400514161206802F03FF9B5
:100F7000C00640D52068816921F010018161D5F853
:100F8000208008F00F00C0EBC00004EB8007C8F31E
:100F9000434007F5FC7702280CD006281CD025E03A
:100FA0004FF40070C4F80CA060612068C16841F47F
:100FB0001051D1E747F6F07118EA010F16D0C8F3C7
:100FC0000A1290462846F96802F015F9F86840447C
:100FD000F860B869404408E008222846009902F009
:100FE0000AF9B969C8F30A100844B8612068816930
:100FF00041F010018161206802F0F9F8000707D57F
:10100000204600F0FBF82068416901F008014161C9
:10101000206802F0ECF8C00208D5F1B2204600F0DA
:1010200032F82068416901F480114161206802F0C2
:10103000DEF8800208D5F1B2204600F028F82068DA
:10104000416901F400114161206802F0D0F84000CC
:1010500007D52046FFF7F4FC2068416901F0804184
:101060004161206802F0C3F840070AD5206845684E
:10107000680702D52046FFF7FAFC2068416829433B
:101080004160BDE8F88FD0F8EC0301F03BBAD0F82E
:10109000EC0301F039BA0000F0B58BB004004FF05A
:1010A000000556D0032084F8B903204600F054F818
:1010B000206801F0F9FD04F1100128220F4668466E
:1010C000FFF77EF894E80F0001F0AEFC00212068E5
:1010D00002F0A1F801260020C5EBC50104EB810157
:1010E00081F8396001F8385FCD80C8708860C860C9
:1010F0006D1C48610F2DEFD300214FF4827300BFA8
:10110000C1EBC10204EB820203EB810582F8F90115
:1011100082F8F811D18782F8FB01C2F80002C2F808
:101120000402C2F80C0222685051491C0F29E7D36F
:10113000282239466846FFF743F894E80F0001F08B
:1011400011FD84F8B963206801F0FFFC00200BB0AA
:10115000F0BD0120FBE70000F0B5006887B0B0F1FA
:10116000A04F31D14FF400600224CDE9000402AA5F
:10117000002003250A2682E86100144F694638469C
:10118000FFF7B4FAE002CDE9000402AA012082E8E8
:10119000610069463846FFF7A9FA0D48016841F039
:1011A000800101600A481030016841F4804101600B
:1011B0000068002200F48040059011464320FFF7AC
:1011C000E7FB4320FFF7D8FB07B0F0BD000002406B
:1011D0003438024010B50446C068012100B900212E
:1011E000D4F8EC0301F0E6F9D4F8EC03BDE81040C4
:1011F00001F0AFB9D0F8EC0301F0CAB9D0F8EC03B4
:1012000001F0CCB910B5044690F8B803012809D014
:10121000012084F8B803206802F013F8002084F855
:10122000B80310BD022010BDD0F8EC2300F56F719B
:10123000104601F0D2B910B5044690F8B803012861
:101240000CD0012084F8B803206801F072FC2068FB
:1012500001F05EFF002084F8B80310BD022010BD2D
:1012600010B50446D0F8EC0301F004FA2068D0F879
:10127000001E41F00101C0F8001E206A002804D0C1
:101280000248016841F00601016010BD10ED00E068
:101290002DE9F047DFF8649105460F46D9F80000C4
:1012A00000F00F01F8B28046B94208D2014689F831
:1012B0000010D9F8000000F00F00B84274D128786F
:1012C0004F4C800705D52068A96820F0F00008433E
:1012D00020602878C00759D0494968680839012832
:1012E0001AD002281BD0032819D0096889070029C1
:1012F0005ADA216821F0030101432160FFF7D4FA93
:101300006968064641F28830012911D002291DD0B2
:101310000329824627D035E009688903E7E7096891
:101320008901E4E7FFF7C0FA811B514501D926E0A6
:1013300082462068C0F381000128F3D126E000BF77
:10134000FFF7B2FA811B514501D918E082462068A7
:10135000C0F381000228F3D118E000BFFFF7A4FA20
:10136000811B51450BD82068C0F381000328F5D1BB
:101370000CE000BFFFF798FA811B514502D903200A
:10138000BDE8F087206810F00C0FF3D1D9F80010F9
:10139000484601F00F01B94208D980F80080006882
:1013A00000F00F00B84201D00120E9E7287840079B
:1013B00005D52068E96820F4E050084320602878CB
:1013C000000706D52068296920F4604040EAC10082
:1013D000206000F021F82168F02292FAA2F201F0D8
:1013E000F001B2FA82F2D140064A515CC840064987
:1013F00008600020FFF780FA0020C1E7003C0240AF
:101400000838024068650008C000002001480068F4
:1014100070470000C000002030B51948006810F087
:101420000C01184812D0441004290ED008290DD1FF
:101430001349091F0A6802F03F030A68550247F67C
:10144000C07204D5B4FBF3F003E0204630BDB0FB1E
:10145000F3F00B680968134092FAA2F2B2FA82F232
:10146000D34058434FF4403292FAA2F201F4403193
:10147000B2FA82F2D140491C4900B0FBF1F030BD14
:10148000083802400024F4002DE9F84F0546DFF843
:10149000FC920078A9F1040BC007ABF1040449D019
:1014A000D9F800104846C1F38101012908D000682D
:1014B000C0F3810002280AD1DBF80000400206D503
:1014C0002068800336D5686800286ED032E06868EE
:1014D000B0F5803F10D0B0F5A02F206810D020F4D8
:1014E00080302060206820F4802020606868A0B1EF
:1014F000FFF7DAF906460CE0206840F48030F4E7A4
:1015000040F480202060F7E7FFF7CEF9801B6428C5
:1015100071D820688003F7D50CE0FFF7C5F90646BF
:1015200005E000BFFFF7C0F9801B6428F0D82068F1
:101530008003F7D42878964F80074FF0010A4FF0C8
:10154000000841D5D9F80010484611F00C0F08D01A
:101550000068C0F3810002280AD1DBF800004002D5
:1015600006D42068800713D5E86801281DD10FE054
:10157000E868D8B1C7F800A0FFF796F9064604E07E
:10158000FFF792F9801B0228C2D820688007F7D5A0
:101590002068F82292FAA2F22969B2FA82F220F0C7
:1015A000F8009140084320600EE0ECE0C7F80080AE
:1015B000FFF77AF9064604E0FFF776F9801B022868
:1015C00019D820688007F7D42878000724D57148F7
:1015D000696989B1C0F800A0FFF766F9064604E022
:1015E000FFF762F9801B022805D868486C30006854
:1015F0008007F5D510E07AE0C0F80080FFF754F9D5
:10160000064604E0FFF750F9801B02286FD85F48B8
:101610006C3000688007F5D42878400753D55B48C4
:101620003830016841F080510160006800F080505E
:1016300000905948016841F480710160FFF734F966
:10164000064604E0FFF730F9801B02284FD85248C5
:101650000068C005F6D54D4EA868683601280FD041
:101660000528306810D020F001003060306820F08C
:1016700004003060A868B8B1FFF716F900900FE0D9
:10168000306840F00100F4E740F004003060F7E714
:10169000FFF70AF90099411A41F2883081426AD86D
:1016A00030688007F4D50EE0FFF7FEF8009007E001
:1016B000FFF7FAF80099411A41F2883081425AD86E
:1016C00030688007F4D4A869E8B3D9F80010C1F3F2
:1016D0008101022957D00228C7F8608003D0FFF7A4
:1016E000E3F805464AE0FFF7DFF8064605E042E08A
:1016F000FFF7DAF8801B02283DD820688001F7D474
:10170000D5E90701084347F6C07292FAA2F2696A66
:10171000B2FA82F29140AA6A4FF0FF3303EB520211
:101720004FF4403393FAA3F3B3FA83F39A4011438F
:1017300008434FF0706292FAA2F2E96AB2FA82F2BA
:101740009140084300E01CE0CBF80000C7F860A01F
:10175000FFF7AAF8054604E0FFF7A6F8401B0228A9
:1017600009D820688001F7D50BE000BFFFF79CF88F
:10177000401B022802D90320BDE8F88F20688001B1
:10178000F4D40020F8E70120F6E700000838024012
:1017900000004742800E47420070004070B5154679
:1017A0000E46040003D094F8490010B107E0012070
:1017B00070BD002084F84800204600F01AF804F1BB
:1017C00008012068FEF7F8FE3146A2682068FEF79F
:1017D0001DFFD4E901022946236BFEF7CDFEA16867
:1017E000206850F8212042F0010240F8212000201A
:1017F00070BDFEF739BF4FF0E0210428086903D01F
:1018000020F004000861704740F00400FAE77047D8
:1018100010B5401EB0F1807F01D3012010BD4FF004
:10182000E02460610F21601700F002FA0020A0613F
:1018300007202061002010BD10B5FFF7E8FF10BDA4
:10184000FEE700002DE9F74FDFF8D0A04FF0360B90
:10185000AAF55A79DAF8080000252A468188C48852
:10186000C81D04FB01F30BEB4306A9F80260360C1C
:10187000A9F80460A9F80AB0A9F81210A9F8145040
:1018800020F00703A9F816405B1AA9F8185003F0D6
:10189000FF084FF0010E37E0029BC60806FB053338
:1018A0000326B6EBD00F06D11A785E78120442EA0E
:1018B00006229E7832430226B6EBD00F01D11A8859
:1018C00052BABEEBD00F00D11A78002319E0661B84
:1018D000761E06FB01370BEB4706CF1A07EB080C09
:1018E000ACF1010C0EFA0CF7174202D0BAF80070F6
:1018F00001E0BAF8047009F806703F0A4E445B1C18
:1019000077708B42E3D36D1CA542C5D3DDE900019E
:1019100003B0034ABDE8F04FFEF728BD680E002073
:10192000000B0020034B1B685B69002B00D018479D
:101930007047000090000020002906D0034A00BF35
:1019400030F8023B1380891EFAD170470000016015
:1019500008484FF4FC61016100218180C180018150
:10196000418181810122027041708170C170C18109
:1019700070470000AC00002010B5FFF7E9FFBDE89C
:1019800010400020FEF76CBC70B506461948FEF703
:101990008FFD1F20FEF792FDFEF756FD84B2FEF785
:1019A00059FD144DEA88801A001F121D81B293B2AE
:1019B00022460020FEF72AFD4FF6FF70FEF77EFD5F
:1019C0001F20FEF76FFDFEF745FDE9880123401A51
:1019D00081B232460020FEF76DFC0020FEF762FD6A
:1019E0004FF4FC60FEF76AFDBDE870400248FEF768
:1019F0005FBD00009C000020A400002070B50646DA
:101A00001548FEF755FD1F20FEF758FDFEF71CFD9B
:101A1000114C82B24FF6FF75E088002105EA4003C1
:101A20000846FEF7F3FC2846FEF748FD1F20FEF7A8
:101A300039FDE0880123410832460020FEF73AFCD8
:101A40000020FEF72FFD4FF4FC60FEF737FDBDE8E8
:101A500070400248FEF72CBD9C000020A40000202E
:101A60002DE9F0411E4E002430463189C0881D4DBD
:101A7000082915D2814213D301EB411005EB8000F8
:101A8000B0F8800080B2FEF719FD308900EB4011FC
:101A900005EB8101BDE8F041001D80B2FEF758BCA6
:101AA000814201D26D3189B208398EB24FF06D0892
:101AB000A119B1FBF8F208FB121000EB401005EB86
:101AC0008007B7F8800080B2FEF7F8FC3946201D89
:101AD000FEF73EFC641CE4B2092CE9D3BDE8F081BA
:101AE000AC000020740E002030B4054C2468E4697A
:101AF000002C02D0A44630BC604730BC70470000C8
:101B00009000002000B5174887B04FF020410160D9
:101B100015494160002181601022C160C0E90412B2
:101B20008161C16113020162C0E90913C1620163ED
:101B3000416381634164042000900F20019002AB57
:101B4000282083E807001120CDE90501002269461D
:101B50000448FFF723FE002801D0FEF70CFD07B074
:101B600000BD00000C060020040100A070B51F4855
:101B700086B00024016841F080010160016801F035
:101B800080010591016841F010010160016801F0D8
:101B900010010591016841F008010160016801F040
:101BA00008010591016841F040010160016801F000
:101BB00040010591016841F00101016000680C4E8F
:101BC00000F001004FF48045059000222946304680
:101BD000FEF764FE01200095CDE901046946304618
:101BE0000394FEF783FD06B070BD0000303802405C
:101BF0000018024010B500220849094800F06FFBA8
:101C00000849074800F063FD0749054800F0B0F9AE
:101C1000BDE81040024800F0A7BD000018000020F9
:101C20005C060020A001002000000020FEE77047B5
:101C30000907090E002806DA00F00F0000F1E02085
:101C400080F8141D704700F1E02080F80014704700
:101C50000148FFF719B80000EC0100202DE9F84F0A
:101C60000F46C1EBC70100EB810582460668D5E946
:101C70001301441A286C3835A04200D20446E01CF7
:101C80004FEA900806EB471916E0441AA868A042EC
:101C900000D20446E01C4FEA90089AF81000009029
:101CA000A3B2FAB23046E96801F0DCFAE8682044F1
:101CB000E860A8692044A861D9F8180980B24045B5
:101CC00005D9D5E90501814201D20028DDD134B919
:101CD0000120D6F83418B8408143C6F834180020E3
:101CE000BDE8F88F7047704710B5FEF7E3FDBDE81B
:101CF0001040FFF7A1BD000030B5254893B0002586
:101D0000016841F080510160006800F0805011903E
:101D10002048016841F4804101600068022400F419
:101D20008040119001200090000401908001CDE9D5
:101D3000064004200890A820CDE9090407200B9054
:101D40006846FFF7A1FB00B1FEE70CA90F2081E870
:101D500031004FF4A0500F904FF4805010900521A7
:101D60000CA8FFF795FA00B1FEE7FFF74FFB4FF421
:101D70007A71B0FBF1F0FFF74BFD0420FFF73BFD5C
:101D800000221146501EFEF703FE13B030BD0000C6
:101D900040380240007000401048016841F4700172
:101DA00001600F48016841F0010101600C4A002107
:101DB0000832116002680B4B1A400260031D0A4A88
:101DC0001A60026822F48022026005480C3001602B
:101DD00002495806803908607047000088ED00E02D
:101DE00000380240FFFFF6FE10300024D0F8180241
:101DF00020B10021C0F81412084670470220704735
:101E000070B50546D0F8184200F035FBC4F80C0256
:101E1000D5F8180248B1D5F81C12D4F80402CA68E3
:101E200004F503719047002070BD022070BD70B5AD
:101E300004460025812100F077FA0121204600F0B8
:101E400073FA8221204600F06FFAD4F8180250B1DC
:101E5000D4F81C0204F5067440688047206801F03D
:101E600023FB00202060284670BD10B5D0E98641D4
:101E700059B194F80002FF2807D08B6894F801222A
:101E800021469847FF2084F80002002010BD000082
:101E90000A21018000487047C800002043210180CA
:101EA0000048704718010020432101800048704716
:101EB000D400002043210180004870475C010020CD
:101EC0002DE9F0410446007C00254FF4007670B304
:101ED000402302228121204600F018FB40230222E9
:101EE0000121204600F012FB082303228221204614
:101EF00000F00CFB4FF4077001F07AFDC4F81802F3
:101F0000F0B10746D4F81C02006880470020C7F8EB
:101F10001402C7F81802207CD7F8042290B140239D
:101F20000121204600F005FB2846BDE8F081FFE7CF
:101F3000334602228121204600F0E8FA3346CEE7FC
:101F40000125F1E73346EBE710B5D0F8181269B177
:101F5000027C002AD1F8042205D04023012100F0A0
:101F6000E8FA002010BD4FF40073F7E7022010BD1F
:101F700002460220002902D00020C2F81C1270473D
:101F8000D0F81802C0F8041200207047D0F81802E8
:101F9000C0F81022C0F808120020704770B506463D
:101FA000D0F8185208780C4610F0600121D0202992
:101FB00027D1E288AAB10006607807D5D6F81C12AE
:101FC0008B6829469847E288294617E085F8000281
:101FD000A07985F80102E2882946304600F050F8E1
:101FE0000FE0D6F81C12607800228B6821469847D3
:101FF00007E060780A2804D103490122304600F046
:1020000059F8002070BD0000C400002010B5D0F8C1
:10201000181289B1D1F814220AB1012010BD012291
:10202000C1F81422B1F8102293B2D1F8082281210C
:1020300000F029FB002010BD022010BD10B5D0F823
:10204000142252689047002010BD134610B50A466E
:10205000002100F06EFA002010BD134610B50A46AC
:10206000002100F010FB002010BD10B504468021B7
:1020700000F0E0FA2046BDE81040002100F0DABA96
:1020800010B50323C0F80821C0F8F431C0F80C21C2
:1020900013460A46002100F04CFA002010BD10B58E
:1020A00005210023C0F8F4111A46194600F041FA40
:1020B000002010BD10B502238261C0F8F431C26166
:1020C00013460A46002100F0DEFA002010BD10B5CC
:1020D00004210023C0F8F4111A46194600F0D3FA7F
:1020E000002010BD10B50A46024903A000F0D4F844
:1020F000004810BDDC05002043444320436F6E665A
:1021000069670000122008800048704738000020EE
:1021100010B50A46024903A000F0BEF8004810BD01
:10212000DC05002043444320496E74657266616398
:10213000650000000420088000487047340000203B
:1021400010B50A46024903A000F0A6F8004810BDE9
:10215000DC05002053544D6963726F656C656374D0
:10216000726F6E696373000010B50A46024903A0DE
:1021700000F092F8004810BDDC05002053544D33A8
:1021800032205669727475616C20436F6D506F72A6
:102190007400000010B50A46024903A000F07CF864
:1021A000004810BDDC050020303030303030303099
:1021B0003030314100000000F8B5044648880D4633
:1021C000010A08294BD2DFE801F04A0409174A4AFC
:1021D0004048D4F81012207C0A6832E0207C0226A5
:1021E0000028D4F8140205D0C16A68468847014621
:1021F000467041E0816AF8E7C0B206282FD2DFE8D6
:1022000000F003080D12171CD4F81012207C4A6845
:1022100017E0D4F81012207C8A6812E0D4F810126B
:10222000207CCA680DE0D4F81012207C0A6908E00E
:10223000D4F81012207C4A6903E0D4F81012207CF4
:102240008A6969469047014616E0207C38B9D4F87F
:102250001402416B68468847F5E7207C20B1294687
:102260002046FFF702FFF8BDD4F81402016B684660
:102270008847014607204870BDF800000028F2D0CA
:10228000EA88002AEFD0824200D90246ADF8002049
:102290002046FFF70FFFF8BD70B5002300281DD0C2
:1022A0000446002502E06D1CEDB2641C2678002E69
:1022B000F9D1022404EB45041480CC545B1C0322A6
:1022C000CA5400245B1C06E0CA545B1CDAB28C546E
:1022D000521CD3B2401C0278002AF5D170BD10B553
:1022E00080B1D0F8143213B10023C0F8143209B110
:1022F000C0F81012012180F8FC11027000F0C0F843
:10230000002010BD022010BD10B50024D0F820021E
:10231000FEF7D3FB30B1012801D0022801D00224FE
:1023200000E00124204610BD10B50024D0F82002A2
:10233000FEF7A1FB30B1012801D0022801D0022410
:1023400000E00124204610BD2DE9F0411746044667
:1023500041B1D4F8140242698AB394F8FC0103280D
:1023600042D043E0D4F8F411002504F1140002290E
:1023700033D1D0E902639E4207D9F31A83609AB23F
:1023800039462046FFF769FE12E04068B0FBF3F1E2
:1023900003FB1101A1B9984212D3D4F8F811884275
:1023A0000ED2002211462046FFF757FEC4F8F8511E
:1023B00000231A461946204600F0BBF80DE012E053
:1023C000D4F81402C16829B194F8FC01032801D1A2
:1023D000204688472046FFF762FE94F80002012855
:1023E00004D184F8005201E0204690470020BDE867
:1023F000F08170B51546044641B1D4F814028269E3
:102400003AB394F8FC01032824D025E0D4F8F41161
:1024100004F5827003291FD1D0E902218A420BD929
:10242000531A83600846834200D303469AB2294672
:102430002046FFF70AFE0FE0D4F81402016929B123
:1024400094F8FC01032801D1204688472046FFF775
:102450003EFE01E020469047002070BD00207047FE
:1024600010B5012180F8FC11D0F8142201795268CE
:102470009047002010BDD0F82002FEF746BB0000B8
:1024800010B5017849BB16490222C1F8EC03C0F827
:1024900020124FF0A0400860042048600020C1E9ED
:1024A0000320C1E90502C861086201224862C1E94E
:1024B0000B200846FEF7F0FD08B1FEF75CF880211E
:1024C0000748FEF797FA402200210548FEF796FAE2
:1024D000802201210248FEF791FA002010BD000081
:1024E000EC0100200A0601F07F01D0F82002C1EBC8
:1024F000C10100EB810002D590F83A00704790F8D6
:10250000FA017047002070470020704770B51D46E3
:1025100013460024D0F820022A46FEF700FB30B113
:10252000012801D0022801D0022400E00124204625
:1025300070BD10B50024D0F82002FEF71BFB30B1AF
:10254000012801D0022801D0022400E00124204605
:1025500010BD70B50022044640231146FFF7D6FF98
:1025600040252B46002280212046C4F81051FFF759
:10257000CDFF0120256284F8FC01D4F8180228B1AF
:10258000D4F814022179426820469047002070BD9B
:1025900090F8FD1180F8FC110020704710B590F8FC
:1025A000FC11032904D1D0F81412C96901B188477C
:1025B000002010BD01740020704710B50024D0F831
:1025C0002002FEF71FFE30B1012801D0022801D001
:1025D000022400E00124204610BD70B5044600F539
:1025E0000270054600F05FF80120C4F8F401B4F869
:1025F0000E02C4F8F80194F8080210F01F010AD086
:1026000001290DD0022910D000F08001204600F0F1
:1026100011F8002070BD2946204600F0AAF8F8E71E
:102620002946204600F08CF9F3E72946204600F0C1
:1026300019F9EEE710B50024D0F82002FEF7C9FA28
:1026400030B1012801D0022801D0022400E0012489
:10265000204610BD10B50024D0F82002FEF7EBFD97
:1026600030B1012801D0022801D0022400E0012469
:10267000204610BD90F8FC1180F8FD11042180F86F
:10268000FC110020704710B50024D0F82002FEF79E
:10269000D0FA30B1012801D0022801D0022400E094
:1026A0000124204610BD0A7802704A7842708A7868
:1026B000CB7802EB032242800A794B7902EB0322AA
:1026C00082808A79C97902EB0121C1807047024674
:1026D000002011B1C2F8141270470220704710B5E3
:1026E000D0F8142202241AB11268904700B90024CD
:1026F000204610BD70B50E461A4D897804462970E3
:10270000012928D894F8FC01022802D0032822D1FC
:1027100005E099B10320616084F8FC0109E091B102
:10272000606888420AD0C1B22046FFF787FC29784A
:1027300061602046FFF7D3FF02280CD02046BDE899
:102740007040FFF7C4BC022084F8FC0120466160A1
:10275000FFF774FCF2E731462046BDE87040FFF712
:1027600084BC0000D801002010B5FFF773FF0020E3
:1027700010BD2DE9F04100264B78012532460A2B89
:1027800043D2DFE803F03C584251420805422A2771
:10279000FFF712FD63E004468888C8B9C888B8B955
:1027A000887800F07F0794F8FC01032810D084F8A3
:1027B000FE7139462046FFF700FF2046FFF787FCF1
:1027C0001FB1022084F8FC0149E084F8FC5146E086
:1027D00020461AE0FFF78EFF41E0CB88012B14D191
:1027E00090F8FC31022B02D0032B0ED104E0826062
:1027F000012200F1080114E00122011D11E090F80E
:10280000FC21022A04D0032A02D0FFF72EFC26E086
:10281000C560D0F8041209B10321C160022200F1A1
:102820000C01FFF747FC1AE004464888012816D13E
:10283000C4F804520BE0044690F8FC01022801D0D1
:102840000328C5D14888012809D1C4F80422D4F846
:1028500014028268204690472046FFF738FC304635
:10286000BDE8F08170B50D46044628780026097948
:10287000C0F34110012806D06878A0B301281FD00A
:1028800003283FD107E0D4F8140229468268204685
:102890009047002070BD94F8FC01022817D003284F
:1028A0002CD1688828B921B1802902D02046FFF7B1
:1028B000C1FED4F81402294682682046904713E0EE
:1028C00094F8FC01022802D0032817D103E0C9B113
:1028D00080291BD116E06888A0B9480604D020469C
:1028E000FFF712FDE5E703E02046FFF7F0FB09E004
:1028F00094F8FC01022807D003280BD02946204673
:10290000FFF7B3FB304670BD4806FBD02046FFF70B
:1029100091FEF7E7080601F07F0004EB001501D5F2
:10292000143501E005F582752046FFF7DBFD00B1A7
:1029300001202860022229462046FFF7BBFBE1E781
:1029400070B5054690F8FC010C4603280DD120799E
:1029500001280AD8D5F81402826828469047E088F2
:1029600030B92846FFF7B3FB02E02846FFF77DFBAE
:10297000002070BD30B54C781D4B01220D78AA4067
:10298000012CD0F81C4818D044EA0242C0F81C2898
:102990000A7800EB4210D0F8002B12040BD4D0F8C8
:1029A000002B0C89C4F30A042243C97843EA81410D
:1029B0000A43C0F8002B002030BD92B21443C0F887
:1029C0001C480C7800EB4410D0F800291204F2D413
:1029D000D0F800290D89C5F30A052A43C97889046E
:1029E00041EA84510A431A43C0F80029E3E7000092
:1029F00000800010D0F800196FF30A01C0F8001928
:102A0000D0F80818C1F34101022905D1D0F8001906
:102A100041F00301C0F80019D0F8041841F48071A6
:102A2000C0F804180020704770B50446049D06994C
:102A30000D9801290CD0E06840F04000E06020468D
:102A400000F024F84FF48030A063012D16D019E077
:102A5000A16B21F48031A163E1680B4A1140E16070
:102A6000E16821F44011E160012803D1E06840F4FD
:102A70008010E060204600F009F8E6E7A06840F02A
:102A80002000A060002070BDBFFFBDFF01220C49E7
:102A900002E0521C8A420BD80369002BF9DA026962
:102AA00042F001020261012204E0521C8A4201D973
:102AB000032070470369DB07F7D10020704700004F
:102AC000400D030030B54D7801220C7802FA04F372
:102AD000012DD0F83C4816D024EA0343C0F83C3816
:102AE000D0F81C380C78A24023EA0242C0F81C2817
:102AF000097800EB4110D0F8001B21F40041C0F828
:102B0000001B002030BD9BB29C43C0F83C48D0F86D
:102B10001C380C78A24092B29343C0F81C38097854
:102B200000EB4110D0F8001921F40041C0F8001961
:102B3000E7E710B5D0F8041821F00201C0F8041836
:102B40000320FDF785FD002010BD10B5D0F8041856
:102B500041F00201C0F804180320FDF779FD0020C0
:102B600010BD00002DE9F0470E460446DDE90A0AD3
:102B70000025DDF83C80089FA16B41F40021A16392
:102B8000B8F1000F03D1A16B41F40011A1634FF024
:102B90000009C4F8009ED4F80018C4F800180128F1
:102BA00004D0D4F8000840F0030004E0D4F8000892
:102BB0000BB140F00100C4F800081021204600F0DD
:102BC000BDFA204600F0AAFA4846C4F81098C4F8A6
:102BD00014984FF0FF31C4F81818C4F81C984FF03F
:102BE000904CFF2310E000BF04EB4511D1F8002901
:102BF000002A02DAC1F800C901E0C1F80009C1F8F1
:102C00001009C1F808396D1CAE42EDD800210FE063
:102C100004EB4112D2F8005B002D02DAC2F800CBBF
:102C200001E0C2F8000BC2F8100BC2F8083B491CC7
:102C30008E42EDD8D4F8101821F48071C4F8101821
:102C4000012F0AD11449C4F83018D4F83018134AA7
:102C50001143C4F83018D4F83018A0616FF08040E8
:102C600060611FB9A06940F01000A061A0690C4923
:102C70000843A061BAF1000F03D0A06940F008003A
:102C8000A061B8F1010F03D1A06906490843A06112
:102C90000020BDE8F0870000000180000300010073
:102CA00000383C8004000040816821F0010181600F
:102CB0000020704730B54D784D4C0B7800EB431336
:102CC000012D28D0D3F8105B6FF31205C3F8105B09
:102CD0000B7800EB4313D3F8105B2540C3F8105B6F
:102CE0004B690BB18B684B610B7800EB4313D3F846
:102CF000104B44F40024C3F8104B0B7800EB431343
:102D0000D3F8104B8D68C5F312052C43C3F8104B54
:102D1000012A5CD061E04D69002DD3F810593BD0F9
:102D20006FF31205C3F810590B7800EB4313D3F877
:102D300010592540C3F810594C698B689C4200D942
:102D40004B610B7800EB4313D3F8104944F4002493
:102D5000C3F810490B7800EB4313D3F810494D69C1
:102D6000C5F3120554EA0504C3F81049012A27D017
:102D70004A693AB1D0F834280C780123A3401A43A9
:102D8000C0F83428097800EB4110D0F8001941F060
:102D90000441C0F8001929E02540C3F810590B7808
:102DA00000EB4313D3F8104944F40024C3F810494E
:102DB0000B7800EB4313D3F810496FF31204D3E7F9
:102DC0000B7800EB43130A69C3F81429DAE70B7890
:102DD00000EB4313CA68C3F8142B097800EB4110C9
:102DE000D0F8001B41F00441C0F8001B002030BDAA
:102DF000FFFF07E00023C0F8103BD0F8103B43F47E
:102E00000023C0F8103BD0F8103B43F01803C0F883
:102E1000103BD0F8103B43F0C043C0F8103B0129F1
:102E200005D1C0F8142B4FF08021C0F8001B002002
:102E300070474B780A7800EB4212012B0BD0D2F886
:102E4000003B23F40013C2F8003BCA78032A17D0D2
:102E5000022A15D01DE0D2F8003923F40013C2F87D
:102E60000039CA78032A01D0022A12D1097800EB6E
:102E70004110D0F8001941F08051C0F8001908E065
:102E8000097800EB4110D0F8001B41F08051C0F8E8
:102E9000001B002070474B780A7800EB4212012B90
:102EA00014D0D2F8003B002B05DBD2F8003B23F016
:102EB0008043C2F8003B097800EB4110D0F8001BBA
:102EC00041F40011C0F8001B00207047D2F800390F
:102ED000002B05DBD2F8003923F08043C2F800391B
:102EE000097800EB4110D0F8001941F40011C0F846
:102EF0000019E9E778B54E786FF06045834C0B78A0
:102F000000EB4313012E2FD0D3F8106B6FF3120692
:102F1000C3F8106B0B7800EB4313D3F8106B26400B
:102F2000C3F8106B4B69002B7DD08C6823445B1E6B
:102F3000B3FBF4F39BB20C7800EB4414D4F8106BA1
:102F400005EAC3452E43C4F8106B0C7800EB44141B
:102F5000D4F8105B8E685E43C6F312031D43C4F8B9
:102F6000105B012A73D0B2E04E6966B3D3F81069E2
:102F70006FF31206C3F810690B7800EB4313D3F814
:102F800010692640C3F810694C698B681C44641EA4
:102F9000B4FBF3F305EAC3440B7800EB4313D3F817
:102FA00010592C43C3F810490B7800EB4313D3F8A6
:102FB00010494D69C5F312052C43C3F81049CB786D
:102FC000012B16D027E0D3F810592540C3F810592B
:102FD0000B7800EB4313D3F8104944F40024C3F8F2
:102FE00010490B7800EB4313D3F810496FF3120428
:102FF0000FE00B7800EB4313D3F8104924F0C044E2
:10300000C3F810490B7800EB4313D3F8104944F090
:103010000054C3F81049012A12D0CB78012B17D0E5
:103020004B692BB300E037E0D0F834380D78012439
:10303000AC402343C0F83438CB78012B08D017E0DC
:103040000C7800EB44140B69C4F81439F4E738E049
:10305000D0F80838DB050B7800EB4313D3F80049B0
:1030600002D444F0005401E044F08054C3F8004915
:103070000B7800EB4313D3F8004944F00444C3F841
:103080000049CB78012B3ED100928A8A93B20A780C
:10309000C96800F0E7F836E00B7800EB4313D3F88B
:1030A000104B8D68C5F312052C43C3F8104B0B78F9
:1030B00000EB4313D3F8104B44F40024C3F8104B37
:1030C0004FE70B7800EB4313CA68C3F8142BCA7898
:1030D000012A0FD1D0F80828D2050A7800EB421255
:1030E000D2F8003B02D443F0005301E043F0805398
:1030F000C2F8003B097800EB4110D0F8001B41F00A
:103100000441C0F8001B002078BD0000FFFF07E06D
:10311000816841F001018160002070470021102288
:103120000261054A491C914201D903207047036995
:10313000DB06F7D400207047400D03000022202357
:1031400043EA811101610549521C8A4201D90320D9
:10315000704703699B06F7D400207047400D0300B9
:103160000021D0F8082812F0060F15D0D0F8082852
:10317000C2F34102012A0CD0D0F80828C2F3410260
:10318000032A06D0D0F80808C0F34100022802D074
:1031900002E0032100E0022108467047406900F088
:1031A00001007047D0F81818D0F81C08084080B209
:1031B0007047D0F81818D0F81C080840000C704769
:1031C000D0F81038D0F83428CA4002F0010243EA9F
:1031D000C21200EB4110D0F808091040704700EB14
:1031E0004111D1F8081BD0F8140808407047416914
:1031F00080690840704710B503460020D21C920831
:1032000003F5805303E01C6841F8044B401C9042D6
:10321000F9D3084610BD10B5C26822F0C042C260A2
:10322000012901D021B107E0C16841F0005102E05D
:10323000C16841F08041C1603220FDF709FA0020E9
:1032400010BDD0F8002822F4FE62C0F80028D0F8A3
:1032500000284FF4FE6303EA01110A43C0F8002876
:103260000020704730B50024039D6DB9DB1C9B081E
:1032700000EB023000F5805004E000BF51F8042B51
:103280000260641C9C42F9D3002030BDFEE70000C0
:103290000FB4054B10B503A9044A029800F017F8C3
:1032A00010BC5DF814FB0000A5330008E00100200D
:1032B00002E008C8121F08C1002AFAD170477047FF
:1032C000002001E001C1121F002AFBD170472DE947
:1032D000F84F9946924688460546002706E025287D
:1032E0000AD051464A4690476D1C7F1C287800281A
:1032F000F5D13846BDE8F88F002315F8011F1846B0
:103300002E2915D115F8011F04232A290DD06FF09D
:103310002F022978A1F13004092C09D800EB800094
:1033200002EB400008446D1CF3E758F8040B6D1CD9
:103330002A78002ADDD0632A07D0732A0FD01046DE
:1033400051464A4690477F1C2AE018F8042B8DF816
:10335000002000218DF801106E46012103E058F88D
:10336000046B4FF0FF315A074FF0000401D409E01D
:10337000641C84420BDA8C42FADB325D002AF7D1FE
:1033800005E0641C8C42FCDB305D0028F9D1274449
:1033900004E016F8010B51464A469047641EF8D2E5
:1033A0006D1CA3E72DE9F05F0646FDF747F83C4C9E
:1033B0000546A078002870D160784FF000090128F8
:1033C00009D1A08920816089E08084F8019084F887
:1033D0000390A4F80E90FDF737F8A988B4F804809C
:1033E000B0FBF1F12F48F7B241450DD90A2E0BD0B1
:1033F000218901EB411100EB810000F8087008F110
:103400000108A4F8048048E0E1882289914203D3AE
:1034100022782AB184F800904FF0200B824613E006
:10342000491C89B2E1806D29F6D1A4F80690F3E732
:10343000218908F1010801EB4113A1880AEB8303FC
:1034400003F801B0491CA180FCF7FEFFA988B0FB7E
:10345000F1F04045ECD82089216900EB40120AEBDD
:1034600082004D46C0F88010A4F80490FEF7F8FAE8
:103470002089401C80B220816D2803D12581012044
:10348000E08020700A2E08D0208900EB4011A0882F
:103490000AEB81010F54401CA0803046BDE8F09F2C
:1034A000AC000020740E002010B5002821D0114B74
:1034B0000022001F196803E0814203D80A464968C8
:1034C0000029F9D152B11368841A9C4204D10068D2
:1034D00018441060104602E0506000E0186039B1F6
:1034E00002680B1A934203D10B681A4402604968C0
:1034F000416010BDE401002030B5054600214FF4C5
:103500009634084600F0EAF92220E10408800348D6
:1035100000E00580641EFCD230BD000000000160A8
:1035200000B50021102000F010FA0021112000F059
:103530000CFA0021122000F008FA0021132000F0FC
:1035400004FA0021292000F000FA002107205DF88C
:1035500004EB00F0FAB900B50021102000F0F5F9F5
:103560000021112000F0F1F90021122000F0EDF906
:103570000021132000F0E9F941F2B071102000F0B1
:10358000E4F940F23711112000F0DFF940F239116F
:10359000122000F0DAF94FF4E851132000F0D5F9C9
:1035A0001321292000F0D1F940F2731107205DF8B2
:1035B00004EB00F0CAB9F0B5064650880D46918874
:1035C00040EA01415089938940EA0340091A4C08B6
:1035D000171841F23801032000F0B7F929463046A8
:1035E00000F07CF94FF0C04122200880610038468D
:1035F000FEF7A2F9BDE8F04041F22801032000F0F7
:10360000A4B9000070B51D460B46064600241146BD
:10361000184600F063F94FF0C041222008800748A7
:1036200004E000BF20F81460641CA4B2AC42F9D3DB
:103630006900BDE870400148FEF77EB980080020AF
:1036400030B502FB03F4039D00F048F94FF0C04190
:103650002220088061002846BDE83040FEF76CB9A2
:103660002DE9F041884606461D46174600244FF4D2
:103670008151032000F069F93946404600F02EF9E7
:103680004FF0C04122200880094803E020F8146070
:10369000641CA4B2AC42F9D369000548FEF74CF9AA
:1036A000BDE8F04141F22801032000F04EB90000CE
:1036B00080080020F02070474FF4A070704770B56C
:1036C0000121002000F041F94FF48071012000F049
:1036D0003CF94FF4E061022000F037F941F21801A3
:1036E000032000F032F90021042000F02EF940F20E
:1036F0000221082000F029F90021092000F025F915
:1037000000210A2000F021F900210C2000F01DF911
:1037100000210D2000F019F900210F2000F015F90B
:103720000021102000F011F90021112000F00DF906
:103730000021122000F009F90021132000F005F902
:1037400041F2B071102000F000F940F23711112061
:1037500000F0FBF840F23911122000F0F6F84FF4B7
:10376000E851132000F0F1F81321292000F0EDF8C2
:103770000021202000F0E9F80021212000F0E5F8E8
:103780000721302000F0E1F840F20231312000F052
:10379000DCF840F205142146322000F0D6F840F261
:1037A00006252946352000F0D0F840F608063146B7
:1037B000362000F0CAF82946372000F0C6F840F25B
:1037C0000451382000F0C1F80721392000F0BDF87D
:1037D00021463C2000F0B9F831463D2000F0B5F814
:1037E0003220FCF735FF0021502000F0AEF8EF2129
:1037F000512000F0AAF80021522000F0A6F840F273
:103800003F11532000F0A1F84FF42741602000F051
:103810009CF80121612000F098F800216A2000F056
:1038200094F80021802000F090F80021812000F021
:103830008CF80021822000F088F80021832000F01D
:1038400084F80021842000F080F80021852000F019
:103850007CF81021902000F078F80021922000F0F0
:1038600074F80321932000F070F84FF488719520CC
:1038700000F06BF80021972000F067F800219820F5
:1038800000F063F841F22801032000F05EF840F2F6
:103890007311072000F059F80021084600F01EF8C7
:1038A00022202907088070BD002000F00FB800001A
:1038B00000B500F013F84FF0C04122200880024804
:1038C0000188008800BD0000000001604FF0C04189
:1038D00008800148008870470000016010B5044668
:1038E000C1F1EF0081B2202000F02FF82146BDE8A1
:1038F0001040212000F029B870B50546C1F1F00054
:103900000C46C01A81B21646502000F01EF8C4F1D1
:10391000EF0081B2512000F018F82946522000F043
:1039200014F8A819BDE87040401E81B2532000F081
:103930000CB807B5FFF7D2FF4FF0C0412220088036
:10394000022102A8FDF7F8FF0EBD03B54FF0C041FC
:103950000880022101A8FDF7EFFF0CBD88B02022EE
:1039600010A16846FCF72CFCFCF7ACFFFEF7C4F98D
:10397000FEF7FCF8FEF7C6F8FEF73CF9FCF770FD21
:10398000FDF7FAFF0FA0FEF739F813A0FDF7FCFFD3
:103990004FF47A741F216846FCF7D6FD2046FCF7E9
:1039A00057FEF7E753544D333220566972747561F0
:1039B0006C20434F4D20506F72742044656D6F2E04
:1039C0000D0A00005669727475616C20434F4D20DA
:1039D000506F727400000000436F707972696768FD
:1039E00074286329205761766573686172650000E9
:1039F000F0B50B30154D20F007010024144A0FE0FC
:103A000003688B420BD38B4205D95E1A4318476873
:103A1000C3E9006700E04368136002C004E0021DD0
:103A200010680028ECD12046002802D1286808B18F
:103A30000020F0BD064A07481060074A121A22F01B
:103A40000702C0E9002401202860D7E7E801002030
:103A5000E4010020AC460020A85600200000000031
:103A60000000000000000000000000000000000056
:103A70000000000000000000000000000000000046
:103A80000000000000000000000000000000000036
:103A90000000000000000000000000000000000026
:103AA0000000000000000000000003800003800010
:103AB0000380000380000380000380000380000374
:103AC00080000380000100000100000000000000F1
:103AD00000038000038000000000000000000000E0
:103AE00000000000000000000000000000000000D6
:103AF00000000000000E70000E70000E7000042028
:103B00000004200004200004200000000000000049
:103B100000000000000000000000000000000000A5
:103B20000000000000000000000000000000000095
:103B300000000000000000000000066000066000B9
:103B40000660000660000660003FF8003FF80006CF
:103B500060000CC0003FF8003FF8000CC0000CC033
:103B6000000CC0000CC0000CC000000000000000F1
:103B70000000000000000000000000000000000144
:103B8000800001800007B0000FF00018700018706E
:103B9000001C00000F800007E00000F0001830005B
:103BA0001C30001C70001FE0001BC00001800001E1
:103BB0008000018000018000000000000000000083
:103BC000000000000000000000000780000FC0009F
:103BD0001CE0001860001860001CE0000FF80007EF
:103BE000E0001FF00007380006180006180007382C
:103BF0000003F00001E000000000000000000000F1
:103C000000000000000000000000000000000000B4
:103C1000000000000000000003F00007F0000C604E
:103C2000000C00000C00000600000700000F9C00C4
:103C30001DFC0018F0001870000FFC0007DC0000ED
:103C40000000000000000000000000000000000074
:103C500000000000000000000000000000038000E1
:103C6000038000038000010000010000010000014A
:103C70000000000000000000000000000000000044
:103C80000000000000000000000000000000000034
:103C90000000000000000000000000000000000024
:103CA000000000180000380000700000F00000E084
:103CB0000000E00001C00001C00001C00001C00020
:103CC00001C00001C00000E00000E0000070000042
:103CD0007000003800001800000000000000000024
:103CE000000000000000000000001800001C0000A0
:103CF0000E00000E00000700000700000380000314
:103D00008000038000038000038000038000070020
:103D1000000700000F00000E00001C00001800004B
:103D20000000000000000000000000000000000093
:103D300000000180000180000180001DB8001FF814
:103D40000007E00003C00003C0000660000660003A
:103D50000000000000000000000000000000000063
:103D60000000000000000000000000000000000053
:103D70000000000000000000000000000000000043
:103D80000180000180000180000180000180003F6F
:103D9000FC003FFC000180000180000180000180E8
:103DA0000001800000000000000000000000000092
:103DB0000000000000000000000000000000000003
:103DC00000000000000000000000000000000000F3
:103DD00000000000000000000000000000000000E3
:103DE00000000000000000E00000C00001C0000171
:103DF00080000180000300000300000000000000BC
:103E000000000000000000000000000000000000B2
:103E10000000000000000000000000000000001F83
:103E2000F8001FF800000000000000000000000083
:103E30000000000000000000000000000000000082
:103E40000000000000000000000000000000000072
:103E50000000000000000000000000000000000062
:103E60000000000000000000000000000000000052
:103E700000000000000003C00003C00003C00000F9
:103E80000000000000000000000000000000000032
:103E9000000000000018000018000038000030008A
:103EA00000700000600000600000C00000C0000161
:103EB00080000180000300000300000600000600EF
:103EC000000E00000C00001C00001800001800008C
:103ED00000000000000000000000000000000000E2
:103EE000000003C00007E0000C30000C3000181880
:103EF00000181800181800181800181800181800D2
:103F00001818000C30000C300007E00003C000005F
:103F100000000000000000000000000000000000A1
:103F2000000000000000000000000080000780008A
:103F30001F80001D800001800001800001800001C1
:103F4000800001800001800001800001800001806C
:103F5000001FF8001FF80000000000000000000033
:103F60000000000000000000000000000000000051
:103F7000000007C0001FF000383000301800301873
:103F80000000180000300000600001C00003800045
:103F90000600000C00001800003FF8003FF8000089
:103FA0000000000000000000000000000000000011
:103FB0000000000000000000000003C0000FE0004F
:103FC0000C700000300000300000600003C00003EF
:103FD000E0000070000018000018000018001838F9
:103FE000001FF0000FC000000000000000000000F3
:103FF00000000000000000000000000000000000C1
:10400000000000E00001E00001E000036000066045
:10401000000660000C60000C60001860003060005A
:104020003FF8003FF80000600003F80003F80000CC
:104030000000000000000000000000000000000080
:10404000000000000000000000001FF0001FF00052
:104050001800001800001800001BC0001FF0001C12
:104060003000001800001800001800001800303060
:10407000003FF0000FC00000000000000000000042
:104080000000000000000000000000000000000030
:10409000000000F80003F8000700000E00000C000C
:1040A000001800001BC0001FF0001C300018180092
:1040B0001818001818000C38000FF00003E000007A
:1040C00000000000000000000000000000000000F0
:1040D000000000000000000000001FF8001FF800B2
:1040E0001818001838000030000030000070000080
:1040F000600000600000E00000C00000C00001C0DF
:1041000000018000018000000000000000000000AD
:10411000000000000000000000000000000000009F
:10412000000007E0000FF0001C38001818001818F5
:10413000000C300007E00007E0000C300018180009
:104140001818001818001C38000FF00007E00000D5
:10415000000000000000000000000000000000005F
:104160000000000000000000000007C0000FF00089
:104170001C30001818001818001818000C38000F10
:10418000F80003D80000180000300000700000E0C4
:10419000001FC0001F000000000000000000000021
:1041A000000000000000000000000000000000000F
:1041B000000000000000000000000000000003C03C
:1041C0000003C00003C00000000000000000000069
:1041D00000000000000003C00003C00003C0000096
:1041E00000000000000000000000000000000000CF
:1041F00000000000000000000000000000000000BF
:1042000000000000000000F00000F00000F00000DE
:10421000000000000000000000000000E00001C0FD
:104220000001800001800003000002000000000087
:10423000000000000000000000000000000000007E
:104240000000000000000000001C00003C0000F026
:104250000003C0000F00003C0000F000003C000024
:104260000F000003C00000F000003C00001C000034
:10427000000000000000000000000000000000003E
:10428000000000000000000000000000000000002E
:104290000000000000000000007FFC007FFC000028
:1042A00000000000007FFC007FFC00000000000018
:1042B00000000000000000000000000000000000FE
:1042C00000000000000000000000000000000000EE
:1042D00000000000000000007000007800001E00D8
:1042E0000007800001E000007800001E0000780058
:1042F00001E0000780001E00007800007000000050
:1043000000000000000000000000000000000000AD
:104310000000000000000000000000000007C000D6
:104320000FE0001870001830001830000070000016
:10433000E00003C000038000030000000000000054
:10434000000700000700000000000000000000005F
:10435000000000000000000000000000000000005D
:10436000000003E00007F0000E38000C1800187879
:104370000018F80019D80019980019980019980029
:1043800018F8001878001800000C00000E1800073C
:10439000F80003E000000000000000000000000042
:1043A000000000000000000000000000001F80006E
:1043B0001FC00001C000036000036000063000065B
:1043C00030000C30000FF8001FF800180C00300C03
:1043D00000FC7F00FC7F00000000000000000000E7
:1043E00000000000000000000000000000000000CD
:1043F00000000000007FE0007FF00018380018186F
:10440000001818001838001FF0001FF800181C00D2
:10441000180C00180C00180C007FF8007FF000004A
:10442000000000000000000000000000000000008C
:104430000000000000000000000000000003EC008D
:104440000FFC001C1C00180C00300C003000003069
:104450000000300000300000300000180C001C1C70
:10446000000FF80003F00000000000000000000052
:10447000000000000000000000000000000000003C
:1044800000000000007FC0007FF0001838001818FE
:1044900000180C00180C00180C00180C00180C0068
:1044A000180C001818001838007FF0007FE000009A
:1044B00000000000000000000000000000000000FC
:1044C000000000000000000000000000007FF80075
:1044D0007FF8001818001818001998001980001F9C
:1044E00080001F8000198000199800181800181803
:1044F000007FF8007FF800000000000000000000CE
:1045000000000000000000000000000000000000AB
:1045100000000000003FFC003FFC000C0C000C0CF5
:10452000000CCC000CC0000FC0000FC0000CC0007D
:104530000CC0000C00000C00003FC0003FC0000099
:10454000000000000000000000000000000000006B
:104550000000000000000000000000000003EC006C
:104560000FFC001C1C00180C00300C003000003048
:10457000000030FE0030FE00300C00380C001C1C27
:10458000000FFC0003F0000000000000000000002D
:10459000000000000000000000000000000000001B
:1045A00000000000007E7E007E7E001818001818B3
:1045B000001818001818001FF8001FF8001818003D
:1045C0001818001818001818007E7E007E7E000063
:1045D00000000000000000000000000000000000DB
:1045E000000000000000000000000000001FF800B4
:1045F0001FF800018000018000018000018000019F
:1046000080000180000180000180000180000180A5
:10461000001FF8001FF8000000000000000000006C
:10462000000000000000000000000000000000008A
:10463000000000000007FE0007FE00003000003010
:10464000000030000030000030003030003030001A
:104650003030003030003060003FE0000F8000005C
:10466000000000000000000000000000000000004A
:10467000000000000000000000000000007F3E007D
:104680007F3E0018300018600018C0001980001B21
:1046900080001FC0001CE00018700018300018389F
:1046A000007F1F007F1F00000000000000000000CE
:1046B00000000000000000000000000000000000FA
:1046C00000000000007F80007F80000C00000C00D4
:1046D000000C00000C00000C00000C00000C0C0092
:1046E0000C0C000C0C000C0C007FFC007FFC00008C
:1046F00000000000000000000000000000000000BA
:1047000000000000000000000000000000F00F00AA
:10471000F81F00381C003C3C003C3C00366C003666
:104720006C0033CC0033CC00318C00300C00300CEA
:1047300000FE7F00FE7F000000000000000000007F
:104740000000000000000000000000000000000069
:10475000000000000078FE0078FE001C18001E1803
:10476000001F18001B18001B980019D80018D8004B
:1047700018F8001878001838007F18007F1800001B
:104780000000000000000000000000000000000029
:104790000000000000000000000000000003C00056
:1047A0000FF0001C3800181800381C00300C0030C6
:1047B0000C00300C00300C00381C001818001C389D
:1047C000000FF00003C00000000000000000000027
:1047D00000000000000000000000000000000000D9
:1047E00000000000003FF0003FF8000C1C000C0C23
:1047F000000C0C000C0C000C18000FF8000FE0006F
:104800000C00000C00000C00003FC0003FC0000086
:104810000000000000000000000000000000000098
:104820000000000000000000000000000003C000C5
:104830000FF0001C3800181800381C00300C003035
:104840000C00300C00300C00381C001818001C380C
:10485000000FF00007C00007CC000FFC000C380070
:104860000000000000000000000000000000000048
:1048700000000000007FE0007FF0001838001818EA
:10488000001818001838001FF0001FC00018E000C2
:104890001870001830001838007F1E007F0E0000CE
:1048A0000000000000000000000000000000000008
:1048B0000000000000000000000000000007D80019
:1048C0000FF8001C38001818001818001E00000F00
:1048D000C00003F0000078001818001818001C38F9
:1048E000001FF0001BE000000000000000000000BE
:1048F00000000000000000000000000000000000B8
:1049000000000000003FFC003FFC00318C00318CB7
:1049100000318C00318C000180000180000180009A
:104920000180000180000180000FF0000FF0000006
:104930000000000000000000000000000000000077
:10494000000000000000000000000000007E7E006B
:104950007E7E001818001818001818001818001883
:1049600018001818001818001818001818000C3033
:10497000000FF00003C00000000000000000000075
:104980000000000000000000000000000000000027
:1049900000000000007F7F007F7F00180C000C18D3
:1049A000000C18000C1800063000063000036000F0
:1049B00003600003600001C00001C000008000002F
:1049C00000000000000000000000000000000000E7
:1049D00000000000000000000000000000FE3F801A
:1049E000FE3F8030060030060030860019CC0019EA
:1049F000CC001B6C001B6C001E7C000E38000E38B7
:104A0000000C18000C18000000000000000000005E
:104A10000000000000000000000000000000000096
:104A200000000000007E7E007E7E001818000C3022
:104A30000006600003C00001800001800003C00088
:104A40000660000C30001818007E7E007E7E00009C
:104A50000000000000000000000000000000000056
:104A6000000000000000000000000000007C7E004C
:104A70007C7E001818000C30000660000660000301
:104A8000C0000180000180000180000180000180E1
:104A9000000FF0000FF00000000000000000000018
:104AA0000000000000000000000000000000000006
:104AB00000000000001FF8001FF800181800183050
:104AC0000018600018C000018000030000061800F4
:104AD0000C18001818003018003FF8003FF80000CC
:104AE00000000000000000000000000000000000C6
:104AF0000000000000000000000001F00001F000D4
:104B0000018000018000018000018000018000011F
:104B10008000018000018000018000018000018090
:104B20000001800001800001800001F00001F00020
:104B30000000000000000000000000001800001845
:104B400000001C00000C00000E0000060000060023
:104B50000003000003000001800001800000C0008D
:104B600000C0000060000060000070000030000025
:104B700038000018000018000000000000000000CD
:104B8000000000000000000000000F80000F800007
:104B9000018000018000018000018000018000018F
:104BA0008000018000018000018000018000018000
:104BB000000180000180000180000F80000F800054
:104BC00000000000000000000000000000000000E5
:104BD000800001C00003E0000770000630000C18E0
:104BE00000180C001004000000000000000000008D
:104BF00000000000000000000000000000000000B5
:104C000000000000000000000000000000000000A4
:104C10000000000000000000000000000000000094
:104C20000000000000000000000000000000000084
:104C30000000000000000000000000000000000074
:104C40000000000000000000000000000000000064
:104C5000000000000000FFFF00FFFF000000000355
:104C6000000003800000E000006000000000000081
:104C70000000000000000000000000000000000034
:104C80000000000000000000000000000000000024
:104C90000000000000000000000000000000000014
:104CA0000000000000000000000000000000000004
:104CB0000000000000000FC0001FE00000300000F6
:104CC000300007F0001FF000383000303000307046
:104CD000001FFC000FBC00000000000000000000EE
:104CE00000000000000000000000000000000000C4
:104CF00000007800007800001800001800001BE099
:104D0000001FF8001C1800180C00180C00180C00EC
:104D1000180C00180C001C18007FF8007BE0000045
:104D20000000000000000000000000000000000083
:104D30000000000000000000000000000000000073
:104D400000000000000003EC000FFC001C1C0038F9
:104D50000C00300C00300000300000380C001C1C2F
:104D6000000FF80003F00000000000000000000049
:104D70000000000000000000000000000000000033
:104D8000000000780000780000180000180007D824
:104D9000001FF800183800301800301800301800D4
:104DA0003018003018001838001FFE0007DE000021
:104DB00000000000000000000000000000000000F3
:104DC00000000000000000000000000000000000E3
:104DD00000000000000007E0001FF8001818003075
:104DE0000C003FFC003FFC00300000300000180CBD
:104DF000001FFC0007F000000000000000000000A1
:104E000000000000000000000000000000000000A2
:104E1000000001FC0003FC000600000600003FF853
:104E2000003FF80006000006000006000006000033
:104E30000600000600000600003FF0003FF0000002
:104E40000000000000000000000000000000000062
:104E50000000000000000000000000000000000052
:104E600000000000000007DE001FFE0018380030C0
:104E700018003018003018003018003018001838AA
:104E8000001FF80007D800001800001800003800C4
:104E90000FF0000FC0000000000000000000000044
:104EA00000007800007800001800001800001BE0E7
:104EB000001FF0001C3800181800181800181800FF
:104EC0001818001818001818007E7E007E7E00005A
:104ED00000000000000000000000000000000000D2
:104EE00000000000000000000000018000018000C0
:104EF0000000000000001F80001F800001800001F2
:104F0000800001800001800001800001800001809C
:104F1000003FFC003FFC000000000000000000001B
:104F20000000000000000000000000000000000081
:104F3000000000C00000C0000000000000001FF0E2
:104F4000001FF00000300000300000300000300092
:104F50000030000030000030000030000030000061
:104F600030000030000070001FE0001F80000000D3
:104F7000000000000000000000003C00003C0000B9
:104F80000C00000C00000CF8000CF8000CC0000D28
:104F900080000F80000F00000F80000DC0000CE0AB
:104FA000003C7C003C7C0000000000000000000091
:104FB00000000000000000000000000000000000F1
:104FC00000001F80001F8000018000018000018020
:104FD000000180000180000180000180000180004C
:104FE0000180000180000180003FFC003FFC0000C8
:104FF00000000000000000000000000000000000B1
:1050000000000000000000000000000000000000A0
:10501000000000000000F77800FFFC0039CC0031F0
:105020008C00318C00318C00318C00318C00318C43
:1050300000FDEF00FDEF0000000000000000000098
:105040000000000000000000000000000000000060
:1050500000000000000000000000000000007BE0F5
:10506000007FF0001C3800181800181800181800ED
:105070001818001818001818007E7E007E7E0000A8
:105080000000000000000000000000000000000020
:105090000000000000000000000000000000000010
:1050A00000000000000003C0000FF0001C380038B2
:1050B0001C00300C00300C00300C00381C001C3878
:1050C000000FF00003C0000000000000000000001E
:1050D00000000000000000000000000000000000D0
:1050E00000000000000000000000000000007BE065
:1050F000007FF8001C1800180C00180C00180C0099
:10510000180C00180C001C18001FF8001BE00018F9
:1051100000001800001800007F00007F0000000061
:10512000000000000000000000000000000000007F
:1051300000000000000007DE001FFE0018380030ED
:1051400018003018003018003018003018001838D7
:10515000001FF80007D80000180000180000180011
:1051600000FE0000FE000000000000000000000043
:1051700000000000000000000000000000003E7879
:10518000003EFC0007CC00070000060000060000FF
:105190000600000600000600003FF0003FF000009F
:1051A00000000000000000000000000000000000FF
:1051B00000000000000000000000000000000000EF
:1051C00000000000000007F8000FF8001818001891
:1051D00018001F80000FF00000F8001818001838A1
:1051E000001FF0001FE000000000000000000000B1
:1051F00000000000000000000000000000000000AF
:1052000000000C00000C00000C00000C00003FF03F
:10521000003FF0000C00000C00000C00000C00002F
:105220000C00000C00000C1C0007FC0003F0000048
:10523000000000000000000000000000000000006E
:10524000000000000000000000000000000000005E
:105250000000000000007878007878001818001826
:105260001800181800181800181800181800183816
:10527000000FFE0007DE000000000000000000003C
:10528000000000000000000000000000000000001E
:1052900000000000000000000000000000007C3E54
:1052A000007C3E001818001818000C30000C30006C
:1052B00006600006600007E00003C00003C00000B5
:1052C00000000000000000000000000000000000DE
:1052D00000000000000000000000000000000000CE
:1052E000000000000000783C00783C0031180033DA
:1052F00098003398001AB0001EF0001EF0001C60E9
:10530000000C60000C6000000000000000000000C5
:10531000000000000000000000000000000000008D
:1053200000000000000000000000000000003E7CC3
:10533000003E7C000C300006600003C000018000CD
:1053400003C0000660000C30003E7C003E7C000084
:10535000000000000000000000000000000000004D
:10536000000000000000000000000000000000003D
:105370000000000000007E1F007E1F00180C000CC3
:1053800018000C180006300006300003600003E02F
:105390000001C00000C00001800001800003000087
:1053A0003FC0003FC00000000000000000000000FF
:1053B00000000000000000000000000000001FF8D6
:1053C000001FF80018300018600000C000018000C5
:1053D0000300000618000C18001FF8001FF800005A
:1053E00000000000000000000000000000000000BD
:1053F0000000000000000000000000E00001E000EC
:105400000180000180000180000180000180000116
:1054100080000380000700000380000180000180FD
:105420000001800001800001800001E00000E00038
:10543000000000000000000000000000000000006C
:1054400000000180000180000180000180000180D7
:1054500000018000018000018000018000018000C7
:1054600001800001800001800001800001800001B6
:1054700080000180000180000000000000000000AA
:10548000000000000000000000000700000780008E
:105490000180000180000180000180000180000186
:1054A000800001C00000E00001C000018000018018
:1054B00000018000018000018000078000070000DB
:1054C00000000000000000000000000000000000DC
:1054D00000000000000000000000000000000000CC
:1054E000000000000E00001F18003BB80031F00063
:1054F00000E00000000000000000000000000000CC
:10550000000000000000000000000000000000009B
:10551000000000000000000000000000000000008B
:10552000000000000000000000000000000000007B
:105530000000000000000C000C000C000C000C002F
:105540000C000C000C0000000C000000000000002B
:1055500000000000000000001DC01DC00880088081
:1055600008800000000000000000000000000000B3
:105570000000000000000D800D800D800D803FC0F8
:105580001B003FC01B001B001B001B000000000095
:105590000000000004001F803180318038001E00B0
:1055A0000F000380318031803F00040004000000C0
:1055B00000000000000018002400240018C007802C
:1055C0001E00318002400240018000000000000007
:1055D00000000000000000000F0018001800180074
:1055E0000C001D80370033001D800000000000000B
:1055F0000000000000000000070007000200020099
:105600000200000000000000000000000000000098
:105610000000000000000300030006000E000C0064
:105620000C000C000C000E0006000300030000003C
:10563000000000000000180018000C000600060022
:1056400006000600060006000C001C001800000002
:10565000000000000000060006003FC03FC00F0031
:105660001F80198000000000000000000000000002
:10567000000000000000000000000400040004001E
:105680003F8004000400040000000000000000004F
:10569000000000000000000000000000000000000A
:1056A000000000000000060004000C0008000800D4
:1056B00000000000000000000000000000000000EA
:1056C0003F8000000000000000000000000000001B
:1056D00000000000000000000000000000000000CA
:1056E0000000000000000C000C00000000000000A2
:1056F0000000000000C000C0018001800300030022
:1057000006000C000C0018001800300030000000EB
:105710000000000000000E001B003180318031804D
:105720003180318031801B000E000000000000003D
:1057300000000000000006003E0006000600060013
:1057400006000600060006003FC000000000000042
:105750000000000000000F0019803180318003003C
:1057600006000C00180030003F8000000000000020
:105770000000000000003F006180018003001F0066
:1057800003800180018061803F0000000000000074
:10579000000000000000070007000F000B001B00C6
:1057A000130033003F8003000F8000000000000062
:1057B0000000000000001F801800180018001F00E3
:1057C00011800180018021801F0000000000000086
:1057D00000000000000007801C00180030003700A7
:1057E00039803180318019800F00000000000000F6
:1057F0000000000000007F004300030006000600D8
:10580000060006000C000C000C0000000000000068
:105810000000000000001F003180318031801F0037
:1058200031803180318031801F0000000000000095
:105830000000000000001E00330031803180338002
:105840001D800180030007003C00000000000000F4
:105850000000000000000000000000000C000C0030
:105860000000000000000C000C0000000000000020
:105870000000000000000000000000000300030022
:1058800000000000000006000400080008000000FE
:10589000000000000000000000C003000400180029
:1058A000600018000400030000C0000000000000B9
:1058B00000000000000000000000000000007FC0A9
:1058C00000007FC000000000000000000000000099
:1058D0000000000000000000600018000400030049
:1058E00000C0030004001800600000000000000079
:1058F00000000000000000001F00318031800180A6
:1059000007000C000C0000000C000000000000006C
:105910000000000000000E001100210021002700FF
:10592000290029002700200011000E0000000000BF
:1059300000000000000000003F000F000900198077
:1059400019801F8030C030C079E0000000000000E6
:1059500000000000000000007F00318031803180B5
:105960003F003180318031807F0000000000000066
:1059700000000000000000001F4030C060406000D8
:1059800060006000604030801F00000000000000E8
:1059900000000000000000007F00318030C030C0F7
:1059A00030C030C030C031807F00000000000000F7
:1059B00000000000000000007F8030803080320056
:1059C0003E003200308030807F8000000000000008
:1059D00000000000000000007FC030403040320076
:1059E0003E003200300030007C000000000000006B
:1059F00000000000000000001E8031806080600018
:105A0000600067C0618031801F000000000000005E
:105A100000000000000000007BC031803180318038
:105A20003F803180318031807BC000000000000069
:105A300000000000000000003FC006000600060055
:105A400006000600060006003FC00000000000003F
:105A500000000000000000001FC00300030003005E
:105A600003006300630063003E00000000000000CC
:105A700000000000000000007BC0318033003600D1
:105A80003C003E003300318079C00000000000007F
:105A900000000000000000007E0018001800180040
:105AA00018001840184018407FC000000000000097
:105AB0000000000000000000E0E060C071C07BC09A
:105AC0006AC06EC064C060C0FBE00000000000005F
:105AD000000000000000000073C0318039803D806C
