:020000040800F2
:10000000107A00209D010008BB1F0008811900081C
:10001000B91F000839050008F54800080000000075
:10002000000000000000000000000000EB1F0008BE
:100030008505000800000000E91F0008ED1F00080A
:10004000B7010008B7010008B7010008B7010008B0
:10005000B7010008B7010008B7010008B7010008A0
:10006000B7010008B7010008B7010008B701000890
:10007000B7010008B7010008B7010008B701000880
:10008000B7010008B7010008B7010008B701000870
:10009000B7010008B7010008B7010008B701000860
:1000A000B7010008B7010008B7010008B701000850
:1000B000B7010008B7010008B7010008B701000840
:1000C000B7010008B7010008B7010008B701000830
:1000D000B7010008B7010008B7010008B701000820
:1000E000B7010008B7010008B7010008B701000810
:1000F000B7010008B7010008B7010008B701000800
:10010000B7010008B7010008B7010008B7010008EF
:10011000B7010008B7010008B7010008B7010008DF
:10012000B7010008B7010008B7010008B7010008CF
:10013000B7010008B7010008B7010008B7010008BF
:10014000B7010008B7010008B7010008DD1F00086B
:10015000B7010008B7010008B7010008B70100089F
:10016000B7010008B7010008B7010008B70100088F
:10017000B7010008B7010008B7010008000000003F
:10018000B7010008B7010008DFF80CD000F06EF8E6
:100190000048004725670008107A0020064880477D
:1001A00006480047FEE7FEE7FEE7FEE7FEE7FEE75C
:1001B000FEE7FEE7FEE7FEE79D2000088901000854
:1001C00040EA01039B0703D009E008C9121F08C0D9
:1001D000042AFAD203E011F8013B00F8013B521E59
:1001E000F9D27047D2B201E000F8012B491EFBD2D0
:1001F00070470022F6E710B513460A460446194632
:10020000FFF7F0FF204610BD2DE9F05F0546002006
:1002100092469B4688460646814640241BE0284677
:1002200041464746224600F042F853465A46C01A15
:10023000914110D311461846224600F029F82D1A94
:1002400067EB01084F4622460120002100F020F80C
:1002500017EB00094E41201EA4F10104DFDC4846E3
:1002600031462A464346BDE8F09F0000064C074D44
:1002700006E0E06840F0010394E807009847103476
:10028000AC42F6D3FFF784FFE09B0008009C000817
:10029000202A04DB203A00FA02F100207047914046
:1002A000C2F1200320FA03F3194390407047202A3B
:1002B00004DB203A21FA02F00021704721FA02F310
:1002C000D040C2F120029140084319467047000017
:1002D00070B50A4E00243568306007E000F0ECF895
:1002E00082B2A1B2002000F0A3F8641C00F0EAF88A
:1002F000A042F3D8A8B2306070BD0000AC1100205D
:10030000074B30B49B68DD881C689B88DB1DDB08CD
:10031000203A13FB02F205FB024230BC01F032BB73
:10032000AC1100202DE9F0470446002799468A4683
:100330001546B846104601E008F1010810F8011B07
:100340000029F9D100F0B8F81C4E4A46B9F1010F66
:10035000B1688988B0FBF1F002D0022A17D105E01C
:10036000A0EB0800484304EB500003E0A0EB0800BA
:100370004843001B84B20AE051462046FFF7C0FF05
:10038000B0687F1CBFB280886D1C204484B200F02E
:1003900093F80146B068808807FB101189B281424A
:1003A00001D3012000E000202A780AB1012100E0F9
:1003B00000210842E0D1BDE8F0870000AC11002028
:1003C000054A03239268D288424390B20A46014606
:1003D0000020FFF7A7BF0000AC11002070B50D464C
:1003E0000646508A117D144640EA0140D18A127EA9
:1003F00041EA02418BB282B22946304601F014FC38
:100400000A480068036B1BB12246294630469847CC
:1004100000F058F884B200F04FF82346BDE8704071
:1004200082B20021084601F0FFBB00004C00002012
:100430002DE9F04106460F4800240F4F006815468D
:100440008846D0F820C0BCF1000F0FD01346388882
:100450000A463146BDE8F04180B2604738884146DF
:1004600082B2301980B201F0FDFA641CAC42F5D3BF
:10047000BDE8F0814C000020AC1100202DE9F041D6
:10048000064609480F461C460188154689B2016098
:100490003946781C87B22A463046FFF7C9FF641EEA
:1004A000A4B2F5D2BDE8F081AC110020014880680B
:1004B00070470000AC11002001480068806A0047C6
:1004C0004C00002001480068C06A00474C00002032
:1004D00070B50D4C4FF6FF70012660600B48A060B0
:1004E0000B4D0020206068688047A0F51341253936
:1004F00007D10648001F056028688047034800268A
:10050000A060304670BD0000AC11002050000020FB
:10051000100000200149486070470000AC11002025
:100520000149886070470000AC1100200149086053
:1005300070470000AC110020FEE7000010B500225B
:100540004FEA020100EB8203521CC3F87C130F2A0E
:10055000F8D300224FF400738418521C84F81C1145
:100560009A42F9D30170417001228270C0F8B81329
:10057000027640238371417680F81C1380F81D2396
:10058000002010BD7047FEE7002200F001B8000017
:1005900030B50E4B054601205C7A012C15D8587AEF
:1005A00000241C54587A03EB800045605D7A03F107
:1005B00008002A54587A421C5A72303008703A2087
:1005C00048702F208870CC70002030BDEC4900208E
:1005D000002100F001B800000B4910B502464B7A2B
:1005E0000120002B0FD01278303AD2B201EB8203F7
:1005F0005C68002C07D000200A4458601072487ACA
:10060000401E4872002010BDEC49002070B5B3F5C3
:10061000804F05D06FF0704140F82210002070BD6F
:1006200050F82240084B8E891C40D1E9003543EA3E
:1006300005138D6889692D0245EA06452B430B4356
:10064000234340F82230E9E70000F0CFF0B50C6812
:1006500050F82430114A1340D1E90125D1E903674C
:100660002A433E4332434E6932438E693243CE6958
:1006700032430E6A32434E6A32438E6A3243CE6A46
:100680003243CE6B096B32430A431A43082D01D122
:1006900042F0400240F824200020F0BD8000F0FF2E
:1006A00030B500EB820250688D8900F04043D1E9FB
:1006B000000440EA04108C68240244EA0544204304
:1006C0000C8A074D05EB045420430C7D6D0105EBAE
:1006D000046489692043084318435060002030BDFA
:1006E0000000F0FF31B500F029F9044600F026F9CA
:1006F0000099001B8842F9D338BD0000F0B51B48B3
:1007000087B0016800292ED101210160184800241A
:10071000016841F0010101600068022500F001005C
:1007200005904FF68070CDE9000502AA03260C273C
:1007300082E8D00069460F4800F022F84CF2B3700E
:10074000CDE9000502AA694682E8D0000A4800F017
:1007500017F82020CDE9000502AA694682E8D000FA
:10076000064800F00DF807B0F0BD000000000020C2
:100770003838024000100240000C024000180240CD
:100780002DE9F84FDFF87CB100224FF001084FF05F
:10079000030A4FF00F090BF1040E00BF0B6808FAB3
:1007A00002F42340A3426ED14D68022D01D0122DD8
:1007B0000ED1D50800EB850CDCF820505607F70E5B
:1007C00009FA07F6B5430E69BE402E43CCF8206007
:1007D000066855000F790AFA05FC07F0030726EAB8
:1007E0000C06AF40374307604E68012E05D0022E3D
:1007F00003D0112E01D0122E0ED18668CF6826EAC2
:100800000C06AF40374387604668A6430C79C4F3B3
:100810000014944034434460C6688C6826EA0C0691
:10082000AC403443C4604C68E40065D5364C256860
:1008300045F480452560246822F0030504F48044D3
:100840000094324C2E19D6F8084895072F0F09FA54
:1008500007F5AC432E4DA84201D1002524E02D4DD3
:10086000A84201D101251FE02B4DA84201D102254C
:100870001AE02A4DA84201D1032515E0284DA842CF
:1008800002D1042510E037E0264DA84201D105250C
:100890000AE0254DA84201D1062505E0234DA842D6
:1008A00001D1072500E00825BD402543C6F80858BA
:1008B000DBF800405D464E689C43F60300D51C43C0
:1008C0002C60DEF8004075464E689C43B60300D5A8
:1008D0001C432C600B4D08352C684E689C43F60277
:1008E00000D51C432C60074D0C352C684E689C438A
:1008F000B60200D51C432C60521C102AFFF44EAFE8
:10090000BDE8F88F003C014044380240003001400F
:10091000000002400004024000080240000C0240B7
:10092000001002400014024000180240001C024067
:100930000AB1816170470904FBE7000001480068C3
:100940007047000080000020D0F8940201F066BFDC
:10095000D0F8940201F076BF006803F0A5BC0068EF
:1009600003F0A6BC01EB810100EBC10090F85C0034
:10097000704701EB810100EBC100C06C704710B5FE
:10098000044690F89002012809D0012084F89002D2
:10099000206803F098FC002084F8900210BD02202B
:1009A00010BDFEB50546DDE9096095F89042089F47
:1009B000012C1ED0012485F8904201EB810405EB47
:1009C000C40402F07F0C04F8383F20816170E671A6
:1009D00084F802C04FEAD21C84F803C02771009744
:1009E000CDE90160286803F013FD002185F890121D
:1009F000FEBD0220FEBD70472DE9F00301EB81042E
:100A0000DDE90689DDE908C700EBC404022684F8A5
:100A10003B2084F83F30B8F1000F0AD084F84260E0
:100A2000002553B1012B3FD0022B1DD0032B2AD11F
:100A300020E0032584F84250F2E7B8F1010F22D1FB
:100A40000ABBBCF1000F10D1012284F8512002E052
:100A500084F8425001E084F8426094F85C20022A55
:100A600011D084F83D700EE02AB994F85120002A84
:100A7000F1D1EDE712B194F8502001E094F8512043
:100A800092B184F84260C4E9119C84F85C50E5643A
:100A900084F8391084F85D50027C04F13801006854
:100AA000BDE8F00303F030BD84F84250EBE70000EE
:100AB0002DE9F041044600680025064603F0FFFBDF
:100AC00001287DD1206803F068FE002878D02068D6
:100AD00003F063FE800203D521684FF400104861E3
:100AE000206803F05AFEC00203D521684FF480103D
:100AF0004861206803F051FE400103D521684FF0A2
:100B000080604861206803F048FE800702D52168B4
:100B100002204861206803F040FE800010D5D6F81E
:100B2000400420F02E00C6F840042046FFF710FFD6
:100B30000121206803F016FE21684FF00050486143
:100B4000206803F02AFEC00102D5204600F089FE8D
:100B5000206803F022FE000705D5204600F0ADF81E
:100B6000216808204861206803F017FE800120D525
:100B7000206803F0C2FC07464FF0010812E000BFF6
:100B800008FA05F038420CD006EB4510D0F8000505
:100B9000E9B20004204602D500F034FC01E000F088
:100BA0004AFD6D1CA068A842EAD821684FF0007089
:100BB0004861206803F0F1FDC0060ED5206800E012
:100BC0000BE0816921F010018161204600F0A0FE58
:100BD0002068816941F010018161BDE8F08130B584
:100BE0008BB0040026D0032084F89102204600F048
:100BF00023F8206803F0F4FA04F1100128220D46CE
:100C00006846FFF7DDFA94E80F0003F09BFA012134
:100C1000206803F0ECFD282229466846FFF7D0FA49
:100C200094E80F0003F034FD012084F891020020C5
:100C30000BB030BD0120FBE7F0B5006887B0B0F124
:100C4000A04F31D14FF400600224CDE9000402AA84
:100C5000002003250A2682E86100144F69463846C1
:100C6000FFF78EFDE002CDE9000402AA012082E830
:100C7000610069463846FFF783FD0D48016841F081
:100C8000800101600A481030016841F48041016030
:100C90000068002200F4804005901146432000F0D7
:100CA000A7F8432000F098F807B0F0BD000002401C
:100CB00034380240006803F084BDD0F8940201F09B
:100CC0001FBE10B5044690F8900201280DD00120F7
:100CD00084F89002206803F0BFFA0121206803F035
:100CE000A5FA002084F8900210BD022010BD10B5B6
:100CF000044690F89002012809D0012084F890025F
:100D0000206803F08AFD002084F8900210BD0220C4
:100D100010BD000002480168491C016070470000D6
:100D2000800000200B4810B5016841F4007101609B
:100D3000016841F480610160016841F480710160E3
:100D4000032000F075F8002000F006F800F018F815
:100D5000002010BD003C024010B5044607484FF487
:100D60007A710068B0FBF1F000F034FB00222146FC
:100D7000501E00F03DF8002010BD00007C00002057
:100D800010B5032000F054F8002211466FF00B005C
:100D900000F02EF8002211466FF00A0000F028F84B
:100DA000002211466FF0090000F022F800221146DF
:100DB000501F00F01DF800221146101F00F018F817
:100DC00000221146901E00F013F80022BDE81040EA
:100DD0001146501E00F00CB800F01F020121914096
:100DE0004009800000F1E020C0F8001170470000C9
:100DF000F0B40E4B1B680C46C3F30223C3F1070586
:100E0000042D00D90425191D072901D2002300E073
:100E1000DB1E012606FA05F1491E214099409E403D
:100E2000761E16403143F0BC01F0C8B80CED00E06E
:100E3000064900F0070208684FF6FF03184040EA31
:100E40000220034A10430860704700000CED00E0E8
:100E50000000FA052DE9F047DFF8649105460F46DA
:100E6000D9F8000000F00F01F8B28046B94208D26C
:100E7000014689F80010D9F8000000F00F00B842D0
:100E800074D128784F4C800705D52068A96820F0D8
:100E9000F000084320602878C00759D049496868A5
:100EA000083901281AD002281BD0032819D0096854
:100EB000890700295ADA216821F0030101432160E2
:100EC000FFF73CFD6968064641F28830012911D0E0
:100ED00002291DD00329824627D035E009688903FD
:100EE000E7E709688901E4E7FFF728FD811B514521
:100EF00001D926E082462068C0F381000128F3D1A1
:100F000026E000BFFFF71AFD811B514501D918E00B
:100F100082462068C0F381000228F3D118E000BFA8
:100F2000FFF70CFD811B51450BD82068C0F38100F1
:100F30000328F5D10CE000BFFFF700FD811B5145F0
:100F400002D90320BDE8F087206810F00C0FF3D120
:100F5000D9F80010484601F00F01B94208D980F8CD
:100F60000080006800F00F00B84201D00120E9E7DE
:100F70002878400705D52068E96820F4E050084348
:100F800020602878000706D52068296920F4604091
:100F900040EAC100206000F021F82168F02292FAB6
:100FA000A2F201F0F001B2FA82F2D140064A515C9D
:100FB000C840064908600020FFF7CEFE0020C1E7C8
:100FC000003C0240083802403C9600087C000020AB
:100FD00001480068704700007C00002030B51948C7
:100FE000006810F00C01184812D0441004290ED0EB
:100FF00008290DD11349091F0A6802F03F030A6846
:10100000550247F6C07204D5B4FBF3F003E0204666
:1010100030BDB0FBF3F00B680968134092FAA2F2FE
:10102000B2FA82F2D34058434FF4403292FAA2F21D
:1010300001F44031B2FA82F2D140491C4900B0FBC0
:10104000F1F030BD083802400024F4002DE9F84FDB
:101050000546DFF8FC920078A9F1040BC007ABF15C
:10106000040449D0D9F800104846C1F38101012990
:1010700008D00068C0F3810002280AD1DBF8000024
:10108000400206D52068800336D5686800286ED0F7
:1010900032E06868B0F5803F10D0B0F5A02F20682E
:1010A00010D020F480302060206820F48020206060
:1010B0006868A0B1FFF742FC06460CE0206840F4E7
:1010C0008030F4E740F480202060F7E7FFF736FC3B
:1010D000801B642871D820688003F7D50CE0FFF7E7
:1010E0002DFC064605E000BFFFF728FC801B6428A6
:1010F000F0D820688003F7D42878964F80074FF007
:10110000010A4FF0000841D5D9F80010484611F007
:101110000C0F08D00068C0F3810002280AD1DBF868
:101120000000400206D42068800713D5E868012833
:101130001DD10FE0E868D8B1C7F800A0FFF7FEFBAB
:10114000064604E0FFF7FAFB801B0228C2D820689D
:101150008007F7D52068F82292FAA2F22969B2FA3C
:1011600082F220F0F8009140084320600EE0ECE0AD
:10117000C7F80080FFF7E2FB064604E0FFF7DEFB5E
:10118000801B022819D820688007F7D42878000728
:1011900024D57148696989B1C0F800A0FFF7CEFB7A
:1011A000064604E0FFF7CAFB801B022805D8684802
:1011B0006C3000688007F5D510E07AE0C0F8008058
:1011C000FFF7BCFB064604E0FFF7B8FB801B0228D4
:1011D0006FD85F486C3000688007F5D428784007E6
:1011E00053D55B483830016841F080510160006898
:1011F00000F0805000905948016841F4807101600E
:10120000FFF79CFB064604E0FFF798FB801B0228D3
:101210004FD852480068C005F6D54D4EA8686836CC
:1012200001280FD00528306810D020F00100306070
:10123000306820F004003060A868B8B1FFF77EFB8A
:1012400000900FE0306840F00100F4E740F0040047
:101250003060F7E7FFF772FB0099411A41F28830DE
:1012600081426AD830688007F4D50EE0FFF766FB4C
:10127000009007E0FFF762FB0099411A41F28830C5
:1012800081425AD830688007F4D4A869E8B3D9F805
:101290000010C1F38101022957D00228C7F86080ED
:1012A00003D0FFF74BFB05464AE0FFF747FB064636
:1012B00005E042E0FFF742FB801B02283DD8206892
:1012C0008001F7D4D5E90701084347F6C07292FAC6
:1012D000A2F2696AB2FA82F29140AA6A4FF0FF3331
:1012E00003EB52024FF4403393FAA3F3B3FA83F3C0
:1012F0009A40114308434FF0706292FAA2F2E96AF1
:10130000B2FA82F29140084300E01CE0CBF8000002
:10131000C7F860A0FFF712FB054604E0FFF70EFBDD
:10132000401B022809D820688001F7D50BE000BFD8
:10133000FFF704FB401B022802D90320BDE8F88F09
:1013400020688001F4D40020F8E70120F6E70000CF
:101350000838024000004742800E474200700040BB
:1013600070B515460E46040003D094F8490010B13C
:1013700007E0012070BD002084F84800204600F0FE
:101380001AF804F108012068FFF760F93146A268F5
:101390002068FFF785F9D4E901022946236BFFF79E
:1013A00035F9A168206850F8212042F0010240F888
:1013B0002120002070BDFFF7A1B94FF0E0210428E3
:1013C000086903D020F004000861704740F0040071
:1013D000FAE7704710B5401EB0F1807F01D30120BD
:1013E00010BD4FF0E02460610F21601700F0E6FDB2
:1013F0000020A06107202061002010BD10B5FFF77C
:10140000E8FF10BD2DE9F05F06460068884600EB56
:101410004814D4F808054FF0040B410708EB880086
:101420004FF0050A4FF0100706EBC00508D5C4F8C9
:1014300008B5D4F80C0540F00200C4F80C0532E001
:10144000D4F80805800601D520202AE0D4F8080544
:101450004FF00809000710D5D4F80C0540F0020041
:10146000C4F80C0585F85DA0C4F80875C4F80895A3
:101470004146306802F027FF15E0D4F80805400522
:1014800011D5D4F80C0540F00200C4F80C05414613
:10149000306802F018FFC4F8087585F85D904FF4C5
:1014A0008060C4F80805D4F8080580050ED5D4F886
:1014B0000C0540F00200C4F80C05414604F5A16497
:1014C000306802F000FF4FF400708DE0D4F808059A
:1014D0004FF00001C0074FF0010236D0306930B143
:1014E000A86CD4F81035C3F31203C01AE86485F869
:1014F0005D20A965C4F8082595F83F0020B10228B1
:1015000002D003280ED019E0D4F80C0540F00200F8
:10151000C4F80C05414604F5A164306802F0D3FE1E
:1015200027600BE0D4F8000540F00050C4F8000537
:1015300085F85C2041463046FFF75DFA15F8500FFC
:1015400080F001002870BDE8F09FD4F808058007FE
:1015500033D5D4F80C0520F00200C4F80C0595F83A
:101560005D000223012806D0052807D0062808D0F0
:10157000082806D018E085F85C2015E085F85CA006
:1015800012E0A86D421CAA65032803D9A96585F855
:101590005CB001E085F85C30D4F8000520F08040B4
:1015A00040F00040C4F80005C4F8083595F85C2008
:1015B00041463046FFF71FFAC5E7D4F80805000694
:1015C00014D5D4F80C0540F00200C4F80C05A86D41
:1015D0004146401CA865062085F85D0004F5A1641D
:1015E000306802F070FE80202060ACE7D4F8080577
:1015F000C006A8D595F83F00032803D068B102289B
:101600000BD012E0D4F80C0540F00200C4F80C0531
:101610004146306802F057FE07E0D4F8000520F09C
:10162000804040F00040C4F80005032085F85D00CC
:10163000C4F8087587E72DE9F047026802EB41140A
:10164000D4F808254FF0040C520709D5C4F808C592
:10165000D4F80C0540F00200C4F80C05BDE8F08792
:10166000D4F8082501EB810392064FF0020600EB47
:10167000C30514D52022C4F8082595F83D20012A79
:10168000ECD185F85DC0D4F80C2542F00202C4F814
:101690000C25006802F017FE85F85C60DEE7D4F8E0
:1016A00008254FF0000352060FD585F85DC0AB65E5
:1016B000D4F80C2542F00202C4F80C25006804F5A9
:1016C000A16402F000FE402010E0D4F80825920545
:1016D0000ED5D4F80C2542F00202C4F80C2500689F
:1016E00004F5A16402F0EFFD4FF400702060B5E74F
:1016F000D4F808254FF00108D20710D0AB65D4F814
:101700000C2542F00202C4F80C25006804F5A1641F
:1017100002F0D9FDC4F8008085F85D809EE7D4F81A
:1017200008254FF0080912074FF0050A0DD5C4F837
:101730000895D4F80C2542F00202C4F80C25006884
:1017400002F0C1FD85F85DA088E7D4F808254FF0C8
:101750001007D20610D5AB65D4F80C2542F0020272
:10176000C4F80C25006804F5A16402F0ACFD032068
:1017700085F85D00276071E7D4F8082512060FD5BB
:10178000D4F80C2542F00202C4F80C25006804F5D8
:10179000A16402F098FD062085F85D008020A5E791
:1017A000D4F80825520511D5D4F80C2542F00202D0
:1017B000C4F80C25006804F5A16402F084FD2760DC
:1017C0004FF48060206085F85D9047E7D4F80825E5
:1017D00092078CD5D4F80C2522F00202C4F80C250F
:1017E00095F85D20012A0AD0032A15D0042A16D0C4
:1017F000052A19D0062A1AD0082A18D02AE085F816
:101800005C8095F83F20022A24D195F8512082F07F
:10181000010285F851201DE085F85C601AE085F82A
:101820005C6085F83D3015E085F85CA012E0AA6D9B
:10183000571CAF65032A03D9AB6585F85CC001E08E
:1018400085F85C60D4F8002522F0804242F0004226
:10185000C4F80025C4F8086595F85C20FFF7CBF8BC
:10186000FCE67CB504680546D4F840040190D4F841
:10187000400420F02E000090019880070DD50198BB
:10188000C00706D0A06920F00051A1612846FFF7EB
:101890005BF8009840F002000090019800072CD5FA
:1018A000009840F008000090019840071AD5A869F8
:1018B000022803D0E86803280CD00FE00198C0F399
:1018C00041400228286803D0012102F04BFF05E0C7
:1018D0000221FAE74EF66020C4F804042846FFF718
:1018E00033F80AE0D4F8400420F02E00C4F8400495
:1018F0002868816941F00051816101988006009853
:1019000002D540F020000090C4F840047CBD0000E7
:101910002DE9F041024600680646016AC1F34343DF
:1019200001F00F07C1F30A14022B25D1002C23D09C
:1019300007EB870102EBC105696C00291CD0224628
:1019400002F02FFF686C20446864E86C2044E8646F
:1019500006EB4710D0F81015084A11420CD0D0F809
:10196000001521F0804141F00041C0F8001515F844
:10197000500F80F001002870BDE8F0810000F81FD2
:10198000FEE700002DE9F74FDFF8D0A04FF0360B4F
:10199000AAF55A79DAF8080000252A468188C48811
:1019A000C81D04FB01F30BEB4306A9F80260360CDB
:1019B000A9F80460A9F80AB0A9F81210A9F81450FF
:1019C00020F00703A9F816405B1AA9F8185003F095
:1019D000FF084FF0010E37E0029BC60806FB0533F7
:1019E0000326B6EBD00F06D11A785E78120442EACD
:1019F00006229E7832430226B6EBD00F01D11A8818
:101A000052BABEEBD00F00D11A78002319E0661B42
:101A1000761E06FB01370BEB4706CF1A07EB080CC7
:101A2000ACF1010C0EFA0CF7174202D0BAF80070B4
:101A300001E0BAF8047009F806703F0A4E445B1CD6
:101A400077708B42E3D36D1CA542C5D3DDE900015D
:101A500003B0034ABDE8F04FFEF7C0BCAC11002054
:101A6000440E0020034B1B685B69002B00D0184715
:101A7000704700004C000020002906D0034A00BF38
:101A800030F8023B1380891EFAD1704700000160D4
:101A900008484FF4FC61016100218180C18001810F
:101AA000418181810122027041708170C170C181C8
:101AB000704700006800002010B5FFF7E9FFBDE89F
:101AC00010400020FEF704BC70B506461948FEF72A
:101AD00027FD1F20FEF72AFDFEF7EEFC84B2FEF77D
:101AE000F1FC144DEA88801A001F121D81B293B2D6
:101AF00022460020FEF7C2FC4FF6FF70FEF716FDEF
:101B00001F20FEF707FDFEF7DDFCE9880123401AE0
:101B100081B232460020FEF705FC0020FEF7FAFCF9
:101B20004FF4FC60FEF702FDBDE870400248FEF78E
:101B3000F7BC0000580000206000002070B5064689
:101B40001548FEF7EDFC1F20FEF7F0FCFEF7B4FC95
:101B5000114C82B24FF6FF75E088002105EA400380
:101B60000846FEF78BFC2846FEF7E0FC1F20FEF738
:101B7000D1FCE0880123410832460020FEF7D2FB69
:101B80000020FEF7C7FC4FF4FC60FEF7CFFCBDE879
:101B900070400248FEF7C4BC5800002060000020DE
:101BA0002DE9F0411E4E002430463189C0881D4D7C
:101BB000082915D2814213D301EB411005EB8000B7
:101BC000B0F8800080B2FEF7B1FC308900EB401124
:101BD00005EB8101BDE8F041001D80B2FEF7F0BBCE
:101BE000814201D26D3189B208398EB24FF06D0851
:101BF000A119B1FBF8F208FB121000EB401005EB45
:101C00008007B7F8800080B2FEF790FC3946201DAF
:101C1000FEF7D6FB641CE4B2092CE9D3BDE8F081E1
:101C200068000020B811002030B4054C2468E46935
:101C3000002C02D0A44630BC604730BC7047000086
:101C40004C00002000B53BA39FB00FCB0DF16C0CF6
:101C50008CE80F0000223B493B4803F0AFFC010039
:101C600006D03AA002F048FE3DA002F045FEFEE795
:101C700034493CA002F040FE39A002F03DFE0A22A9
:101C80003EA1414803F0C8FC010006D03FA002F08D
:101C900033FE33A002F030FEFEE719AB0D221BA984
:101CA000394803F0C3FE0146199800B131B140A094
:101CB00002F022FE2AA002F01FFEFEE7324803F0E7
:101CC00067FC01222DA1304803F0A6FC010006D0DC
:101CD0003EA002F011FE22A002F00EFEFEE71AABBB
:101CE00064226946284803F07FFD01461A9800B136
:101CF00031B13FA002F000FE19A002F0FDFDFEE7A9
:101D0000214803F045FCDDE91901814206D03DA0E0
:101D100002F0F2FD12A002F0EFFDFEE73EA002F09D
:101D2000EBFD0FA002F0E8FD0648FEF751FC1FB0E6
:101D300000BD000048656C6C6F20576F726C6421A9
:101D4000000000000900002008010020665F6D6FA0
:101D5000756E74206572726F723A202564000000FF
:101D60000A0000006372656174652074686520660E
:101D7000696C6520696E3A202573000068656C6C9B
:101D80006F2E74787400000038030020665F6F7057
:101D9000656E207769746820777269746520616365
:101DA00063657373206572726F723A202564000058
:101DB00066696C65207772697465206F7220454F83
:101DC00046206572726F723A20256400665F6F70FC
:101DD000656E207769746820726561642061636351
:101DE000657373206572726F723A2025640000007B
:101DF000665F72656164206572726F723A20256455
:101E00000000000066696C6520646F65736E27745E
:101E1000206D61746368000068656C6C6F2E747867
:101E20007420776173206372656174656420696EE4
:101E3000746F20746865206469736B0010B5044981
:101E40000448FEF7A1FB0249491E087010BD0000BE
:101E5000090000204C96000800B5174887B04FF0E5
:101E60002041016015494160002181601022C1605C
:101E7000C0E904128161C16113020162C0E9091362
:101E8000C1620163416381634164042000900F20BB
:101E9000019002AB282083E807001120CDE905015D
:101EA000002269460448FFF75BFA002801D0FEF7DC
:101EB0006AFB07B000BD0000B8000020040100A0CC
:101EC0002DE9F0412B4886B00024016841F08001E3
:101ED0000160016801F080010591016841F0040191
:101EE0000160016801F004010591016841F01001F1
:101EF0000160016801F010010591016841F00801DD
:101F00000160016801F008010591016841F040019C
:101F10000160016801F040010591016841F0010193
:101F200001600068144F00F00100059000220221BA
:101F30003846FEF7FDFCDFF844804FF4804600226F
:101F400031464046FEF7F4FC022000900125CDE921
:101F50000154694638460394FEF712FC0096CDE919
:101F60000154694640460394FEF70AFC06B0BDE8FA
:101F7000F0810000303802400008024000180240A2
:101F800010B501220649074800F006FC064905483D
:101F900001F01AFFBDE81040024801F0E9BF00005F
:101FA000853F00086405002084000020014801F0FE
:101FB00099BD000064050020FEE770470907090E7F
:101FC000002806DA00F00F0000F1E02080F8141D70
:101FD000704700F1E02080F8001470470148FEF7D8
:101FE00067BD00002C0900207047704710B5FEF750
:101FF00091FEBDE81040FFF701BA000030B525485A
:1020000093B00025016841F080510160006800F044
:10201000805011902048016841F4804101600068BF
:10202000022400F4804011900120009000040190EF
:102030008001CDE9064004200890A820CDE90904DC
:1020400007200B906846FFF701F800B1FEE70CA9E6
:102050000F2081E831004FF4A0500F904FF48050D2
:10206000109005210CA8FEF7F5FE00B1FEE7FEF783
:10207000AFFF4FF47A71B0FBF1F0FFF7ABF904203A
:10208000FFF79BF900221146501EFEF7B1FE13B078
:1020900030BD000040380240007000401048016828
:1020A00041F4700101600F48016841F001010160D5
:1020B0000C4A00210832116002680B4B1A40026082
:1020C000031D0A4A1A60026822F480220260054851
:1020D0000C300160024958068039086070470000E2
:1020E00088ED00E000380240FFFFF6FE10300024CB
:1020F00010B500224FF6FF7300EB8204B4F87C4366
:10210000240409D49A4205D000EB820041F4004136
:10211000C0F87C13D0B210BD521CD2B20B2AEBD344
:102120001A46F7E77FB51C46012501AE002300954E
:1021300086E80E0002232A46214600F071FC04B016
:10214000002070BD7FB51D4690F81D33089C03B17B
:1021500000240123CDE90031CDE90224022300222D
:10216000294600F05DFC04B0002070BD10B500F001
:1021700045FB002010BD8278012A07D1022202749B
:1021800001224274002242828182C28200221146D0
:1021900000F00FB87FB51C46012501AE0023009565
:1021A00086E80E002A46214600F03AFC04B00020E2
:1021B00070BD70B504460120A3780546012B09D0F7
:1021C000022B06D1204600F00BF948B1022800D1BD
:1021D000A57070BDA160A28125760221A17070BD9D
:1021E000A5700021217670BD7FB51D4690F81D3386
:1021F000089C03B100240123CDE90031CDE902247C
:1022000000231A46294600F00BFC04B0002070BDE4
:102210001FB500231446CDE900310822CDE9022381
:102220001A46214600F0FCFB04B0002010BDFEF76A
:1022300059BA70B5002400F2323004EB840505EB86
:10224000C40500EB4505EE7B0A358E4201D0FF291F
:1022500009D1AE79964201D0FF2A04D1ED799D4291
:1022600007D0FF2B05D0641C64B2022CE5DBFF20F5
:1022700070BDE0B270BD0B2907D200EB8100B0F851
:102280007C13C1F30E01C0F87C130020704730B4FA
:102290008578029C012D0FD141F080010174062147
:1022A000417403214282B1EB122F02D140F2094165
:1022B00000E000218182C482224630BC1946FFF72B
:1022C00078BF0A8803781A440A8001780844704766
:1022D000F8B50E4600F11C05009104462B464FF45C
:1022E00000720021FFF7D3FF070005D132462946CF
:1022F00004F2323001F081FB3846F8BD38B50D46A6
:102300000091044600F58E734FF480720021FFF7B0
:10231000BEFF01003DD104F5487094F81C21027005
:1023200094F81D21427094F81E2194F81F31082D55
:1023300002EB0322428094F82021027194F82121BB
:10234000427194F82221827194F82321C27120D91C
:1023500094F8242194F8253102EB0322028194F8A9
:10236000262194F8273102EB0322428194F8282198
:1023700094F8293102EB0322828194F82A21827396
:1023800094F82B21C27394F82C21027494F82D2117
:102390004274084638BDF8B51C461646009341F411
:1023A000407200F58E731D460021FFF770FF002874
:1023B00014D16978032911D129788A1EA24200DC40
:1023C00014460021A2B2AD1C04E06B5C891C06F827
:1023D000013B89B29142F8D300213170F8BD000071
:1023E0002DE9F84F04460125007E0B262F464FF0BD
:1023F00009084FF007094FF0050B4FF00D0A0C28A4
:102400001ED2DFE800F0B2060E212C38445C67785B
:102410008495627904F110012046FFF7F9FE02204D
:102420000DE06179204600F067FA012877D1207C21
:10243000E18A00F0800021B180283BD10320207682
:1024400093E0802814D02FE0D4F8B803E0812379FA
:10245000A2892046A168FFF79DFE0420EFE72179BD
:10246000204600F049FA012802D0052841D056E064
:1024700084F8188079E000976379A2892046A168E2
:10248000FFF7B2FED4F8B803E0810620D7E7617900
:10249000204600F031FA012806D0052807D002288E
:1024A00008D0042809D060E084F818905DE00C2082
:1024B00020761EE084F818B057E0267654E000221B
:1024C000237911462046FFF765FED4F8B803E08172
:1024D0000820B4E72179204600F00EFA012804D044
:1024E000042823D0052804D03FE084F818A0002554
:1024F0003BE0032539E0009700226379114620462E
:10250000FFF772FED4F8B803E0810A2097E76179FB
:10251000204600F0F1F9012804D00228A8D00428B0
:1025200004D022E0002584F818A01EE026761CE0E6
:10253000607E401CC0B26076022805D8204600F0BC
:102540005FFA2776A77010E0D4F8C423062120464E
:1025500090470020607606A002F0CEF906A002F0B7
:10256000CBF909A002F0C8F902252846BDE8F88F8A
:102570004552524F523A2000436F6E74726F6C2076
:102580006572726F720000000A0000002DE9FE43C0
:102590000126417800250446374600F58E78082943
:1025A00056D2DFE801F0040F27565E68788F0821C5
:1025B0002046FFF7A3FE00284AD194F82703A07114
:1025C00067702CE012212046FFF798FE0028F3D117
:1025D000B4F82A1347A002F08FF949A002F08CF951
:1025E000B4F8281347A002F087F945A002F084F957
:1025F00002203EE00121204601F09EFC002872D11D
:102600000220FFF714FE394684F81C7340A002F044
:1026100073F93BA002F070F903206070A07994F880
:102620001D130091CDE9015094F81C3321798022CB
:10263000204601F0D8F9A07994F81D130091CDE956
:10264000015094F81C3361790022204601F0CBF947
:1026500049E009212046FFF73BFE002843D1042032
:1026600007E0B4F834132046FFF732FE00283AD1D1
:102670000520607037E094F82E13062549B1FF233A
:1026800042462046FFF787FE00282CD1414626A06F
:102690000DE02AA013E094F82F13072571B1FF2352
:1026A00042462046FFF777FEE8B9414628A002F0EF
:1026B00023F913A002F020F9657014E028A002F0BD
:1026C0001BF9F6E794F8301381B1FF234246204608
:1026D000FFF761FE38B9414625A002F00DF908A0C8
:1026E00002F00AF900263046BDE8FE8325A002F07C
:1026F00003F9F4E75049443A2025786800000000C7
:102700000A0000005649443A20257868000000007D
:1027100041646472657373202823256429206173E2
:102720007369676E65642E004D616E7566616374D2
:1027300075726572203A2025730000004D616E7538
:102740006661637475726572203A204E2F410000F5
:1027500050726F64756374203A2025730000000086
:1027600050726F64756374203A204E2F4100000050
:1027700053657269616C204E756D626572203A20F6
:102780002573000053657269616C204E756D62653A
:1027900072203A204E2F410070B50D46040011D032
:1027A00084F8BC230020C4F87403C4F878032046DE
:1027B000FDF7C4FE0DB1C4F8C453204600F0B0F8D4
:1027C000002070BD05A002F097F806A002F094F872
:1027D00009A002F091F8022070BD00004552524F4E
:1027E000523A2000496E76616C696420486F7374B8
:1027F0002068616E646C65000A00000010B500245A
:10280000D0F8C003FEF7BBF830B1012801D0022890
:1028100001D0022400E00124204610BD10B501784B
:1028200019B10178012909D00AE0012180F81E13AD
:10283000D0F8C42322B10421904701E002210170A5
:10284000002010BD10B5044600F0DAF821792046CA
:10285000FFF711FD61792046FFF70DFD002084F898
:102860001E03D4F8C42312B105212046904706A0C8
:1028700002F042F80AA002F03FF8204600F0B0F85B
:1028800003202070002010BD555342204465766916
:10289000636520646973636F6E6E6563746564005D
:1028A0000A00000010B5C820FDF71CFF002010BD75
:1028B000D0F8C003FEF75DB810B50124D0F8C0030E
:1028C000FEF74DF820B1012805D0022803D101E020
:1028D000002400E00224204610BDD0F8C00301EB24
:1028E000810100EBC10090F83B1011B190F850004D
:1028F000704790F851007047D0F8C003FEF732B827
:10290000D0F8B813491CC0F8B81301780A2905D1CA
:10291000D0F87413002901D0896908477047000076
:1029200010B5044690F8BC0301281CD10F484FF0A5
:10293000A0410022C0F89442C4F8C00301600821FD
:1029400081600321C0E903120221C0E90612FEF7EB
:1029500046F908B1FDF717FE0448FDF7FDFF0146F3
:10296000204600F02AF8002010BD00002C090020AD
:10297000FEB508AC94E8E0008DE8E0000024D0F853
:10298000C003FEF70EF830B1012801D0022801D0B3
:10299000022400E001242046FEBD10B50024D0F83A
:1029A000C003FEF787F930B1012801D0022801D019
:1029B000022400E00124204610BDC0F8B81370477F
:1029C000D0F8C00301EB810100EBC10090F83B108F
:1029D00011B180F8502001E080F8512000207047AC
:1029E00010B50024D0F8C003FEF76BF930B1012810
:1029F00001D0022801D0022400E00124204610BDAD
:102A000010B50024D0F8C003FEF771F930B10128E9
:102A100001D0022801D0022400E00124204610BD8C
:102A20002DE9FF410AAC94E8E0108DE8E0100024A5
:102A3000D0F8C003FDF7E0FF30B1012801D0022833
:102A400001D0022400E0012404B02046BDE8F0815A
:102A500003460220D3F87413C9692AB1012A05D1AB
:102A600089791846FFF787BBC979FAE770470000F4
:102A7000D0F874030549C0694165054981650121A4
:102A800000F8501F817000207047000055534243EA
:102A9000504030202DE9F84F0746D0F87403012646
:102AA0003546C4694FF00B0A4FF00A0B94F85000FA
:102AB0004FF009094FF007080C2845D2DFE800F075
:102AC000D20611252E4852757EA7AFCB84F861102F
:102AD000022084F85000009563791F2204F154010C
:102AE00059E061793846FFF707FF012802D0022834
:102AF0007ED03FE0E06D002829D094F86000000609
:102B000001D503204BE0052049E02379628938464E
:102B1000D4F88C10FFF706FB042040E021793846FA
:102B2000FFF7EAFE01284FD16289E06D90420CD98F
:102B3000D4F88C10801A1144C4F88C10E0656BD066
:102B400023793846FFF7EEFA8CE00020E06563E079
:102B50000095637922893846D4F88C10FFF7F2FA91
:102B600006201CE061793846FFF7C6FE012804D034
:102B70000228C8D0052815D074E02289E06D904263
:102B8000E3D9D4F88C10801A1144C4F88C10E06595
:102B900042D0009563793846FFF7D4FA62E084F8B2
:102BA00050005FE084F850B05CE023790D2204F11E
:102BB00078013846FFF7B6FA0820F0E72179384661
:102BC000FFF79AFE012802D005281DD04AE004F83C
:102BD000505F3846A570D7F87413CC692179FFF798
:102BE00067FE0D280CD12149A06F884208D100E072
:102BF00036E0A16DE06F884202D194F8840008B1FC
:102C000002262FE000262DE084F850902AE00022D2
:102C10003846FFF71DFF38B984F8508022E00122C2
:102C20003846FFF715FF10B1042811D01AE061797A
:102C30003846FFF752FEC0F10100C2B26179384652
:102C4000FFF7BEFE217900223846FFF7B9FEDBE729
:102C500084F850A006E0384600F015F8060001D1CF
:102C600084F850503046BDE8F88F00005553425369
:102C7000A1220274FE224274002242828282012238
:102C8000C282FFF796BA21210174FF21417400210D
:102C900041828182C1820A46FFF78BBA70B5D0F8B3
:102CA00074130125CC69A17B21B1022902D003292B
:102CB0002ED127E02146FFF7DBFF0026054603283B
:102CC00001D015B124E000252660217811A0491C0F
:102CD000216001F011FE17A001F00EFE002002227B
:102CE0000CE000BF00EB800101EBC00104EB8101AF
:102CF000401C81F8922081F8C160C0B221688142F5
:102D0000F0D805E00021FFF736FA08B9E07BA073A0
:102D1000284670BD4E756D626572206F66207375B2
:102D200070706F72746564204C554E3A20256C7536
:102D3000000000000A00000010B51446D0F874230B
:102D40000078D3690A2801D0022010BD01EB810070
:102D500000EBC10003EB8001342220469031FDF7E7
:102D60002FFA002010BD70B50546D0F87403002678
:102D7000C469617939B12846FFF7F8F961792846C5
:102D8000FFF779FA6671217939B12846FFF7EEF934
:102D900021792846FFF76FFA2671D5F87403C069C8
:102DA00020B103F049F9D5F87403C661002070BD65
:102DB000FEB50546D0F8740302245023017906229B
:102DC0002846FFF736FA0146FF2822D0284601F0B0
:102DD00039F8E00103F0E2FCD5F874130446C86149
:102DE00095F81F0300EB800101EBC00005EB4000EC
:102DF00090F84803010619D5E07195F81F0300EB20
:102E0000800101EBC00005EB4000B0F84A0360818F
:102E100018E040A001F070FDD5F87403016840A0EF
:102E200001F06AFD48A001F067FD70E0A07195F81F
:102E30001F0300EB800101EBC00005EB4000B0F880
:102E40004A03208195F81F0300EB800101EBC000CD
:102E500005EB400090F8500301060CD5E07195F8A1
:102E60001F0300EB800101EBC00005EB4000B0F850
:102E7000520360810BE0A07195F81F0300EB800105
:102E800001EBC00005EB4000B0F8520320810020A8
:102E9000A4F8F800A4F8FA0020736073A073A17975
:102EA0002846FFF725F96071E1792846FFF720F9F8
:102EB00020712846FFF7DCFD682104F19000FDF742
:102EC00098F9208995F81D1302260091CDE901603B
:102ED00095F81C33A2796179284600F084FD608959
:102EE00095F81D130091CDE9016095F81C33E27946
:102EF0002179284600F077FD217900222846FFF746
:102F00005FFD617900222846FFF75AFD0024204624
:102F1000FEBD00004445425547203A200000000015
:102F200043616E6E6F742046696E6420746865201C
:102F3000696E7465726661636520666F72202573C1
:102F400020636C6173732E000A0000002DE9F047C6
:102F50000746D0F874034FF0010AC469207B10B112
:102F600001287CD1E9E1B4F8F800216801254FF08F
:102F70000008884274D200EB800101EBC00004EB32
:102F80008000022680F89150B4F8F8104FF005093F
:102F900001EB810000EBC10004EB800292F890008D
:102FA00009285CD2DFE800F0055B65DA1AFC5B5BA0
:102FB000FB00E4A001F0A0FCE5A001F09DFCB4F84A
:102FC000F810042001EB810202EBC10104EB810146
:102FD00081F89000D7F8B803C4F8FC00B4F8F80002
:102FE00000EB800101EBC00104EB8102C1B2384665
:102FF0009F3200F016FB002838D1B4F8F80000EB3F
:10300000800101EBC00004EB8001D2A0A23101F0ED
:1030100073FCCFA001F070FCB4F8F80000EB800165
:1030200001EBC00004EB8001D0A0AB3101F064FCE7
:10303000C7A001F061FCB4F8F80000EB800101EBDF
:10304000C00004EB8001CFA0BC3101F055FCC0A052
:1030500001F052FCB4F8F80000EB800101E06EE1F1
:1030600062E101EBC00004EB8000FAE0022874D0BA
:10307000DDE0C9B2384600F0F8FB10B1022836D0C6
:10308000D5E0B4F8F80000EB800101EBC00004EBE0
:10309000800090F8921041B180F8C150BFA001F0BB
:1030A0002BFCABA001F028FC01E080F8C180B4F853
:1030B000F810032001EB810202EBC10104EB810156
:1030C00081F89000B4F8F81001EB810202EBC10125
:1030D00004EB810181F89180B4F8F81001EB8102D2
:1030E00002EBC10104EB810181F8928027E1B4F881
:1030F000F80000EB800101EBC00004EB800090F8C9
:103100009210022908D080F8C150A9A001F0F4FB68
:103110008FA001F0F1FB01E080F8C180B4F8F81055
:1031200001EB810202EBC10104EB810181F8909077
:10313000B4F8F80000EB800101EBC00004EB800064
:1031400080F89150B4F8F80000EB800101EBC0006A
:1031500004EB800080F89260F1E055E0C9B2384697
:10316000943200F0FCFA002880D1B4F8F80000EBAB
:10317000800101EBC00004EB800090F8C110012930
:103180002DD150F8941F8088A1FB00238EA001F060
:10319000B3FB6FA001F0B0FBB4F8F80001E0BFE0B2
:1031A0003DE000EB800101EBC00004EB8000D0F8B3
:1031B00094108EA001F0A0FB65A001F09DFBB4F877
:1031C000F80000EB800101EBC00004EB8000B0F8D8
:1031D00098108BA001F090FB5DA001F08DFBB4F87E
:1031E000F80000EB800101EBC00004EB800080F8E8
:1031F0009050B4F8F81001EB810202EBC10104EB2E
:10320000810181F891805FE0B4F8F81001EB810250
:1032100002EBC10104EB810181F890908FE0C9B20B
:1032200038469C3200F0D8FA20B1022851D0042848
:1032300061D084E0B4F8F80000EB800101EBC0003D
:1032400004EB800090F89C10062901D002290BD1D4
:10325000D7F8B823D4F8FC30D21A42F210739A424D
:1032600002D280F890606AE06AA001F045FB38A0C5
:1032700001F042FBB4F8F80000EB800101EBC00064
:1032800004EB800090F89D1066A001F035FB30A0A3
:1032900001F032FBB4F8F80000EB800101EBC00054
:1032A00004EB800090F89E1065A001F025FB28A09B
:1032B00001F022FBB4F8F80000EB800101EBC00044
:1032C00004EB800080F8905034F8F80F401C208008
:1032D00035E037A001F010FB1DA001F00DFBB4F8A4
:1032E000F810082001EB810202EBC10104EB81011F
:1032F00081F8900023E0B4F8F80000EB800101EBC6
:10330000C00004EB800080F89050B4F8F80000EBA7
:10331000800101EBC00004EB800080F891600EE0BA
:10332000491CA4F8F8100AE0A4F8F8802573D7F82F
:10333000C42302213846904701E04FF0000A50466E
:10334000BDE8F0874C554E202325643A200000004C
:103350000A000000496E71756972792056656E64C5
:103360006F7220203A20257300000000496E7175AD
:103370006972792050726F64756374203A202573E6
:1033800000000000496E717569727920566572738C
:10339000696F6E203A202573000000004D534320D2
:1033A0004465766963652072656164790000000098
:1033B0004D534320446576696365204E4F54207217
:1033C00065616479000000004D53432044657669CF
:1033D0006365206361706163697479203A20256CAC
:1033E0006C7520427974657300000000426C6F6355
:1033F0006B206E756D626572203A20256C75000039
:10340000426C6F636B2053697A652020203A202537
:103410006C75000053656E7365204B657920203A0A
:10342000202578004164646974696F6E616C205373
:10343000656E736520436F6465203A20257800002F
:103440004164646974696F6E616C2053656E736565
:1034500020436F6465205175616C69666965723AD5
:10346000202578002DE9F843D0F8742301EB81037F
:1034700003EBC103D269012502EB8304082794F80A
:1034800090302E46052B22D000224FF00508062B47
:1034900002D0072B40D10CE0002300921A4600F026
:1034A00020F90BE002280FD018E000BF84F89070DC
:1034B00031E0002300921A4600F0FDF90028F1D116
:1034C00084F89060002527E084F8908024E004F1DF
:1034D0009C0200F081F920B1022820D00428E5D018
:1034E0001AE094F89C1011A0903401F005FA13A092
:1034F00001F002FA617B12A001F0FEF90FA001F0C9
:10350000FBF9A17B15A001F0F7F90CA001F0F4F98B
:1035100026700220607002252846BDE8F88318A0B6
:1035200001F0EAF905A001F0E7F9F5E753656E73DC
:1035300065204B657920203A202578000A0000009C
:103540004164646974696F6E616C2053656E736564
:1035500020436F6465203A20257800004164646947
:1035600074696F6E616C2053656E736520436F6480
:1035700065205175616C69666965723A202578002D
:103580004D534320446576696365204E4F54207245
:1035900065616479000000002DE9F8430446D0F825
:1035A0007403089E0F46C56994F81E0360B1207825
:1035B0000A2809D107EB870000EBC70005EB800064
:1035C00090F89010012902D00220BDE8F88306216E
:1035D000297380F89010A5F8FA70394620460096B5
:1035E00000F07FF8D4F8B88340F271204FF0010961
:1035F000464309E0D4F8B813A1EB0800B0EB061F6E
:103600000CD894F81E0348B139462046FFF72AFF2C
:103610000128EFD085F80C900020D6E785F80C90B3
:10362000D2E770B51546D0F874230226D46994F811
:103630005220012A02D0022A51D128E024228020DF
:10364000E26584F860000A2084F862000020C4F873
:103650006300C4F86700A4F86B00122384F8633099
:10366000490184F8641084F8650084F8660084F8E1
:10367000672084F86800012084F85000022084F854
:10368000520004F110000126C4F88C0027E0FFF777
:1036900001FA060023D122212846FCF7AAFD54F89E
:1036A0008C0F1022007800F01F00687020680078EE
:1036B0004009287020684078C009A8702068816897
:1036C000C5F80310C068C5F80700216805F10C00B3
:1036D0001031FCF775FD2068006AC5F81D00304602
:1036E00070BD2DE9F041154602461F46D2F87433ED
:1036F0000220069EDC6994F85230012B06D0022B82
:103700002BD1BDE8F0411046FFF7C4B97002E06567
:10371000802084F860000A2084F86200102104F1FF
:103720006300FCF766FD282084F86300280E84F807
:103730006500280C84F86600280A84F8670084F87D
:103740006850300A84F86A0084F86B60012004F83D
:10375000500F0220A0700120E763BDE8F08170B532
:103760001646D0F874230125D46994F85220012A12
:1037700002D0022A2ED11AE00820E065802084F8C9
:1037800060000A2084F86200102104F16300FCF755
:1037900030FD252084F86300012084F850000220C9
:1037A00084F8520004F11000C4F88C0012E0FFF716
:1037B00071F905000ED154F88C0F4188427849BA4E
:1037C000007862F31F4141EA006030602068C088E1
:1037D00040BAB080284670BD70B5154602460E4608
:1037E000D2F874130220CC6994F85210012914D035
:1037F000022911D131461046FFF74CF900280BD1B0
:1038000054F88C1F897801F00F0129702168097B19
:1038100069702168497BA97070BD0E258020E5651F
:1038200084F860000A2084F86200102104F163002B
:10383000FCF7DFFC032084F86300700184F8640067
:10384000002084F8650084F8660084F8675084F8E6
:103850006800012084F85000022084F8520004F12E
:103860001000C4F88C00012070BD70B50246022023
:10387000D2F87433DC6994F85230012B06D0022B55
:1038800018D1BDE870401046FFF704B90025E56582
:1038900084F860500A2084F86200102104F163006B
:1038A000FCF7A7FC84F86350012004F8500F0220B5
:1038B000A070012070BD2DE9F041154602461F465B
:1038C000D2F874330220069EDC6994F85230012B42
:1038D00006D0022B2BD1BDE8F0411046FFF7DAB835
:1038E0007002E065002084F860000A2084F862001D
:1038F000102104F16300FCF77CFC2A2084F86300AB
:10390000280E84F86500280C84F86600280A84F8DC
:10391000670084F86850300A84F86A0084F86B60A5
:10392000012004F8500F0220A0700120E763BDE8D9
:10393000F08100207047D0F874230078D2690A28FB
:1039400008D101EB810000EBC10002EB800090F890
:10395000910008B100207047012070472DE9F8431D
:103960000446D0F87403089E0F46C56994F81E03F8
:1039700060B120780A2809D107EB870000EBC70067
:1039800005EB800090F89010012902D00220BDE8DC
:10399000F8830721297380F89010A5F8FA7039464A
:1039A00020460096FFF787FFD4F8B88340F27120D5
:1039B0004FF00109464309E0D4F8B813A1EB080021
:1039C000B0EB061F0CD894F81E0348B139462046C8
:1039D000FFF748FD0128EFD085F80C900020D6E7CE
:1039E00085F80C90D2E7FEB508AF97E870008DE837
:1039F0007000FEF7BDFF0020FEBD2DE9F841054631
:103A00000B782B704B786B708B78CC78084603EB77
:103A100004236B800B792B714B796B718B79AB71B4
:103A2000CB79EB710027017A2972092A57D909212C
:103A3000ADF800104EE06946FEF743FC41780429DA
:103A400046D107EB870101EBC70105EB410801787F
:103A500088F80A10417888F80B10817888F80C10E3
:103A6000C17888F80D10017988F80E10417988F82E
:103A70000F10817988F81010C17908F10A0488F8CC
:103A80001110017A2172002618E06946FEF719FC30
:103A90004178052912D108EBC60102780A754278EF
:103AA0004A7582788A75C278CA7502794379761C1C
:103AB00002EB03220A8382798A7676B22179B142B7
:103AC00004DD6988BDF800209142DED87F1C7FB2FA
:103AD000022F04DA6A88BDF800108A42ABD8BDE82C
:103AE000F8810000FEB5044602208DF80000217820
:103AF000002008270C2605460B2913D2DFE801F029
:103B000006DB13D0DB48B5626B76C90094F81E0360
:103B1000002807D001202070C820FEF788FB20462F
:103B2000FEF73BFFC7E065A000F0E6FE68A000F0EE
:103B3000E3FE6420FEF77BFB2046FEF7BDFE84F823
:103B40001D030520207000212046FEF7D1FA607188
:103B500080212046FEF7CCFA20710146A07994F826
:103B60001D230092CDE9015094F81C338022204699
:103B7000FFF739FFA07994F81D130091CDE90150AA
:103B800094F81C33617900222046FFF72CFF92E065
:103B90002046FEF7FBFC0028C4D14EA000F0ACFE8E
:103BA0004BA000F0A9FE84F81F5394F831030128BC
:103BB00001D0072065E04CA000F09EFE44A000F07C
:103BC0009BFE06E0D4F8C423002A74D001212046CD
:103BD000904727706FE094F83713204600F0BAF949
:103BE000002868D10920207049A024E0D4F8781377
:103BF00001B3C4F8745394F8412300BF04EB80016F
:103C0000D1F870130B79934201D1C4F87413401C9E
:103C100010F0FF00F2D0D4F8740318B38168204686
:103C2000884770B12670D4F8740301683FA000F093
:103C300063FE02E045A000F05FFE25A000F05CFE00
:103C400039E006202070D4F87403016847A000F022
:103C500053FE1FA000F050FED4F8C42303212046D9
:103C6000904728E0267046A0E5E7D4F8740350B1E9
:103C70000169204688478DF800009DF80000D0B902
:103C80000A20207017E0267047A000F035FE48A0FB
:103C9000D1E7D4F8740370B14169204688470AE03F
:103CA0002046FCF74BFCD4F8740320B1C1682046D1
:103CB0008847C4F874530020FEBD000055534220CD
:103CC0004465766963652041747461636865640066
:103CD0000A000000456E756D65726174696F6E2033
:103CE000646F6E652E000000546869732064657609
:103CF00069636520686173206F6E6C792031206381
:103D00006F6E66696775726174696F6E2E00000070
:103D100044656661756C7420636F6E666967757261
:103D20006174696F6E207365742E00004465766956
:103D30006365206E6F7420737570706F7274696E36
:103D40006720257320636C6173732E004E6F2043D0
:103D50006C61737320686173206265656E207265A3
:103D600067697374657265642E00000025732063B3
:103D70006C61737320737461727465642E0000004B
:103D80004E6F207265676973746572656420636C39
:103D900061737320666F722074686973206465763E
:103DA0006963652E000000004552524F523A2000D0
:103DB000496E76616C696420436C61737320447250
:103DC000697665722E00000010B50022A1B1D0F80E
:103DD000783353B10BA000F08FFD0CA000F08CFDE8
:103DE00011A000F089FD022204E00123C0F878331D
:103DF000C0F87013104610BD02A000F07DFD0BA0AE
:103E0000ECE700004552524F523A20004D617820B5
:103E1000436C617373204E756D62657220726561CB
:103E200063686564000000000A000000496E766166
:103E30006C696420436C6173732068616E646C65A7
:103E40000000000070B5054690F836030C460026C9
:103E5000A04227D985F81F43214618A000F04CFD49
:103E60001EA000F049FD04EB840000EBC40005EB4C
:103E700040041BA094F8411304F2413400F03CFDCF
:103E800016A000F039FD617819A000F035FD13A0EF
:103E900000F032FDA1781AA000F02EFD0FA000F076
:103EA0002BFD09E01AA000F027FD1BA000F024FD67
:103EB0000AA000F021FD0226304670BD53776974D8
:103EC0006368696E6720746F20496E7465726661FD
:103ED0006365202823256429000000000A000000F3
:103EE000436C617373202020203A202578680000FD
:103EF000537562436C617373203A20257868000023
:103F000050726F746F636F6C203A202578680000E0
:103F10004552524F523A200043616E6E6F742053E7
:103F2000656C656374205468697320496E746572AA
:103F3000666163652E0000008278012A06D10022A6
:103F400002740523437441828282C2820022114698
:103F5000FEF72FB98278012A06D1002202740923C4
:103F6000437441828282C28200221146FEF721B947
:103F700010B50446FEF734FD01212046FEF792FC01
:103F8000002010BD01290AD00548022906D00429C5
:103F900003D0052903D1032100E0012101707047FE
:103FA0000D0000200020704730B58DB0154601246B
:103FB00049B1012909D0022910D003290ED00424C7
:103FC0000DB0204630BD0024FAE701466A46094894
:103FD000FEF7B2FE0028F3D1019808E001466A46D8
:103FE0000448FEF7A9FE0028EAD1BDF808002860C1
:103FF000E9E700006405002030B5054601248FB0D4
:10400000880720D100930B4629461048FFF7C4FAD1
:1040100068B101AA29460D48FEF78EFE9DF81100F1
:10402000042806D0282804D03A280CD101E0002426
:1040300009E007A000F060FC07A000F05DFC0CA008
:1040400000F05AFC03240FB0204630BD6405002068
:104050004552524F523A2000555342204469736BE7
:10406000206973206E6F742072656164792100008D
:104070000A00000010B5014601240348FFF75BFC6D
:1040800000B10024204610BD6405002030B505466F
:1040900001248FB088072DD100930B46294617487D
:1040A000FFF75CFC78B101AA29461448FEF744FEEC
:1040B0009DF81100042813D0272806D028280FD0F7
:1040C0003A2817D10CE0002414E00DA000F014FCF5
:1040D0000DA000F011FC14A000F00EFC022409E079
:1040E00007A000F009FC11A000F006FC0EA000F0F3
:1040F00003FC03240FB0204630BD000064050020FF
:104100004552524F523A2000555342204469736B36
:104110002069732057726974652070726F746563CB
:1041200074656421000000000A000000555342201D
:104130004469736B206973206E6F742072656164CB
:104140007921000070B50446049D06990D98012957
:104150000CD0E06840F04000E060204600F024F819
:104160004FF48030A063012D16D019E0A16B21F42B
:104170008031A163E1680B4A1140E160E16821F4FC
:104180004011E160012803D1E06840F48010E06054
:10419000204600F009F8E6E7A06840F02000A060A3
:1041A000002070BDBFFFBDFF01220C4902E0521C80
:1041B0008A420BD80369002BF9DA026942F0010246
:1041C0000261012204E0521C8A4201D90320704797
:1041D0000369DB07F7D1002070470000400D0300A2
:1041E000816821F0010181600020704730B50246EE
:1041F000012400230C4800EAC44040F0004502F5C9
:10420000A06000EB4110056102F5A06000EB4110D9
:10421000036823F0804343F0004302F5A06000EB05
:1042200041100360002030BD0000F81F08B5D0F831
:10423000402422F02E020092D20405D4012909D193
:10424000009941F4805103E021B9009921F4805193
:10425000C0F84014002008BD816841F00101816070
:1042600000207047002110220261054A491C91423A
:1042700001D9032070470369DB06F7D4002070479B
:10428000400D03000022202343EA8111016105490A
:10429000521C8A4201D90320704703699B06F7D458
:1042A00000207047400D0300D0F8080480B270472A
:1042B00008B5D0F840040090C0F3414008BD406903
:1042C00000F00100704710B50246002302F5A0601F
:1042D00000EB41100068C0F3814040B102F5A060DE
:1042E00000EB41100068C0F38140022846D102F57E
:1042F000A06000EB4110006840F0804402F5A0602F
:1043000000EB41100460D06A00F47F0048BB02F566
:10431000A06000EB4110006820F0004402F5A060AE
:1043200000EB4110046002F5A06000EB4110006852
:1043300040F0004402F5A06000EB4110046000BFB3
:10434000581C0346B0F57A7F00D909E002F5A06059
:1043500000EB4110006800F00040B0F1004FEFD0DA
:1043600053E002F5A06000EB4110006840F000440B
:1043700002F5A06000EB4110046046E002F5A06089
:1043800000EB4110006840F0804402F5A06000EBB3
:10439000411004604FF48260805880B248BB02F53F
:1043A000A06000EB4110006820F0004402F5A0601E
:1043B00000EB4110046002F5A06000EB41100068C2
:1043C00040F0004402F5A06000EB4110046000BF23
:1043D000581C0346B0F57A7F00D909E002F5A060C9
:1043E00000EB4110006800F00040B0F1004FEFD04A
:1043F0000BE002F5A06000EB4110006840F00044C3
:1044000002F5A06000EB41100460002010BD000028
:10441000F0B5DDE906564FF0FF3C00EB4114059F77
:10442000C4F808C535B1012D21D0022D02D0032DCD
:104430002AD114E040F29D4CC4F80CC55FEA026C2E
:1044400005D500BFD4F80CC54CF4807C1AE0B0F15F
:10445000A04F19D0D4F80CC54CF0600C12E040F21B
:104460009D6CC4F80CC55FEA026CEBD40CE040F222
:10447000252CC4F80CC55FEA026C05D5D4F80CC530
:104480004CF4C07CC4F80CC5D0F818C44FF0010E31
:104490000EFA01FE4CEA0E0CC0F818C4816941F016
:1044A000007181614FF0FE5000EA83504FF4F041FB
:1044B00001EAC22108434FF4004101EA0221084306
:1044C000022F10D05FF0000140EA41404FF440213C
:1044D00001EA85410843C6F30A010843C4F8000510
:1044E000032D02D007E00121EEE7D4F8000540F0EB
:1044F0000050C4F800050020F0BD014640F2144011
:10450000405880B2704700002DE9F84F05460C4630
:1045100016464FF0000BDA4600274FF48078B94674
:10452000B5F1A04F1CD02079D0B94EB960790128DF
:1045300006D161782846FFF759FE0020BDE8F88FC4
:10454000012E0DD1607805F5A06101EB4010C06827
:1045500020F06002607801EB4010C26000206071C2
:10456000206968B1218920690844401EB0FBF1F040
:1045700087B2474505DD474620897843206100E042
:104580000127E07810B12089784320612069C0F3C9
:1045900012003E4901EAC7410843A17A4FF0C042E8
:1045A00002EA41710843617805F5A06202EB41110E
:1045B000086136B1607805F5A06101EB4010E26852
:1045C00042614FF48160405900F0010080F0010B1E
:1045D000607805F5A06101EB4010006820F0005202
:1045E000607801EB40100260607801EB40100068D9
:1045F00040EA4B72607801EB40100260607801EB9A
:104600004010D0F8009029F0804949F000496078C6
:1046100001EB4010C0F80090AEBBE07898BB206979
:1046200088B3E07930B1012813D0022803D00328E1
:104630001ED10DE000BF2069C01CC0F38F0AE86ADC
:1046400080B2504503D2A86940F02000A86110E074
:1046500000BF2069C01CC0F38F0A4FF4826040592C
:1046600080B2504503D2A86940F08060A86100E0A4
:1046700000BF00BF00200090208A83B262782846E5
:10468000E16800F023F9002058E700000000F81F5F
:104690002DE9F047174604460025DDF82090C0F8C4
:1046A000005E806B20F48020A063A06B20F40020CB
:1046B000A063A06B40F40010A0634FF0A048032B50
:1046C00006D1444504D0D4F8000440F0040003E0CF
:1046D000D4F8000420F00400C4F80004102120469F
:1046E000FFF7D0FD2046FFF7BDFD0020461E06E087
:1046F00004EB4011C1F80865C1F80C55401C874215
:10470000F6D801212046FFF791FDC820FBF7EAFF0C
:10471000A5616661444505D1802060620C48A062B5
:104720000C4805E04FF4007060620B48A0620B4833
:10473000C4F80001B9F1000F03D1A06940F01000E6
:10474000A061A06906490843A0610020BDE8F08788
:1047500080006000E0004000000200010003E00073
:10476000080020A3D0F8002422F00302C0F800249F
:10477000D0F8002401F003031A43C0F800240129F3
:1047800002D0022903D006E04BF6803101E041F26D
:104790007071C0F8041400207047416980690840B6
:1047A000704710B503460020D21C920803F58053D1
:1047B00003E01C6841F8044B401C9042F9D30846C2
:1047C00010BD38B50446D0F8400420F02E0000900B
:1047D00040F48070C4F840040A2004F58864FBF7B4
:1047E00081FF009820F480702060002038BD10B553
:1047F000C26822F0C042C260012901D021B107E0A5
:10480000C16841F0005102E0C16841F08041C160DF
:104810003220FBF767FF002010BDF0B505460027EA
:10482000A86820F00100A86010212846FFF72AFDA3
:104830002846FFF717FD002411E005F5A06000EB06
:104840004410066846F0804626F0004626F40046EE
:1048500005F5A06000EB44100660601CC4B20F2C8C
:10486000EBD9002423E005F5A06000EB44100668B6
:1048700046F0804646F0004626F4004605F5A06066
:1048800000EB4410066000BF781C0746B0F57A7F45
:1048900000D909E005F5A06000EB4410006800F0C5
:1048A0000040B0F1004FEFD000BF601CC4B20F2C2D
:1048B000D9D94FF0FF3140F21440415108466861A8
:1048C000A86840F00100A8600020F0BD30B50024C9
:1048D000039D6DB9DB1C9B0800EB023000F5805096
:1048E00004E000BF51F8042B0260641C9C42F9D321
:1048F000002030BDFEE700000FB4054B10B503A942
:10490000044A029800F018F810BC5DF814FB00008F
:10491000355F0008AC00002002E008C8121F08C183
:10492000002AFAD170477047002001E001C1121F30
:10493000002AFBD1704700002DE9FF4F8DB09B4648
:104940000F460446002606E025280BD05A460F994C
:104950009047641C761C20780028F5D111B03046B1
:10496000BDE8F08F0025A8460122984900E00543E4
:1049700014F8013F203B02FA03F00842F7D12078F7
:104980002E2817D114F8010F45F004052A280ED05F
:104990006FF02F022078A0F1300109290AD808EB26
:1049A000880102EB410100EB0108641CF2E757F8B3
:1049B000048B641C20786C280DD004DC4C2812D0A9
:1049C0006A2811D104E074280DD07A280CD10AE0AD
:1049D00045F4001507E0617845F48015814202D165
:1049E000641C05F58015641C2278692A45D008DC12
:1049F000002AB3D0582A69D0632A10D0642A08D17B
:104A00003BE0702A67D0732A13D0752A5CD0782ACD
:104A10005CD010465A460F999047761CD3E017F8A1
:104A2000040B8DF8000000208DF80100E9460120FC
:104A300003E057F8049B4FF0FF3069074FF0000583
:104A400001D40AE06D1C45450DDA8542FADB19F800
:104A500005100029F6D106E06D1C8542FCDB19F833
:104A600005100029F8D12E4404E019F8010B5A462C
:104A70000F9990476D1EF8D2A5E00A200021CDE9DC
:104A80000801C5F3025002280DD001CFC117031E43
:104A900071F100030DDA4FF0000CD0EB0C006CEB61
:104AA00001012D2308E0FF1D27F00707F7E80201A9
:104AB000EDE72B0504D52B238DF8283001233BE0AF
:104AC000EB0739D02023F7E70A2000E0102000216F
:104AD000CDE9080107E01020002145F00405CDE9EB
:104AE00008014FF00808C5F3025002280FD001CF8B
:104AF00000214FF0000A2B071FD5702A0DD0DDE9E9
:104B000008C38CF0100C5CEA030C0CD015E0FF1D00
:104B100027F00707F7E80201EBE740228DF828208D
:104B20004FF0010A0BE050EA010306D030238DF864
:104B300028308DF8292002239A46582A04D024A22E
:104B40000DF120090B9209E026A2F9E7DDE908231F
:104B5000FBF75AFB0B9B9B5C09F8013D50EA0102F5
:104B6000F4D1ADEB090020300890680701D44FF074
:104B700001080899884502DDA8EB010000E000204B
:104B80008046002506E00AA85A46405D0F999047E6
:104B90006D1C761C5545F6DB04E030205A460F9913
:104BA0009047761CB8F10001A8F10108F5DC05E09A
:104BB00019F8010B5A460F999047761C0899481E20
:104BC00008900029F4DC641CC5E6000009280100F7
:104BD0003031323334353637383961626364656673
:104BE0000000000030313233343536373839414235
:104BF000434445460000000010B50446002084F8F8
:104C00000402401EC4F82C02204601F00DFE08B13B
:104C1000032010BDB4F8FE01A0F52A41553901D09A
:104C2000022010BD94F83600B4F8371040EA012194
:104C30000848B0EB012F08D094F85210B4F8532074
:104C400041EA0221B0EB012F01D1002010BD01206B
:104C500010BD00000046415400E0401C02780AB13B
:104C60008A42FAD1D0B27047F0B50022184B1446F0
:104C700002EB420653F8265085B1D0F80072BD42CF
:104C80000DD103EB8605D0F808626F68B74206D1F4
:104C90002D89B0F80662B54204D000E00124521C10
:104CA000022AE5D3022A01D079B904E05CB90229CD
:104CB00009D01220F0BD02EB420003EB80004089D6
:104CC000B0F5807F01D00020F0BD1020F0BD0000C5
:104CD000F849002030B50021064A0C4601EB41039B
:104CE00052F82350854201D142F82340491C022941
:104CF000F4D330BDF8490020D0F82422D0F80002C7
:104D0000490A90F80202B1FBF0F0121D02CA19B173
:104D1000884203D3401AF8E700207047116808441E
:104D20007047D0F81422891E921E8A4201D80020B2
:104D30007047D0F8282290F8020201FB002070474B
:104D40002DE9F0410F00054606D001F0DDF90228FB
:104D50000BD20120BDE8F081D5F80C621EB1D5F868
:104D60001402B04208D8012606E0411CF2D0D5F862
:104D700014128142EED83E463446D5F81402641C23
:104D8000A04202D80224022E0AD32146284601F06E
:104D9000BBF938B1411CDDD00128DBD0B442ECD1E5
:104DA0000020D7E76FF070422146284601F057FDFA
:104DB00030B957B122463946284601F050FD20B19E
:104DC000012812D001242046C4E7C5F80C42D5F8CA
:104DD0001002411CF7D0401EC5F8100295F80502DC
:104DE00040F0010085F80502EDE74FF0FF34EAE7F7
:104DF0002DE9F84F884682460D6800E06D1C287842
:104E00002F28FBD05C28F9D00024DAF8207226463F
:104E1000A85D761C202817D32F2815D05C2813D026
:104E2000FF2C32D2012100F0EDFE5FEA00092CD008
:104E3000B9F1800F04D2014668A0FFF70DFF20BB37
:104E400027F81490641CE3E7AA19C8F8002020286A
:104E500001D2042517E0002515E000BF07EB440050
:104E600030F8020C20280DD02E280BD06CB1002079
:104E700027F814000B222021DAF8180201F0CDFCEB
:104E8000002606E0641E002CE8D10620BDE8F88F5D
:104E9000761C37F816002028FAD02E28F8D01EB13C
:104EA00045F0030500E0641E2CB107EB440030F828
:104EB000020C2E28F7D1002081464FF0080B0090FD
:104EC00037F8160006F101065FEA000824D0B8F1B1
:104ED000200F04D0B8F12E0F04D1A64202D045F025
:104EE0000305EDE70098584501D2A6421AD1BBF15F
:104EF0000B0F0FD0A64201D045F003050CD84FF0A0
:104F0000080000904FEA896026464FF00B0B4FEAED
:104F10001069D5E745F00305DAF818020178E529AC
:104F200038D039E04046B8F1800F10D3002100F0AE
:104F300069FE5FEA000805D02B4901EB080010F874
:104F4000800C804645F00205B8F1000F04D0014600
:104F500026A0FFF781FE20B14FF05F0845F0030562
:104F60000FE0A8F14100192802D849F0020908E031
:104F7000A8F16100192804D8413049F001091FFA4D
:104F800080F8DAF81822009902F801800098401C95
:104F9000009095E705210170BBF1080F03D14FEA9E
:104FA00089604FEA1069C9F38100032803D06FEAD2
:104FB0000901890701D145F00205A90709D409F0C3
:104FC0000301012901D145F01005012801D145F067
:104FD0000805DAF81802C572002057E7222A3A3C81
:104FE0003E3F7C7F00000000209B00082B2C3B3DB7
:104FF0005B5D0000401E022815D20C4B00EB400206
:1050000003EB82014889B0F5807F05D008B1401ECE
:1050100080B2488110B104E00020FAE7002043F894
:10502000220000207047022070470000F84900204D
:105030002DE9FC5F0546002100F014FA00286ED12E
:10504000FF204FF6FF7A00908146A5F824A200BF0A
:10505000D5F81012D5F8000201F0E6FB06000ED1DB
:10506000D5F81442207848B1E17AE52801F03F01F3
:1050700070D00A0704D50F296CD107E0042674E02C
:105080000F2903D0B9F1000F4DD052E0D5F820120E
:1050900091B3420608D5627B009220F04000B5F83B
:1050A00006228146A5F82422484534D1627B009827
:1050B000824230D101912078A04620F04000401E6D
:1050C00000EB80010027DFF8A8B001EBC006012447
:1050D0001BF8071001EB0800008874B100F0B2FD66
:1050E0000446FF2E17D2019830F81600761C00F007
:1050F000A9FDA0420FD102E030E050450BD17F1C4A
:105100000D2FE5D398F80000400609D544B1019869
:1051100030F8160020B1FF2000F0FF091EE025E066
:10512000A9F10100F8E7204601F054FC00998842FB
:105130001BD0D5F81802C17AC9070BD10A2101E0AA
:10514000491E06D314F8012B10F8013BD21AF7D0F0
:1051500000E052B14FF0FF09A5F824A20021284633
:1051600000F008F806003FF473AF3046BDE8FC9F3E
:10517000A09B00082DE9F041B0F806620446761CB9
:1051800030040F46000C37D0D4F8100298B3310722
:1051900073D1401CC4F81002D4F80C12D4F80002E9
:1051A00031B190F80222521E12EA161F05D064E0B7
:1051B000B0F80802B0421FD95FE000F0A5FF054635
:1051C00001281ED9681C3AD0D4F80002D0F8141275
:1051D000A94249D87FB1D4F80C12FFF7B1FD050000
:1051E0000DD0012D0DD0681C29D0D4F8000201F09B
:1051F00059FC20BB07E0FFE70420BDE8F081072051
:10520000FBE70220F9E74FF400720021D4F8000216
:1052100001F003FB2946D4F80002FFF782FDD4F821
:10522000001200274FF00108C1F82C0211E000BF66
:1052300080F80482D4F8000201F034FC08B10120A7
:10524000DBE7D4F80002D0F82C12491C7F1CC0F810
:105250002C12D4F8000290F80212B942E8D8D0F823
:105260002C12C91BC0F82C12C4F80C522946D4F8D1
:105270000002FFF756FDC4F81002A4F80662D4F845
:10528000000206F00F0100EB4110C4F814020020E8
:10529000B3E700002DE9FF5FD0F818720446D0F89C
:1052A00020620C223946684601F0AEFA9DF80B00E8
:1052B000C0071AD00020F8720125C4F820022B463E
:1052C00032466946384600F0DFFE2046FFF7B0FE62
:1052D00010B96D1C642DF2D3642D0CD004280BD1B1
:1052E0009DF80B00F872C4F820629DF80B0080074F
:1052F0000FD5002004E0072004B0BDE8F09F401C5B
:1053000036F810100029FAD10D211930B0FBF1F652
:1053100000E001260021204600F0A4F8A0B90027F3
:10532000D4F81012D4F8000201F07EFA60B9D4F873
:1053300014020078E5280AD048B100270121204650
:10534000FFF718FF0028EBD0042812D012E07F1CD2
:105350003046B742F2D1461E5FEA060A5FD0B4F883
:1053600006122046A1EB0A0100F07CF8050003D0EC
:1053700074E00720054671E0D4F8180201F02AFB1A
:10538000CDF80C00D4F81012D4F8000201F04CFA59
:10539000050063D1D4F81412D4F82092039848730E
:1053A0000F20C8720020087388760AF0FF0BC876B9
:1053B000ABF1010000EB800202EBC00500234FF6C9
:1053C000FF7E274E4A1C01E0604503D039F81500E6
:1053D000F4466D1CF75CC85516F80380070A08F8F8
:1053E000027000B960465B1C0D2BEDD3704502D0F6
:1053F00039F8150008B94BF0400B81F800B0D4F82B
:105400000012012081F8040200212046FFF7B2FEBD
:10541000050023D1AAF101005FEA000AB2D1D4F855
:105420001012D4F8000201F0FFF9050016D1D4F8EB
:1054300014022022002104F5007401F0EEF9D4E9F1
:1054400005010B2201F0E0F9A0696169C07A00F062
:10545000180008732168012081F8040228464BE7F0
:10546000A09B000870B5A0F80612D0F808320D46CF
:105470000446012B40D0D4F80002D0F8141299420F
:105480003AD933B990F80012032906D1D0F8243262
:105490001BB190F80202060114E0B0F80812A9420C
:1054A0002AD9D0F8240214E000F02EFE0346401C56
:1054B00020D0022B20D3D4F80002D0F81402984256
:1054C0001AD9AD1BD4F80002B5421946ECD2FFF749
:1054D00028FCC4F80C3278B100EB1510C4F81002A7
:1054E000D4F8000205F00F0100EB4110C4F81402DB
:1054F000002070BD012070BD022070BD084910B5AC
:105500000B5C002253B901220A540A1801EB8000F7
:10551000127A40680168104688470246104610BD5E
:10552000EC49002030B4054C231804EB80001B7AB2
:10553000406804691846A44630BC6047EC49002026
:1055400030B4054D2C1805EB8000247A406885683E
:105550002046AC4630BC6047EC490020044A111894
:1055600002EB8000097A4068426808461047000054
:10557000EC49002030B4054D2C1805EB8000247A4E
:105580004068C5682046AC4630BC6047EC49002006
:1055900010B5044600F0EEF900280DD1204601F0C8
:1055A000B1FA002808D1D4F82802FFF723FD00281B
:1055B00002D10021C4F8001210BD00002DE9F7410E
:1055C00081B0904602980090684600F000FE04000A
:1055D00003D50B2004B0BDE8F0810E4E002756F82D
:1055E000245025B12846FFF775FB85F80072019815
:1055F000002801D080F8007246F8240002D0B8F1EB
:10560000010F01D00020E5E7002202A901A800F067
:105610002BFBDFE7A80000202DE9F74FADF50E7D4D
:1056200006000ED04FF0000902F01F0727F001021C
:105630008FA980A8C6F8009200F016FB040005D0E0
:10564000C9E009200DF5117DBDE8F08F4FF4007021
:1056500000F0F4FA5FEA00080BD08AA88690CDF833
:10566000208268468F9900F02BFC859D040002D0B3
:105670000DE01120E6E71DB1780803D0012102E01A
:10568000062404E000216846FFF7EEFA044617F00E
:105690001C0F5FD04FF0010BD4B1042C13D10020AC
:1056A000504902E0401C022805D200EB400251F8AC
:1056B0002220002AF6D1022804D06846FFF7EAFD2E
:1056C000044600E01224859D47F0080754B146E0E7
:1056D000E87A10F0110F01D0072440E0780701D5D7
:1056E00008243CE0380749D500F06FFDA873010A93
:1056F000E973010C2974000E687485F80B9085F825
:105700001C9085F81D9085F81E9085F81F902946FD
:10571000809800F0FDFF82460021284601F052F9F2
:105720008099BAF1000F81F804B225D080985146D3
:10573000D0F82CB201F00FF9040010D18099AAF131
:105740000100C1F80C025946809801F06DF8040080
:1057500010D004E01CB9E87AC10605D504244046FF
:1057600000F06EFAECB136E0B90703D5C00701D0FE
:10577000072433E0380701D547F020078098D0F898
:105780002C02C6E98705780801D0012100E000213C
:10579000684600F06DFFC6F82802F0B1404600F000
:1057A0004FFA86F8067286F807924F46294606F5A4
:1057B0000076809800F0ACFF3061287FD5F81D108E
:1057C00040EA0120C6E90270B761776280983060D4
:1057D000B0F80602B080204634E70224404600F0CC
:1057E0002FFAF8E7F84900202DE9F84F8846002104
:1057F000994615460446196001F084F9002812D133
:1058000094F8070200280ED194F80602C00709D0C8
:10581000D4E98201081A01274FF0020A854200D913
:105820000546A2E00720BDE8F88F00BFD4F80812B3
:10583000C8057CD1D4F8000290F80222521E02EA78
:10584000512212F0FF0614D131B1D4F8242232B122
:105850002046FFF751FA06E0D4F8100203E0D4F82E
:10586000141200F051FC022823D3411C5BD0C4F871
:105870001402D4F81412D4F80002FFF752FAC0B19F
:1058800030440090680A5FEA000B2AD0D4F8001276
:1058900006EB0B0291F80202824201D9A0EB060B43
:1058A00091F801025B464146009AFFF749FED0BBE2
:1058B00003E084F807A20220B5E794F80602400648
:1058C0000CD5D4F818120098081A584506D208EBDF
:1058D00040204FF40072214600F096FF4FEA4B261D
:1058E00037E0D4F818220098824221D094F80602BA
:1058F00040060ED5D4F800020123214690F801029B
:10590000FFF738FE78B994F8060220F0400084F8DA
:105910000602D4F800020123214690F80102009A01
:10592000FFF70EFE20B184F8077201207BE702E04A
:105930000098C4F81802B4F80802C0F30800C0F5D3
:105940000076AE4200D92E4601193246404600F09C
:105950005BFFD4F80802B0443044C4F80802D9F818
:1059600000008119AD1BC9F80010002D7FF45EAF57
:10597000002058E770B5044601F0C4F8002811D1A2
:1059800094F806128A060DD5480612D5D4F80002FE
:105990000123214690F80102D4F81822FFF7EAFD0E
:1059A00008B1012070BD94F8060220F0400084F890
:1059B0000602D4F81C12D4F8000200F035FF0028CB
:1059C000F0D1D4F82052E87A40F02000E87294F840
:1059D0000C022877B4F80C02000A6877D4F80C029D
:1059E000000CA877D4F80C02000EE877D4F8101257
:1059F000284604F5007400F0E5FF00F0E6FBA8750A
:105A0000010AE975010C2976000E68760020A87459
:105A1000E874A07920F02000A0712168012081F8AD
:105A200004022068BDE8704000F0E1BF2DE9F84FA6
:105A300088460021994615460446196001F062F82F
:105A4000002808D194F80702002804D194F806022F
:105A5000800702D40720BDE8F88FD4F80802012798
:105A600041194FF0020A81427BD3B9E0D4F8081201
:105A7000C80577D1D4F8002292F80202401E00EA4D
:105A8000512010F0FF061ED131B1D4F8240240B1EC
:105A90002046FFF731F909E0D4F8100240B900219F
:105AA00001E0D4F814121046FFF74AF9002858D044
:105AB00001283DD0411C6CD0C4F81402D4F8101257
:105AC00009B9C4F8100294F80602400610D5D4F8BB
:105AD00000020123214690F80102D4F81822FFF7B2
