:020000040800F2
:10000000880400209D0100087B1200088B11000865
:1000100079120008110200082D17000800000000E6
:1000200000000000000000000000000003130008B2
:1000300013020008000000009D12000805130008CC
:10004000B7010008B7010008B7010008B7010008B0
:10005000B7010008B7010008B7010008B7010008A0
:10006000B7010008B7010008B7010008B701000890
:10007000B7010008B7010008B7010008B701000880
:10008000B7010008B7010008B7010008B701000870
:10009000B7010008B7010008B7010008B701000860
:1000A000B7010008B7010008B7010008B701000850
:1000B000B7010008B7010008B7010008B701000840
:1000C000B7010008B7010008B7010008B701000830
:1000D000B7010008B7010008B7010008B701000820
:1000E000B7010008B7010008B7010008B701000810
:1000F000B7010008B7010008B7010008B701000800
:10010000B7010008B7010008B7010008B7010008EF
:10011000B7010008B7010008B7010008B7010008DF
:10012000B7010008B7010008B7010008B7010008CF
:10013000B7010008B7010008B7010008B7010008BF
:10014000B7010008B7010008B7010008B7010008AF
:10015000B7010008B7010008B7010008B70100089F
:10016000B7010008B7010008B7010008B70100088F
:10017000B7010008B7010008B7010008000000003F
:10018000B7010008B7010008DFF80CD000F02EF826
:1001900000480047CD1A0008880400200648804720
:1001A00006480047FEE7FEE7FEE7FEE7FEE7FEE75C
:1001B000FEE7FEE7FEE7FEE7C91300088901000835
:1001C00030B50B46014600202022012409E021FA27
:1001D00002F59D4205D303FA02F5491B04FA02F524
:1001E0002844151EA2F10102F1DC30BD064C074D7A
:1001F00006E0E06840F0010394E8070098471034F7
:10020000AC42F6D3FFF7C4FF701B0008901B000838
:10021000FEE77047FEE731B500F0E0F8044600F075
:10022000DDF80099001B8842F9D338BD2DE9F84F5D
:10023000DFF87CB100224FF001084FF0030A4FF0C5
:100240000F090BF1040E00BF0B6808FA02F42340FB
:10025000A3426ED14D68022D01D0122D0ED1D508CA
:1002600000EB850CDCF820505607F70E09FA07F66C
:10027000B5430E69BE402E43CCF820600668550099
:100280000F790AFA05FC07F0030726EA0C06AF40CF
:10029000374307604E68012E05D0022E03D0112E81
:1002A00001D0122E0ED18668CF6826EA0C06AF4028
:1002B000374387604668A6430C79C4F30014944022
:1002C00034434460C6688C6826EA0C06AC4034436C
:1002D000C4604C68E40065D5364C256845F480451B
:1002E0002560246822F0030504F480440094324C15
:1002F0002E19D6F8084895072F0F09FA07F5AC43D1
:100300002E4DA84201D1002524E02D4DA84201D157
:1003100001251FE02B4DA84201D102251AE02A4DEC
:10032000A84201D1032515E0284DA84202D1042599
:1003300010E037E0264DA84201D105250AE0254D01
:10034000A84201D1062505E0234DA84201D1072589
:1003500000E00825BD402543C6F80858DBF80040FA
:100360005D464E689C43F60300D51C432C60DEF8C6
:10037000004075464E689C43B60300D51C432C6074
:100380000B4D08352C684E689C43F60200D51C4383
:100390002C60074D0C352C684E689C43B60200D586
:1003A0001C432C60521C102AFFF44EAFBDE8F88F9E
:1003B000003C01404438024000300140000002404F
:1003C0000004024000080240000C024000100240FD
:1003D0000014024000180240001C0240014800685E
:1003E000704700000400002002480168491C0160B9
:1003F00070470000040000200B4810B5016841F46C
:1004000000710160016841F480610160016841F49C
:1004100080710160032000F069F8002000F006F808
:1004200000F018F8002010BD003C024010B5044652
:1004300007484FF47A710068B0FBF1F000F0D8FD86
:1004400000222146501E00F031F8002010BD0000AF
:100450000000002010B5032000F048F800221146EB
:100460006FF00B0000F022F8002211466FF00A0036
:1004700000F01CF8002211466FF0090000F016F899
:1004800000221146501F00F011F800221146101FE3
:1004900000F00CF800221146901E00F007F8002230
:1004A000BDE810401146501EAFF30080F0B40E4B73
:1004B0001B680C46C3F30223C3F10705042D00D9C2
:1004C0000425191D072901D2002300E0DB1E0126A7
:1004D00006FA05F1491E214099409E40761E1640BD
:1004E0003143F0BC00F0CABE0CED00E0064900F05C
:1004F000070208684FF6FF03184040EA0220034A4B
:1005000010430860704700000CED00E00000FA05A1
:100510002DE9F843054600784FF00109C0074FF078
:10052000000633D0DFF82481C8F86860FFF756FF73
:100530000746474C05E000BFFFF750FFC01B0228ED
:1005400063D820680001F7D447F6C07191FAA1F191
:100550006868B1FA81F188404FF0E04292FAA2F265
:10056000A968B2FA82F2914008433949843108609F
:10057000C8F86890FFF732FF074604E0FFF72EFF48
:10058000C01B022841D820680001F7D528788007D1
:1005900052D52F484030016841F080510160006819
:1005A0002C4C00F080500090206840F48070206057
:1005B000FFF714FF074604E0FFF710FFC01B0228F7
:1005C00023D82068C005F7D5214C7034206810F47A
:1005D000407020D0A98901F4407181421BD020686D
:1005E0001D4920F44070C1F800900E602060206822
:1005F000C00710D0FFF7F2FE064641F2883707E049
:10060000FFF7ECFE801BB84202D90320BDE8F88357
:1006100020688007F4D5E9680D48C1F3012208304D
:10062000032A0BD0016821F4F81101602068A98920
:10063000C1F30B01084320600020E7E70268074B85
:1006400022F4F81219400A430260EFE70000474223
:100650000038024000700040400E4742FFFCFF0F90
:100660002DE9F047DFF8649105460F46D9F8000000
:1006700000F00F01F8B28046B94208D2014689F86D
:100680000010D9F8000000F00F00B84274D12878AB
:100690004F4C800705D52068A96820F0F00008437A
:1006A00020602878C00759D049496868083901286E
:1006B0001AD002281BD0032819D0096889070029FD
:1006C0005ADA216821F0030101432160FFF786FE19
:1006D0006968064641F28830012911D002291DD0EF
:1006E0000329824627D035E009688903E7E70968CE
:1006F0008901E4E7FFF772FE811B514501D926E02D
:1007000082462068C0F381000128F3D126E000BFB3
:10071000FFF764FE811B514501D918E0824620682D
:10072000C0F381000228F3D118E000BFFFF756FEA6
:10073000811B51450BD82068C0F381000328F5D1F7
:100740000CE000BFFFF74AFE811B514502D9032090
:10075000BDE8F087206810F00C0FF3D1D9F8001035
:10076000484601F00F01B94208D980F800800068BE
:1007700000F00F00B84201D00120E9E728784007D7
:1007800005D52068E96820F4E05008432060287807
:10079000000706D52068296920F4604040EAC100BE
:1007A000206000F051F82168F02292FAA2F201F0E4
:1007B000F001B2FA82F2D140064A515CC8400649C3
:1007C00008600020FFF732FE0020C1E7003C024035
:1007D00008380240601B0008000000200148006843
:1007E00070470000000000200848094900680968B7
:1007F0004FF4E05292FAA2F201F4E051B2FA82F21E
:10080000D140044A515CC8407047000000000020FD
:1008100008380240601B0008084809490068096858
:100820004FF4604292FAA2F201F46041B2FA82F20D
:10083000D140044A515CC8407047000000000020CD
:1008400008380240601B000830B51948006810F0F5
:100850000C01184812D0441004290ED008290DD1DB
:100860001349091F0A6802F03F030A68550247F658
:10087000C07204D5B4FBF3F003E0204630BDB0FBFA
:10088000F3F00B680968134092FAA2F2B2FA82F20E
:10089000D34058434FF4403292FAA2F201F440316F
:1008A000B2FA82F2D140491C4900B0FBF1F030BDF0
:1008B000083802400024F4002DE9F84F0546DFF81F
:1008C000FC920078A9F1040BC007ABF1040449D0F5
:1008D000D9F800104846C1F38101012908D0006809
:1008E000C0F3810002280AD1DBF80000400206D5DF
:1008F0002068800336D5686800286ED032E06868CA
:10090000B0F5803F10D0B0F5A02F206810D020F4B3
:1009100080302060206820F4802020606868A0B1CA
:10092000FFF75CFD06460CE0206840F48030F4E7F9
:1009300040F480202060F7E7FFF750FD801B64281B
:1009400071D820688003F7D50CE0FFF747FD064615
:1009500005E000BFFFF742FD801B6428F0D8206847
:100960008003F7D42878964F80074FF0010A4FF0A4
:10097000000841D5D9F80010484611F00C0F08D0F6
:100980000068C0F3810002280AD1DBF800004002B1
:1009900006D42068800713D5E86801281DD10FE030
:1009A000E868D8B1C7F800A0FFF718FD064604E0D4
:1009B000FFF714FD801B0228C2D820688007F7D5F6
:1009C0002068F82292FAA2F22969B2FA82F220F0A3
:1009D000F8009140084320600EE0ECE0C7F800808A
:1009E000FFF7FCFC064604E0FFF7F8FC801B02283A
:1009F00019D820688007F7D42878000724D57148D3
:100A0000696989B1C0F800A0FFF7E8FC064604E078
:100A1000FFF7E4FC801B022805D868486C300068AA
:100A20008007F5D510E07AE0C0F80080FFF7D6FC2B
:100A3000064604E0FFF7D2FC801B02286FD85F480F
:100A40006C3000688007F5D42878400753D55B48A0
:100A50003830016841F080510160006800F080503A
:100A600000905948016841F480710160FFF7B6FCBD
:100A7000064604E0FFF7B2FC801B02284FD852481C
:100A80000068C005F6D54D4EA868683601280FD01D
:100A90000528306810D020F001003060306820F068
:100AA00004003060A868B8B1FFF798FC00900FE030
:100AB000306840F00100F4E740F004003060F7E7F0
:100AC000FFF78CFC0099411A41F2883081426AD8C4
:100AD00030688007F4D50EE0FFF780FC009007E057
:100AE000FFF77CFC0099411A41F2883081425AD8C4
:100AF00030688007F4D4A869E8B3D9F80010C1F3CE
:100B00008101022957D00228C7F8608003D0FFF77F
:100B100065FC05464AE0FFF761FC064605E042E059
:100B2000FFF75CFC801B02283DD820688001F7D4C9
:100B3000D5E90701084347F6C07292FAA2F2696A42
:100B4000B2FA82F29140AA6A4FF0FF3303EB5202ED
:100B50004FF4403393FAA3F3B3FA83F39A4011436B
:100B600008434FF0706292FAA2F2E96AB2FA82F296
:100B70009140084300E01CE0CBF80000C7F860A0FB
:100B8000FFF72CFC054604E0FFF728FC401B022879
:100B900009D820688001F7D50BE000BFFFF71EFCE5
:100BA000401B022802D90320BDE8F88F206880018D
:100BB000F4D40020F8E70120F6E7000008380240EE
:100BC00000004742800E4742007000402DE9F74F79
:100BD0000446007F934601281BD04FF0010884F89B
:100BE0001C80022060772168CA2048622068532157
:100BF0004162206880684FF0000540054FF0FF0615
:100C00004FF0030A4FF47A790FD5FFF7E7FB074659
:100C100007E00220BDE8FE8FFFF7E0FBC01B484560
:100C200011D82068C0684007F6D42068816821F494
:100C300080618160FFF7D2FB07460BE0FFF7CEFB38
:100C4000C01B484506D92068466284F81DA0257758
:100C50000320DFE72068C0684007EFD5206881687F
:100C600021F0070181602068816841EA0B01816001
:100C70002168019848612068816841F48061816041
:100C80002068466284F81D8025770020C2E70000B6
:100C900010B500680B4641680D480140080CD8703B
:100CA000C1F304245C7001F03F049C70C1F3423135
:100CB000197052B900F0F3FAD870587800F0EFFAD2
:100CC0005870987800F0EBFA9870002010BD000082
:100CD0003FFFFF0010B50B460168896A5960016843
:100CE0000969C1F30E019960006801680E4801406E
:100CF000C1F305401870C1F306245C7001F07F0455
:100D00009C70402404EA1141D97052B900F0C7FA2E
:100D10001870587800F0C3FA5870987800F0BFFA4D
:100D20009870002010BD00007F7F7F0070B5040028
:100D300002D0607F10B106E0012070BD0020207756
:100D4000204600F041F8022060772168CA204862FE
:100D5000216853204862204600F0B6FAFF2100289F
:100D6000206803D0416204206077E5E78268154B74
:100D70001A4082602268906863681843D4E9043599
:100D80002B43184390602268E06810612068026974
:100D9000238942EA034202612068C26822F080028D
:100DA000C2602068026C22F4802202642068026C17
:100DB000A3691A4302642068416201206077002021
:100DC00070BD0000BFFF8FFF00680349884202D159
:100DD0000249012008607047002800403C0E47424D
:100DE0002DE9F0470446007F0B46012825D04FF03F
:100DF000010984F81C9002206077587802B300F053
:100E00004EFA987800F04BFA9878D97840EA014584
:100E100058781978000240EA413005432168CA2019
:100E20004862216853204862204600F04DFA0026AF
:100E3000FF274FF0040858BB19E00220BDE8F087F7
:100E4000C10603D500F0EF000A305870D87800F0E2
:100E50002FFA0204587800F02BFA42EA0022987820
:100E600000F026FA0243187842EA4035D6E70F48E8
:100E70000540206845602068C16821F08001C1609C
:100E80002068806880060AD4204600F089F830B1D6
:100E90002068476284F81D8026770120CEE720680D
:100EA000476284F81D9026770020C7E73FFFFF00C8
:100EB0002DE9F0470446007F0D46012811D04FF080
:100EC000010A84F81CA00220607720680026806850
:100ED0004FEA406042B100281ADA287800F0DFF9C2
:100EE00017E00220BDE8F087002800DBEE702878CC
:100EF00000F0DEF90204687800F0DAF942EA002234
:100F0000A87800F0D5F90243E87842EA00470AE001
:100F1000EE70A878297840EA01476878E9780002FD
:100F200040EA014007432168CA20486221685320F3
:100F30004862204600F0C8F94FF0FF084FF004095E
:100F4000E0B916480740206807602068816821F4EE
:100F500080218160D5E90301084321688A68104334
:100F600088602068C16821F08001C16020688068C5
:100F700080060BD4204600F013F838B12168C1F880
:100F8000248084F81D9026770120ABE72168C1F802
:100F9000248084F81DA026770020A3E77F7F7F00B0
:100FA00070B504460068C16821F0A001C160FFF778
:100FB00015FA05464FF47A7607E000BFFFF70EFA00
:100FC000401BB04201D9032070BD2068C068800674
:100FD000F4D5002070BD4FF0E0210428086903D04B
:100FE00020F004000861704740F00400FAE7704701
:100FF00010B5401EB0F1807F01D3012010BD4FF02D
:10100000E02460610F21601700F038F90020A06132
:1010100007202061002010BD10B5FFF7E8FF10BDCC
:1010200070B5040004D094F83900002510B106E032
:10103000012070BD84F83850204600F023F82420A9
:1010400084F839002068C16821F40051C16020464D
:1010500000F0E4F92068016921F490410161206801
:10106000416921F02A0141612068C16841F40051C1
:10107000C160E563202084F8390084F83A0000203C
:1010800070BD000000B500680E4987B0884217D1D6
:101090000D48016841F4802101600068694600F450
:1010A000802005904FF440600090022001900120C4
:1010B000029003200390072004900448FFF7B6F83D
:1010C00007B000BD00480040403802400008024020
:1010D0002DE9F843044690F839001F4616460D46A0
:1010E000202850D1A5B19EB194F8380001284AD0EB
:1010F000012084F838004FF00008C4F83C8021201B
:1011000084F83900FFF76AF9A6848146E68426E070
:101110000120BDE8F883E08C401EE084A0684B46C7
:10112000B0F5805F4FF000024FF08001204600973D
:1011300003D000F0C9FAE8B90DE000F0C5FAC8B96B
:1011400028882168C0F308004860206908B16D1C38
:1011500005E0AD1C03E0216815F8010B4860E08C48
:101160000028D8D14B46002240212046009700F0AD
:10117000ABFA08B10320CCE7202084F8390084F8CA
:1011800038800020C5E70220C3E7FEE7094808B51C
:10119000016841F004010160016801F0040100915F
:1011A000016841F080010160006800F0800000905B
:1011B00008BD00003038024010B5204886B01E49F6
:1011C0000024C0E900147F218160FF21C0E90314DD
:1011D00044618461FFF7AAFD08B1FFF71BF88DF8A1
:1011E00000408DF801408DF80240039401226946C9
:1011F00012480494FFF75CFE08B1FFF70BF80120DA
:101200008DF814008DF815008DF8160002468DF843
:10121000174005A90948FFF7E3FD08B1FEF7FAFFFB
:10122000002211460548FFF7D1FC002801D0FEF747
:10123000F1FF06B010BD000000280040640000204F
:101240000C4810B50A4901604FF4E13141600021BA
:1012500081600C22C160C0E904128161C161FFF7A5
:10126000DFFE002803D0BDE81040FEF7D3BF10BD5D
:101270000048004010000020FEE770470907090EF3
:10128000002806DA00F00F0000F1E02080F8141DBD
:10129000704700F1E02080F80014704770470109A2
:1012A00001EB810100F00F0000EB4100C0B270477C
:1012B000002102E00A38C0B2491C0A28FAD2090704
:1012C00040EA11607047000070B504460068C168CC
:1012D000490614D44FF0FF31C160FFF77FF805468F
:1012E0004FF47A7607E000BFFFF778F8401BB04272
:1012F00001D9032070BD2068C0684006F4D50020E5
:1013000070BD704710B5FFF76FF8BDE81040FFF7EC
:1013100083BE000030B52A4897B00025016841F02F
:1013200080510160006800F08050159025480168E8
:1013300041F4804101600068022400F4804015906F
:101340000620009001200290039010200490069443
:101350000820CDE90750A820CDE9090404200B900E
:101360006846FFF7A9FA00B1FEE70CA90F2081E853
:1013700031004FF4A0500F904FF480501090052191
:101380000CA8FFF76DF900B1FEE74FF480701490E0
:10139000119411A8FFF7BCF800B1FEE7FFF71EFAA1
:1013A0004FF47A71B0FBF1F0FFF722FE0420FFF753
:1013B00012FE00221146501EFFF778F817B030BD1C
:1013C00040380240007000401048016841F470014C
:1013D00001600F48016841F0010101600C4A0021E1
:1013E0000832116002680B4B1A400260031D0A4A62
:1013F0001A60026822F48022026005480C30016005
:1014000002495806803908607047000088ED00E006
:1014100000380240FFFFF6FE103000242DE9F041B5
:1014200004460068016921F44052E16811430161FA
:101430002168C86849F20C6290432369A268E56993
:101440001A4363692B431A430243CA6021684869FF
:1014500020F44072A06910434861E1696425B1F548
:10146000004F9748974A21684FF032083FD0914289
:1014700001D081427CD1FFF7CFF900EBC00101EB35
:10148000001061688900B0FBF1F6FFF7C5F900EBC9
:10149000C00101EB001061688900B0FBF1F0B0FB06
:1014A000F5F06FF01801484306EB800108EB0110DE
:1014B000B0FBF5F000F0F006FFF7AEF900EBC0016D
:1014C00001EB001061688900B0FBF1F0B0FBF5F0B2
:1014D00006EB0016FFF7A0F900EBC00101EB0010CE
:1014E00061688900B0FBF1F7FFF796F9D2E091420D
:1014F00001D081423DD1FFF78FF900EBC00101EB34
:10150000001061684900B0FBF1F0B0FBF5F0060196
:10151000FFF782F900EBC00101EB001061684900A0
:10152000B0FBF1F7FFF778F900EBC00101EB001019
:1015300061684900B0FBF1F0B0FBF5F06FF0180105
:10154000484307EB800108EBC100B0FBF5F000F069
:10155000F80006EB4006FFF75FF900EBC00101EB76
:10156000001061684900B0FBF1F7FFF755F93CE066
:1015700055E0FFF739F900EBC00101EB001061689D
:101580004900B0FBF1F0B0FBF5F00601FFF72CF9D4
:1015900000EBC00101EB001061684900B0FBF1F7FE
:1015A000FFF722F900EBC00101EB00106168490070
:1015B000B0FBF1F0B0FBF5F06FF01801484307EB1A
:1015C000800108EBC100B0FBF5F000F0F80006EB7D
:1015D0004006FFF709F900EBC00101EB001061685C
:1015E0004900B0FBF1F7FFF7FFF800EBC00101EB9A
:1015F000001061684900B0FBF1F0B0FBF5F06FF04E
:101600001801484307EB800108EBC100B0FBF5F07F
:1016100000F00700216830448860BDE8F081FFF7E2
:10162000E3F800EBC00101EB001061688900B0FB3A
:10163000F1F6FFF7D9F800EBC00101EB001061688B
:101640008900B0FBF1F0B0FBF5F06FF018014843F2
:1016500006EB800108EB0110B0FBF5F000F0F0069E
:10166000FFF7C2F800EBC00101EB001061688900D0
:10167000B0FBF1F0B0FBF5F006EB0016FFF7B4F8A5
:1016800000EBC00101EB001061688900B0FBF1F7CD
:10169000FFF7AAF800EBC00101EB001061688900B8
:1016A000B0FBF1F0B0FBF5F06FF01801484307EB29
:1016B000800108EB0110B0FBF5F000F00F00A9E786
:1016C00000140140001001402DE9F04198461746F2
:1016D0000E460446069D1DE0681C1BD02DB1FEF78A
:1016E0007DFEA0EB0800A84214D92068C16821F44F
:1016F000D071C1602068416921F001014161202061
:1017000084F8390084F83A00002084F83800032077
:10171000BDE8F0812068006836EA000004D00020AF
:10172000B842D9D00020F3E70120F9E7FEE7000036
:101730000FB4054B10B503A9044A029800F018F83D
:1017400010BC5DF814FB0000B51A00080C00002066
:1017500002E008C8121F08C1002AFAD1704770477A
:10176000002001E001C1121F002AFBD170470000D8
:101770002DE9FF4F8BB088460546002606E0252858
:101780000BD0DDE90D1290476D1C761C28780028DF
:10179000F5D10FB03046BDE8F08F0024A146A24637
:1017A0000122AE4900E0044315F8013F203B02FA54
:1017B00003F00842F7D128782A2810D06FF02F02C2
:1017C0002878A0F13001092915D809EB890102EB2D
:1017D000410144F0020400EB01096D1CF0E758F8E8
:1017E000041B5FEA010903D544F40054C9F1000960
:1017F00044F002046D1C28782E2817D115F8010F2B
:1018000044F004042A280ED06FF02F022878A0F1AB
:10181000300109290AD80AEB8A0102EB410100EBE9
:10182000010A6D1CF2E758F804AB6D1C28786C288F
:101830000FD006DC4C2817D068280DD06A2814D1A8
:1018400004E0742810D07A280FD10DE044F400147D
:101850000AE044F4801401E044F4401469788142C1
:1018600002D104F580146D1C6D1C2878692865D0A0
:1018700006DC00288DD0632827D0642806D15DE0DF
:101880006E2808D073282AD0752877D0DDE90D128C
:101890009047761CE0E0C4F30250022809D00328E8
:1018A0000DD0D8F8001004280DD00E6008F10408FF
:1018B000D2E0D8F80010F217C1E90062F6E7D8F8D4
:1018C00000100E80F2E70E70F0E718F8041B8DF898
:1018D000001000208DF80100EB46012003E058F8CD
:1018E00004BB4FF0FF3061074FF0000701D40AE05E
:1018F0007F1C57450DDA8742FADB1BF807100029D9
:10190000F6D106E07F1C8742FCDB1BF8071000299C
:10191000F8D1DDE90D23A9EB07008146214600F04F
:10192000B1F83044C61904E0DDE90D121BF8010BD3
:1019300090477F1EF8D22146484688E058F8040BAD
:10194000C4F302514FF00A0B032900D100B204295D
:1019500000D140B2002802DA40422D2102E02105E8
:1019600005D52B218DF82410012104E006E0E107C4
:1019700010D02021F6E708AF089113E058F8040BC7
:10198000C4F302514FF00A0B032900D180B204299D
:1019900000D1C0B20021EEE75946FEF711FC30310C
:1019A00007F8011D0028F7D1ADEB070000F1200B6F
:1019B000600702D524F4803401E04FF0010ADA45D3
:1019C00002DDAAEB0B0000E00020824600EB0B01D9
:1019D00008980144A9EB01000A90E00306D4DDE970
:1019E0000D2321460A9800F04DF806444FF00009F7
:1019F00008E009A911F80900DDE90D12904709F185
:101A00000109761C08998945F3DBE0030CD5DDE973
:101A10000D2321460A9800F035F8064404E0DDE97C
:101A20000D1230209047761CBAF10001AAF1010A8C
:101A3000F5DC05E0DDE90D1217F8010B9047761C87
:101A4000BBF10001ABF1010BF4DC0A982146DDE9A2
:101A50000D2300F005F806446D1C97E609280100E7
:101A60002DE9F041044600251E461746880404D49B
:101A700005E039462020B0476D1C641EF9D5284684
:101A8000BDE8F0812DE9F041044600251E46904650
:101A9000C80301D5302700E02027880404D505E0DD
:101AA00041463846B0476D1C641EF9D52846BDE84E
:101AB000F081000013B54FF6FF730122694602481A
:101AC000FFF706FB00981CBD10000020FEF794FCF9
:101AD000FFF720FCFFF75AFBFFF7B2FBFFF76CFBA9
:101AE000114D124C4FF47A7600220F491048FFF73F
:101AF000F1F800220D490E48FFF7CAF8E178A37803
:101B000062780CA001F5FA61FFF712FEAB786A78F3
:101B100029780DA0FFF70CFE10A0FFF709FE304654
:101B2000FEF779FBE0E700005000002008000020ED
:101B300064000020253032642F253032642F253098
:101B400032640D0A00000000253032643A2530323C
:101B5000643A253032640D0A000000000D0A0000CE
:101B60000000000001020304010203040607080943
:101B7000901B000800000020100000005017000813
:101B8000A01B000810000020780400006017000867
:101B90000024F4000000000000000000000000002D
:040000050800018965
:00000001FF
