:020000040800F2
:10000000981400209D0100088B1200089B11000825
:100010008912000833050008C5160008000000001A
:10002000000000000000000000000000AF12000807
:100030003505000800000000AD120008B1120008EC
:10004000B7010008B7010008B7010008B7010008B0
:10005000B7010008B7010008B7010008B7010008A0
:10006000B7010008B7010008B7010008B701000890
:10007000B7010008B7010008B7010008B701000880
:10008000B7010008B7010008B7010008B701000870
:10009000B7010008B7010008B7010008B701000860
:1000A000B7010008B7010008B7010008B701000850
:1000B000B7010008B7010008B7010008B701000840
:1000C000B7010008B7010008B7010008B701000830
:1000D000B7010008B7010008B7010008B701000820
:1000E000B7010008B7010008B7010008B701000810
:1000F000B7010008B7010008B7010008B701000800
:10010000B7010008B7010008B7010008B7010008EF
:10011000B7010008B7010008B7010008B7010008DF
:10012000B7010008B7010008B7010008B7010008CF
:10013000B7010008B7010008B7010008B7010008BF
:10014000B7010008B7010008B7010008B7010008AF
:10015000B7010008B7010008B7010008B70100089F
:10016000B7010008B7010008B7010008B70100088F
:10017000B7010008B7010008B7010008000000003F
:10018000B7010008B7010008DFF80CD000F056F8FE
:1001900000480047851B0008981400200648804747
:1001A00006480047FEE7FEE7FEE7FEE7FEE7FEE75C
:1001B000FEE7FEE7FEE7FEE761130008890100089D
:1001C00030B504460020034600E05B1C934203D296
:1001D000E05CCD5C401BF8D030BD2DE9F05F0546FA
:1001E000002092469B4688460646814640241BE0F6
:1001F000284641464746224600F041F853465A46B3
:10020000C01A914110D311461846224600F028F832
:100210002D1A67EB01084F4622460120002100F00D
:100220001FF817EB00094E41201EA4F10104DFDC8A
:10023000484631462A464346BDE8F09F064C074DE6
:1002400006E0E06840F0010394E8070098471034A6
:10025000AC42F6D3FFF79CFFA81F0008C81F000898
:10026000202A04DB203A00FA02F100207047914076
:10027000C2F1200320FA03F3194390407047202A6B
:1002800004DB203A21FA02F00021704721FA02F340
:10029000D040C2F120029140084319467047000047
:1002A0002DE9F041044690F8200001282BD00122CE
:1002B00084F8202094F82100022825D060681028B6
:1002C00024D0D007022384F821300D888E88E36A79
:1002D000498806FB0355666B714301FB035140F4EB
:1002E000003360251D7040F480300170090A0170F0
:1002F000D020187084F8212000F088FA05460026E6
:100300004FF080770FE00220BDE8F0814FF0E04031
:10031000D8E700BF00F07AFA401BB84203D984F84E
:1003200020600320F0E7204600F05EFB4028F1D17A
:1003300084F820600020E7E700F024BB2DE9F04FAF
:100340008BB0044600209146019094F820209A46F4
:100350000746012A22D0012284F8202094F8212087
:10036000022A1BD06268102A1CD04FF000460222DD
:1003700084F821208A88ADF81C200A88ADF818205E
:100380004988ADF81A10BAF1000F46D08346000A2A
:1003900046F4003846F48035039006E002200BB0A6
:1003A000BDE8F08F4FF0E046E1E7BDF81810BDF86A
:1003B0001C20E06A636B02FB0012BDF81A1059435F
:1003C00001FB0020616A002201FB071188F8002070
:1003D00085F800B0039A2A702870000A287030202F
:1003E00088F800000220401C1428FCD3019805E086
:1003F000327809F8012B0198401C01908842F7D30C
:10040000AAF1010A06A920467F1C00F067FABAF19A
:10041000000F02D0B0F5807FC7D0012084F8210002
:10042000002084F82000BAE72DE9FF4F8BB0044686
:1004300000201746019094F820208046012A21D000
:10044000012284F8202094F82120022A1AD0626820
:10045000102A1BD04FF00046022284F821208A88FF
:10046000ADF81C200A88ADF818204988ADF81A109C
:100470000E99C9B382464FEA102B46F4003946F470
:10048000803506E002200FB0BDE8F08F4FF0E04667
:10049000E2E7BDF81810BDF81C20E06A636B02FBB0
:1004A0000012BDF81A10594301FB0020616A802236
:1004B00001FB08114B4689F8002085F800A085F85B
:1004C00000B02870000A2870019805E017F8010BA9
:1004D00030700198401C01908842F7D310211970A8
:1004E00000F094F905900AE01CE000BF00F08EF9DE
:1004F0000599401AB0F1807F01D90320C3E7204657
:1005000000F072FA4028F1D10E9808F10108401E5F
:100510000E9006A9204600F0E1F90E9911B1B0F550
:10052000807FB6D0012084F82100002084F82000CC
:10053000A9E7FEE77047FEE7102A10D0D0F82C207C
:10054000D1E9002342EA03220B89097B4FEA0343E6
:1005500043EA016142EA010203D1C26002E0C268DB
:10056000EEE7C2624FF0000070470000102A10D082
:10057000D0F82820D1E9002342EA03220B89097B25
:100580004FEA034343EA016142EA010203D1826078
:1005900002E08268EEE782624FF0000070470000E0
:1005A00030B50A68102A1AD0026A104B02EA030218
:1005B000D1E9013443EA0403D1E9034544EA0504DF
:1005C00043EA04034C69896943EA442343EA41311D
:1005D00041EA020141F0080103D1016002E0026832
:1005E000E3E701624FF0000030BD00008101F0FF41
:1005F000F0B5164887B00168002924D101210160B7
:1006000013480024016841F00101016000680225DF
:1006100000F0010005904FF4F060CDE9000502AA5A
:1006200003260C2782E8D00069460A4800F016F835
:100630004DF6F300CDE9000502AA694682E8D00034
:10064000054800F00BF807B0F0BD000008000020DE
:100650003838024000100240000C02402DE9F84FEB
:10066000DFF87CB100224FF001084FF0030A4FF091
:100670000F090BF1040E00BF0B6808FA02F42340C7
:10068000A3426ED14D68022D01D0122D0ED1D50896
:1006900000EB850CDCF820505607F70E09FA07F638
:1006A000B5430E69BE402E43CCF820600668550065
:1006B0000F790AFA05FC07F0030726EA0C06AF409B
:1006C000374307604E68012E05D0022E03D0112E4D
:1006D00001D0122E0ED18668CF6826EA0C06AF40F4
:1006E000374387604668A6430C79C4F300149440EE
:1006F00034434460C6688C6826EA0C06AC40344338
:10070000C4604C68E40065D5364C256845F48045E6
:100710002560246822F0030504F480440094324CE0
:100720002E19D6F8084895072F0F09FA07F5AC439C
:100730002E4DA84201D1002524E02D4DA84201D123
:1007400001251FE02B4DA84201D102251AE02A4DB8
:10075000A84201D1032515E0284DA84202D1042565
:1007600010E037E0264DA84201D105250AE0254DCD
:10077000A84201D1062505E0234DA84201D1072555
:1007800000E00825BD402543C6F80858DBF80040C6
:100790005D464E689C43F60300D51C432C60DEF892
:1007A000004075464E689C43B60300D51C432C6040
:1007B0000B4D08352C684E689C43F60200D51C434F
:1007C0002C60074D0C352C684E689C43B60200D552
:1007D0001C432C60521C102AFFF44EAFBDE8F88F6A
:1007E000003C01404438024000300140000002401B
:1007F0000004024000080240000C024000100240C9
:100800000014024000180240001C02400148006829
:10081000704700000000002002480168491C016088
:1008200070470000000000200B4810B5016841F43B
:1008300000710160016841F480610160016841F468
:1008400080710160032000F007F9002000F006F835
:1008500000F018F8002010BD003C024010B504461E
:1008600007484FF47A710068B0FBF1F000F0C9FB63
:1008700000222146501E00F0CFF8002010BD0000DD
:100880000400002010B5032000F0E6F80022114615
:100890006FF00B0000F0C0F8002211466FF00A0064
:1008A00000F0BAF8002211466FF0090000F0B4F829
:1008B00000221146501F00F0AFF800221146101F11
:1008C00000F0AAF800221146901E00F0A5F80022C0
:1008D000BDE810401146501E00F09EB830B50B88A0
:1008E0004FF480725B1C9BB20B80C46AA34214D18C
:1008F00000230B808C88641CA4B28C80456BAC42B6
:100900000BD18B804B885B1C9BB24B80416B006B87
:10091000B1FBF0F0984200D15200104630BD70B5E6
:1009200015460E46040003D094F8210010B107E0EC
:10093000012070BD002084F82000204600F020F83F
:10094000211D2068FFF72CFED4E900023146FFF795
:100950000DFED4E900022946FFF7EEFD606810287D
:10096000206808D0016A41F004010162012084F886
:100970002100002070BD016841F004010160F5E72D
:10098000FFF736BE78B50023009390F82020012AA7
:1009900025D0012480F8204090F82120022A1ED082
:1009A0004268102A1DD0E207022500F8215F42F4B8
:1009B00000369025357042F480352B701268009215
:1009C0000A70009A120A4A70009A120C8A70009AF1
:1009D000120ECA7000F801490370002078BD022091
:1009E00078BD4FF0E042DFE7406810280AD04FF0B2
:1009F000004040F40032702111700078C10704D02B
:100A0000012070474FF0E040F3E7400601D5402059
:100A10007047002070470000F0B40E4B1B680C4676
:100A2000C3F30223C3F10705042D00D90425191DC2
:100A3000072901D2002300E0DB1E012606FA05F19A
:100A4000491E214099409E40761E16403143F0BC1D
:100A500000F01CBC0CED00E0064900F0070208683D
:100A60004FF6FF03184040EA0220034A1043086093
:100A7000704700000CED00E00000FA052DE9F0479A
:100A8000DFF8649105460F46D9F8000000F00F0129
:100A9000F8B28046B94208D2014689F80010D9F868
:100AA000000000F00F00B84274D128784F4C800746
:100AB00005D52068A96820F0F00008432060287858
:100AC000C00759D049496868083901281AD0022856
:100AD0001BD0032819D00968890700295ADA216830
:100AE00021F0030101432160FFF790FE696806468B
:100AF00041F28830012911D002291DD003298246F4
:100B000027D035E009688903E7E709688901E4E748
:100B1000FFF77CFE811B514501D926E08246206803
:100B2000C0F381000128F3D126E000BFFFF76EFE7D
:100B3000811B514501D918E082462068C0F381002D
:100B40000228F3D118E000BFFFF760FE811B51457A
:100B50000BD82068C0F381000328F5D10CE000BF5A
:100B6000FFF754FE811B514502D90320BDE8F087F1
:100B7000206810F00C0FF3D1D9F80010484601F0AE
:100B80000F01B94208D980F80080006800F00F001A
:100B9000B84201D00120E9E72878400705D5206850
:100BA000E96820F4E050084320602878000706D563
:100BB0002068296920F4604040EAC100206000F00C
:100BC00051F82168F02292FAA2F201F0F001B2FA93
:100BD00082F2D140064A515CC840064908600020B4
:100BE000FFF73CFE0020C1E7003C0240083802400D
:100BF000A81D00080400002001480068704700009C
:100C00000400002008480949006809684FF4E052D0
:100C100092FAA2F201F4E051B2FA82F2D140044A0F
:100C2000515CC840704700000400002008380240B2
:100C3000A81D000808480949006809684FF4604287
:100C400092FAA2F201F46041B2FA82F2D140044A6F
:100C5000515CC84070470000040000200838024082
:100C6000A81D000830B51948006810F00C0118489C
:100C700012D0441004290ED008290DD11349091FA0
:100C80000A6802F03F030A68550247F6C07204D5AD
:100C9000B4FBF3F003E0204630BDB0FBF3F00B688B
:100CA0000968134092FAA2F2B2FA82F2D340584392
:100CB0004FF4403292FAA2F201F44031B2FA82F2D9
:100CC000D140491C4900B0FBF1F030BD083802406A
:100CD0000024F4002DE9F84F0546DFF8FC92007877
:100CE000A9F1040BC007ABF1040449D0D9F80010F6
:100CF0004846C1F38101012908D00068C0F3810092
:100D000002280AD1DBF80000400206D520688003E3
:100D100036D5686800286ED032E06868B0F5803F4C
:100D200010D0B0F5A02F206810D020F480302060C3
:100D3000206820F4802020606868A0B1FFF766FD7D
:100D400006460CE0206840F48030F4E740F4802050
:100D50002060F7E7FFF75AFD801B642871D82068F0
:100D60008003F7D50CE0FFF751FD064605E000BF14
:100D7000FFF74CFD801B6428F0D820688003F7D46F
:100D80002878964F80074FF0010A4FF0000841D5B0
:100D9000D9F80010484611F00C0F08D00068C0F3D5
:100DA000810002280AD1DBF80000400206D4206846
:100DB000800713D5E86801281DD10FE0E868D8B195
:100DC000C7F800A0FFF722FD064604E0FFF71EFD6E
:100DD000801B0228C2D820688007F7D52068F82237
:100DE00092FAA2F22969B2FA82F220F0F800914058
:100DF000084320600EE0ECE0C7F80080FFF706FD36
:100E0000064604E0FFF702FD801B022819D820687F
:100E10008007F7D42878000724D57148696989B11B
:100E2000C0F800A0FFF7F2FC064604E0FFF7EEFC76
:100E3000801B022805D868486C3000688007F5D50B
:100E400010E07AE0C0F80080FFF7E0FC064604E01E
:100E5000FFF7DCFC801B02286FD85F486C3000680D
:100E60008007F5D42878400753D55B4838300168AF
:100E700041F080510160006800F0805000905948B6
:100E8000016841F480710160FFF7C0FC064604E090
:100E9000FFF7BCFC801B02284FD852480068C005F1
:100EA000F6D54D4EA868683601280FD00528306861
:100EB00010D020F001003060306820F00400306075
:100EC000A868B8B1FFF7A2FC00900FE0306840F0CE
:100ED0000100F4E740F004003060F7E7FFF796FC0C
:100EE0000099411A41F2883081426AD830688007FF
:100EF000F4D50EE0FFF78AFC009007E0FFF786FCD0
:100F00000099411A41F2883081425AD830688007EE
:100F1000F4D4A869E8B3D9F80010C1F3810102291B
:100F200057D00228C7F8608003D0FFF76FFC054652
:100F30004AE0FFF76BFC064605E042E0FFF766FC7F
:100F4000801B02283DD820688001F7D4D5E907012D
:100F5000084347F6C07292FAA2F2696AB2FA82F2C4
:100F60009140AA6A4FF0FF3303EB52024FF4403333
:100F700093FAA3F3B3FA83F39A40114308434FF073
:100F8000706292FAA2F2E96AB2FA82F291400843E0
:100F900000E01CE0CBF80000C7F860A0FFF736FCCB
:100FA000054604E0FFF732FC401B022809D8206800
:100FB0008001F7D50BE000BFFFF728FC401B02289B
:100FC00002D90320BDE8F88F20688001F4D4002006
:100FD000F8E70120F6E70000083802400000474229
:100FE000800E4742007000404FF0E021042808695D
:100FF00003D020F004000861704740F00400FAE7D5
:10100000704710B5401EB0F1807F01D3012010BDA4
:101010004FF0E02460610F21601700F037F90020E5
:10102000A06107202061002010BD10B5FFF7E8FF88
:1010300010BD70B5040004D094F83900002510B13B
:1010400006E0012070BD84F83850204600F022F8F8
:10105000242084F839002068C16821F40051C1605F
:10106000204600F0A7F92068016921F49041016150
:101070002068416921F02A0141612068C16841F47A
:101080000051C160E563202084F8390084F83A00FB
:10109000002070BD00B500680E4987B0884217D1A6
:1010A0000D48016841F4802101600068694600F440
:1010B000802005904FF440600090022001900120B4
:1010C000029003200390072004900448FFF7C6FA1B
:1010D00007B000BD00480040403802400008024010
:1010E0002DE9F843044690F839001F4616460D4690
:1010F000202850D1A5B19EB194F8380001284AD0DB
:10110000012084F838004FF00008C4F83C8021200A
:1011100084F83900FFF77AFBA6848146E68426E04E
:101120000120BDE8F883E08C401EE084A0684B46B7
:10113000B0F5805F4FF000024FF08001204600972D
:1011400003D000F08DFAE8B90DE000F089FAC8B9D3
:1011500028882168C0F308004860206908B16D1C28
:1011600005E0AD1C03E0216815F8010B4860E08C38
:101170000028D8D14B46002240212046009700F09D
:101180006FFA08B10320CCE7202084F8390084F8F6
:1011900038800020C5E70220C3E7FEE710B51848F5
:1011A00088B01649016010210222C0E9011200F145
:1011B0000C0C002140234FF4C0248CE81A008161FC
:1011C0009402C161C0E90943C362530203634363EC
:1011D00003200123CDE90012CDE902030491079316
:1011E000CDE9052004AA69460548FFF798FB0028C9
:1011F00001D0FFF7A0F908B010BD0000600000A00A
:1012000060000020114808B5016841F080010160CC
:10121000016801F080010091016841F01001016056
:10122000016801F010010091016841F008010160BE
:10123000016801F008010091016841F004010160BA
:10124000006800F00400009008BD00003038024043
:101250000C4810B50A4901604FF4E13141600021AA
:1012600081600C22C160C0E904128161C161FFF795
:10127000E0FE002803D0BDE81040FFF75CB910BDC8
:101280000048004020000020FEE770470907090ED3
:10129000002806DA00F00F0000F1E02080F8141DAD
:1012A000704700F1E02080F80014704770477047E5
:1012B00010B5FFF7B1FABDE81040FFF7B6BE000069
:1012C00030B5254893B00025016841F08051016098
:1012D000006800F0805011902048016841F480417E
:1012E00001600068022400F4804011900120039006
:1012F00010200490009406940820CDE90750A820FF
:10130000CDE9090404200B906846FFF7E3FC00B127
:10131000FEE70CA90F2081E831004FF4A0500F9098
:101320004FF48050109005210CA8FFF7A7FB00B1E7
:10133000FEE7FFF761FC4FF47A71B0FBF1F0FFF7C5
:1013400060FE0420FFF750FE00221146501EFFF7FA
:1013500063FB13B030BD0000403802400070004015
:101360001048016841F4700101600F48016841F0C4
:10137000010101600C4A00210832116002680B4B28
:101380001A400260031D0A4A1A60026822F4802291
:10139000026005480C300160024958068039086037
:1013A0007047000088ED00E000380240FFFFF6FEC5
:1013B000103000242DE9F04104460068016921F451
:1013C0004052E168114301612168C86849F20C622A
:1013D00090432369A268E5691A4363692B431A4362
:1013E0000243CA602168486920F44072A069104332
:1013F0004861E1696425B1F5004F9748974A216833
:101400004FF032083FD0914201D081427CD1FFF7AA
:1014100011FC00EBC00101EB001061688900B0FB1A
:10142000F1F6FFF707FC00EBC00101EB001061686B
:101430008900B0FBF1F0B0FBF5F06FF01801484304
:1014400006EB800108EB0110B0FBF5F000F0F006B0
:10145000FFF7F0FB00EBC00101EB001061688900B1
:10146000B0FBF1F0B0FBF5F006EB0016FFF7E2FB86
:1014700000EBC00101EB001061688900B0FBF1F7DF
:10148000FFF7D8FBD2E0914201D081423DD1FFF776
:10149000D1FB00EBC00101EB001061684900B0FB1B
:1014A000F1F0B0FBF5F00601FFF7C4FB00EBC00163
:1014B00001EB001061684900B0FBF1F7FFF7BAFBE0
:1014C00000EBC00101EB001061684900B0FBF1F0D6
:1014D000B0FBF5F06FF01801484307EB800108EB13
:1014E000C100B0FBF5F000F0F80006EB4006FFF796
:1014F000A1FB00EBC00101EB001061684900B0FBEB
:10150000F1F7FFF797FB3CE055E0FFF77BFB00EBC3
:10151000C00101EB001061684900B0FBF1F0B0FBC5
:10152000F5F00601FFF76EFB00EBC00101EB0010C8
:1015300061684900B0FBF1F7FFF764FB00EBC00105
:1015400001EB001061684900B0FBF1F0B0FBF5F071
:101550006FF01801484307EB800108EBC100B0FBB6
:10156000F5F000F0F80006EB4006FFF74BFB00EB50
:10157000C00101EB001061684900B0FBF1F7FFF713
:1015800041FB00EBC00101EB001061684900B0FBBA
:10159000F1F0B0FBF5F06FF01801484307EB800164
:1015A00008EBC100B0FBF5F000F007002168304403
:1015B0008860BDE8F081FFF725FB00EBC00101EB7F
:1015C000001061688900B0FBF1F6FFF71BFB00EB30
:1015D000C00101EB001061688900B0FBF1F0B0FBC5
:1015E000F5F06FF01801484306EB800108EB01109D
:1015F000B0FBF5F000F0F006FFF704FB00EBC001D4
:1016000001EB001061688900B0FBF1F0B0FBF5F070
:1016100006EB0016FFF7F6FA00EBC00101EB001035
:1016200061688900B0FBF1F7FFF7ECFA00EBC0014D
:1016300001EB001061688900B0FBF1F0B0FBF5F040
:101640006FF01801484307EB800108EB0110B0FB75
:10165000F5F000F00F00A9E7001401400010014070
:101660002DE9F041984617460E460446069D1DE0BA
:10167000681C1BD02DB1FFF7C9F8A0EB0800A842E9
:1016800014D92068C16821F4D071C1602068416913
:1016900021F001014161202084F8390084F83A00EA
:1016A000002084F838000320BDE8F081206800683D
:1016B00036EA000004D00020B842D9D00020F3E779
:1016C0000120F9E7FEE700000FB4054B10B503A9B0
:1016D000044A029800F018F810BC5DF814FB0000F2
:1016E0006D1B00081C00002002E008C8121F08C182
:1016F000002AFAD170477047002001E001C1121F93
:10170000002AFBD1704700002DE9FF4F8DB00F4636
:101710000546002606E025280BD0DDE90F1290478C
:101720006D1C761C28780028F5D111B03046BDE834
:10173000F08F0024A246A1460122EC4900E00443B8
:1017400015F8013F203B02FA03F00842F7D1287850
:101750002A2810D06FF02F022878A0F13001092933
:1017600014D80AEB8A0102EB410144F0020400EBB9
:10177000010A6D1CF0E701CF5FEA000A03D544F4CB
:101780000054CAF1000A44F002046D1C28782E2887
:1017900017D115F8010F44F004042A280ED06FF079
:1017A0002F022878A0F1300109290AD809EB890114
:1017B00002EB410100EB01096D1CF2E757F8049BB5
:1017C0006D1C28786C280FD006DC4C2817D06828B0
:1017D0000DD06A2814D104E0742810D07A280FD1D3
:1017E0000DE044F400140AE044F4801401E044F4F1
:1017F00040146978814202D104F580146D1C6D1C7F
:101800002A786E2A1FD00CDC632A31D004DC002A2F
:101810008BD0582A11D1A3E0642A68D0692A0CD150
:1018200065E0732A2ED004DC6F2A73D0702A04D1AD
:101830009BE0752A6FD0782A6ED01046DDE90F1232
:101840009047761C50E1C4F30250022806D00328CA
:1018500009D0042801CF09D0066045E101CFF11776
:10186000C0E9006140E101CF06803DE106703BE147
:1018700017F8040B8DF8000000208DF80100EB46EE
:10188000012003E057F804BB4FF0FF3061074FF031
:10189000000102D40DE008F10101884649450FDA44
:1018A0008045F8DB1BF808100029F4D108E008F1A6
:1018B000010188468142FADB1BF808100029F6D1A5
:1018C000DDE90F23AAEB08008146214600F036F936
:1018D000304400EB080604E0DDE90F121BF8010BB1
:1018E0009047B8F10108F7D221464846F7E00A21AF
:1018F000C4F302534FF0000B0891022B04D001CF28
:10190000C117032B09D00AE0FF1D27F00707F7E8EE
:10191000020108E032E01FE020E000B2C117042B12
:1019200001D140B2C117031E71F1000307DA4FF075
:10193000000CD0EB0C006CEB01012D2302E0230521
:1019400004D52B238DF82430012303E0E30701D0D5
:101950002023F7E7984658E00A2110E010210EE016
:1019600010204FF0000B08900CE010214FF0000BFE
:1019700044F004044FF00809089103E008214FF0F7
:10198000000B0891C4F30253022B04D001CF0021B5
:10199000032B06D006E0FF1D27F00707F7E802013A
:1019A00003E080B2042B00D1C0B24FF0000823073F
:1019B0002BD5702A07D0DDF820C08CF0100C5CEA23
:1019C0000B0C05D00EE040238DF82430012308E0F5
:1019D00050EA010306D030238DF824308DF82520FD
:1019E00002239846DDF820C08CF0080C5CEA0B0C52
:1019F0000BD150EA010301D1630706D530238DF8DE
:101A000024304FF00108A9F10109582A04D038A266
:101A10000B9208AA0A920BE03AA2F9E75B46089AF1
:101A2000FEF7DBFB0B9B9B5C0A9A521E0A9213701B
:101A300050EA0102F2D10A98ADEB000000F1200B50
:101A4000600702D524F4803401E04FF00109D94544
:101A500002DDA9EB0B0000E0002000EB0B0141448C
:101A60000890AAEB010AE00306D4DDE90F23214622
:101A7000504600F063F806444FF0000908E009A959
:101A800011F80900DDE90F12904709F10109761CF0
:101A9000C145F4DBE0030CD5DDE90F2321465046B8
:101AA00000F04CF8064404E0DDE90F1230209047C6
:101AB000761C0899481E08900029F5DC08E00A9871
:101AC0000A990078491C0A91DDE90F129047761CAB
:101AD000BBF10001ABF1010BF1DC21465046DDE921
:101AE0000F2300F019F806446D1C1BE609280100BD
:101AF0003031323334353637383961626364656684
:101B00000000000030313233343536373839414245
:101B100043444546000000002DE9F04104460025FD
:101B20001E461746880404D405E039462020B047F5
:101B30006D1C641EF9D52846BDE8F0812DE9F04101
:101B4000044600251E469046C80301D5302700E014
:101B50002027880404D505E041463846B0476D1C6F
:101B6000641EF9D52846BDE8F081000013B54FF694
:101B7000FF73012269460248FFF7B2FA00981CBDC4
:101B80002000002008B5FEF74FFEFFF799FBFFF796
:101B900039FBFFF75DFBFFF701FB3AA0FFF794FD70
:101BA0004148FFF791FD41494148FEF7C5FB3F4CD5
:101BB000E0780090A378627821783EA0FFF784FD5A
:101BC0002068E17800BA20F0FF000843424940183D
:101BD0003AD04249401806D0B0F5FF4F01D040A09E
:101BE00002E043A000E047A0FFF76EFD2F48002170
:101BF000001D4180012181800221018001462C4885
:101C0000FEF74EFB464A00204FF4006541080B0AE0
:101C100013541318801C5970A842F7D32349012389
:101C20003F4A091D2248FEF7FFFB204901233D4A98
:101C3000091D1F48FEF782FB3BA0FFF745FD394E0B
:101C40000024200702D004E03BA0CDE727A0FFF747
:101C50003BFD315DE00710D03DA000BFFFF734FD34
:101C6000641CAC42EDD32A462E492D48FEF7A8FA53
:101C700028B139A0FFF728FDFEE740A0EEE741A01C
:101C8000F8E700002A2A2A2A2A204E616E64466C50
:101C9000617368204578616D706C65202A2A2A2A54
:101CA0002A2A0D0A00000000B81D000810000020BC
:101CB000600000204E616E6420466C6173682049AC
:101CC000443A203078253032582530325825303289
:101CD00058253032580D0A00E37F0E52887F00C12C
:101CE000547970653A20556E6B6E6F770D0A00005F
:101CF000547970653A204B39463147303855304178
:101D00000D0A0000547970653A204B39463147304E
:101D1000385530422F432F442F450D0A0000000054
:101D2000980000209808002042756666657273204E
:101D3000726561643A200000547970653A20485910
:101D4000323755463038314732410D0A0000000025
:101D500025303258200000000D0A0D0A204E616E19
:101D600064466C61736820526561642057726974BF
:101D7000652046616C73650D0A00000025303258FD
:101D8000000000000D0A0D0A204E616E64466C6171
:101D900073682052656164205772697465205465C8
:101DA0007374204F4B0D0A00000000000102030471
:101DB000010203040607080954686520434C4520C6
:101DC000616E6420414C452070696E73206F6E20F7
:101DD00074686520646576656C6F706D656E7420DF
:101DE000626F617264206172652041313720616EDB
:101DF0006420413136206275742074686520646502
:101E00006661756C7420636F64652067656E6572CA
:101E1000617465642062792053544D333243756296
:101E2000654D5820757365732041313620666F7299
:101E300020434C4520616E642041313720666F722B
:101E400020414C452E536F206966207468652073CD
:101E50006F7572636520636F6465206973206765C1
:101E60006E6572617465642062792053544D33321B
:101E7000437562654D5820616761696E2C20796FEA
:101E8000752073686F756C64206D616E75616C6C24
:101E9000792065646974207468652073746D3332C9
:101EA000663478785F68616C5F6E616E642E68205E
:101EB00066696C6520616E64206D6F646966793A4D
:101EC00023646566696E6520434D445F4152454118
:101ED0002020202020202020202020202020202002
:101EE000202020282875696E7433325F74292831C8
:101EF000553C3C313655292923646566696E652059
:101F0000414444525F41524541202020202020205E
:101F10002020202020202020202020282875696EC5
:101F20007433325F74292831553C3C3137552929A7
:101F3000746F3A23646566696E6520434D445F4162
:101F40005245412020202020202020202020202019
:101F5000202020202020282875696E7433325F7479
:101F6000292831553C3C3137552929236465666958
:101F70006E6520414444525F41524541202020205B
:101F80002020202020202020202020202020282841
:101F900075696E7433325F74292831553C3C313693
:101FA0005529290D0A000000C81F00080000002064
:101FB00020000000E8160008E81F000820000020AC
:101FC00078140000F8160008000000000024F40057
:101FD0000000000000000000000000000000000001
:081FE0000000000000000000F9
:040000050800018965
:00000001FF
