:020000040800F2
:10000000D00400209D010008A70D00083F0D000846
:10001000A50D0008E5010008A51200080000000079
:10002000000000000000000000000000CB0D0008F0
:10003000E701000800000000C90D0008CD0D000810
:10004000B7010008B7010008B7010008B7010008B0
:10005000B7010008B7010008B7010008B7010008A0
:10006000B7010008B7010008B7010008B701000890
:10007000B7010008B7010008B7010008B701000880
:10008000B7010008B7010008B7010008B701000870
:10009000B7010008B7010008B7010008B701000860
:1000A000B7010008B7010008B7010008B701000850
:1000B000B7010008B7010008B7010008B701000840
:1000C000B7010008B7010008B7010008B701000830
:1000D000B7010008B7010008B7010008991200082D
:1000E000B7010008B7010008B7010008B701000810
:1000F000B7010008B7010008B7010008B701000800
:10010000B7010008B7010008B7010008B7010008EF
:10011000B7010008B7010008B7010008B7010008DF
:10012000B7010008B7010008B7010008B7010008CF
:10013000B7010008B7010008B7010008B7010008BF
:10014000B7010008B7010008B7010008B7010008AF
:10015000B7010008B7010008B7010008B70100089F
:10016000B7010008B7010008B7010008B70100088F
:10017000B7010008B7010008B7010008000000003F
:10018000B7010008B7010008DFF80CD000F018F83C
:1001900000480047C5120008D004002006488047E8
:1001A00006480047FEE7FEE7FEE7FEE7FEE7FEE75C
:1001B000FEE7FEE7FEE7FEE77D0E00088901000886
:1001C000064C074D06E0E06840F0010394E80700A4
:1001D00098471034AC42F6D3FFF7DAFF501300080B
:1001E00070130008FEE77047FEE790F8351002290B
:1001F00003D08021416501207047052180F835102A
:100200000068016821F0010101600020704731B5EC
:1002100000F0E0F8044600F0DDF80099001B884289
:10022000F9D338BD2DE9F84FDFF87CB100224FF04B
:1002300001084FF0030A4FF00F090BF1040E00BF45
:100240000B6808FA02F42340A3426ED14D68022DD8
:1002500001D0122D0ED1D50800EB850CDCF8205012
:100260005607F70E09FA07F6B5430E69BE402E434E
:10027000CCF82060066855000F790AFA05FC07F0F3
:10028000030726EA0C06AF40374307604E68012E8D
:1002900005D0022E03D0112E01D0122E0ED1866869
:1002A000CF6826EA0C06AF40374387604668A6430E
:1002B0000C79C4F30014944034434460C6688C68DD
:1002C00026EA0C06AC403443C4604C68E40065D5B3
:1002D000364C256845F480452560246822F00305E6
:1002E00004F480440094324C2E19D6F8084895073F
:1002F0002F0F09FA07F5AC432E4DA84201D1002576
:1003000024E02D4DA84201D101251FE02B4DA8422C
:1003100001D102251AE02A4DA84201D1032515E09A
:10032000284DA84202D1042510E037E0264DA8420E
:1003300001D105250AE0254DA84201D1062505E099
:10034000234DA84201D1072500E00825BD402543E3
:10035000C6F80858DBF800405D464E689C43F6033B
:1003600000D51C432C60DEF8004075464E689C4367
:10037000B60300D51C432C600B4D08352C684E6825
:100380009C43F60200D51C432C60074D0C352C68AD
:100390004E689C43B60200D51C432C60521C102AA8
:1003A000FFF44EAFBDE8F88F003C014044380240F6
:1003B00000300140000002400004024000080240FA
:1003C000000C0240001002400014024000180240DD
:1003D000001C024001480068704700000000002037
:1003E00002480168491C01607047000000000020BD
:1003F0000B4810B5016841F400710160016841F4D7
:1004000080610160016841F480710160032000F0A7
:1004100075F8002000F006F800F018F8002010BD74
:10042000003C024010B5044607484FF47A7100685A
:10043000B0FBF1F000F037FB00222146501E00F027
:100440003DF8002010BD00007800002010B503200A
:1004500000F054F8002211466FF00B0000F02EF867
:10046000002211466FF00A0000F028F80022114621
:100470006FF0090000F022F800221146501F00F032
:100480001DF800221146101F00F018F80022114636
:10049000901E00F013F80022BDE810401146501ED7
:1004A00000F00CB800F01F020121914040098000CB
:1004B00000F1E020C0F8001170470000F0B40E4BCE
:1004C0001B680C46C3F30223C3F10705042D00D9B2
:1004D0000425191D072901D2002300E0DB1E012697
:1004E00006FA05F1491E214099409E40761E1640AD
:1004F0003143F0BC00F058BC0CED00E0064900F0C0
:10050000070208684FF6FF03184040EA0220034A3A
:1005100010430860704700000CED00E00000FA0591
:100520002DE9F047DFF8649105460F46D9F8000041
:1005300000F00F01F8B28046B94208D2014689F8AE
:100540000010D9F8000000F00F00B84274D12878EC
:100550004F4C800705D52068A96820F0F0000843BB
:1005600020602878C00759D04949686808390128AF
:100570001AD002281BD0032819D00968890700293E
:100580005ADA216821F0030101432160FFF722FFBD
:100590006968064641F28830012911D002291DD030
:1005A0000329824627D035E009688903E7E709680F
:1005B0008901E4E7FFF70EFF811B514501D926E0D1
:1005C00082462068C0F381000128F3D126E000BFF5
:1005D000FFF700FF811B514501D918E082462068D2
:1005E000C0F381000228F3D118E000BFFFF7F2FE4C
:1005F000811B51450BD82068C0F381000328F5D139
:100600000CE000BFFFF7E6FE811B514502D9032035
:10061000BDE8F087206810F00C0FF3D1D9F8001076
:10062000484601F00F01B94208D980F800800068FF
:1006300000F00F00B84201D00120E9E72878400718
:1006400005D52068E96820F4E05008432060287848
:10065000000706D52068296920F4604040EAC100FF
:10066000206000F051F82168F02292FAA2F201F025
:10067000F001B2FA82F2D140064A515CC840064904
:1006800008600020FFF7CEFE0020C1E7003C0240DA
:100690000838024040130008780000200148006834
:1006A0007047000078000020084809490068096880
:1006B0004FF4E05292FAA2F201F4E051B2FA82F25F
:1006C000D140044A515CC8407047000078000020C7
:1006D00008380240401300080848094900680968C2
:1006E0004FF4604292FAA2F201F46041B2FA82F24F
:1006F000D140044A515CC840704700007800002097
:10070000083802404013000830B51948006810F05E
:100710000C01184812D0441004290ED008290DD11C
:100720001349091F0A6802F03F030A68550247F699
:10073000C07204D5B4FBF3F003E0204630BDB0FB3B
:10074000F3F00B680968134092FAA2F2B2FA82F24F
:10075000D34058434FF4403292FAA2F201F44031B0
:10076000B2FA82F2D140491C4900B0FBF1F030BD31
:10077000083802400024F4002DE9F84F0546DFF860
:10078000FC920078A9F1040BC007ABF1040449D036
:10079000D9F800104846C1F38101012908D000684A
:1007A000C0F3810002280AD1DBF80000400206D520
:1007B0002068800336D5686800286ED032E068680B
:1007C000B0F5803F10D0B0F5A02F206810D020F4F5
:1007D00080302060206820F4802020606868A0B10C
:1007E000FFF7F8FD06460CE0206840F48030F4E79F
:1007F00040F480202060F7E7FFF7ECFD801B6428C1
:1008000071D820688003F7D50CE0FFF7E3FD0646BA
:1008100005E000BFFFF7DEFD801B6428F0D82068EC
:100820008003F7D42878964F80074FF0010A4FF0E5
:10083000000841D5D9F80010484611F00C0F08D037
:100840000068C0F3810002280AD1DBF800004002F2
:1008500006D42068800713D5E86801281DD10FE071
:10086000E868D8B1C7F800A0FFF7B4FD064604E079
:10087000FFF7B0FD801B0228C2D820688007F7D59B
:100880002068F82292FAA2F22969B2FA82F220F0E4
:10089000F8009140084320600EE0ECE0C7F80080CB
:1008A000FFF798FD064604E0FFF794FD801B022841
:1008B00019D820688007F7D42878000724D5714814
:1008C000696989B1C0F800A0FFF784FD064604E01D
:1008D000FFF780FD801B022805D868486C3000684F
:1008E0008007F5D510E07AE0C0F80080FFF772FDD0
:1008F000064604E0FFF76EFD801B02286FD85F48B4
:100900006C3000688007F5D42878400753D55B48E1
:100910003830016841F080510160006800F080507B
:1009200000905948016841F480710160FFF752FD61
:10093000064604E0FFF74EFD801B02284FD85248C0
:100940000068C005F6D54D4EA868683601280FD05E
:100950000528306810D020F001003060306820F0A9
:1009600004003060A868B8B1FFF734FD00900FE0D4
:10097000306840F00100F4E740F004003060F7E731
:10098000FFF728FD0099411A41F2883081426AD868
:1009900030688007F4D50EE0FFF71CFD009007E0FB
:1009A000FFF718FD0099411A41F2883081425AD868
:1009B00030688007F4D4A869E8B3D9F80010C1F30F
:1009C0008101022957D00228C7F8608003D0FFF7C1
:1009D00001FD05464AE0FFF7FDFC064605E042E062
:1009E000FFF7F8FC801B02283DD820688001F7D46F
:1009F000D5E90701084347F6C07292FAA2F2696A84
:100A0000B2FA82F29140AA6A4FF0FF3303EB52022E
:100A10004FF4403393FAA3F3B3FA83F39A401143AC
:100A200008434FF0706292FAA2F2E96AB2FA82F2D7
:100A30009140084300E01CE0CBF80000C7F860A03C
:100A4000FFF7C8FC054604E0FFF7C4FC401B022882
:100A500009D820688001F7D50BE000BFFFF7BAFC8A
:100A6000401B022802D90320BDE8F88F20688001CE
:100A7000F4D40020F8E70120F6E70000083802402F
:100A800000004742800E4742007000404FF0E021D6
:100A90000428086903D020F004000861704740F082
:100AA0000400FAE7704710B5401EB0F1807F01D313
:100AB000012010BD4FF0E02460610F21601700F0AD
:100AC00073F90020A06107202061002010BD10B53F
:100AD000FFF7E8FF10BD704710F8391F4078084352
:100AE0007047000070B5026804461068D168536909
:100AF00010F00F0F51D003F0010501F4907635434B
:100B00005DD0C20705D0CA0503D5E26B42F00102F1
:100B1000E263420705D5DA0703D0E26B42F0020236
:100B2000E263820705D5DA0703D0E26B42F00402E4
:100B3000E263020705D5DA0703D0E26B42F0080250
:100B4000E263E26B002A34D0800604D5880602D521
:100B5000204600F0D3F920684069E16BC0F38010B3
:100B600001F008010143204624D000F0B9F92068C3
:100B7000416949061AD5416921F040014161606B24
:100B8000A0B11B490165606BFFF72FFB002810D057
:100B9000606B016DBDE87040084783060FD58B067A
:100BA0000DD52046BDE8704000F0A8B92046FFF7FB
:100BB00092FF70BDFFF78FFF0020E06370BD03065A
:100BC00006D50B0604D52046BDE8704000F032BBC8
:100BD0004006F3D54806F1D5D168204621F0400102
:100BE000D160202184F8391000F0A8F870BD000011
:100BF000D10E000870B5040004D094F83900002527
:100C000010B106E0012070BD84F83850204600F095
:100C100023F8242084F839002068C16821F40051A9
:100C2000C160204600F0B0F92068016921F49041CC
:100C300001612068416921F02A0141612068C16891
:100C400041F40051C160E563202084F8390084F844
:100C50003A00002070BD000000B50068124987B05E
:100C600088421FD11148016841F480210160006869
:100C7000694600F4802005904FF440600090022007
:100C8000019001200290032003900720049008485F
:100C9000FFF7C8FA002211462720FFF70FFC272094
:100CA000FFF700FC07B000BD00480040403802409C
:100CB0000008024090F83A30202B1DD1D1B1CAB1C2
:100CC00090F83830012B17D081628285C2850021CF
:100CD000C163222280F83A2080F8381001684A69FE
:100CE00042F001024A610068C16841F49071C1603C
:100CF000002070470120704702207047704790F82D
:100D00003930202B18D1A9B1A2B190F83830012B7D
:100D100012D001628284C2840021C163212280F842
:100D2000392080F838100068C16841F08001C16046
:100D30000020704701207047022070477047FEE78F
:100D4000094808B5016841F080010160016801F0BF
:100D500080010091016841F004010160006800F029
:100D60000400009008BD0000303802400C4810B567
:100D70000A4901604FF4E1314160002181600C2299
:100D8000C160C0E904128161C161FFF733FF00282F
:100D900003D0BDE81040FFF727BA10BD004800405F
:100DA00090000020FEE770470907090E002806DAC8
:100DB00000F00F0000F1E02080F8141D704700F1F2
:100DC000E02080F8001470477047704710B5FFF7B7
:100DD00007FBBDE81040FFF77ABE000030B525489C
:100DE00093B00025016841F080510160006800F077
:100DF000805011902048016841F4804101600068F2
:100E0000022400F4804011900120039010200490EF
:100E1000009406940820CDE90750A820CDE90904E4
:100E200004200B906846FFF7A7FC00B1FEE70CA971
:100E30000F2081E831004FF4A0500F904FF4805004
:100E4000109005210CA8FFF76BFB00B1FEE7FFF740
:100E500025FC4FF47A71B0FBF1F0FFF724FE04207B
:100E6000FFF714FE00221146501EFFF727FB13B0B8
:100E700030BD00004038024000700040104801685A
:100E800041F4700101600F48016841F00101016007
:100E90000C4A00210832116002680B4B1A400260B4
:100EA000031D0A4A1A60026822F480220260054883
:100EB0000C30016002495806803908607047000014
:100EC00088ED00E000380240FFFFF6FE10300024FD
:100ED00010B5806B0021C185C184FFF7FCFD10BDFA
:100EE0000168CA6822F49072CA6001684A6922F0F7
:100EF00001024A61202180F83A10704710B590F83D
:100F00003A10222901D0022010BD8168B1F5805F1E
:100F100011D00169002901681FD0496801F07F03E1
:100F2000816A4A1C82620B70C18D491E0904090C3A
:100F3000C18518D026E00269816A002A02685268D9
:100F400005D0D2B20A80816A491C8162ECE7C2F303
:100F500008020A80816A891CF7E74A68816A4B1C8B
:100F600083620A70E0E70168CA6822F49072CA607E
:100F700001684A6922F001024A61202180F83A1092
:100F8000FFF7BCFE002010BD2DE9F04104460068CB
:100F9000016921F44052E168114301612168C86888
:100FA00049F20C6290432369A268E5691A436369B8
:100FB0002B431A430243CA602168486920F44072F7
:100FC000A06910434861E1696425B1F5004F974875
:100FD000974A21684FF032083FD0914201D08142B8
:100FE0007CD1FFF779FB00EBC00101EB00106168D9
:100FF0008900B0FBF1F6FFF76FFB00EBC00101EBDE
:10100000001061688900B0FBF1F0B0FBF5F06FF003
:101010001801484306EB800108EB0110B0FBF5F026
:1010200000F0F006FFF758FB00EBC00101EB0010E9
:1010300061688900B0FBF1F0B0FBF5F006EB00163B
:10104000FFF74AFB00EBC00101EB0010616889006B
:10105000B0FBF1F7FFF740FBD2E0914201D08142B3
:101060003DD1FFF739FB00EBC00101EB00106168D7
:101070004900B0FBF1F0B0FBF5F00601FFF72CFBE7
:1010800000EBC00101EB001061684900B0FBF1F713
:10109000FFF722FB00EBC00101EB00106168490083
:1010A000B0FBF1F0B0FBF5F06FF01801484307EB2F
:1010B000800108EBC100B0FBF5F000F0F80006EB92
:1010C0004006FFF709FB00EBC00101EB001061686F
:1010D0004900B0FBF1F7FFF7FFFA3CE055E0FFF7FE
:1010E000E3FA00EBC00101EB001061684900B0FBBE
:1010F000F1F0B0FBF5F00601FFF7D6FA00EBC00106
:1011000001EB001061684900B0FBF1F7FFF7CCFA82
:1011100000EBC00101EB001061684900B0FBF1F089
:10112000B0FBF5F06FF01801484307EB800108EBC6
:10113000C100B0FBF5F000F0F80006EB4006FFF749
:10114000B3FA00EBC00101EB001061684900B0FB8D
:10115000F1F7FFF7A9FA00EBC00101EB001061689D
:101160004900B0FBF1F0B0FBF5F06FF01801484317
:1011700007EB800108EBC100B0FBF5F000F00700C1
:10118000216830448860BDE8F081FFF78DFA00EBFC
:10119000C00101EB001061688900B0FBF1F6FFF7B8
:1011A00083FA00EBC00101EB001061688900B0FB1D
:1011B000F1F0B0FBF5F06FF01801484306EB800149
:1011C00008EB0110B0FBF5F000F0F006FFF76CFA49
:1011D00000EBC00101EB001061688900B0FBF1F089
:1011E000B0FBF5F006EB0016FFF75EFA00EBC0016E
:1011F00001EB001061688900B0FBF1F7FFF754FACA
:1012000000EBC00101EB001061688900B0FBF1F058
:10121000B0FBF5F06FF01801484307EB800108EBD5
:101220000110B0FBF5F000F00F00A9E70014014039
:101230000010014090F83910212901D00220704798
:101240008168B1F5805F016A0BD04A1C02620268B6
:1012500009785160C18C491E0904090CC1840ED063
:1012600017E009880268C1F308015160016900298B
:10127000016A02D0491C0162ECE7891CFBE70168A6
:10128000CA6822F08002CA600068C16841F040016B
:10129000C1600020704700000148FFF723BC000038
:1012A00090000020FEE702E008C8121F08C1002AD3
:1012B000FAD170477047002001E001C1121F002AD7
:1012C000FBD17047FFF794F8FFF788FDFFF738FD73
:1012D000FFF74CFD5F2217491748FFF710FD00B1DB
:1012E000FEE70A2215491448FFF7E4FC00B1FEE7C7
:1012F0001148FFF7F1FB2028FAD10A220F490E48C6
:10130000FFF7FDFC00B1FEE70B48FFF7E5FB2028E7
:10131000FAD16420FEF77BFF064915225F310648AB
:10132000FFF7EDFC00B1FEE70348FFF7D5FB2028EF
:10133000FAD1FEE704000020900000207C0000208D
:10134000000000000102030401020304060708096B
:1013500070130008000000207C000000A6120008A6
:10136000EC1300087C00002054040000B6120008B2
:10137000000000002A2A2A2A554152542D4879702B
:1013800065727465726D696E616C20636F6D6D75E9
:101390006E69636174696F6E206261736564206F4A
:1013A0006E204954202A2A2A2A0D0A20456E746587
:1013B00072203130206368617261637465727320DA
:1013C0007573696E67206B6579626F617264203A2C
:1013D0000D0A000D0A4578616D706C652046696ED6
:0C13E00069736865640D0A000024F400C5
:040000050800018965
:00000001FF
