:020000040800F2
:10000000082000209D010008DB0A0008370A0008CC
:10001000D90A0008E5010008050C000800000000EE
:10002000000000000000000000000000FF0A0008BF
:10003000E701000800000000FD0A0008010B0008AD
:10004000B7010008B7010008B7010008B7010008B0
:10005000B7010008B7010008B7010008B7010008A0
:10006000B7010008B7010008B7010008B701000890
:10007000B7010008B7010008B7010008B701000880
:10008000B7010008B7010008B7010008B701000870
:10009000B7010008B7010008B7010008B701000860
:1000A000B7010008B7010008B7010008B701000850
:1000B000B7010008B7010008B7010008B701000840
:1000C000B7010008B7010008B7010008B701000830
:1000D000B7010008B7010008B7010008B701000820
:1000E000B7010008B7010008B7010008B701000810
:1000F000B7010008B7010008B7010008B701000800
:10010000B7010008B7010008B7010008B7010008EF
:10011000B7010008B7010008B7010008B7010008DF
:10012000B7010008B7010008B7010008B7010008CF
:10013000B7010008B7010008B7010008B7010008BF
:10014000B7010008B7010008B7010008B7010008AF
:10015000B7010008B7010008B7010008B70100089F
:10016000B7010008B7010008B7010008B70100088F
:10017000B7010008B7010008B7010008000000003F
:10018000B7010008B7010008DFF80CD000F018F83C
:1001900000480047250C000808200020064880473A
:1001A00006480047FEE7FEE7FEE7FEE7FEE7FEE75C
:1001B000FEE7FEE7FEE7FEE7B10B00088901000855
:1001C000064C074D06E0E06840F0010394E80700A4
:1001D00098471034AC42F6D3FFF7DAFF140D00084D
:1001E000340D0008FEE770472DE9F84FDFF87CB1C9
:1001F00000224FF001084FF0030A4FF00F090BF1F6
:10020000040E00BF0B6808FA02F42340A3426ED12B
:100210004D68022D01D0122D0ED1D50800EB850CB2
:10022000DCF820505607F70E09FA07F6B5430E69B9
:10023000BE402E43CCF82060066855000F790AFABC
:1002400005FC07F0030726EA0C06AF4037430760BA
:100250004E68012E05D0022E03D0112E01D0122E91
:100260000ED18668CF6826EA0C06AF403743876018
:100270004668A6430C79C4F30014944034434460A8
:10028000C6688C6826EA0C06AC403443C4604C68EF
:10029000E40065D5364C256845F480452560246822
:1002A00022F0030504F480440094324C2E19D6F851
:1002B000084895072F0F09FA07F5AC432E4DA842C1
:1002C00001D1002524E02D4DA84201D101251FE0D8
:1002D0002B4DA84201D102251AE02A4DA84201D196
:1002E000032515E0284DA84202D1042510E037E08F
:1002F000264DA84201D105250AE0254DA84201D18D
:10030000062505E0234DA84201D1072500E0082578
:10031000BD402543C6F80858DBF800405D464E68EE
:100320009C43F60300D51C432C60DEF80040754664
:100330004E689C43B60300D51C432C600B4D08351A
:100340002C684E689C43F60200D51C432C60074D78
:100350000C352C684E689C43B60200D51C432C60BB
:10036000521C102AFFF44EAFBDE8F88F003C01404C
:1003700044380240003001400000024000040240C6
:1003800000080240000C024000100240001402402D
:1003900000180240001C02400069084000D0012003
:1003A00070470AB1816170470904FBE701480068A2
:1003B000704700000000002002480168491C0160ED
:1003C00070470000000000200B4810B5016841F4A0
:1003D00000710160016841F480610160016841F4CD
:1003E00080710160032000F069F8002000F006F839
:1003F00000F018F8002010BD003C024010B5044683
:1004000007484FF47A710068B0FBF1F000F0FBFA96
:1004100000222146501E00F031F8002010BD0000DF
:100420000400002010B5032000F048F80022114617
:100430006FF00B0000F022F8002211466FF00A0066
:1004400000F01CF8002211466FF0090000F016F8C9
:1004500000221146501F00F011F800221146101F13
:1004600000F00CF800221146901E00F007F8002260
:10047000BDE810401146501EAFF30080F0B40E4BA3
:100480001B680C46C3F30223C3F10705042D00D9F2
:100490000425191D072901D2002300E0DB1E0126D7
:1004A00006FA05F1491E214099409E40761E1640ED
:1004B0003143F0BC00F012BB0CED00E0064900F047
:1004C000070208684FF6FF03184040EA0220034A7B
:1004D00010430860704700000CED00E00000FA05D2
:1004E0002DE9F047DFF8649105460F46D9F8000082
:1004F00000F00F01F8B28046B94208D2014689F8EF
:100500000010D9F8000000F00F00B84274D128782C
:100510004F4C800705D52068A96820F0F0000843FB
:1005200020602878C00759D04949686808390128EF
:100530001AD002281BD0032819D00968890700297E
:100540005ADA216821F0030101432160FFF72EFFF1
:100550006968064641F28830012911D002291DD070
:100560000329824627D035E009688903E7E709684F
:100570008901E4E7FFF71AFF811B514501D926E005
:1005800082462068C0F381000128F3D126E000BF35
:10059000FFF70CFF811B514501D918E08246206806
:1005A000C0F381000228F3D118E000BFFFF7FEFE80
:1005B000811B51450BD82068C0F381000328F5D179
:1005C0000CE000BFFFF7F2FE811B514502D903206A
:1005D000BDE8F087206810F00C0FF3D1D9F80010B7
:1005E000484601F00F01B94208D980F80080006840
:1005F00000F00F00B84201D00120E9E72878400759
:1006000005D52068E96820F4E05008432060287888
:10061000000706D52068296920F4604040EAC1003F
:10062000206000F021F82168F02292FAA2F201F095
:10063000F001B2FA82F2D140064A515CC840064944
:1006400008600020FFF7DAFE0020C1E7003C02400E
:1006500008380240040D000804000020014800682A
:10066000704700000400002030B51948006810F001
:100670000C01184812D0441004290ED008290DD1BD
:100680001349091F0A6802F03F030A68550247F63A
:10069000C07204D5B4FBF3F003E0204630BDB0FBDC
:1006A000F3F00B680968134092FAA2F2B2FA82F2F0
:1006B000D34058434FF4403292FAA2F201F4403151
:1006C000B2FA82F2D140491C4900B0FBF1F030BDD2
:1006D000083802400024F4002DE9F84F0546DFF801
:1006E000FC920078A9F1040BC007ABF1040449D0D7
:1006F000D9F800104846C1F38101012908D00068EB
:10070000C0F3810002280AD1DBF80000400206D5C0
:100710002068800336D5686800286ED032E06868AB
:10072000B0F5803F10D0B0F5A02F206810D020F495
:1007300080302060206820F4802020606868A0B1AC
:10074000FFF734FE06460CE0206840F48030F4E702
:1007500040F480202060F7E7FFF728FE801B642824
:1007600071D820688003F7D50CE0FFF71FFE06461E
:1007700005E000BFFFF71AFE801B6428F0D8206850
:100780008003F7D42878964F80074FF0010A4FF086
:10079000000841D5D9F80010484611F00C0F08D0D8
:1007A0000068C0F3810002280AD1DBF80000400293
:1007B00006D42068800713D5E86801281DD10FE012
:1007C000E868D8B1C7F800A0FFF7F0FD064604E0DE
:1007D000FFF7ECFD801B0228C2D820688007F7D500
:1007E0002068F82292FAA2F22969B2FA82F220F085
:1007F000F8009140084320600EE0ECE0C7F800806C
:10080000FFF7D4FD064604E0FFF7D0FD801B022869
:1008100019D820688007F7D42878000724D57148B4
:10082000696989B1C0F800A0FFF7C0FD064604E081
:10083000FFF7BCFD801B022805D868486C300068B3
:100840008007F5D510E07AE0C0F80080FFF7AEFD34
:10085000064604E0FFF7AAFD801B02286FD85F4818
:100860006C3000688007F5D42878400753D55B4882
:100870003830016841F080510160006800F080501C
:1008800000905948016841F480710160FFF78EFDC6
:10089000064604E0FFF78AFD801B02284FD8524825
:1008A0000068C005F6D54D4EA868683601280FD0FF
:1008B0000528306810D020F001003060306820F04A
:1008C00004003060A868B8B1FFF770FD00900FE039
:1008D000306840F00100F4E740F004003060F7E7D2
:1008E000FFF764FD0099411A41F2883081426AD8CD
:1008F00030688007F4D50EE0FFF758FD009007E060
:10090000FFF754FD0099411A41F2883081425AD8CC
:1009100030688007F4D4A869E8B3D9F80010C1F3AF
:100920008101022957D00228C7F8608003D0FFF761
:100930003DFD05464AE0FFF739FD064605E042E089
:10094000FFF734FD801B02283DD820688001F7D4D2
:10095000D5E90701084347F6C07292FAA2F2696A24
:10096000B2FA82F29140AA6A4FF0FF3303EB5202CF
:100970004FF4403393FAA3F3B3FA83F39A4011434D
:1009800008434FF0706292FAA2F2E96AB2FA82F278
:100990009140084300E01CE0CBF80000C7F860A0DD
:1009A000FFF704FD054604E0FFF700FD401B0228A9
:1009B00009D820688001F7D50BE000BFFFF7F6FCEF
:1009C000401B022802D90320BDE8F88F206880016F
:1009D000F4D40020F8E70120F6E7000008380240D0
:1009E00000004742800E4742007000404FF0E02177
:1009F0000428086903D020F004000861704740F023
:100A00000400FAE7704710B5401EB0F1807F01D3B3
:100A1000012010BD4FF0E02460610F21601700F04D
:100A20005DF80020A06107202061002010BD10B5F6
:100A3000FFF7E8FF10BDFEE72DE9F041224886B040
:100A40000024016841F010010160016801F010010B
:100A50000591016841F480710160016801F48071C1
:100A60000591016841F0800101600068174F00F0B6
:100A700080004FF4A0660590002231463846FFF70B
:100A800090FCDFF84C8000220C214046FFF789FCE7
:100A90007C2001258DE8310069460E48FFF7A4FB54
:100AA0000096CDE90154694638460394FFF79CFB54
:100AB0000C200090CDE90154694640460394FFF7AD
:100AC00093FB06B0BDE8F0813038024000200240C0
:100AD000001C024000100240FEE770470907090EA3
:100AE000002806DA00F00F0000F1E02080F8141D65
:100AF000704700F1E02080F800147047704770479D
:100B000010B5FFF759FCBDE81040FFF790BF00009B
:100B100030B5254893B00025016841F0805101604F
:100B2000006800F0805011902048016841F4804135
:100B300001600068022400F48040119001200390BD
:100B400010200490009406940820CDE90750A820B6
:100B5000CDE9090404200B906846FFF7BDFD00B104
:100B6000FEE70CA90F2081E831004FF4A0500F9050
:100B70004FF48050109005210CA8FFF7B1FC00B194
:100B8000FEE7FFF76BFD4FF47A71B0FBF1F0FFF772
:100B90003AFF0420FFF72AFF00221146501EFFF7FC
:100BA0006DFC13B030BD00004038024000700040C2
:100BB0001048016841F4700101600F48016841F07C
:100BC000010101600C4A00210832116002680B4BE0
:100BD0001A400260031D0A4A1A60026822F4802249
:100BE000026005480C3001600249580680390860EF
:100BF0007047000088ED00E000380240FFFFF6FE7D
:100C000010300024FEE702E008C8121F08C1002AC5
:100C1000FAD170477047002001E001C1121F002A7D
:100C2000FBD17047FFF7D0FBFFF772FFFFF704FF20
:100C3000314C324D324EA7154FF4806804212046C6
:100C4000FFF7AAFBE0B3002204212846FFF7A9FB27
:100C500008212046FFF7A0FB98B300220821284670
:100C6000FFF79FFB10212046FFF796FB50B30022B1
:100C700039463046FFF795FB20212046FFF78CFBD5
:100C800038B3002241463046FFF78BFB4021204617
:100C9000FFF782FBF8B1002204212846FFF781FB11
:100CA000002208212846FFF77CFB00223946304607
:100CB000FFF777FB002241463046FFF772FBBDE7A6
:100CC00001E002E003E00122BEE70122C6E70122C3
:100CD000CEE70122D6E7012204212846FFF761FB77
:100CE000012208212846FFF75CFB012239463046E5
:100CF000FFF757FB0122DEE700100240001C024014
:100D0000002002400000000001020304010203046D
:100D100006070809340D0008000000200800000044
:100D2000060C00083C0D0008080000200020000010
:0C0D3000160C0008000000000024F40075
:040000050800018965
:00000001FF
