:020000040800F2
:10000000C07100209D0100080B1A000803180008A9
:10001000091A0008A9030008451E00080000000096
:100020000000000000000000000000002F1A00087F
:1000300039050008000000002D1A0008311A0008D8
:10004000B7010008B7010008B7010008B7010008B0
:10005000B7010008B7010008B7010008B7010008A0
:10006000B7010008B7010008B7010008B701000890
:10007000B7010008B7010008B7010008B701000880
:10008000B7010008B7010008B7010008B701000870
:10009000B7010008B7010008B7010008B701000860
:1000A000B7010008B7010008B7010008B701000850
:1000B000B7010008B7010008B7010008B701000840
:1000C000B7010008B7010008B7010008B701000830
:1000D000B7010008B7010008B7010008B701000820
:1000E000B7010008B7010008B7010008B701000810
:1000F000B7010008B7010008B7010008B701000800
:10010000B7010008B7010008B7010008B7010008EF
:10011000B7010008B7010008B7010008B7010008DF
:10012000B7010008B7010008B7010008B7010008CF
:10013000B70100088D050008B7010008B7010008E5
:10014000B7010008B7010008B7010008B7010008AF
:10015000B7010008B7010008B7010008B70100089F
:10016000B7010008B7010008B7010008B70100088F
:10017000B7010008B7010008B7010008000000003F
:10018000B7010008B7010008DFF80CD000F0B2F8A2
:1001900000480047714C0008C071002006488047A5
:1001A00006480047FEE7FEE7FEE7FEE7FEE7FEE75C
:1001B000FEE7FEE7FEE7FEE7E11A00088901000816
:1001C0000649074A0868504343F239021044086060
:1001D0004008704701490860704700002C0100206A
:1001E0006D4EC64140EA01039B0703D009E008C9F0
:1001F000121F08C0042AFAD203E011F8013B00F8EC
:10020000013B521EF9D27047D2B201E000F8012B37
:10021000491EFBD270470022F6E710B513460A4686
:1002200004461946FFF7F0FF204610BD30B50546DD
:100230002A460B4612F8010B13F8014B08B1A042F5
:10024000F8D01CB1002802D06D1CF1E7284630BD63
:10025000CAB2401E10F8011F8A4202D00029F9D10B
:1002600000207047421C10F8011B0029FBD1801AA6
:10027000704710B5002200E0521C835C8C5CA342E6
:1002800001D1002BF8D1D8B2E1B2401A10BD30B57F
:1002900004460020034600E05B1C934203D2E05C6E
:1002A000CD5C401BF8D030BD30B50546002003467C
:1002B00000E05B1C934205D2EC5CC85C201A01D1C3
:1002C000002CF6D130BD30B50B460146002020226F
:1002D000012409E021FA02F59D4205D303FA02F553
:1002E000491B04FA02F52844151EA2F10102F1DCB3
:1002F00030BD0000064C074D06E0E06840F0010309
:1003000094E8070098471034AC42F6D3FFF740FF5B
:10031000784901089849010870B58C1810F8015BFC
:1003200015F0070301D110F8013B2A1106D110F88E
:10033000012B03E010F8016B01F8016B5B1EF9D192
:100340002B0705D40023521E0DD401F8013BFAE718
:1003500010F8013BCB1A921C03E013F8015B01F883
:10036000015B521EF9D5A142D8D3002070BD000018
:100370000449054A31F8101052F82000002200F01C
:1003800005BE00006C7C0008E40000200449054A1A
:1003900031F8101052F82000012200F0F7BD0000E3
:1003A0006C7C0008E4000020FEE7000070B5054604
:1003B00000F0F2FD0C4C2168401AB0F5FA7F11D321
:1003C00000F0EAFD09492060087803280AD008787F
:1003D000042807D00878052804D02846BDE87040D6
:1003E00000F006B870BD0000D4000020F40000202A
:1003F00030B5044629488BB00178012918D002296C
:1004000022D16568002D21D003210170204602F021
:10041000CBFC290EC5F30740CDE90001C5F3072346
:10042000EAB21FA105A801F04DFD05A91FA032E009
:1004300000216160A160E16002210170204602F0AC
:1004400069FC25A001F02EFD0BB030BD616A497B2F
:100450000429F9D904210170204602F0A5FC28489E
:1004600002906FF07F4003902648049004AB03AAEB
:1004700002A9204604F0A4FD6E210120CDE900016F
:10048000A823C02206A105A801F01CFD1EA001F0B2
:1004900009FD05A921A001F005FDD5E7F400002024
:1004A00025642E25642E25642E2564004950206184
:1004B0006464726573732061737369676E65642029
:1004C00062792061204448435020736572766572DA
:1004D0003A2025730D0A0000202053746174653A98
:1004E000204C6F6F6B696E6720666F7220444843C3
:1004F00050207365766572202E2E2E0D0A000000A6
:10050000C0A8016EC0A80101444843502074696D21
:10051000656F75742021210D0A0000005374617409
:100520006963204950206164647265737320203AC6
:100530002025730D0A00000070470000064908B529
:1005400009684FF4FA52B1FBF2F14143009100BF48
:10055000491E0091FBD208BDD000002038B50446EA
:10056000006800F58050816941F480118161206844
:1005700000F58050806900900120FFF7DFFF2068C0
:10058000009900F58050816138BD0000014800F0FD
:1005900055B90000486800202DE9F041044621B11A
:1005A0004FF40060E060C000A060E0690025002812
:1005B00061D028462368402619683A4A1140D4E998
:1005C00002273A43024342F400700843186020684F
:1005D0000768012000F073F8206807602068466013
:1005E00020684668012000F06AF8206846602068AC
:1005F00085602068C560216888694FF641721040A7
:1006000040F08000886120688669012000F057F87A
:10061000206886612068C5612068C569012000F0F6
:100620004EF82068C561226802F5805290691E4923
:1006300008401E4901439161206800F5805085699A
:10064000012000F03CF8206800F5805085612068AA
:10065000174900F580500160206800F5805005685A
:10066000012000F02CF8206800F580500560A0699A
:10067000012803D009E04FF480609BE7206800F573
:100680008050C1690B4A1143C16160690A4982887F
:100690000A640278D0F8010042EA00204864BDE80C
:1006A000F08100000F8120FF233FDEF804002002CC
:1006B0008020C1024000010000800240FEE731B509
:1006C00000F06AFC044600F067FC0099001B8842B9
:1006D000F9D338BD2DE9F04390F845400025012CB1
:1006E0000DD04FF0010C80F845C0022480F8444042
:1006F00044F2F4574FF000495E1E816217E0022079
:10070000BDE8F08301EB4514C4F80090C5EBC518B3
:1007100008EB480802EB8808C4E90178B54204D226
:1007200004F12008C4F80C8000E0E1606D1C9D42DB
:10073000E8D3026802F58052D16080F844C00021FD
:1007400080F845100846DBE72DE9F043914690F824
:1007500045200024012A0AD0012680F845600222A3
:1007600080F844204FF4801C5D1EC1621BE0022013
:10077000BDE8F08301EB4412C2F800C0C4EBC4171B
:1007800007EB470809EB88079760C7691FB9176827
:1007900047F440071760AC4203D202F12007D7604C
:1007A00000E0D160641C9C42E4D3026802F58052F0
:1007B000116180F84460002180F845100846D7E7B1
:1007C000704710B590F84510012913D0012280F828
:1007D0004520022180F84410816A0C680023002C17
:1007E00027DB0C68E40518D5846B641C8463012C3A
:1007F00002D002E0022010BD016341630C68C4F323
:100800000D44241FC463046BA4680464C96840F8E1
:10081000281F02774377002010BD0C68A40503D57C
:100820008263C0E90C1302E0846B641C8463C968B2
:10083000816200F8442F4370012010BD70B504465A
:10084000006800F5805041694FF0000549064FF0FF
:10085000010608D5204600F0BDF92068402100F5CA
:100860008050416109E04069C0070AD0204600F08D
:1008700078FA206800F58050466184F8446084F876
:10088000455020684FF4803100F580504161206868
:1008900000F58050406900040CD52046FFF790FF1A
:1008A00020684FF4004100F58050416184F84460B5
:1008B00084F8455070BD00002DE9FC474FF000065C
:1008C0000400B146009603D094F8440018B107E044
:1008D0000120BDE8FC8784F84560204600F0E2F87E
:1008E0006648016841F480410160006800F480407E
:1008F00001906348016821F4000101600168226AE7
:1009000011430160206800F58050016841F0010149
:10091000016000F041FB05464FF4FA7709E000BFA3
:1009200000F03AFB401BB84203D9032004F8440FFF
:1009300067E0206800F580500068C007F0D12068AB
:10094000006920F01C0500F08BFC4E494E4A014422
:10095000914202D245F0080516E04C494C4A014448
:10096000914202D245F00C050EE04A494A4A014440
:10097000914209D3494908444949884202D245F085
:10098000040501E045F01005206805614FF40042C0
:100990000021204600F0E6F90125A8BBFF20FFF763
:1009A0008EFE606888B300F0F7FA804641F288371F
:1009B0006A460121204600F0CBF800F0EDFAA0EBEA
:1009C0000800B84217D800984007F1D54FF480527C
:1009D0000021204600F0C6F9B0B900F0DDFA8046EB
:1009E0006A460121204600F0B3F800F0D5FAA0EBEA
:1009F0000800B8420AD901212046FFF7CDFD04F8CE
:100A0000445F0320667064E724E018E000988006E5
:100A1000E6D56A461021204600F09AF8D0B9009831
:100A2000410703D54FF40061E16000E0E660800714
:100A300001D5A66019E04FF48040A06015E0E068A1
:100A4000A168C00840EA510082B20021204600F0AF
:100A500089F930B101212046FFF79EFD84F844500A
:100A600036E740F6FF70FFF72AFE49462046FFF7BB
:100A700093FD84F8445000202BE7000044380240E6
:100A80000438014000D3CEFEC0E1E40040F1E9FDAE
:100A900040787D0100796CFC005A6202001F0AFA5E
:100AA00080F0FA02F0B50068244987B0884243D14B
:100AB00023480024016841F000710160016801F0E1
:100AC00000710591016841F080610160016801F0E9
:100AD00080610591016841F00061016000680225B4
:100AE00000F0006005903220CDE9000502AA03263F
:100AF0000B2782E8D0006946124800F06FF9862083
:100B0000CDE9000502AA694682E8D0000E4800F04F
:100B100065F94FF4D040CDE9000502AA694682E8A4
:100B2000D0000A4800F05AF9002211463D2000F09A
:100B3000A7FA3D2000F098FA07B0F0BD008002400F
:100B40003038024000080240000002400018024015
:100B50002DE9F047044690F84400914682281DD0C4
:100B6000822084F84400226810694FF6FF7500F077
:100B70001C03208A05EAC02018434FF4F86303EAF7
:100B80008111014321F0020040F00105156100F0E0
:100B900003FA064601274FF4803810E00220BDE832
:100BA000F08700BF00F0F8F9801B404505D304F83A
:100BB000447F002060700320F1E720680569E807A2
:100BC000F0D12068406981B2C9F8001084F84470FF
:100BD0000020E4E77047F8B5044690F84500012886
:100BE00039D0012584F84550022084F8440020685B
:100BF0000026016841F0080101602068006800904B
:100C00002846FFF79BFC216800980860206801686F
:100C100041F0040101602068006800900120FFF7A6
:100C20008DFC2168009808602046FFF797FC20683B
:100C300000F58050816941F400518161206800F520
:100C40008050816941F00201816184F8445084F848
:100C500045600020F8BD0220F8BDF0B590F84520B1
:100C60000023012A11D0012780F84570022280F864
:100C70004420002459B1C66A3268002A0ADA1221D7
:100C800000F8441F44700120F0BD0220F0BD00F8C0
:100C9000447FF7E740F2F455A9420BD9B1FBF5FCCC
:100CA000B1FBF5F205FB1C1CBCF1000F00D0521C7F
:100CB000012A43D1326842F040523260C26AC1F325
:100CC0000C015160C16A0A6842F000420A60C16AC0
:100CD000C968C16234E0D6F800C02CF0405CC6F8A8
:100CE00000C033B9C66AD6F800C04CF0805CC6F8C4
:100CF00000C0C66A7560561EB34214D1C66AD6F8E3
:100D000000C04CF0005CC6F800C0C2F10106C6EBA2
:100D1000C61606EB4606D0F82CC001EB8606C6F3D5
:100D20000C06CCF80460C66AD6F800C04CF0004C43
:100D3000C6F800C0C66A5B1CF668C6629342CAD396
:100D4000016801F580514A69520705D504224A61BC
:100D5000016801F580514C6000F8447F4470002028
:100D6000F0BD70472DE9F041044690F84400422858
:100D70001ED0422084F84400236818694FF6FF769D
:100D800000F01C05208A06EAC02028434FF4F865CD
:100D900005EA8111014390B241F0030558612068D2
:100DA000056100F0F9F8064601274FF4803810E09D
:100DB0000220BDE8F08100BF00F0EEF8801B404546
:100DC00005D304F8447F002060700320F1E7206819
:100DD0000569E807F0D184F84470EAE72DE9F84F97
:100DE000DFF87CB100224FF001084FF0030A4FF00A
:100DF0000F090BF1040E00BF0B6808FA02F4234040
:100E0000A3426ED14D68022D01D0122D0ED1D5080E
:100E100000EB850CDCF820505607F70E09FA07F6B0
:100E2000B5430E69BE402E43CCF8206006685500DD
:100E30000F790AFA05FC07F0030726EA0C06AF4013
:100E4000374307604E68012E05D0022E03D0112EC5
:100E500001D0122E0ED18668CF6826EA0C06AF406C
:100E6000374387604668A6430C79C4F30014944066
:100E700034434460C6688C6826EA0C06AC403443B0
:100E8000C4604C68E40065D5364C256845F480455F
:100E90002560246822F0030504F480440094324C59
:100EA0002E19D6F8084895072F0F09FA07F5AC4315
:100EB0002E4DA84201D1002524E02D4DA84201D19C
:100EC00001251FE02B4DA84201D102251AE02A4D31
:100ED000A84201D1032515E0284DA84202D10425DE
:100EE00010E037E0264DA84201D105250AE0254D46
:100EF000A84201D1062505E0234DA84201D10725CE
:100F000000E00825BD402543C6F80858DBF800403E
:100F10005D464E689C43F60300D51C432C60DEF80A
:100F2000004075464E689C43B60300D51C432C60B8
:100F30000B4D08352C684E689C43F60200D51C43C7
:100F40002C60074D0C352C684E689C43B60200D5CA
:100F50001C432C60521C102AFFF44EAFBDE8F88FE2
:100F6000003C014044380240003001400000024093
:100F70000004024000080240000C02400010024041
:100F80000014024000180240001C02400AB18161B6
:100F900070470904FBE70000014800687047000043
:100FA000CC00002002480168491C01607047000025
:100FB000CC0000200B4810B5016841F400710160BD
:100FC000016841F480610160016841F48071016051
:100FD000032000F075F8002000F006F800F018F883
:100FE000002010BD003C024010B5044607484FF4F5
:100FF0007A710068B0FBF1F000F037FB0022214667
:10100000501E00F03DF8002010BD0000D000002070
:1010100010B5032000F054F8002211466FF00B00C9
:1010200000F02EF8002211466FF00A0000F028F8B8
:10103000002211466FF0090000F022F8002211464C
:10104000501F00F01DF800221146101F00F018F884
:1010500000221146901E00F013F80022BDE8104057
:101060001146501E00F00CB800F01F020121914003
:101070004009800000F1E020C0F800117047000036
:10108000F0B40E4B1B680C46C3F30223C3F10705F3
:10109000042D00D90425191D072901D2002300E0E1
:1010A000DB1E012606FA05F1491E214099409E40AB
:1010B000761E16403143F0BC00F0A8BC0CED00E0F9
:1010C000064900F0070208684FF6FF03184040EA9F
:1010D0000220034A10430860704700000CED00E056
:1010E0000000FA052DE9F047DFF8649105460F4648
:1010F000D9F8000000F00F01F8B28046B94208D2DA
:10110000014689F80010D9F8000000F00F00B8423D
:1011100074D128784F4C800705D52068A96820F045
:10112000F000084320602878C00759D04949686812
:10113000083901281AD002281BD0032819D00968C1
:10114000890700295ADA216821F00301014321604F
:10115000FFF722FF6968064641F28830012911D065
:1011600002291DD00329824627D035E0096889036A
:10117000E7E709688901E4E7FFF70EFF811B5145A6
:1011800001D926E082462068C0F381000128F3D10E
:1011900026E000BFFFF700FF811B514501D918E091
:1011A00082462068C0F381000228F3D118E000BF16
:1011B000FFF7F2FE811B51450BD82068C0F3810078
:1011C0000328F5D10CE000BFFFF7E6FE811B514577
:1011D00002D90320BDE8F087206810F00C0FF3D18E
:1011E000D9F80010484601F00F01B94208D980F83B
:1011F0000080006800F00F00B84201D00120E9E74C
:101200002878400705D52068E96820F4E0500843B5
:1012100020602878000706D52068296920F46040FE
:1012200040EAC100206000F051F82168F02292FAF3
:10123000A2F201F0F001B2FA82F2D140064A515C0A
:10124000C840064908600020FFF7CEFE0020C1E735
:10125000003C0240083802405C7C0008D0000020BE
:101260000148006870470000D00000200848094984
:10127000006809684FF4E05292FAA2F201F4E051DA
:10128000B2FA82F2D140044A515CC8407047000073
:10129000D0000020083802405C7C0008084809495A
:1012A000006809684FF4604292FAA2F201F46041CA
:1012B000B2FA82F2D140044A515CC8407047000043
:1012C000D0000020083802405C7C000830B5194886
:1012D000006810F00C01184812D0441004290ED0F8
:1012E00008290DD11349091F0A6802F03F030A6853
:1012F000550247F6C07204D5B4FBF3F003E0204674
:1013000030BDB0FBF3F00B680968134092FAA2F20B
:10131000B2FA82F2D34058434FF4403292FAA2F22A
:1013200001F44031B2FA82F2D140491C4900B0FBCD
:10133000F1F030BD083802400024F4002DE9F84FE8
:101340000546DFF8FC920078A9F1040BC007ABF169
:10135000040449D0D9F800104846C1F3810101299D
:1013600008D00068C0F3810002280AD1DBF8000031
:10137000400206D52068800336D5686800286ED004
:1013800032E06868B0F5803F10D0B0F5A02F20683B
:1013900010D020F480302060206820F4802020606D
:1013A0006868A0B1FFF7F8FD06460CE0206840F43D
:1013B0008030F4E740F480202060F7E7FFF7ECFD91
:1013C000801B642871D820688003F7D50CE0FFF7F4
:1013D000E3FD064605E000BFFFF7DEFD801B642845
:1013E000F0D820688003F7D42878964F80074FF014
:1013F000010A4FF0000841D5D9F80010484611F015
:101400000C0F08D00068C0F3810002280AD1DBF875
:101410000000400206D42068800713D5E868012840
:101420001DD10FE0E868D8B1C7F800A0FFF7B4FD00
:10143000064604E0FFF7B0FD801B0228C2D82068F2
:101440008007F7D52068F82292FAA2F22969B2FA49
:1014500082F220F0F8009140084320600EE0ECE0BA
:10146000C7F80080FFF798FD064604E0FFF794FDFB
:10147000801B022819D820688007F7D42878000735
:1014800024D57148696989B1C0F800A0FFF784FDCF
:10149000064604E0FFF780FD801B022805D8684857
:1014A0006C3000688007F5D510E07AE0C0F8008065
:1014B000FFF772FD064604E0FFF76EFD801B022871
:1014C0006FD85F486C3000688007F5D428784007F3
:1014D00053D55B483830016841F0805101600068A5
:1014E00000F0805000905948016841F4807101601B
:1014F000FFF752FD064604E0FFF74EFD801B022871
:101500004FD852480068C005F6D54D4EA8686836D9
:1015100001280FD00528306810D020F0010030607D
:10152000306820F004003060A868B8B1FFF734FDDF
:1015300000900FE0306840F00100F4E740F0040054
:101540003060F7E7FFF728FD0099411A41F2883033
:1015500081426AD830688007F4D50EE0FFF71CFDA1
:10156000009007E0FFF718FD0099411A41F288301A
:1015700081425AD830688007F4D4A869E8B3D9F812
:101580000010C1F38101022957D00228C7F86080FA
:1015900003D0FFF701FD05464AE0FFF7FDFC0646D4
:1015A00005E042E0FFF7F8FC801B02283DD82068E8
:1015B0008001F7D4D5E90701084347F6C07292FAD3
:1015C000A2F2696AB2FA82F29140AA6A4FF0FF333E
:1015D00003EB52024FF4403393FAA3F3B3FA83F3CD
:1015E0009A40114308434FF0706292FAA2F2E96AFE
:1015F000B2FA82F29140084300E01CE0CBF8000010
:10160000C7F860A0FFF7C8FC054604E0FFF7C4FC7C
:10161000401B022809D820688001F7D50BE000BFE5
:10162000FFF7BAFC401B022802D90320BDE8F88F5F
:1016300020688001F4D40020F8E70120F6E70000DC
:101640000838024000004742800E474200700040C8
:101650004FF0E0210428086903D020F0040008615D
:10166000704740F00400FAE7704710B5401EB0F133
:10167000807F01D3012010BD4FF0E02460610F2175
:10168000601700F0C3F90020A0610720206100204E
:1016900010BD10B5FFF7E8FF10BD70B5040004D011
:1016A00094F83900002510B106E0012070BD84F8DF
:1016B0003850204600F022F8242084F839002068B1
:1016C000C16821F40051C160204600F033FA20685F
:1016D000016921F4904101612068416921F02A01EA
:1016E00041612068C16841F40051C160E563202078
:1016F00084F8390084F83A00002070BD00B5006815
:101700000E4987B0884217D10D48016841F4802105
:1017100001600068694600F4802005904FF4406045
:1017200000900220019001200290032003900720E6
:1017300004900448FFF752FB07B000BD004800408A
:1017400040380240000802402DE9F843044690F872
:1017500039001F4616460D46202850D1A5B19EB12E
:1017600094F8380001284AD0012084F838004FF05E
:101770000008C4F83C80212084F83900FFF70CFCF5
:10178000A6848146E68426E00120BDE8F883E08C4B
:10179000401EE084A0684B46B0F5805F4FF0000229
:1017A0004FF080012046009703D000F019FBE8B904
:1017B0000DE000F015FBC8B928882168C0F30800C7
:1017C0004860206908B16D1C05E0AD1C03E021688C
:1017D00015F8010B4860E08C0028D8D14B46002258
:1017E00040212046009700F0FBFA08B10320CCE727
:1017F000202084F8390084F838800020C5E70220D2
:10180000C3E7FEE72DE9F0411D4617460E460024CA
:1018100078BB0020FEF7ACFD0120FEF7A9FD0220F9
:10182000FEF7A6FD0320FEF7A3FD27E057F82400EE
:1018300015A1FEF71EFD00BB55F8240013A1FEF70D
:1018400018FDC0B155F8240011A1FEF712FD60B1DA
:1018500055F824000FA1FEF70CFD40B155F8240007
:101860000DA1FEF706FD28B107E0012003E00220EC
:1018700001E005E00320FEF789FD641CB442D5D3E6
:1018800006A0BDE8F08100006C6564003100000036
:101890003200000033000000340000002F53544D8C
:1018A0003332463478784C45442E68746D6C0000B1
:1018B000F0B5264887B00024016841F480710160CA
:1018C000016801F480710591016841F080010160B7
:1018D000016801F080010591016841F00401016097
:1018E000016801F004010591016841F00101016006
:1018F000016801F001010591016841F040010160BA
:101900000068134E00F040004FF4A06505900022DF
:1019100029463046FFF73AFB0E4F00220C2138468D
:10192000FFF734FB00950125CDE9015469463046A7
:101930000394FFF753FA0C200090CDE90154694657
:1019400038460394FFF74AFA07B0F0BD303802403A
:1019500000200240001C02400EB503F075F9134947
:101960000020144A0860091D104B0860091D083347
:101970000860CDE900020E4902911A1F111F0E489E
:1019800003F0E6FA0C4803F02BFB0B4890F8330009
:101990004007094802D503F061FB01E003F026FB94
:1019A000BDE80E40044801F0B5B90000D8000020A1
:1019B0009D340008313500087037002010B5034809
:1019C00001F0CAFDBDE8104003F08ABD7037002069
:1019D0000C4810B50A4901604FF4E1314160002123
:1019E00081600C22C160C0E904128161C161FFF70E
:1019F00054FE002803D0BDE81040FEF75FBE10BDC6
:101A00000048004090680020FEE770470907090E73
:101A1000002806DA00F00F0000F1E02080F8141D25
:101A2000704700F1E02080F800147047704770475D
:101A300010B5FFF7B7FABDE81040FFF72ABE000067
:101A400030B5254893B00025016841F08051016010
:101A5000006800F0805011902048016841F48041F6
:101A600001600068022400F480401190012003907E
:101A700010200490009406940820CDE90750A82077
:101A8000CDE9090404200B906846FFF757FC00B12C
:101A9000FEE70CA90F2081E831004FF4A0500F9011
:101AA0004FF48050109005210CA8FFF71BFB00B1EC
:101AB000FEE7FFF7D5FB4FF47A71B0FBF1F0FFF7CB
:101AC000D4FD0420FFF7C4FD00221146501EFFF78D
:101AD000D7FA13B030BD000040380240007000401B
:101AE0001048016841F4700101600F48016841F03D
:101AF000010101600C4A00210832116002680B4BA1
:101B00001A400260031D0A4A1A60026822F4802209
:101B1000026005480C3001600249580680390860AF
:101B20007047000088ED00E000380240FFFFF6FE3D
:101B3000103000242DE9F04104460068016921F4C9
:101B40004052E168114301612168C86849F20C62A2
:101B500090432369A268E5691A4363692B431A43DA
:101B60000243CA602168486920F44072A0691043AA
:101B70004861E1696425B1F5004F9748974A2168AB
:101B80004FF032083FD0914201D081427CD1FFF723
:101B900085FB00EBC00101EB001061688900B0FB20
:101BA000F1F6FFF77BFB00EBC00101EB0010616871
:101BB0008900B0FBF1F0B0FBF5F06FF0180148437D
:101BC00006EB800108EB0110B0FBF5F000F0F00629
:101BD000FFF764FB00EBC00101EB001061688900B6
:101BE000B0FBF1F0B0FBF5F006EB0016FFF756FB8B
:101BF00000EBC00101EB001061688900B0FBF1F758
:101C0000FFF74CFBD2E0914201D081423DD1FFF77A
:101C100045FB00EBC00101EB001061684900B0FB1F
:101C2000F1F0B0FBF5F00601FFF738FB00EBC00167
:101C300001EB001061684900B0FBF1F7FFF72EFBE4
:101C400000EBC00101EB001061684900B0FBF1F04E
:101C5000B0FBF5F06FF01801484307EB800108EB8B
:101C6000C100B0FBF5F000F0F80006EB4006FFF70E
:101C700015FB00EBC00101EB001061684900B0FBEF
:101C8000F1F7FFF70BFB3CE055E0FFF7EFFA00EB55
:101C9000C00101EB001061684900B0FBF1F0B0FB3E
:101CA000F5F00601FFF7E2FA00EBC00101EB0010CE
:101CB00061684900B0FBF1F7FFF7D8FA00EBC0010B
:101CC00001EB001061684900B0FBF1F0B0FBF5F0EA
:101CD0006FF01801484307EB800108EBC100B0FB2F
:101CE000F5F000F0F80006EB4006FFF7BFFA00EB56
:101CF000C00101EB001061684900B0FBF1F7FFF78C
:101D0000B5FA00EBC00101EB001061684900B0FBBF
:101D1000F1F0B0FBF5F06FF01801484307EB8001DC
:101D200008EBC100B0FBF5F000F00700216830447B
:101D30008860BDE8F081FFF799FA00EBC00101EB84
:101D4000001061688900B0FBF1F6FFF78FFA00EB35
:101D5000C00101EB001061688900B0FBF1F0B0FB3D
:101D6000F5F06FF01801484306EB800108EB011015
:101D7000B0FBF5F000F0F006FFF778FA00EBC001D9
:101D800001EB001061688900B0FBF1F0B0FBF5F0E9
:101D900006EB0016FFF76AFA00EBC00101EB00103A
:101DA00061688900B0FBF1F7FFF760FA00EBC00152
:101DB00001EB001061688900B0FBF1F0B0FBF5F0B9
:101DC0006FF01801484307EB800108EB0110B0FBEE
:101DD000F5F000F00F00A9E70014014000100140E9
:101DE0002DE9F041984617460E460446069D1DE033
:101DF000681C1BD02DB1FFF7CFF8A0EB0800A8425C
:101E000014D92068C16821F4D071C160206841698B
:101E100021F001014161202084F8390084F83A0062
:101E2000002084F838000320BDE8F08120680068B5
:101E300036EA000004D00020B842D9D00020F3E7F1
:101E40000120F9E7FEE708B1002070472D20087057
:101E500048708870C87004207047000090F8330004
:101E6000C107054802D001210170704705210170AA
:101E700002A000F017B80000F400002054686520AC
:101E80006E6574776F726B206361626C6520697335
:101E9000206E6F7420636F6E6E6563746564200DD1
:101EA0000A0000000FB4054B10B503A9044A0298BC
:101EB00000F02CF810BC5DF814FB0000E9350008B8
:101EC000300100200FB4084B10B504A902AA0398F2
:101ED00000F01CF8044602A9002000F0F3F82046A8
:101EE00010BC5DF814FB0000C520000802E008C823
:101EF000121F08C1002AFAD170477047002001E084
:101F000001C1121F002AFBD1704700002DE9FF4FCD
:101F10008BB09A460F460546002606E025280BD0D2
:101F200052460D9990476D1C761C28780028F5D1F3
:101F30000FB03046BDE8F08F0024A0460122604972
:101F400000E0044315F8013F203B02FA03F0084289
:101F5000F7D128782E2817D115F8010F44F0040482
:101F60002A280ED06FF02F022878A0F1300109291D
:101F70000AD808EB880102EB410100EB01086D1C57
:101F8000F2E757F8048B6D1C287869283ED006DCF0
:101F90000028CDD063280BD0642804D136E0732804
:101FA00010D075284BD052460D999047761C85E08D
:101FB00017F8040B8DF8000000208DF80100E946A9
:101FC000012003E057F8049B4FF0FF3061074FF00A
:101FD000000401D40AE0641C44450DDA8442FADBB3
:101FE00019F804100029F6D106E0641C8442FCDBD9
:101FF00019F804100029F8D1264404E019F8010B5F
:1020000052460D999047641EF8D257E001CF4FF029
:102010000A0B002802DA40422D2102E0210504D5F6
:102020002B218DF82410012103E0E10705D02021A8
:10203000F7E70DF1200908910CE00021F9E701CF45
:102040004FF00A0BF9E75946FEF73DF901F130026E
:1020500009F8012D0028F6D1ADEB090000F1200BA5
:10206000600701D44FF00108D84502DDA8EB0B0052
:1020700000E000208046002406E009A85246005DEA
:102080000D999047641C761C08988442F5DB04E0A7
:10209000302052460D999047761CB8F10001A8F106
:1020A0000108F5DC05E019F8010B52460D9990473F
:1020B000761CBBF10001ABF1010BF4DC6D1C34E7C5
:1020C000092801000A68531C0B601070704700005B
:1020D00010B501F073F9BDE81040002202494FF439
:1020E0007A7003F023BA0000D120000800280BD03A
:1020F000426A002A08D0137B082B05D10968D26AEE
:10210000914201D100F078B970472DE9FC410500FA
:1021100066D06C6A002C63D00023A384A16B4FF0BF
:102120003C07B1F1FF3F4FF480364FF001024FF60C
:10213000FF700AD01E31B1FBF7F1B14200D3014666
:102140000904090CE18400D1E284E16BB1F1FF3FA5
:102150000CD01E31B1FBF7F1B14200D301460904A6
:10216000090CA18300D1A283A18B2184216CB1F140
:10217000FF3F0CD01E31B1FBF7F1B14200D3014655
:102180000904090CE18300D1E283E18B6184A28B15
:10219000E18B8A4201D301B1A383A17B09B1206BFA
:1021A00009E094F82C107F2901D8FF2003E0C02912
:1021B00001D36FF07F400090606B019028B9E06A16
:1021C0000099084040F08070019001AB6A4604F12C
:1021D0002C01284602F0F4FE0A21204600F092FD70
:1021E000BDE8FC8170B5446A05460821204600F030
:1021F00089FD002204F12C01284600F0F3FF607BEA
:10220000FF2801D2401C60734FF4FA7140F2E730AE
:10221000B0FBF1F0608370BD70B52A4804684EE0F1
:10222000606AA8B3017B99B3C18C69B1818C491CE8
:102230008AB28284C18C8A4206D1204600F052FCC8
:10224000204600F027F939E0418C19B14A1E42843A
:10225000012906D0018CD9B14A1E0284012918D067
:102260002CE0656A287B012805D00A2803D00528C0
:1022700001D0042822D1204600F018FB616AAA8C04
:10228000C88C801A022819DB00EBD0704008488403
:1022900014E0656A287B012803D00A2801D00528AC
:1022A0000CD1204600F070FC616AAA8CC88B801AA1
:1022B000022803DB00EBD070400808842468002C5F
:1022C000AED170BDC40000202DE9F04116460C4689
:1022D00007000FD094B100224FF49A71104602F01B
:1022E000CBFE206168B1032E12D0607B404D58B107
:1022F00068680CE06FF00E00BDE8F0816FF005003B
:10230000FAE74FF0FF30F7E7FDF75AFF686020600B
:102310002069002541680120616108706169487089
:10232000616997F82C0088706069C570206802F0B8
:1023300087FC6169082E4860606905816069458194
:102340006069C5600AD0042E08D0072E06D0032E7F
:1023500007D1207B052801D0042802D16169786863
:10236000C8606069056160694561606985610020D8
:1023700097F82C10814205D9062803D2391891F814
:102380002D1000E0002100F11C026369401C80B2A6
:1023900099541028ECD3002000F12C016269401CF4
:1023A00080B255544028F7D35FF0000000F16C0173
:1023B0006269401C80B255548028F7D361690D488A
:1023C000C1F8EC0025830020626900F1F00150544F
:1023D000401C80B24428F7D301223521204600F06A
:1023E00009F93146204600F015F9002084E7000085
:1023F00028000020638253637CB5446A06460C21A2
:10240000204600F07FFC042221463046FFF75CFFA7
:10241000050020D104223221204600F0EBF8E06ACA
:1024200002F021FC0146204600F0FCF8204600F0B6
:102430002BF9208BF03081B2206902F0D7FF0D48D4
:102440004323CDE900600C4A2169606805F04CFB2C
:10245000204600F013F8607BFF2801D2401C607317
:1024600042F603104FF4FA71B0FBF1F06083284696
:102470007CBD0000007C0008047C000810B504004E
:1024800006D0206908B102F051FF00202061606190
:1024900010BD00002DE9FC41446A06460020E062C0
:1024A0000621204600F02EFC012221463046FFF78F
:1024B0000BFF07002ED102223921204600F09AF8A6
:1024C000718D204600F0CFF804223721204600F01D
:1024D00091F8DFF87C800025204618F8051000F000
:1024E00099F86D1CEDB2042DF6D3204600F0CCF81F
:1024F000208BF03081B2206902F078FF1548432329
:10250000CDE90060144A2169606805F0EDFA2046C3
:10251000FFF7B4FF607BFF2801D2401C6073C0B29C
:10252000062802D20121814000E03C2101EB41005C
:10253000C0EBC1104FF6FF7101EAC0004FF4FA7111
:1025400000F2F310B0FBF1F060833846BDE8FC8187
:1025500028000020007C0008047C000870B50B48AF
:10256000002504680EE0606A58B1418B012903D947
:10257000A1F10101418304E003D14583204600F02D
:1025800032FC2468002CEED170BD0000C400002095
:1025900070B5446A0020164E20636063F178A6F19E
:1025A000280509B1E968A163317909B1296901E018
:1025B000A16B4908E163717909B1696903E0A16B15
:1025C000C1EBC101C9082164A1680969E162B1795F
:1025D00021B1A86902F034FB20630120A073F079D7
:1025E000002803D0E86902F02BFB606370BD000097
:1025F0007402002010B5038B44691C445B1C0383E8
:1026000084F8F010018B43690B44491C018383F863
:10261000F02010BD028B43691344521C028383F8DF
:10262000F010704710B5028B44690B0E1444521C15
:10263000028384F8F030028B44690B0C1444521C62
:10264000028384F8F030028B44690B0A1444521C54
:10265000028384F8F030028B43691344521C0283D6
:1026600083F8F01010BD10B5028B44690B0A1444B6
:10267000521C028384F8F030028B43691344521CCD
:10268000028383F8F01010BD002812D0018B43693B
:10269000FF220B44491C018383F8F020002205E04F
:1026A00043690B44491C018383F8F020018B4429C2
:1026B000F6D370472DE9FF5F044600208A46039059
:1026C0000A217948FDF7A7FDBAF80A002C2818D38B
:1026D000DAF80400A060BAF80800DFF8CC81F02531
:1026E0006FF00509574604E06A1A401A3F6895B230
:1026F00080B237B17989A942F6D90190D7F804B0F0
:10270000AEE06FF0010004B0BDE8F09FA81C80B2FD
:1027100002907A89681C4FF0FF36824203D90BEB96
:102720000500407803E0386808B140680078342933
:1027300004463AD00BDC032925D003DCD1B10129B2
:102740000DD11CE0062923D0332908D129E03529F1
:102750002FD0362931D03A2933D03B2937D0002425
:102760002844801C85B284B30020009018F806002D
:1027700060B365E000206D1E0446ADB2F0E70428AA
:102780004DD10626ECE70424042848D30726E7E7C2
:10279000810744D1082800D30824A0423FD308264B
:1027A000DEE704283BD10326DAE7012837D10026EB
:1027B000D6E7012833D10126D2E704282FD10226FB
:1027C000CEE704282BD10426CAE739E003E0042829
:1027D00025D10526C4E7042C01D2224600E00422BC
:1027E00069463846029B02F06DFD042C13D9A00700
:1027F00015D1012108F80610009802F021FA2A49A3
:10280000241F2839E4B241F826000298001D80B246
:10281000761C0290AAE7042C03D0012C05D0484670
:1028200071E7009802F01FFA01E09DF800000090A7
:10283000012008F806001C480099283840F82610A6
:102840007889A8420BD8291A8DB20199081A80B24A
:10285000019085420CD258B13F68D7F804B03FB11F
:102860001BF80510FF2903D001988542FFF44EAFF5
:1028700098F8001059B10C4900222839096888F8E5
:10288000002001290DD0022904D0032907D0039884
:102890000028C5D000202C2503906C2022E70120C1
:1028A00003906C25EC201DE774020020F8B5446A03
:1028B00005460421204600F025FA03222146284639
:1028C000FFF702FD06001BD1022239212046FFF747
:1028D00091FE698D2046FFF7C6FE2046FFF7D4FE25
:1028E000208BF03081B2206902F080FD00954323F7
:1028F000104A2169606805F0E1F82046FFF7BEFD47
:10290000607BFF2801D2401C6073C0B20A2804D249
:102910004FF47A7110FB01F001E042F2107080B2C6
:102920004FF4FA7100F2F310B0FBF1F0608330461F
:10293000F8BD0000047C0008F8B5446A064603218F
:10294000204600F0DFF9032221463046FFF7BCFCA9
:10295000050028D1022239212046FFF74BFE4FF413
:1029600010712046FFF77FFE042232212046FFF738
:1029700041FEE06A02F077F901462046FFF752FE79
:102980002046FFF781FE208BF03081B2206902F0F3
:102990002DFD00964323104A2169606805F08EF8EA
:1029A0002046FFF76BFD607BFF2801D2401C60735F
:1029B000C0B20A2804D24FF47A7110FB01F001E092
:1029C00042F2107080B24FF4FA7100F2F310B0FBD3
:1029D000F1F060832846F8BD047C00082DE9F04141
:1029E0000446456A5089516816464FF000082C2865
:1029F0006CD30878022869D1002094F82C2001E0DB
:102A0000401CC0B2824209D9062807D223180F18E9
:102A100093F82D303F7FBB4258D1F1E7486802F070
:102A200022F92968884251D131462846FFF742FEF3
:102A300000BB2A494878E8B1A1F12802107905289D
:102A400004D0062817D002282DD03FE0287B01288B
:102A500006D003280BD0042809D0052807D035E07C
:102A60002046FFF795FD2046FFF7BCFB2EE02046F1
:102A7000FFF74BFB2AE0287B032805D0012803D071
:102A8000042801D0052821D1154B20461A461146AD
:102A9000676A02F095FA0C21384600F033F92046B7
:102AA000FFF7F8FC12E0287B06280FD1A5F81A8062
:102AB0002746646A887848B1906802F0C1F8A0623D
:102AC000A0680069E062384600F0A2F83046C5F818
:102AD0000880BDE8F04102F029BC0000740200202B
:102AE000007C00087CB5446A0546F4B1A06A0190F8
:102AF000284600F06CF906460021204600F002F955
:102B00000020A062E062206360632064E063A06351
:102B1000E084A0846084208456B1072221462846A0
:102B2000FFF7D2FB060005D023E06FF00E007CBD5E
:102B300000207CBD042236212046FFF75BFD019872
:102B400002F091F801462046FFF76CFD2046FFF7A2
:102B50009BFD208BF03081B2206902F047FC00958C
:102B6000432301AA2169606804F0A8FF2046FFF70B
:102B700085FC044B28461A46114602F021FA3046DD
:102B80007CBD0000007C0008F8B5446A05460521BC
:102B9000204600F0B7F8032221462846FFF794FBB1
:102BA00006001CD1022239212046FFF723FD698D42
:102BB0002046FFF758FD2046FFF766FD208BF030DA
:102BC00081B2206902F012FC0095432304F128022F
:102BD0002169606804F072FF2046FFF74FFC607BBC
:102BE000FF2801D2401C6073C0B20A2804D24FF4FF
:102BF000FA6110FB01F001E044F6206080B24FF46E
:102C0000FA7100F2F310B0FBF1F060833046F8BDCA
:102C10002DE9FC41446A06460121204600F072F885
:102C2000032221463046FFF74FFB070046D1022220
:102C300039212046FFF7DEFC718D2046FFF713FD9A
:102C4000042232212046FFF7D5FCE06A02F00BF89F
:102C500001462046FFF7E6FC042236212046FFF716
:102C6000C9FCA06A01F0FFFF01462046FFF7DAFC2D
:102C7000042237212046FFF7BDFCDFF87C800025C9
:102C8000204618F80510FFF7C5FC6D1CEDB2042DA9
:102C9000F6D32046FFF7F8FC208BF03081B2206994
:102CA00002F0A4FB15484323CDE90060144A2169D2
:102CB000606804F019FF2046FFF7E0FB607BFF2807
:102CC00001D2401C6073C0B2062802D201218140AB
:102CD00000E03C2101EB4100C0EBC1104FF6FF7159
:102CE00001EAC0004FF4FA7100F2F310B0FBF1F00A
:102CF00060833846BDE8FC8128000020007C000885
:102D0000047C0008027B8A4203D0017300214173D6
:102D10004183704770B505006FF00E0106D095F83D
:102D20003300C20702D06C6A000701D4084670BDA8
:102D3000688D4FF0FF36B0F5107F2FD33CB360683D
:102D400008B104F0A3FE44212046FDF764FA04F024
:102D50008DFE606010B3017A442241F020010172BF
:102D60000F49606804F048FD43220D49606804F093
:102D70009BFD2A460B49606804F085FE2846FFF754
:102D800089FB0028D3D0284600F00EF806E0442046
:102D900001F0DCFF040001D06C62D4E7304670BD66
:102DA000007C0008DD29000810B500280ED0446A18
:102DB000002C0BD0606818B104F068FE0020606041
:102DC0002046BDE810400021FFF79CBF10BD30B188
:102DD000406A20B1007B0A2803D0052801D00020DA
:102DE00070470120704710B5426A0446117B0C29D8
:102DF0000FD006290DD001290FD0082919D0032999
:102E000023D1507B022812D22046BDE81040FFF7A4
:102E100093BDBDE81040FFF73DBB507B0528204621
:102E200003D8BDE81040FFF7F3BEFFF75BFE204676
:102E3000EFE7507B0128204603D8BDE81040FFF79C
:102E4000D1B9BDE81040FFF760B910BD10B5FFF76C
:102E5000E3F9BDE81040002202494EF6602002F07E
:102E600065BB00004D2E000810B5FFF777FBBDE8ED
:102E70001040002202494FF4FA7002F057BB0000E4
:102E8000692E0008826812680A60806801607047D5
:102E90002DE9F84F9046894606005CD0B8F80A0044
:102EA0002A2855D3D8F804504FF4807A2C4634F8A9
:102EB0000E0F50454CD12079062849D1607904285D
:102EC00046D16088082843D1D4F80E000090A1694B
:102ED000706820B1814202D101273B4601E0002702
:102EE000022304F108026946304600F097FAE088B0
:102EF000504503D0B0F5007F2AD125E01FB3022052
:102F000001F0A0FEE080D4F80E00A0617068C4F863
:102F10000E00A068C4F81200A089E082A0682860B2
:102F2000A089A880D9F80010A160B9F80400A08198
:102F3000D9F80010C5F80610B9F804006881B26924
:102F400041463046904703E069463046FFF7CEF8E9
:102F5000404602F0EBF9BDE8F88F000070B50A4D6D
:102F60000646002404EB440005EBC000017D29B1B6
:102F70008068B04202D1204600F076F8641CE4B2CA
:102F80000A2CEFD370BD00005C0100202DE9FC5F2E
:102F90000A27054600208B46DFF8C8903E46394692
:102FA0003C4601908646009000EB400A09EBCA03BC
:102FB0000A291A7D0AD0B2B165B1D5F800C0D3F89C
:102FC0000480C44506D140B2BDE8FC9F002AF3D17D
:102FD00041B208E0012A14D0022A04D35A8A724569
:102FE00001D346B29646401CC0B20A28DCD35FEA41
:102FF0008B724FF0FF30E7D40A2913D015DACCB228
:1030000021E059F83A20002A5A8A05D0019B9A42B9
:10301000E9D344B20192E6E7009B9A42E3D347B278
:103020000092E0E75FEACB71CED00A2E01DAF4B26B
:1030300006E00A2F01DAFCB202E00A2CC4DAE4B29C
:10304000204600F011F82DB104EB440209EBC20058
:103050002968416004EB440209EBC200002141826F
:1030600060B2B1E75C01002070B5074C00EB400591
:10307000002654F8350018B102F058F944F83560CC
:1030800004EBC500067570BD5C0100202DE9FC4114
:103090000E46044615460E21304602F06FF918B16F
:1030A0006FF00100BDE8FC812146286801F084F83A
:1030B00008B1324B39E02868C0F303110E291FD044
:1030C000A168636800EA01020B409A4208D080B20E
:1030D000A0F57E41A93903D0E06868B304F10C057E
:1030E000274A2849137803EB430001EBC000077D12
:1030F000022F24D32F684068874220D11A462DE042
:1031000001208DF8000000208DF801005E208DF870
:10311000020068786B4600F07F008DF80300A87805
:103120008DF80400E8788DF8050004F12D02314691
:10313000204600F033F9B5E76FF00300B2E7002056
:1031400000EB400301EBC3031F7D022F0BD32F685D
:103150005B689F4207D1C0B21070024631462046DC
:1031600000F012F89EE7401C40B20A28E8DB324625
:103170002946204600F036F894E70000867B0008D8
:10318000240000205C0100202DE9F041064688461D
:10319000134802EB420100EBC10404F10C05207D51
:1031A000022813D1608A0327B0F58E7F04D9211D30
:1031B000304600F0DDF807E0B0F5877F06D32A46F9
:1031C000211D304600F0DAF800B927752B4606F1CC
:1031D0002D0241463046BDE8F04100F0DFB8000066
:1031E0005C0100202DE9F84F82462D300090884682
:1031F000086814464FF0FF36514600F0DDFFD0B9A5
:10320000D8F80000C0F303110E2914D0B8F1000F54
:1032100011D080B1524601214046FFF7B7FE0700AA
:103220000BD4DFF8A4B007EB47090BEBC905287DE9
:1032300028B144B10EE06FF00E00BDE8F88F012018
:103240002875C5F808A04146504600F091F806469A
:10325000002CF2D0287DD84602280AD31B4805F15D
:103260000C03214607705046009A00F097F8064676
:1032700027E0012825D12046017B01290ED00189B4
:103280000022032001F0F8FE050018D0214601F0CD
:10329000CCFF58B1284602F049F810E00068002839
:1032A000EAD12546204602F0CBF845B158F839005E
:1032B00008B102F03BF848F83950002601E04FF021
:1032C000FF363046B9E700005C01002024000020F2
:1032D0002DE9F05F9046894682461F4600222A214A
:1032E0000320DDF82CB001F0C7FE06003DD0756864
:1032F0000D9805F10E0401F0A5FCE0803868A0608F
:10330000B888A081DBF80010C4F81210BBF80400E4
:10331000E0820A980068C4F80E000C980068A0616A
:103320004FF48070208008206080062020710420E7
:1033300060714FF4C160A881D8F800102960B8F816
:103340000400A880D9F80010C5F80610B9F80400E8
:103350006881DAF8182050463146904704463046D6
:1033600001F0E4FF2046BDE8F09F4FF0FF30FAE7A0
:10337000014A00F003B80000867B00087FB5064DC7
:10338000031D0124CDE90035CDE902142933194686
:10339000FFF79EFF04B070BD8C7B000830B44C6812
:1033A0000825A5811D6825609B88A3801368C4F843
:1033B000063092886281826930BC104770B5164D24
:1033C000002400BF04EB440005EBC002107DF0B107
:1033D000518A491C89B25182B1F5967F0AD20128DF
:1033E00006D003280AD004280AD001280BD00EE00A
:1033F000052908D32046FFF737FE08E0042000E047
:103400000220107503E0111D9068FFF7B1FF641CE6
:10341000E4B20A2CD6D370BD5C0100202DE9F04146
:103420001F4616460D00044632D0286878B3214660
:1034300000F0C2FE58BB2878C0F303100E2827D036
:10344000224639462846FFF7A1FD00281DDB00EB88
:1034500040011148022300EBC102137594603368E8
:10346000D360B38813820023538250F831505DB18A
:1034700040F83130334604F12D0229462046FFF74B
:103480008DFF284601F052FF0020BDE8F081FFE7E4
:103490006FF00E00F9E700005C01002070B50446F3
:1034A00040890D460E283DD9606801788689CA0793
:1034B00014D0012905D006221C49FCF7E8FE48B1CA
:1034C0000CE0417851B980785E2807D1607B40F0EC
:1034D000100002E0607B40F008006073082E03D00B
:1034E000B6F5C16F1ED111E095F83300000719D56C
:1034F00060890E2816DB6FF00D01204601F03EFFBB
:1035000080B92946204600F01BFF09E095F83300FA
:10351000000707D5224605F12D012846FFF7B8FC24
:10352000002070BD204601F001FFF9E7867B00080E
:1035300010B5732180F83410742180F835100449D7
:1035400041610449816101F051FA002010BD000081
:103550008D300008994B000870B5054601F0BEFAA1
:10356000040009D02A6929469047002804D0204643
:10357000BDE8704001F0DABE70BD00002DE9F047F3
:10358000814699B1087888B100250C464FEA0506B6
:1035900009EB8507A04626212046C7F8F440FCF732
:1035A00057FE30B100F8016B044609E00020BDE889
:1035B000F08720214046FCF74BFE00B10670002446
:1035C0003D214046FCF744FE20B100F8016BC7F8EE
:1035D000340101E0C7F834616D1C102D01DA002CB4
:1035E000D6D12846E3E7000013B54FF6FF7301225A
:1035F00069460248FEF7A8F800981CBD90680020B4
:10360000D0E90110081A7047AFF30080094A002181
:1036100001EB410302EBC303834206D101EB4101FD
:1036200002EBC101002008757047491C0A29EFDB35
:1036300070470000D06800202DE9F04107460020C7
:103640001649064600EB400201EBC202127D2AB188
:10365000401C0A28F6DB0020BDE8F081012200EBC7
:10366000400011EBC0042275F5D00D4D05E0384641
:103670006968FCF7FEFD30B12D68002DF7D12046BA
:10368000FFF7C4FFE7E7A8682060E8686060E868C3
:10369000C4E90206287C20742046DDE7D0680020BB
:1036A0003848010870B505460B46D5E90110884237
:1036B00002D14FF0FF3070BD0C1A944200DD144669
:1036C0002968224601441846FCF78CFDA86820446E
:1036D000A860204670BD00002DE9F041224D04464F
:1036E00000F12E07296800F1300881B1A86870B197
:1036F000686860B1002607E0A86850F826103846D0
:10370000FCF7B7FD60B1761C68688642F4DB38468A
:10371000FCF7A8FDA72809D23846FCF7A3FD06E070
:103720002B68C0224146304698471AE0A72005463C
:1037300012220EA14046FCF755FD2A46394604F1F7
:103740004200FCF74FFD0EA160190A6840F8422FB5
:10375000898881803E2181710021C1714046FCF73A
:1037600081FD6085BDE8F081F80000203C623E2AC2
:103770002A2A554E4B4E4F574E20544147200000A9
:103780002A2A2A3C2F623E0070B50E46012130469F
:1037900003F09DFC4FF4BA75284601F0D7FA0400F7
:1037A00019D02946FCF737FD2146304602F028F8AB
:1037B0000A49304603F036FB0949304602F0BAF9AF
:1037C00004220849304602F031FF0749304603F031
:1037D0007CFC002070BD4FF0FF3070BD233B000823
:1037E00041380008F13A0008493F000870B50D461D
:1037F0000446002102F004F80021204603F012FBE9
:103800000021204602F096F900221146204602F0DF
:103810000DFF0021204603F058FC284600F0AEFBC7
:10382000204602F031F8002806D02046BDE870405E
:103830000422024902F0FABE70BD0000F13A00080D
:10384000002801D000F09ABB704700002DE9F74333
:103850004FF00008054680F82C80019891460178C9
:103860002F2901D1417869B13F21FCF7F1FC040017
:1038700001D004F8018B354E306970B3F06860B345
:10388000002720E0324F002657F83600FFF7D4FE1D
:10389000040057F83600019003D007EBC60000790A
:1038A00045E0761C052EEFD301A800F053F804463E
:1038B00085F82C8041E0F06850F837100198FCF74B
:1038C000D8FC80B17F1C30698742F4DB30698742C5
:1038D00003D114B13F2004F8010C0198FFF7ACFEAE
:1038E000040012D016E021462846FFF747FE0146A5
:1038F000F06805F59A7300EBC70005F1F402D0F803
:1039000004C03846E0470190E0E701A800F022F843
:10391000040012D00D4F002685F82C8017F11407F3
:10392000019857F82610FCF781FC18B1012085F8A2
:103930002C0002E0761C042EF2D34A46214628468B
:10394000019B00F031F8BDE8FE830000F800002084
:103950005448010810B504460AA02060FFF76CFE29
:1039600000280DD10AA02060FFF766FE002807D1CD
:103970000AA02060FFF760FE002801D1002121602D
:1039800010BD00002F3430342E68746D6C000000C0
:103990002F3430342E68746D000000002F34303422
:1039A0002E7368746D6C000070B50446002001B37E
:1039B000208584F8F1000B68E3614B6863620B6853
:1039C000236221600B6863604D6865612076087C26
:1039D00098B192B12A460AA1184601F061FD60B182
:1039E0006168401A001D014461606169081A6061E4
:1039F00003E02060606060612076002070BD000000
:103A00000D0A0D0A000000002DE9F047056808685E
:103A10000E4608B9706818B16FF00700BDE8F0876E
:103A2000B06890B1294601F0DAFBB068016871B165
:103A3000058940F2FF318D4200D30D4600232A460E
:103A4000264901F03FFC254C03E0B560EDE76C68CA
:103A50006D896FF00E09072D30D32A4620A120462C
:103A600001F01EFD50B3002704221EA12046FCF7E2
:103A70001BFCB84610B184F804802CE02D1FADB2B9
:103A8000201D2A4619A1E41C01F00AFD28B92A4686
:103A900013A1601C01F004FD0127011B491E8AB21D
:103AA00060B1A0420AD9611C84F8008001F802804C
:103AB0003A463046BDE8F047FFF7C8BEB06801F0AF
:103AC000ABFBB1680989B1F5806F04D20A2802D82E
:103AD0006FF00400A2E74846A0E70000C06900209C
:103AE0000D0A00004745542000000000200000009F
:103AF00010B50C46010010D0087E401CC0B20876FC
:103B000004280AD0086830B1204600F041F810B10E
:103B1000204602F073FB002010BD2046FFF766FE32
:103B2000F9E77FB5044602980E466FF00B0563B1C6
:103B300030B10189304603F089F9029801F0F6FBB3
:103B400021463046FFF752FE1AE00028F8D0002C3C
:103B5000EFD00189304603F079F9206838B9324650
:103B6000214602A8FFF750FF0546401D06D0A06879
:103B700018B101F0DBFB0020A06025B10F35DFD0CC
:103B800004B0002070BD2146304600F001F8F7E790
:103B90002DE9F84F0546002648690C46B04670BB33
:103BA000206838B1FFF72CFD00287ADDE06828B1E5
:103BB00027690FE02846FFF719FE1EE0A87F0007DF
:103BC000E88E00D50C384700B8B201F0BFF8E060CD
:103BD00070B1276101463A462068FFF763FD00286F
:103BE0000EDA21462846FFF701FE0120BDE8F88FD6
:103BF00007EBD7704710642FE6DC0020F6E704E0FF
:103C00006061E1686160E161606294F82C004FF6E8
:103C1000FF7750B3B5F86620ADF80020E36961681E
:103C20004FF0010B04F12E094FF0000A8B4246D9E8
:103C3000581A904201DCADF80000A87F0007E88E1A
:103C400000D50C38BDF8002080B2B2EB400F03D98C
:103C500007EA4000ADF8000001236A46284600F05C
:103C6000A1F95FEA00081DD025E0B5F8661060698B
:103C7000814202D2ADF8001001E0ADF80000A87F4B
:103C80000007E88E00D50C38BDF8001080B2B1EB0B
:103C9000400F03D907EA4000ADF800000023616837
:103CA00037E14BE1BDF80000616801260144616025
:103CB0006169081A6061B5F8660000287ED0F8E0F6
:103CC000BDF800100029F9D094F8F120052AF6D2A9
:103CD000DFE802F003102564B100E1690A783C2AAC
:103CE00003D184F8F1B0A4F828B0401E491CE1616A
:103CF0006062DEE0218D05290AD0924BE2691B68E3
:103D000092F800C05B5C9C4506D1491C218520E0EF
:103D1000A4F828A00220CAE084F8F1A019E0218DBF
:103D200049B9E2691378202B13D0092B11D00A2B43
:103D30000FD00D2B0DD0E06900782D280ED0202853
:103D40000CD009280AD00A2808D00D2806D0B9B10D
:103D50001BE0401E521CE2616062AAE0A9B1032090
:103D600084F8F10084F82D1001F809A0E1695046AB
:103D700009782D2901D0208509E0A4F828B006E0B3
:103D8000A4F828B001F8090001E084F8F1A0606A05
:103D9000401E6062E069401CE0618AE0218D49B903
:103DA000E3691A78202A18D0092A16D00A2A14D0D2
:103DB0000D2A12D0E26912F801CB00E0C0E0614B9D
:103DC000A0F101005B685B5CE2619C4560622FD101
:103DD000022907D0491C21856BE0401E5B1CE36172
:103DE000606266E02046FFF777FCA4F828A0042074
:103DF00084F8F100E06920626168884259D9BDF811
:103E00000020401A904201DAADF8000094F82C002E
:103E100008B1012300E000236A4620E0BDF800005D
:103E200061680126014461606169081A606140E0CF
:103E300084F8F1A03DE0226A6068824219D9121A22
:103E40008A4204DA1104090CADF800100ED094F87F
:103E50002C1009B1012300E000236A4601462846E0
:103E600000F0A0F85FEA000823D1D7E74FF0000880
:103E7000D4E7228D608D824216D2801A884201DA00
:103E8000ADF8000004F13000111801236A462846FD
:103E900000F088F85FEA00080BD1208DBDF8001013
:103EA00001260844208504E05046A4F828A084F8A0
:103EB000F100606A18B1B8F1000F3FF401AF94F857
:103EC000F100042833D06168E06988422FD9B5F841
:103ED0006620401A904202DDADF8002001E0ADF806
:103EE0000000AA7F1007E88E00D50C38BDF800301E
:103EF000B3EB400F07DD1007E88E00D50C3807EA5A
:103F00004000ADF8000094F82C0008B1012300E057
:103F100000236A46284600F045F840B9BDF8000085
:103F200061680126014461606169081A6061606925
:103F300030B92068FFF764FB002801DC214639E630
:103F4000304653E64C48010810B50A46010004D03B
:103F5000002008761046FFF71BFE002010BD000071
:103F6000014AC2E903017047F8000020024B996042
:103F7000C3E9000270470000F800002070B504009B
:103F80000FD02068002510B1FFF73EFB2560E068E8
:103F900010B100F0ABFEE5602046BDE8704000F0D7
:103FA000A5BE70BD2DE9F04114881F461546884610
:103FB00006463B4622464146304603F03FFA411C46
:103FC0000BD1B6F8661019B1B6F86810092901D3FB
:103FD000012402E06408012CEBD82C80BDE8F081BC
:103FE000054A0448D2E90012C0E901120121001D6E
:103FF000FFF7B6BF200100207C48010870B500F033
:1040000021F8FFF7EDFF0D4C02F0BFF80546012146
:1040100003F05DF850222146284601F0F3FBFF2112
:10402000284602F03BF80446014601F0E9FB204631
:10403000BDE87040024901F04CBB0000007C000864
:10404000893700080248012201680248FFF78EBF45
:1040500020010020471E00080A46032100F072B824
:104060002DE9FE4F8A4636490446D1F8088098F873
:1040700000000007860E608904285BD36068007822
:10408000002857D0082855D1486901F11407C0F31A
:1040900003120E2A4ED08946096800F08DF810BB35
:1040A0002089082846D32221204601F067F900B371
:1040B00020890022304481B2022000F0DDFF05009B
:1040C00038D0324641466868FCF78CF87142284681
:1040D00001F054F920B92146284601F0A6F818B19C
:1040E000284601F023F925E0204601F01FF92C466F
:1040F00005E06FF02101204601F040F9D0B93146CA
:104100002046656801F03AF9A0B960683968FF2275
:10411000C160D9F810100161002129706980027214
:10412000418101228DE806040A46FF2339462046D4
:1041300000F0CEF92046BDE8FE4F01F0F7B80000D0
:10414000340100202DE9FF479146884606460022AB
:104150002421012000F090FF050027D06C687768CB
:104160001C2284F8008084F801904FF00008A4F825
:104170000480A4F80680686871680830FCF732F89B
:10418000F868039003A800F0CFFA60B1A4F80280A9
:104190000122CDF80080CDE90120FF2303AA0021F0
:1041A000284600F095F9284601F0C0F8BDE8FF87E1
:1041B0000A460B21FFF7C6BF421C12D088B191F806
:1041C000332092070BD54B68834208D0896800EAF8
:1041D00001020B409A4202D10143491C01D0002048
:1041E00070470120704700002DE9F74F8AB0044660
:1041F0000B9814270025468D60680690C08800F053
:1042000034FDC0F30C0B00F40050089020891438E2
:10421000143E1FFA80F8F01706EB5070C0F3CF0081
:104220000796059078E00799884501DC012000E0B9
:104230000020089ACBF30C0111430491D8B14046F9
:1042400080B2029000221421022000F015FF5FEAE4
:1042500000096BD01422D9F804000699FBF7C2FFBD
:10426000D9F8040003906068384460606089C01B1E
:104270006081029E2CE041F4005004900598C0003B
:10428000DEE76589B54200D9354605B3052000F063
:104290004BFE070047D06068CDE900053B4602228F
:1042A0002946042000F072FF5FEA000A41D0204650
:1042B00001F0C6F82148C7E904045146484600F019
:1042C0008EFF701B0604360C04D02468D9E72468DE
:1042D000002ED6D12F46049800F0B4FC0399C88074
:1042E0000298143080B200F0ADFC03994880039826
:1042F000002141810B9849460C9A436998474846EA
:1043000001F014F802980599A8EB00001FFA80F854
:104310000BEB01001FFA80FBB8F1000F83D10020E6
:104320000DB0BDE8F08F484601F000F84FF0FF30C7
:10433000F6E7384600F026FAF5E70000D549000810
:104340002DE9F05F456806460F4628780421B1EB59
:10435000101F03D0304600F0E9FF84E000F00F00AA
:104360004FF6FF7101EA8008688800F07EFC044681
:104370003089A04203D92146304601F037F87189CF
:104380004145E7D33089A042E4D34F482969DFF89B
:104390003CB14161E9684FF001093C468246016148
:1043A00094F83300C0070BD0616849B1DAF8140003
:1043B000884203D02146FFF7FFFE08B174B116E032
:1043C000B9F1000F04D04FF00009DBF8004000E025
:1043D0002468BC4200D12468002CE1D1687A1128FD
:1043E00005D105EB08004088B0F5884F39D0DAF8E0
:1043F000102062B1D14639461046FFF7DDFE002895
:10440000A8D199F81000C0F303100E28A2D0002CF8
:10441000A0D0E88830F0C00005D0304600F0BCF8ED
:10442000060020D07568CAF80850CAE90047297804
:10443000D1460907890EAAF80C10C8F100013046D0
:1044400000F09CFF687A01281AD0062813D01128A2
:104450000CD04F462146D9F81400FFF7ADFEA0B1AD
:1044600021E03C46D3E70020BDE8F09F39463046C6
:1044700003F046FA1AE03946304601F0A9FB15E090
:1044800039463046FFF7ECFD10E0387DC0F30310ED
:104490000E2808D04146304600F073FF0221304616
:1044A0007560FFF7D9FD304600F040FF0021C9F8E4
:1044B0000010C9F80410C9F80810A9F80C10C9F8C0
:1044C0001010C9F81410CEE734010020C4000020F9
:1044D000FEB5DDE90954089E1AB109B10F6807B9A4
:1044E000211D0096CDE9015400F002F8FEBD000048
:1044F0002DE9F84F1F46DDE90BA8DDF828B01600BE
:10450000894605462DD0142100F038FF18B16FF010
:104510000100BDE8F88F6C68277284F809A0306844
:1045200020614520207084F801B0288900F08AFBC2
:10453000174F60804FF0000AA4F806A0388800F0FA
:1045400081FBA0803888401C3880B9F1000F05D06D
:10455000D9F80000E060A4F80AA006E00D48006861
:10456000F8E768686E4600690090B8F82A0040B124
:104570002989814205D9324641462846FFF734FE53
:10458000C7E7D8F814304046324629469847C0E776
:1045900000000020007C00082DE9F05F456883469C
:1045A000287800F00F0005287ED1E88800F05DFB38
:1045B000C0044FEA1049688800F057FB297801F0E1
:1045C0000F01494200EB81001FFA80F8584600F0C5
:1045D00023FE544E0746308838440A2809D9394604
:1045E000284600F093F900285ED0308838440A2825
:1045F0005AD84FF0000A74680CE06069E968884294
:1046000007D1A0692969884203D1A089A988884275
:1046100003D02468002CF0D106E02CB1E88800F02B
:1046200024FBC0041DD027E0042000F07DFC040022
:104630000AD13946284600F069F9B8426DDB0420FA
:1046400000F072FC040068D02021FBF7E4FD032099
:10465000E077706820601422294604F10800746035
:1046600008E0E08900F001FBC00405D014222946CF
:1046700004F10800FBF7B6FD308838443080A87993
:10468000800606D4A07F40F00100A07709EB080067
:10469000A0835946204600F079F800283BD0A08B33
:1046A0001430A083606800E037E04568142204F10C
:1046B00008012F682846FBF795FDA08B00F0C2FA91
:1046C0006880A5F806A0A5F80AA06FF01309D4F831
:1046D000048009E0494638467D6800F04FFE3946BF
:1046E000404600F07CFD2F68002FF3D171688C42AA
:1046F00005D1002105E00868A04202D0014600294A
:10470000F9D1204600F0B8F8404600F085FD318828
:10471000081A30804046BDE8F09F584600F006FE7B
:104720000020F8E7AC00002070B50446134813E001
:1047300090F83310CA070FD04A070DD543685BB114
:1047400082682568134005EA02069E4214D0890754
:1047500002D4C1688D420FD000680028E8D1084813
:10476000006840B190F83310CA0704D0490702D559
:104770004168002900D1002070BD0000C400002065
:10478000C80000200146052000F09ABB2DE9F04743
:10479000D1F8048007460D4600240126B8F802002F
:1047A00000F063FA014698F8000000F00F00404264
:1047B00001EB8009B8F8060000F057FAC004020CBB
:1047C00068680021016002EB090182801FFA81F80C
:1047D000A0F806807B681DE05968B1F804C0624506
:1047E0000DD2036044B1B4F806C0624535D3898860
:1047F000884532D8256000E07D606BB115E02CD093
:10480000CB889A4229D31CB1E388634500D00026A7
:104810000B680C46002BDFD134B12560E18882881B
:10482000914202D0002600E07D60B97FC90712D016
:1048300066B1796849B14968898831B9016829B197
:104840004968C0888A88904203D000263046BDE877
:10485000F0870846F2E70020F9E7284600F0DCFC84
:10486000014604480288511A0180284600F05EFD86
:10487000F1E70000AC000020074B30B40A465C684A
:104880000168844201D1596000E01160014630BCEA
:10489000042000F015BB0000AC0000202DE9F04121
:1048A00045680646884668680024818891B9006892
:1048B0007060142206F108016868FBF793FC01217F
:1048C0002846FFF775FC284600F0A6FC044628465B
:1048D00000F02CFD75680AE068682F4605683846C8
:1048E00000F09AFC204484B2384600F01FFD002DF1
:1048F000F2D141463046FFF7BFFF03480188091B4C
:1049000001802046BDE8F081AC0000202DE9F04791
:104910001D4F8946064600240022134611461546BF
:10492000786822E0D0F814C0D6F80C80C4450BD1CA
:10493000D0F818C0D6F81080C44505D1B0F80CC026
:10494000B6F80480C44509D06D1C2AB190F81FC088
:1049500092F81F80C44501D802461946D0F800C01D
:10496000BCF1000F00D0034660460028DAD11AB12E
:104970001046FFF793FF04444C4501DA012DCBDCD0
:104980002046BDE8F0870000AC00002010B500F024
:104990000BF8BDE81040002202494FF47A7000F095
:1049A000C5BD00008D49000870B509480025446860
:1049B0000BE0E07F20B1401EE0772546246804E04C
:1049C000204624682946FFF769FF002CF1D170BD0D
:1049D000AC00002010B50446406908B100F0A6FC08
:1049E0002046BDE81040FFF7CDBE00003EB50446AE
:1049F000374D0020354900902960012169602982E6
:104A00008DF8040080218DF80510E1218DF8061045
:104A10008DF808008DF807008DF8090001A9C5E997
:104A20000510E8614FF4000028622846FBF744FFB8
:104A300028B994F8330040F0040084F833000423CC
:104A4000244A25492248FBF77FFE234A042380326B
:104A5000A2F580711E48FBF73DFE062084F82C006D
:104A60006869007884F82D006869407884F82E0021
:104A70006869807884F82F006869C07884F830000D
:104A80006869007984F831006869407984F83200F7
:104A900040F2DC5024F82A0F607A40F00A0060727D
:104AA0000B48FCF798F86A460B210948FCF750F8C8
:104AB00000980B2140F00B0205480092FCF752F9D8
:104AC0006A460B210248FCF743F83EBD00800240D5
:104AD0004868002078500020283800202DE9F84F41
:104AE0000020044600902B48FBF76BFE10B100201D
:104AF000BDE8F88F2748818FD0F840900904090C51
:104B00002DD00322042000F0B7FA009038B32148DA
:104B1000009D40F2F45BD0F830806E8900270FE0F2
:104B2000A4F2F4525242FBF75DFBD8F80C00804629
:104B3000D0F808903F1BAAF2F456002407F2F4576D
:104B4000686806EB040ADA4509EB04013844E7D843
:104B50003246FBF747FB2D683444002DDDD10D486C
:104B60000022016B05E00B6843F000430B60C9684D
:104B7000521C836B9342F6D800218163006800F5D4
:104B800080504269120602D58022426181600098FD
:104B9000AEE70000486800202DE9F05F27480D4689
:104BA000C66A002083460446D6F808A031E0306883
:104BB00000280CDB6F894FF0000818E0A4F2F452D3
:104BC0005242FBF70FFBF6683068002802DA6FF0FC
:104BD000070025E0D6F808A0A8EB040000F2F4587E
:104BE000ABEB0400A9F2F45700F2F45B002407EBEE
:104BF000040940F2F451894569680AEB0400414414
:104C0000DCD83A46FBF7EEFA0BEB07002D683C4484
:104C10008346002DCBD101460848FCF71EF8002042
:104C20000649096801F580514A69920603D5202298
:104C30004A6100224A60BDE8F09F000048680020F9
:104C400000BA704740BA704710B500F065F800F040
:104C500041F900F0A7F902F051FE00F0B7FFBDE8FE
:104C6000104000F0A5BC00BA704740BA7047000081
:104C7000FCF7A0F9FCF7E4FEFCF71AFEFCF7A8FE2F
:104C8000FCF76AFE08A0FDF70DF90FA0FDF70AF981
:104C9000FFF7B4F91448FDF7E1F800BFFCF78EFE0A
:104CA0001148FBF783FBF9E7576562736572766518
:104CB00072204170706C69636174696F6E2052611B
:104CC00077204150490D0A0045746865726E65741D
:104CD00020496E697469616C697A6174696F6E20CC
:104CE0002E2E2E0D0A00000070370020002810D054
:104CF00008490A6890420CD34A68904209D20022BF
:104D000000F8042C8A680838904200D2886000F0CD
:104D10009DBB7047B400002010B50A480A4A20F035
:104D200003004FF4C86310600021038041800171CB
:104D300000F5C861012451600C710B804B809060BC
:104D400010BD00001D310020B4000020F0B5002887
:104D500046D04FF6FC71C01C00EA01054FF4C86C48
:104D60000C2D01D20C2501E065453ED8204CC5F53F
:104D7000C866A3682268981A81B234E0501807798F
:104D80007FBB07887F1A083FAF422BD3068805F107
:104D9000140E761A0127083E764514D30D440835C3
:104DA000AEB295194FF0000E85F804E0B0F800E0BF
:104DB000A5F800E06980068007712988614503D065
:104DC000951C4E5300E00771984208D1616801E0DC
:104DD0001B8813441D790DB18B42F9D1A3600830B3
:104DE000F0BDFFE7515A8E42C8D80020F8E7000016
:104DF000B40000202DE9F0474FF6FC72C91C1140A9
:104E00004FF4C8650C2901D20C2101E0A94212D847
:104E10002A4E3468A04210D3726890420DD2A0F19D
:104E20000802131B30F808CC9BB2ACEB0307083F19
:104E3000BFB2B94203D94FF00000BDE8F087FCD003
:104E4000B1461E4EA4444FF0000A9CF80480366818
:104E5000B8F1000F06F1020618D001F1140CBC45A0
:104E6000EBD8194408318FB2E119D9F80840A142B2
:104E700001D2C9F8081081F804A014880C804B8076
:104E800017800988A942D8D08F53D6E71944083132
:104E9000D9F80880BCF8007089B2E04503D104EB72
:104EA0000108C9F808800C4484F804A027806380B6
:104EB00011802288AA42C0D09153BEE7B4000020DE
:104EC000092804D2024A52F82000FDF7DBBF7047E0
:104ED0004400002030B50020401C80B20928FBD3DC
:104EE000054D002455F8240000F008F8641CA4B215
:104EF000092CF7D330BD0000440000208268002157
:104F000011604168C91C21F00301002207E0836899
:104F1000521C1B680B60836819600388194443881E
:104F20009342F4DC70470000092801D30020704749
:104F3000024951F8200000F003B8000044000020AE
:104F400081680868002801D002680A607047000084
:104F50002DE9F041044606A84FF0030C90E8E0006C
:104F600000206060A060E06084F83300606284F834
:104F700028C0C4E907050A4D287884F83600401C8B
:104F800028702046276100F01BF82046B04710B17A
:104F90000020BDE8F0816868206020466C60F8E77A
:104FA000C00000207047C90709D04168002906D019
:104FB00090F83310090702D5011DFEF7D9B97047E3
:104FC00070B50C460546114600F044F819462846CF
:104FD00000F019F821462846BDE8704000F018B8E6
:104FE0000149886070470000C000002090F833102D
:104FF000CA0707D021F0010180F83310090701D555
:10500000FDF7ACBF704701B10968C160704700008F
:1050100070B50C00054601D0206801E00C4800681E
:105020006968884212D02146281D01F079F821468E
:10503000281D02F003FD3CB1206868602846BDE8E9
:1050400070400121FFF7AFBF0020F6E770BD000000
:10505000007C000801B109688160704790F8331046
:10506000CA0708D141F0010180F83310490702D581
:105070000321FFF798BF70472DE9F05F16460D46F4
:10508000052855D2DFE800F0030507090900362797
:1050900004E0222702E00E2700E000274FF0010A7B
:1050A0004FF00008F6B3012E5ED0022E5CD0032E26
:1050B0003ED10820FFF738FF04003AD0E019133042
:1050C000267320F00300C4E90080FF1C27F00300D2
:1050D000C0F5147041462581A84200D92846608158
:1050E0005746A4F80EA0A1462D1A4FF4147B88460B
:1050F00016E00820FFF718FFB8B1067380F80D809E
:10510000C0F80080A9B2C9F800000181594500D358
:105110005946418100F110024260C7816D1A8146F3
:10512000002D00E007E0E4DC2AE0204600F0FEF875
:105130000020BDE8F09F07F1130020F00301E81CF8
:1051400020F00300084480B2FFF700FE0400F0D016
:10515000E019133020F00300606025816581C4F8F8
:10516000008084F80C800BE00720FFF7DDFE0400D0
:10517000DFD0C4F8048025816581C4F800802673DF
:10518000A4F80EA084F80D802046D2E770B505285B
:10519000DDE9044511D2DFE800F003050709090045
:1051A000362004E0222002E00E2000E00020C01C97
:1051B00020F003004618AE4201D9002070BD002542
:1051C0001D6014B12044586000E05D6002205873F7
:1051D000198159811A730120D881184670BD10B504
:1051E00000280FD000290DD004E003890C89234446
:1051F000038110460268002AF7D102890B891A44FC
:105200000281016010BD10B50C46FFF7E8FF204693
:10521000BDE8104000F014B9002102E0491C00680C
:10522000C9B20028FAD1084670472DE9F0474FF07F
:1052300000070C4605003E466FF00E0932D07CB3E5
:105240002889218988422DD36FF0050A6889C11BFE
:105250006089801B814201DB80B200E088B2804619
:1052600060684246811968683844FAF7BBFF07EB6B
:10527000080087B206EB080086B26089B04201D808
:10528000246800266889B84202D12D68002745B1FC
:105290005CB160892189884207D1206860B904E047
:1052A00000E06CB14846BDE8F0873DB168892989C6
:1052B000884203D1286808B15046F4E7002CC5D1D4
:1052C0000020F0E72DE9F047164689464FF0000828
:1052D000002806D0B9F1000F02D00027044620E0D4
:1052E0000020BDE8F0872BB16089984202D8181AD7
:1052F00083B215E06089C01A85B2B54200D935463F
:1053000060682A46C11809EB0700FAF76BFF08EB43
:1053100005001FFA80F8781987B2701B86B2002347
:1053200024680EB1002CDED14046DAE770B50028C3
:105330001BD00024C189491E0904090CC18113D165
:10534000427B017B0568920702D50169884707E027
:1053500003290BD001290CD002290AD0FFF7C6FC83
:10536000641CE4B22800E5D1204670BD0146082047
:1053700001E001460720FFF7A3FDF1E7002200F05E
:1053800003B80122AFF3008030B541B138B1002934
:1053900007DA4B429DB24389AB4225D302E000209D
:1053A00030BD8DB2047B436834B1032C04D0022C91
:1053B0000AD0012C08D017E05A1A00F110044260FC
:1053C000A24208D243600FE000290BDA4289AA42C8
:1053D0000AD35A1A426042890A444281028911441E
:1053E0000181DCE7002AF4D1012030BD70B50289CB
:1053F0008A4224D98A1A0D46044605E0281A85B245
:1054000020891044208124686089A842F6D3207B3B
:1054100068B96089A8420AD0607B800707D4A08859
:10542000001B284481B22046FFF7E4FC0446658156
:105430002581206808B1FFF779FF0020206070BD4A
:10544000002802D0C189491CC181704730B5134979
:1054500003880A681344941C98420DD01D795DB9E5
:105460004D68AB4208D08D689D4200D188601D8890
:1054700005801B88851A1D534388134483420BD033
:105480001D79002D08D18D68854200D18B6001887F
:1054900019800088991A015330BD0000B400002023
:1054A0002DE9F041044617460E460846FAF7DAFEA3
:1054B000050013D0274409E03178884205D12A46F7
:1054C00031462046FAF7F0FE40B1641C207810B156
:1054D0006119B942F0D90020BDE8F0812046FBE710
:1054E0002DE9F0410F4C2068002819D000F01CF87D
:1054F0006168451A2168002912D04868A8420FD86F
:1055000062682D1A0244626008682060D1E902676F
:105510000620FFF7D5FC002EECD03846B047E9E76F
:10552000BDE8F08138000020FBF736BD2DE9F041E1
:10553000054616460F460620FFF7F6FC040013D07A
:10554000FFF7F2FF19490246086800280ED04B68A1
:10555000A2EB03034FF00002E660226005EB0302BA
:10556000C4E9012706D10C60BDE8F0814FF00003CB
:105570004A60EFE74268AA420FD9521B426020609E
:10558000F1E74B68934207D94A686368D21A4A60C8
:10559000016821600460E7E70846616842688A1A8A
:1055A000626001680029F3D0EBE7000038000020BA
:1055B00010B54FF47A7400220C492046FFF7B6FF6D
:1055C00000220B492046FFF7B1FF002209494EF6A1
:1055D0006020FFF7ABFF002207496010FFF7A6FF2E
:1055E000FFF7A2FF0549486010BD00008D49000883
:1055F000D12000084D2E0008692E00083800002038
:105600002DE9FC5F0446007E0A280DD00025DFF856
:10561000B880D4F850B0D4F828A0D4F81090D4F8BA
:1056200088602F4658B120E0274821461C3000F002
:10563000D5FF2146BDE8FC5F0120FFF741BC608B30
:1056400098B1D8F81000A0420AD1C068C8F810007C
:1056500008E0C168A14202D1E168C16002E00846E9
:105660000028F6D10020E06009E017480D46678B5E
:105670002146183000F0B2FF012188F80010206F99
:1056800008B101F0BEFCE06E08B101F0BAFC45B112
:10569000A08B231DCDE9007022465146584601F0EB
:1056A00062FC21460120FFF70BFC002E09D002B05E
:1056B0004846B446BDE8F04F6FF00B015DF804EBCF
:1056C0006047BDE8FC9F00008C0000200121FFF72F
:1056D00097BF4161704710B50846FFF7F7FF6FF0BD
:1056E0000B0010BD2DE9F04105460120FFF71CFC21
:1056F000404E040047D100221146F468F06906E0EC
:10570000436AE31A934201D31A460146C06800284F
:10571000F6D111B10846FFF7D9FF0120FFF704FCCD
:10572000040030D1092000F02BFC0120FFF7FCFB26
:10573000040028D1082000F023FC0120FFF7F4FB2F
:10574000040020D129467F2D00D97F2100231A464D
:10575000D6F80CC0B0690BE0447E8C4207D8476A8B
:10576000ACEB07079F4202D33B4602462146C06886
:105770000028F1D112B11046FFF7A8FF0120FFF772
:10578000D3FB040032D09421FAF745FD65764FF43F
:105790008660A4F866000023A4F868304000E08525
:1057A000A0856372FF20A0724FF40670E086062089
:1057B000A4F84400A4F84030A4F84200C01FA0861A
:1057C0000120A4F84C00103400F010FDA064206407
:1057D000A063E064F0686061B0786074E3730648C9
:1057E000E0660648E06784F88230103C2046BDE859
:1057F000F08100008C000020296E000800DD6D00A3
:10580000016170472DE9F04104000D464FF004039B
:105810006FF005000DD0217E00290AD122B1184F6A
:1058200057F82100006818E000F0B2FC020019D11E
:10583000801EBDE8F081468B96420DD148B10668C6
:105840003EB135B1D5F800C0BCF1000F01D06645BE
:1058500002D16FF00700ECE7C0680028EBD1491CCB
:105860009942DDDB15B1286800B1206005486283EC
:105870000169E160046101F061FD0020D9E70000E9
:105880004C7C00088C000020017E012903D0817F20
:1058900041F0100181770121AFF300802DE9FC4731
:1058A0000446007E4A4D4FF000094FF0010899B3BD
:1058B000042801D007283FD1616F19B9A18DB1F536
:1058C000066F39D0A18B608BCDE90001231D2246E4
:1058D000A16A206D01F047FB204600F062FEA86936
:1058E000A04209D1C068A86108E0C168A14202D104
:1058F000E168C16002E008460028F6D1C4F80C90C7
:1059000085F80080207E042807D032480068A04235
:105910000BD101F071FD0CE00EE00A202076E86961
:10592000E060EC6101F00AFD03E021460120FFF791
:10593000C7FA0020BDE8FC870527082841D2DFE828
:1059400000F0041B262F2F404036608B002680B1CC
:105950002869A04209D1C068286108E0C168A14255
:1059600002D1E168C16002E008460028F6D1C4F81F
:105970000C902146012007E01548002621461430EE
:1059800000F02CFE21460220FFF79AFA1EE0104894
:1059900000262146183000F021FE85F80080E8E757
:1059A000204601F070FB060008D1277606E020466D
:1059B00001F069FB060001D10920207634B116B14F
:1059C00004E0002602E0204600F018FC3046B1E773
:1059D0008C000020200000202DE9F0470746DDF86C
:1059E00020809A4691460D465FEAC87001D0042691
:1059F00000E000260320FFF797FA040013D084F894
:105A00000A804FF00008C4E9008528891421801B12
:105A100020812846FFF7B2FC48B1204601F0E3FAA6
:105A20000020BDE8F0872846FFF780FCF8E76068B3
:105A30004068E060788BFFF705F9E1680880B88B73
:105A4000FFF700F9E16848805046FFF7F9F8E16890
:105A50004860B008000300F5A04040EA0900FFF7E5
:105A6000F1F8E1688881E1682046A1F81280D8E762
:105A700010B504460846FEF757FE40B1B0F92A00BB
:105A800028B1283880B2844200D2204604462046FD
:105A900010BDF8B504460027B0F868007E1E0D461C
:105AA000092801D3E80706D0A80700D50127F80781
:105AB00006D0042105E0A07F40F08000A07714E02C
:105AC0000021B4F8660080B100221046FFF7D4FA36
:105AD0000100F0D000972A462046E36DFFF77CFFD7
