:020000040800F2
:10000000503700209D010008AB150008C9140008F6
:10001000A915000841030008CD2A000800000000CF
:10002000000000000000000000000000631600084F
:100030004303000800000000611600086516000870
:10004000B7010008B7010008B7010008B7010008B0
:10005000B7010008B7010008B7010008B7010008A0
:10006000B7010008B7010008B7010008B701000890
:10007000B7010008B7010008B7010008B701000880
:10008000B7010008B7010008B7010008B701000870
:10009000B7010008B7010008B7010008B701000860
:1000A000B7010008B7010008B7010008B701000850
:1000B000B7010008B7010008B7010008B701000840
:1000C000B7010008B7010008B7010008B701000830
:1000D000B7010008B7010008B7010008B701000820
:1000E000B7010008B7010008B7010008B701000810
:1000F000B7010008B7010008B7010008B701000800
:10010000B7010008B7010008B7010008B7010008EF
:10011000B7010008B7010008B7010008B7010008DF
:10012000B7010008B7010008B7010008B7010008CF
:10013000B7010008B7010008B7010008B7010008BF
:10014000B7010008B7010008B7010008CD15000885
:10015000B7010008B7010008B7010008B70100089F
:10016000B7010008B7010008B7010008B70100088F
:10017000B7010008B7010008B7010008000000003F
:10018000B7010008B7010008DFF80CD000F02AF82A
:10019000004800473D2B00085037002006488047A4
:1001A00006480047FEE7FEE7FEE7FEE7FEE7FEE75C
:1001B000FEE7FEE7FEE7FEE71517000889010008E5
:1001C00040EA01039B0703D009E008C9121F08C0D9
:1001D000042AFAD203E011F8013B00F8013B521E59
:1001E000F9D27047064C074D06E0E06840F0010385
:1001F00094E8070098471034AC42F6D3FFF7C8FFE5
:10020000CC2B0008EC2B00082DE9F041494E402191
:10021000304600F07BF9484C484DA7154FF48068F4
:10022000C0B12021304600F071F948B310213046AA
:1002300000F06CF9D0B30821304600F067F90028CF
:100240004BD00421304600F061F900285BD000203B
:10025000BDE8F08101220421204600F05CF9012272
:100260000821204600F057F901223946284600F0BF
:1002700052F901224146284600F04DF90120E7E7F6
:1002800000220421204600F046F9002208212046E1
:1002900000F041F900223946284600F03CF90122DD
:1002A0004146284600F037F90420D1E7FFE7002255
:1002B0000421204600F02FF900220821204600F0FA
:1002C0002AF901223946284600F025F90022414644
:1002D000284600F020F90220BAE700220421204637
:1002E00000F019F901220821204600F014F900223B
:1002F0003946284600F00FF900224146284600F012
:100300000AF90520A4E701220421204600F003F9A0
:1003100000220821204600F0FEF800223946284637
:1003200000F0F9F800224146284600F0F4F80320D6
:100330008EE7000000100240001C02400020024036
:10034000FEE77047FEE731B500F0EAF8044600F03A
:10035000E7F80099001B8842F9D338BD2DE9F84F22
:10036000DFF87CB100224FF001084FF0030A4FF094
:100370000F090BF1040E00BF0B6808FA02F42340CA
:10038000A3426ED14D68022D01D0122D0ED1D50899
:1003900000EB850CDCF820505607F70E09FA07F63B
:1003A000B5430E69BE402E43CCF820600668550068
:1003B0000F790AFA05FC07F0030726EA0C06AF409E
:1003C000374307604E68012E05D0022E03D0112E50
:1003D00001D0122E0ED18668CF6826EA0C06AF40F7
:1003E000374387604668A6430C79C4F300149440F1
:1003F00034434460C6688C6826EA0C06AC4034433B
:10040000C4604C68E40065D5364C256845F48045E9
:100410002560246822F0030504F480440094324CE3
:100420002E19D6F8084895072F0F09FA07F5AC439F
:100430002E4DA84201D1002524E02D4DA84201D126
:1004400001251FE02B4DA84201D102251AE02A4DBB
:10045000A84201D1032515E0284DA84202D1042568
:1004600010E037E0264DA84201D105250AE0254DD0
:10047000A84201D1062505E0234DA84201D1072558
:1004800000E00825BD402543C6F80858DBF80040C9
:100490005D464E689C43F60300D51C432C60DEF895
:1004A000004075464E689C43B60300D51C432C6043
:1004B0000B4D08352C684E689C43F60200D51C4352
:1004C0002C60074D0C352C684E689C43B60200D555
:1004D0001C432C60521C102AFFF44EAFBDE8F88F6D
:1004E000003C01404438024000300140000002401E
:1004F0000004024000080240000C024000100240CC
:100500000014024000180240001C0240006908402C
:1005100000D0012070470AB1816170470904FBE7F0
:10052000014800687047000000010020024801688F
:10053000491C016070470000000100200B4810B505
:10054000016841F400710160016841F4806101605B
:10055000016841F480710160032000F075F800200B
:1005600000F006F800F018F8002010BD003C024032
:1005700010B5044607484FF47A710068B0FBF1F0FB
:1005800000F08AFF00222146501E00F03DF80020B6
:1005900010BD00003C00002010B5032000F054F80E
:1005A000002211466FF00B0000F02EF800221146D9
:1005B0006FF00A0000F028F8002211466FF00900E1
:1005C00000F022F800221146501F00F01DF8002212
:1005D0001146101F00F018F800221146901E00F07E
:1005E00013F80022BDE810401146501E00F00CB870
:1005F00000F01F02012191404009800000F1E0203D
:10060000C0F8001170470000F0B40E4B1B680C4698
:10061000C3F30223C3F10705042D00D90425191DD6
:10062000072901D2002300E0DB1E012606FA05F1AE
:10063000491E214099409E40761E16403143F0BC31
:1006400000F0B4BF0CED00E0064900F007020868B6
:100650004FF6FF03184040EA0220034A10430860A7
:10066000704700000CED00E00000FA0500684162F0
:1006700000207047F0B500680023446A31B1856AF4
:100680004FF4827604EB15444D1E0AE044EA024121
:1006900081620FE006EB8307C7595B1C04EB17442C
:1006A000DBB2AB42F6D34FF4807303EB810144EA33
:1006B000024242500020F0BDD0F8EC0301F0F3BA42
:1006C000C1EBC10200EB8202D0F8EC03526C01F0E6
:1006D00060BAC1EBC10200EB8202D0F8EC03D2F8A1
:1006E000042201F0ABBAD0F8EC0301F0DEBA10B589
:1006F00004460A460B0601F07F00C0EBC00104EB84
:10070000810101D5383101E001F5FC710870D00993
:10071000487094F8B803012809D0012084F8B80380
:10072000206801F0EFFD002084F8B80310BD02201E
:1007300010BD70B50A460446090602F07F0005D5D3
:10074000C0EBC00104EB8101383105E0C2EBC2010E
:1007500004EB810101F5FC7100258D700870D00952
:10076000487094F8B803012809D0012084F8B80330
:10077000206801F07EFF84F8B853002070BD02208D
:1007800070BD70B504460D460E0601F07F00C0EB4B
:10079000C00104EB810101D5383101E001F5FC71A4
:1007A000ED0908704D708A60CB7000D0C8800025BC
:1007B000022B00D10D7194F8B803012809D0012053
:1007C00084F8B803206801F0F5FC284684F8B85393
:1007D00070BD022070BD000070B504460E4601F0E9
:1007E0007F00C0EBC00104EB81010025C1F80422A9
:1007F000C1E9833581F8F95181F8F801206901F5E3
:10080000FC71012800D10A6194F8B80301280DD0C9
:10081000012084F8B8037006227C206808D001F01B
:1008200089FF00BF84F8B853002070BD022070BD5E
:1008300001F060FEF6E770B50D460446090605F0C6
:100840007F0005D5C0EBC00104EB8101383105E024
:10085000C5EBC50104EB810101F5FC7101228A7031
:100860000870E809487094F8B803012807D084F8A4
:10087000B823206801F02FFF680602D007E00220AD
:1008800070BD217C04F56F72206801F0D3FE00205A
:1008900084F8B80370BD70B504460E4601F07F00C1
:1008A000C0EBC00104EB810100254A64C1E91335A6
:1008B000012381F8393001F8380F2069012800D16F
:1008C0000A6194F8B80301280BD084F8B833700695
:1008D000227C206807D001F02DFF84F8B853002057
:1008E00070BD022070BD01F005FEF6E72DE9F84F5E
:1008F000044600680026054602F070F8002875D10D
:10090000206802F094F8002870D0206802F08FF878
:10091000800704D52068416901F002014161206827
:1009200002F085F8010304F56F704FF0010B4FF0F2
:10093000000A00904DD5206802F05BF8074646E0BB
:10094000F80742D0F1B2206802F069F88046C0078B
:1009500028D005EB4611C1F808BB2069012811D148
:10096000C6EBC60004EB8000D1F8101BD0F80022C3
:10097000C1F31201511AC0F81012D0F80412114438
:10098000C0F80412F1B22046FFF7A3FE2069012847
:1009900008D13EB9D4F80C0220B920680121009A90
:1009A00001F048FE5FEA087007D5204600F06EFAB5
:1009B00005EB46110820C1F8080B5FEAC86004D5B2
:1009C00005EB46111020C1F8080B7F08761C002F9C
:1009D000B6D1206802F02BF840034FF040095ED5F5
:1009E000206801F0FFFF0746002656E07BE1F8078C
:1009F00051D0F1B2206802F003F88046C00724D03D
:100A0000D5F834180BFA06F08143C5F8341805EB15
:100A10004610C0F808B92069012807D1C6EBC60006
:100A200004EB8000D0E9102111444164F1B220466A
:100A3000FFF746FE2069012807D136B9E06C20B9DE
:100A400020680121009A01F0F5FD5FEA087004D5E5
:100A500005EB46110820C1F808095FEAC86004D513
:100A600005EB46111020C1F808095FEA486003D57C
:100A700005EB4611C1F808995FEA887004D505EBCB
:100A800046110220C1F808095FEA086003D5314623
:100A9000204600F0A1FD7F08761C002FA7D120681A
:100AA00001F0C5FF00280DDAD5F8040820F0010098
:100AB000C5F80408204600F0CFF92068416901F02C
:100AC00000414161206801F0B2FF00050BD5D5F867
:100AD0000808C00702D0204600F0F4F920684169F8
:100AE00001F400614161206801F0A1FFC0044CD510
:100AF000D5F8040820F00100C5F80408002120689A
:100B000001F03CFF0020FF2107E000BF05EB401291
:100B1000C2F80819C2F8081B401C62688242F5D866
:100B20004FF0FF30C5F81808D5F81C0840F0011048
:100B3000C5F81C08206B60B1D5F8840840F00B00A4
:100B4000C5F88408D5F8440840F00B00C5F84408FF
:100B50000BE0D5F8140840F00B00C5F81408D5F8E0
:100B6000100840F00B00C5F81008D5F8000820F474
:100B7000FE60C5F80008217C2068009A01F05AFD4B
:100B80002068416901F480514161206801F04FFF04
:100B900080041CD5206801F04DFB2068C16821F459
:100BA0007051C160206801F0FBFE58B30320C4F807
:100BB0001490E0602068C16841F4C051C1602046D3
:100BC00000F03AF92068416901F400514161206860
:100BD00001F02DFFC00640D52068816921F0100189
:100BE0008161D5F8208008F00F00C0EBC00004EB55
:100BF0008007C8F3434007F5FC7702280CD006288D
:100C00001CD025E04FF40070C4F80CA0606120688F
:100C1000C16841F41051D1E747F6F07118EA010FAD
:100C200016D0C8F30A1290462846F96801F003FF6F
:100C3000F8684044F860B869404408E00822284653
:100C4000009901F0F8FEB969C8F30A100844B861C8
:100C50002068816941F010018161206801F0E7FEA0
:100C6000000707D5204600F0FBF82068416901F035
:100C700008014161206801F0DAFEC00208D5F1B236
:100C8000204600F032F82068416901F4801141618A
:100C9000206801F0CCFE800208D5F1B2204600F0B9
:100CA00028F82068416901F400114161206801F0D1
:100CB000BEFE400007D52046FFF7FEFC20684169D4
:100CC00001F080414161206801F0B1FE40070AD582
:100CD00020684568680702D52046FFF704FD2068B4
:100CE000416829434160BDE8F88FD0F8EC0301F07A
:100CF00029B8D0F8EC0301F027B80000F0B58BB0AC
:100D000004004FF0000556D0032084F8B9032046B4
:100D100000F054F8206801F0E7FB04F110012822EC
:100D20000F466846FFF74CFA94E80F0001F09CFA72
:100D30000021206801F08FFE01260020C5EBC501CF
:100D400004EB810181F8396001F8385FCD80C8700B
:100D50008860C8606D1C48610F2DEFD300214FF4EF
:100D6000827300BFC1EBC10204EB820203EB810579
:100D700082F8F90182F8F811D18782F8FB01C2F8F4
:100D80000002C2F80402C2F80C0222685051491C49
:100D90000F29E7D3282239466846FFF711FA94E86D
:100DA0000F0001F0FFFA84F8B963206801F0EDFA52
:100DB00000200BB0F0BD0120FBE70000F0B500689B
:100DC00087B0B0F1A04F31D14FF400600224CDE9DB
:100DD000000402AA002003250A2682E86100144FBD
:100DE00069463846FFF7BAFAE002CDE9000402AAE4
:100DF000012082E8610069463846FFF7AFFA0D48E6
:100E0000016841F0800101600A481030016841F436
:100E1000804101600068002200F480400590114686
:100E20004320FFF7F1FB4320FFF7E2FB07B0F0BDE3
:100E3000000002403438024010B50446C068012169
:100E400000B90021D4F8EC0300F0D4FFD4F8EC038F
:100E5000BDE8104000F09DBFD0F8EC0300F0B8BF33
:100E6000D0F8EC0300F0BABF10B5044690F8B80310
:100E7000012809D0012084F8B803206801F001FEA0
:100E8000002084F8B80310BD022010BDD0F8EC2378
:100E900000F56F71104600F0C0BF10B5044690F821
:100EA000B80301280CD0012084F8B803206801F0B1
:100EB00060FA206801F04CFD002084F8B80310BDF2
:100EC000022010BD10B50446D0F8EC0300F0F2FF8C
:100ED0002068D0F8001E41F00101C0F8001E206A11
:100EE000002804D00248016841F00601016010BDED
:100EF00010ED00E02DE9F047DFF8649105460F465C
:100F0000D9F8000000F00F01F8B28046B94208D2CB
:100F1000014689F80010D9F8000000F00F00B8422F
:100F200074D128784F4C800705D52068A96820F037
:100F3000F000084320602878C00759D04949686804
:100F4000083901281AD002281BD0032819D00968B3
:100F5000890700295ADA216821F003010143216041
:100F6000FFF7DEFA6968064641F28830012911D0A0
:100F700002291DD00329824627D035E0096889035C
:100F8000E7E709688901E4E7FFF7CAFA811B5145E1
:100F900001D926E082462068C0F381000128F3D100
:100FA00026E000BFFFF7BCFA811B514501D918E0CC
:100FB00082462068C0F381000228F3D118E000BF08
:100FC000FFF7AEFA811B51450BD82068C0F38100B2
:100FD0000328F5D10CE000BFFFF7A2FA811B5145B1
:100FE00002D90320BDE8F087206810F00C0FF3D180
:100FF000D9F80010484601F00F01B94208D980F82D
:101000000080006800F00F00B84201D00120E9E73D
:101010002878400705D52068E96820F4E0500843A7
:1010200020602878000706D52068296920F46040F0
:1010300040EAC100206000F021F82168F02292FA15
:10104000A2F201F0F001B2FA82F2D140064A515CFC
:10105000C840064908600020FFF78AFA0020C1E76F
:10106000003C024008380240BC2B00083C00002035
:1010700001480068704700003C00002030B5194866
:10108000006810F00C01184812D0441004290ED04A
:1010900008290DD11349091F0A6802F03F030A68A5
:1010A000550247F6C07204D5B4FBF3F003E02046C6
:1010B00030BDB0FBF3F00B680968134092FAA2F25E
:1010C000B2FA82F2D34058434FF4403292FAA2F27D
:1010D00001F44031B2FA82F2D140491C4900B0FB20
:1010E000F1F030BD083802400024F4002DE9F84F3B
:1010F0000546DFF8FC920078A9F1040BC007ABF1BC
:10110000040449D0D9F800104846C1F381010129EF
:1011100008D00068C0F3810002280AD1DBF8000083
:10112000400206D52068800336D5686800286ED056
:1011300032E06868B0F5803F10D0B0F5A02F20688D
:1011400010D020F480302060206820F480202060BF
:101150006868A0B1FFF7E4F906460CE0206840F4A7
:101160008030F4E740F480202060F7E7FFF7D8F9FB
:10117000801B642871D820688003F7D50CE0FFF746
:10118000CFF9064605E000BFFFF7CAF9801B6428C7
:10119000F0D820688003F7D42878964F80074FF066
:1011A000010A4FF0000841D5D9F80010484611F067
:1011B0000C0F08D00068C0F3810002280AD1DBF8C8
:1011C0000000400206D42068800713D5E868012893
:1011D0001DD10FE0E868D8B1C7F800A0FFF7A0F96B
:1011E000064604E0FFF79CF9801B0228C2D820685D
:1011F0008007F7D52068F82292FAA2F22969B2FA9C
:1012000082F220F0F8009140084320600EE0ECE00C
:10121000C7F80080FFF784F9064604E0FFF780F97D
:10122000801B022819D820688007F7D42878000787
:1012300024D57148696989B1C0F800A0FFF770F939
:10124000064604E0FFF76CF9801B022805D86848C1
:101250006C3000688007F5D510E07AE0C0F80080B7
:10126000FFF75EF9064604E0FFF75AF9801B0228F3
:101270006FD85F486C3000688007F5D42878400745
:1012800053D55B483830016841F0805101600068F7
:1012900000F0805000905948016841F4807101606D
:1012A000FFF73EF9064604E0FFF73AF9801B0228F3
:1012B0004FD852480068C005F6D54D4EA86868362C
:1012C00001280FD00528306810D020F001003060D0
:1012D000306820F004003060A868B8B1FFF720F94A
:1012E00000900FE0306840F00100F4E740F00400A7
:1012F0003060F7E7FFF714F90099411A41F288309E
:1013000081426AD830688007F4D50EE0FFF708F90B
:10131000009007E0FFF704F90099411A41F2883084
:1013200081425AD830688007F4D4A869E8B3D9F864
:101330000010C1F38101022957D00228C7F860804C
:1013400003D0FFF7EDF805464AE0FFF7E9F8064657
:1013500005E042E0FFF7E4F8801B02283DD8206852
:101360008001F7D4D5E90701084347F6C07292FA25
:10137000A2F2696AB2FA82F29140AA6A4FF0FF3390
:1013800003EB52024FF4403393FAA3F3B3FA83F31F
:101390009A40114308434FF0706292FAA2F2E96A50
:1013A000B2FA82F29140084300E01CE0CBF8000062
:1013B000C7F860A0FFF7B4F8054604E0FFF7B0F8FF
:1013C000401B022809D820688001F7D50BE000BF38
:1013D000FFF7A6F8401B022802D90320BDE8F88FCA
:1013E00020688001F4D40020F8E70120F6E700002F
:1013F0000838024000004742800E4742007000401B
:101400004FF0E0210428086903D020F004000861AF
:10141000704740F00400FAE72DE9F041DFF87080F2
:101420004546D8F800401B4800F002FB611C2960CB
:10143000A0422AD12E1D00252C46FEF7E5FE0228EB
:101440000DD0691F032804D0042804D0052807D133
:1014500003E00D4604E0052502E00C4600E005240B
:101460000027377015F0FF0070700949B470F770ED
:1014700001F1040101D1887828B105490422091D30
:10148000044800F0EFFAC8F80070BDE8F0810000F1
:10149000340000202C05002010B5401EB0F1807FE4
:1014A00001D3012010BD4FF0E02460610F216017CF
:1014B00000F07CF80020A06107202061002010BD12
:1014C00010B5FFF7A9FF10BDFEE700002DE9F041C0
:1014D000264886B00024016841F0100101600168CF
:1014E00001F010010591016841F48071016001680B
:1014F00001F480710591016841F08001016001688B
:1015000001F080010591016841F00101016000686E
:10151000174F00F001004FF4A066059000223146FD
:101520003846FEF7F8FFDFF84C8000220C214046D9
:10153000FEF7F1FF7C2001258DE8310069460E4859
:10154000FEF70CFFCDE900650226CDE9026469468D
:101550003846FEF703FF0C2003948DE861006946CE
:101560004046FEF7FBFE06B0BDE8F0813038024091
:1015700000200240001C02400010024010B5002272
:101580000649074800F0D0FA0649054800F0BFFCBC
:10159000BDE81040024800F007BD00000000002038
:1015A0002C05002040000020FEE770470907090EC7
:1015B000002806DA00F00F0000F1E02080F8141D8A
:1015C000704700F1E02080F8001470470148FFF7F1
:1015D0008DB900000C0100202DE9F84F0F46C1EB3A
:1015E000C70100EB810582460668D5E91301441A5C
:1015F000286C3835A04200D20446E01C4FEA90081F
:1016000006EB471916E0441AA868A04200D2044627
:10161000E01C4FEA90089AF810000090A3B2FAB2CA
:101620003046E96801F03EFAE8682044E860A869BD
:101630002044A861D9F8180980B2404505D9D5E9F8
:101640000501814201D20028DDD134B90120D6F84C
:101650003418B8408143C6F834180020BDE8F88F2C
:101660007047704710B5FEF761FFBDE81040FFF707
:1016700027BF000030B5254893B00025016841F030
:1016800080510160006800F080501190204801688E
:1016900041F4804101600068022400F48040119010
:1016A00001200090000401908001CDE90640042053
:1016B0000890A820CDE9090407200B906846FFF7A1
:1016C00015FD00B1FEE70CA90F2081E831004FF4B1
:1016D000A0500F904FF48050109005210CA8FFF7F8
:1016E00009FC00B1FEE7FFF7C3FC4FF47A71B0FBD1
:1016F000F1F0FFF7D1FE0420FFF782FE0022114631
:10170000501EFEF781FF13B030BD0000403802408C
:10171000007000401048016841F4700101600F48FA
:10172000016841F0010101600C4A0021083211609A
:1017300002680B4B1A400260031D0A4A1A600268D5
:1017400022F48022026005480C30016002495806EC
:10175000803908607047000088ED00E000380240E2
:10176000FFFFF6FE1030002410B5D0F814225268A6
:101770009047002010BD134610B50A46002100F026
:10178000F8FA002010BD134610B50A46002100F0FB
:101790009AFB002010BD10B50446802100F06AFBC2
:1017A0002046BDE81040002100F064BB10B50521C3
:1017B0000023C0F8F4111A46194600F0DAFA0020A6
:1017C00010BD10B502238261C0F8F431C261134626
:1017D0000A46002100F077FB002010BD10B504215F
:1017E0000023C0F8F4111A46194600F06CFB0020E3
:1017F00010BD000010B50A46024903A000F0D4F85D
:10180000004810BDFC04002048494420436F6E6628
:1018100069670000122008800048704720000020FF
:1018200010B50A46024903A000F0BEF8004810BDFA
:10183000FC04002048494420496E74657266616367
:101840006500000004200880004870471C0000204C
:1018500010B50A46024903A000F0A6F8004810BDE2
:10186000FC04002053544D6963726F656C656374AA
:10187000726F6E696373000010B50A46024903A0D7
:1018800000F092F8004810BDFC04002053544D3382
:10189000322048756D616E20696E74657266616391
:1018A0006500000010B50A46024903A000F07CF86C
:1018B000004810BDFC040020303030303030303073
:1018C0003030314100000000F8B5044648880D462C
:1018D000010A08294BD2DFE801F04A0409174A4AF5
:1018E0004048D4F81012207C0A6832E0207C02269E
:1018F0000028D4F8140205D0C16A6846884701461A
:10190000467041E0816AF8E7C0B206282FD2DFE8CE
:1019100000F003080D12171CD4F81012207C4A683E
:1019200017E0D4F81012207C8A6812E0D4F8101264
:10193000207CCA680DE0D4F81012207C0A6908E007
:10194000D4F81012207C4A6903E0D4F81012207CED
:101950008A6969469047014616E0207C38B9D4F878
:101960001402416B68468847F5E7207C20B1294680
:101970002046FFF710FFF8BDD4F81402016B68464B
:101980008847014607204870BDF800000028F2D0C3
:10199000EA88002AEFD0824200D90246ADF8002042
:1019A0002046FFF70EFFF8BD70B5002300281DD0BC
:1019B0000446002502E06D1CEDB2641C2678002E62
:1019C000F9D1022404EB45041480CC545B1C03229F
:1019D000CA5400245B1C06E0CA545B1CDAB28C5467
:1019E000521CD3B2401C0278002AF5D170BDD0F849
:1019F0001802002101730846704710B50446812182
:101A000000F0B7F8D4F8180220B101F06FF8002008
:101A1000C4F81802002010BD222101800048704740
:101A2000780000200A21018000487047A8000020AB
:101A3000007C08B10A2070470820704770B5054641
:101A4000002404230322812100F080F9102001F0FA
:101A50007FF8C5F8180218B100210173204670BD47
:101A60000124FBE710B5134690F8FC41D0F818228A
:101A7000032C07D1147B2CB9012414730A4681214D
:101A800000F021FA002010BD70B500220D78D0F8CA
:101A90001832144615F060051BD0202D40D14A782D
:101AA000022A13D0032A0AD00A2A0BD00B2A03D009
:101AB000FFF771FE022070BD8878186030E00122C7
:101AC000194624E04888000A586029E00122191DBF
:101AD0001DE04D78062D04D00A2D1BD00B2D1FD1F3
:101AE0001CE04B882225B5EB132F05D1CA884A2A62
:101AF00000D94A220B4C09E02125B5EB132F05D163
:101B0000084CCA88183C092A00D909222146FFF747
:101B100058FE05E0012203F10801F8E78878986093
:101B2000002070BDB400002010B580B1D0F8143290
:101B300013B10023C0F8143209B1C0F8101201210A
:101B400080F8FC11027000F0BBF8002010BD0220EC
:101B500010BD10B50024D0F82002FEF7EAFD30B128
:101B6000012801D0022801D0022400E001242046EF
:101B700010BD10B50024D0F82002FEF7B8FD30B13A
:101B8000012801D0022801D0022400E001242046CF
:101B900010BD2DE9F0411746044641B1D4F81402B6
:101BA00042698AB394F8FC01032842D043E0D4F898
:101BB000F411002504F11400022933D1D0E90263A5
:101BC0009E4207D9F31A83609AB239462046FFF73E
:101BD000DAFD12E04068B0FBF3F103FB1101A1B99B
:101BE000984212D3D4F8F81188420ED2002211463E
:101BF0002046FFF7C8FDC4F8F85100231A461946DD
:101C0000204600F0B6F80DE012E0D4F81402C168E6
:101C100029B194F8FC01032801D1204688472046C9
:101C2000FFF7C4FD94F80002012804D184F80052A3
:101C300001E0204690470020BDE8F08170B51546D0
:101C4000044641B1D4F8140282693AB394F8FC0115
:101C5000032824D025E0D4F8F41104F58270032978
:101C60001FD1D0E902218A420BD9531A836008465A
:101C7000834200D303469AB229462046FFF77BFDF4
:101C80000FE0D4F81402016929B194F8FC0103288B
:101C900001D1204688472046FFF7A0FD01E02046FD
:101CA0009047002070BD0020704710B5012180F8DA
:101CB000FC11D0F81422017952689047002010BD21
:101CC00010B5017849BB16490222C1F8EC03C0F8EF
:101CD00020124FF0A0400860042048600020C1E9B5
:101CE0000320C1E90502C861086201224862C1E916
:101CF0000B200846FFF702F808B1FEF723FB80210E
:101D00000748FEF7B3FC402200210548FEF7B2FC6D
:101D1000802201210248FEF7ADFC002010BD00002A
:101D20000C0100200A0601F07F01D0F82002C1EB6F
:101D3000C10100EB810002D590F83A00704790F89D
:101D4000FA017047002070470020704770B51D46AB
:101D500013460024D0F820022A46FEF712FD30B1C7
:101D6000012801D0022801D0022400E001242046ED
:101D700070BD10B50024D0F82002FEF72DFD30B163
:101D8000012801D0022801D0022400E001242046CD
:101D900010BD70B50022044640231146FFF7D6FF60
:101DA00040252B46002280212046C4F81051FFF721
:101DB000CDFF0120256284F8FC01D4F8180228B177
:101DC000D4F814022179426820469047002070BD63
:101DD00090F8FD1180F8FC110020704710B590F8C4
:101DE000FC11032904D1D0F81412C96901B1884744
:101DF000002010BD01740020704710B50024D0F8F9
:101E00002002FFF731F830B1012801D0022801D0BB
:101E1000022400E00124204610BD70B5044600F500
:101E20000270054600F05FF80120C4F8F401B4F830
:101E30000E02C4F8F80194F8080210F01F010AD04D
:101E400001290DD0022910D000F08001204600F0B9
:101E500011F8002070BD2946204600F0AAF8F8E7E6
:101E60002946204600F08CF9F3E72946204600F089
:101E700019F9EEE710B50024D0F82002FEF7DBFCDC
:101E800030B1012801D0022801D0022400E0012451
:101E9000204610BD10B50024D0F82002FEF7FDFF4B
:101EA00030B1012801D0022801D0022400E0012431
:101EB000204610BD90F8FC1180F8FD11042180F837
:101EC000FC110020704710B50024D0F82002FEF766
:101ED000E2FC30B1012801D0022801D0022400E048
:101EE0000124204610BD0A7802704A7842708A7830
:101EF000CB7802EB032242800A794B7902EB032272
:101F000082808A79C97902EB0121C180704702463B
:101F1000002011B1C2F8141270470220704710B5AA
:101F2000D0F8142202241AB11268904700B9002494
:101F3000204610BD70B50E461A4D897804462970AA
:101F4000012928D894F8FC01022802D0032822D1C4
:101F500005E099B10320616084F8FC0109E091B1CA
:101F6000606888420AD0C1B22046FFF7FDFB29789D
:101F700061602046FFF7D3FF02280CD02046BDE861
:101F80007040FFF72BBC022084F8FC012046616002
:101F9000FFF7EAFBF2E731462046BDE87040FFF765
:101FA000FABB0000FE00002010B5FFF773FF002011
:101FB00010BD2DE9F04100264B78012532460A2B51
:101FC00043D2DFE803F03C584251420805422A2739
:101FD000FFF77AFC63E004468888C8B9C888B8B9B6
:101FE000887800F07F0794F8FC01032810D084F86B
:101FF000FE7139462046FFF700FF2046FFF7EEFB53
:102000001FB1022084F8FC0149E084F8FC5146E04D
:1020100020461AE0FFF78EFF41E0CB88012B14D158
:1020200090F8FC31022B02D0032B0ED104E0826029
:10203000012200F1080114E00122011D11E090F8D5
:10204000FC21022A04D0032A02D0FFF7A4FB26E0D9
:10205000C560D0F8041209B10321C160022200F169
:102060000C01FFF7AEFB1AE004464888012816D1A0
:10207000C4F804520BE0044690F8FC01022801D099
:102080000328C5D14888012809D1C4F80422D4F80E
:1020900014028268204690472046FFF79FFB304697
:1020A000BDE8F08170B50D46044628780026097910
:1020B000C0F34110012806D06878A0B301281FD0D2
:1020C00003283FD107E0D4F814022946826820464D
:1020D0009047002070BD94F8FC01022817D0032817
:1020E0002CD1688828B921B1802902D02046FFF779
:1020F000C1FED4F81402294682682046904713E0B6
:1021000094F8FC01022802D0032817D103E0C9B1DA
:1021100080291BD116E06888A0B9480604D0204663
:10212000FFF717FDE5E703E02046FFF757FB09E05F
:1021300094F8FC01022807D003280BD0294620463A
:10214000FFF729FB304670BD4806FBD02046FFF75D
:1021500091FEF7E7080601F07F0004EB001501D5BA
:10216000143501E005F582752046FFF7DBFD00B16F
:1021700001202860022229462046FFF722FBE1E7E2
:1021800070B5054690F8FC010C4603280DD1207966
:1021900001280AD8D5F81402826828469047E088BA
:1021A00030B92846FFF71AFB02E02846FFF7F3FA9A
:1021B000002070BD30B54C781D4B01220D78AA402F
:1021C000012CD0F81C4818D044EA0242C0F81C2860
:1021D0000A7800EB4210D0F8002B12040BD4D0F890
:1021E000002B0C89C4F30A042243C97843EA8141D5
:1021F0000A43C0F8002B002030BD92B21443C0F84F
:102200001C480C7800EB4410D0F800291204F2D4DA
:10221000D0F800290D89C5F30A052A43C978890435
:1022200041EA84510A431A43C0F80029E3E7000059
:1022300000800010D0F800196FF30A01C0F80019EF
:10224000D0F80818C1F34101022905D1D0F80019CE
:1022500041F00301C0F80019D0F8041841F480716E
:10226000C0F804180020704770B50446049D069914
:102270000D9801290CD0E06840F04000E060204655
:1022800000F024F84FF48030A063012D16D019E03F
:10229000A16B21F48031A163E1680B4A1140E16038
:1022A000E16821F44011E160012803D1E06840F4C5
:1022B0008010E060204600F009F8E6E7A06840F0F2
:1022C0002000A060002070BDBFFFBDFF01220C49AF
:1022D00002E0521C8A420BD80369002BF9DA02692A
:1022E00042F001020261012204E0521C8A4201D93B
:1022F000032070470369DB07F7D100207047000017
:10230000400D030030B54D7801220C7802FA04F339
:10231000012DD0F83C4816D024EA0343C0F83C38DD
:10232000D0F81C380C78A24023EA0242C0F81C28DE
:10233000097800EB4110D0F8001B21F40041C0F8EF
:10234000001B002030BD9BB29C43C0F83C48D0F835
:102350001C380C78A24092B29343C0F81C3809781C
:1023600000EB4110D0F8001921F40041C0F8001929
:10237000E7E710B5D0F8041821F00201C0F80418FE
:102380000320FDF7E0FF002010BD10B5D0F80418C1
:1023900041F00201C0F804180320FDF7D4FF00202B
:1023A00010BD00002DE9F0470E460446DDE90A0A9B
:1023B0000025DDF83C80089FA16B41F40021A1635A
:1023C000B8F1000F03D1A16B41F40011A1634FF0EC
:1023D0000009C4F8009ED4F80018C4F800180128B9
:1023E00004D0D4F8000840F0030004E0D4F800085A
:1023F0000BB140F00100C4F800081021204600F0A5
:10240000BDFA204600F0AAFA4846C4F81098C4F86D
:1024100014984FF0FF31C4F81818C4F81C984FF006
:10242000904CFF2310E000BF04EB4511D1F80029C8
:10243000002A02DAC1F800C901E0C1F80009C1F8B8
:102440001009C1F808396D1CAE42EDD800210FE02B
:1024500004EB4112D2F8005B002D02DAC2F800CB87
:1024600001E0C2F8000BC2F8100BC2F8083B491C8F
:102470008E42EDD8D4F8101821F48071C4F81018E9
:10248000012F0AD11449C4F83018D4F83018134A6F
:102490001143C4F83018D4F83018A0616FF08040B0
:1024A00060611FB9A06940F01000A061A0690C49EB
:1024B0000843A061BAF1000F03D0A06940F0080002
:1024C000A061B8F1010F03D1A06906490843A061DA
:1024D0000020BDE8F087000000018000030001003B
:1024E00000383C8004000040816821F001018160D7
:1024F0000020704730B54D784D4C0B7800EB4313FE
:10250000012D28D0D3F8105B6FF31205C3F8105BD0
:102510000B7800EB4313D3F8105B2540C3F8105B36
:102520004B690BB18B684B610B7800EB4313D3F80D
:10253000104B44F40024C3F8104B0B7800EB43130A
:10254000D3F8104B8D68C5F312052C43C3F8104B1C
:10255000012A5CD061E04D69002DD3F810593BD0C1
:102560006FF31205C3F810590B7800EB4313D3F83F
:1025700010592540C3F810594C698B689C4200D90A
:102580004B610B7800EB4313D3F8104944F400245B
:10259000C3F810490B7800EB4313D3F810494D6989
:1025A000C5F3120554EA0504C3F81049012A27D0DF
:1025B0004A693AB1D0F834280C780123A3401A4371
:1025C000C0F83428097800EB4110D0F8001941F028
:1025D0000441C0F8001929E02540C3F810590B78D0
:1025E00000EB4313D3F8104944F40024C3F8104916
:1025F0000B7800EB4313D3F810496FF31204D3E7C1
:102600000B7800EB43130A69C3F81429DAE70B7857
:1026100000EB4313CA68C3F8142B097800EB411090
:10262000D0F8001B41F00441C0F8001B002030BD71
:10263000FFFF07E00023C0F8103BD0F8103B43F445
:102640000023C0F8103BD0F8103B43F01803C0F84B
:10265000103BD0F8103B43F0C043C0F8103B0129B9
:1026600005D1C0F8142B4FF08021C0F8001B0020CA
:1026700070474B780A7800EB4212012B0BD0D2F84E
:10268000003B23F40013C2F8003BCA78032A17D09A
:10269000022A15D01DE0D2F8003923F40013C2F845
:1026A0000039CA78032A01D0022A12D1097800EB36
:1026B0004110D0F8001941F08051C0F8001908E02D
:1026C000097800EB4110D0F8001B41F08051C0F8B0
:1026D000001B002070474B780A7800EB4212012B58
:1026E00014D0D2F8003B002B05DBD2F8003B23F0DE
:1026F0008043C2F8003B097800EB4110D0F8001B82
:1027000041F40011C0F8001B00207047D2F80039D6
:10271000002B05DBD2F8003923F08043C2F80039E2
:10272000097800EB4110D0F8001941F40011C0F80D
:102730000019E9E778B54E786FF06045834C0B7867
:1027400000EB4313012E2FD0D3F8106B6FF312065A
:10275000C3F8106B0B7800EB4313D3F8106B2640D3
:10276000C3F8106B4B69002B7DD08C6823445B1E33
:10277000B3FBF4F39BB20C7800EB4414D4F8106B69
:1027800005EAC3452E43C4F8106B0C7800EB4414E3
:10279000D4F8105B8E685E43C6F312031D43C4F881
:1027A000105B012A73D0B2E04E6966B3D3F81069AA
:1027B0006FF31206C3F810690B7800EB4313D3F8DC
:1027C00010692640C3F810694C698B681C44641E6C
:1027D000B4FBF3F305EAC3440B7800EB4313D3F8DF
:1027E00010592C43C3F810490B7800EB4313D3F86E
:1027F00010494D69C5F312052C43C3F81049CB7835
:10280000012B16D027E0D3F810592540C3F81059F2
:102810000B7800EB4313D3F8104944F40024C3F8B9
:1028200010490B7800EB4313D3F810496FF31204EF
:102830000FE00B7800EB4313D3F8104924F0C044A9
:10284000C3F810490B7800EB4313D3F8104944F058
:102850000054C3F81049012A12D0CB78012B17D0AD
:102860004B692BB300E037E0D0F834380D78012401
:10287000AC402343C0F83438CB78012B08D017E0A4
:102880000C7800EB44140B69C4F81439F4E738E011
:10289000D0F80838DB050B7800EB4313D3F8004978
:1028A00002D444F0005401E044F08054C3F80049DD
:1028B0000B7800EB4313D3F8004944F00444C3F809
:1028C0000049CB78012B3ED100928A8A93B20A78D4
:1028D000C96800F0E7F836E00B7800EB4313D3F853
:1028E000104B8D68C5F312052C43C3F8104B0B78C1
:1028F00000EB4313D3F8104B44F40024C3F8104BFF
:102900004FE70B7800EB4313CA68C3F8142BCA785F
:10291000012A0FD1D0F80828D2050A7800EB42121C
:10292000D2F8003B02D443F0005301E043F080535F
:10293000C2F8003B097800EB4110D0F8001B41F0D1
:102940000441C0F8001B002078BD0000FFFF07E035
:10295000816841F001018160002070470021102250
:102960000261054A491C914201D90320704703695D
:10297000DB06F7D400207047400D0300002220231F
:1029800043EA811101610549521C8A4201D90320A1
:10299000704703699B06F7D400207047400D030081
:1029A0000021D0F8082812F0060F15D0D0F808281A
:1029B000C2F34102012A0CD0D0F80828C2F3410228
:1029C000032A06D0D0F80808C0F34100022802D03C
:1029D00002E0032100E0022108467047406900F050
:1029E00001007047D0F81818D0F81C08084080B2D1
:1029F0007047D0F81818D0F81C080840000C704731
:102A0000D0F81038D0F83428CA4002F0010243EA66
:102A1000C21200EB4110D0F808091040704700EBDB
:102A20004111D1F8081BD0F81408084070474169DB
:102A300080690840704710B503460020D21C9208F8
:102A400003F5805303E01C6841F8044B401C90429E
:102A5000F9D3084610BD10B5C26822F0C042C2606A
:102A6000012901D021B107E0C16841F0005102E025
:102A7000C16841F08041C1603220FDF764FC002054
:102A800010BDD0F8002822F4FE62C0F80028D0F86B
:102A900000284FF4FE6303EA01110A43C0F800283E
:102AA0000020704730B50024039D6DB9DB1C9B08E6
:102AB00000EB023000F5805004E000BF51F8042B19
:102AC0000260641C9C42F9D3002030BDFEE702E0A6
:102AD00008C8121F08C1002AFAD1704770470020A9
:102AE00001E001C1121F002AFBD1704710B5002878
:102AF00021D0114B0022001F196803E0814203D846
:102B00000A4649680029F9D152B11368841A9C42D7
:102B100004D1006818441060104602E0506000E0E4
:102B2000186039B102680B1A934203D10B681A443A
:102B300002604968416010BD04010020FDF7FEFC01
:102B4000FEF798FDFEF7C2FCFEF718FDFEE7000059
:102B5000F0B50B30154D20F007010024144A0FE0AA
:102B600003688B420BD38B4205D95E1A4318476822
:102B7000C3E9006700E04368136002C004E0021D7F
:102B800010680028ECD12046002802D1286808B13E
:102B90000020F0BD064A07481060074A121A22F0CA
:102BA0000702C0E9002401202860D7E708010020BF
:102BB00004010020540700205017002000000000EE
:102BC000010203040102030406070809EC2B0008B4
:102BD000000000200C010000CE2A0008F82C00089C
:102BE0000C01002044360000DE2A000815180008F9
:102BF000451800085118000879180008A5180008A1
:102C0000F517000821180008040309041201000246
:102C10000000004083042B57000201020301000062
:102C200000000000000000000024F4003D1A00082D
:102C3000FB190008891A00080000000000000000CD
:102C4000EF19000800000000000000000000000074
:102C500000000000191A0008191A0008191A0008C3
:102C6000251A000809022200010100E032090400CF
:102C7000000103010200092111010001224A00079D
:102C800005810304000A0000092111010001224A04
:102C9000000000000A0600020000004001000000E1
:102CA00005010902A1010901A10005091901290372
:102CB00015002501950375018102950175058101B6
:102CC00005010930093109381581257F75089503FB
:102CD0008106C0093C05FF09011500250175019514
:102CE00002B12275069501B101C00000000000008C
:082CF0000000000000000000DC
:040000050800018965
:00000001FF
