:020000040800F2
:10000000E80400209D010008A71100081111000854
:10001000A5110008E50100083917000800000000DC
:10002000000000000000000000000000CB110008EC
:100030009902000800000000C9110008CD11000855
:10004000B7010008B7010008B7010008B7010008B0
:10005000B7010008B7010008B7010008B7010008A0
:10006000B7010008B7010008B7010008B701000890
:10007000B7010008B7010008E9010008B70100084E
:10008000B7010008B7010008B7010008B701000870
:10009000B7010008B7010008B7010008B701000860
:1000A000B7010008B7010008B7010008B701000850
:1000B000B7010008B7010008B7010008B701000840
:1000C000B7010008B7010008B7010008B701000830
:1000D000B7010008B7010008B70100082D17000894
:1000E000B7010008B7010008B7010008B701000810
:1000F000B7010008B7010008B7010008B701000800
:10010000B7010008B7010008B7010008B7010008EF
:10011000B7010008B7010008B7010008B7010008DF
:10012000B7010008B7010008B7010008B7010008CF
:10013000B7010008B7010008B7010008B7010008BF
:10014000B7010008B7010008B7010008B7010008AF
:10015000B7010008B7010008B7010008B70100089F
:10016000B7010008B7010008B7010008B70100088F
:10017000B7010008B7010008B7010008000000003F
:10018000B7010008B7010008DFF80CD000F018F83C
:100190000048004759170008E80400200648804737
:1001A00006480047FEE7FEE7FEE7FEE7FEE7FEE75C
:1001B000FEE7FEE7FEE7FEE77D1200088901000882
:1001C000064C074D06E0E06840F0010394E80700A4
:1001D00098471034AC42F6D3FFF7DAFFA8170008AF
:1001E000C8170008FEE70000014800F069B80000E9
:1001F0008400002001681823CAB2103AB2FBF3F25F
:10020000054B6FF30901032A9B5CC36500D9091DE7
:100210008165084670470000A017000810B5014628
:1002200000208B698A6A4FF0C07453B1B3F5005F48
:1002300015D072B1012A0CD0022A0AD0032A09D1A2
:1002400004E01AB1012A06D0022A03D1C96AC90101
:1002500000D5012010BDC96AA142FAD010BD002A04
:10026000F7D0012AF2D0022AF3D0032AF3D010BD2E
:1002700030B50468256825F480252560046863602E
:100280008368402B036803D099600068C26030BD6A
:100290009A600068C16030BD7047FEE790F8351085
:1002A000022903D08021416501207047052180F893
:1002B00035100068016821F00101016000207047DD
:1002C0002DE9F84304464FF00008CDF8008064485B
:1002D0004FF41651A56D0068B0FBF1F72E6894F845
:1002E0005C10082000FA01F131420FD021680A6841
:1002F00052070BD50A6822F004020A6094F85C10D9
:100300008840A860606D40F00100606594F85C1062
:1003100054488840304208D021684969090604D50C
:10032000A860606D40F0020060654E4894F85C1073
:10033000C01C8840304208D021680968890704D56C
:10034000A860606D40F00400606594F85C101020B7
:100350008840304218D021680968090714D5A86080
:1003600020680168490304D50068000308D5A16C22
:1003700007E00168C90503D4016821F008010160A4
:10038000216C09B12046884794F85C1020208840F1
:1003900030424FF0010631D021680968C9062DD5D9
:1003A000A86094F8350005282068016806D0490344
:1003B00047D5006800031DD4616C1CE021F01601D4
:1003C00001602068416921F080014161206C08B919
:1003D000A06C20B12068016821F00801016094F848
:1003E0005C103F208840A86084F8348084F8356031
:1003F000216D1FE0E16B09B120468847606D002840
:100400002BD0606DC00714D0052084F8350020681B
:10041000016821F0010101600098401C0090B84281
:1004200003D820680068C007F6D184F8348084F8C7
:100430003560E16C002910D001B02046BDE8F043E2
:1004400008470168C905D5D4016821F01001016091
:1004500084F8348084F83560CCE7BDE8F883000088
:1004600040000020010080002DE9F041044600F02A
:1004700083F906465CB1002584F83450022084F8E4
:1004800035002068016821F0010101600DE00120C4
:10049000BDE8F08100F070F9801B052805D9202007
:1004A0006065032084F83500F2E720680068C00723
:1004B000F0D1226811681F480140D4E901031843B4
:1004C000D4E903363343184363691843A3691843D7
:1004D000E3691843236A18430843616A042903D176
:1004E000D4E90B1319430843106020684069666A19
:1004F00020F0070130460E43012704280AD1A06AE4
:1005000006432046FFF78AFE20B14020606584F84C
:100510003570BCE7206846612046FFF76BFE94F813
:100520005C203F2191408160656584F83570002032
:10053000AEE700003F8010F02DE9F0410446866DE3
:1005400090F83400002501280DD0012084F83400F3
:1005500094F835700020012F07D084F8340002256C
:100560002846BDE8F0810220FBE7022784F83570B9
:1005700060652046FFF77CFE94F85C103F208840C1
:10058000B0602068016841F016010160206841698F
:1005900041F080014161206C20B12068016841F088
:1005A000080101602068016841F001010160D7E79E
:1005B00031B500F0E1F8044600F0DEF80099001BC8
:1005C0008842F9D338BD00002DE9F84FDFF87CB13F
:1005D00000224FF001084FF0030A4FF00F090BF112
:1005E000040E00BF0B6808FA02F42340A3426ED148
:1005F0004D68022D01D0122D0ED1D50800EB850CCF
:10060000DCF820505607F70E09FA07F6B5430E69D5
:10061000BE402E43CCF82060066855000F790AFAD8
:1006200005FC07F0030726EA0C06AF4037430760D6
:100630004E68012E05D0022E03D0112E01D0122EAD
:100640000ED18668CF6826EA0C06AF403743876034
:100650004668A6430C79C4F30014944034434460C4
:10066000C6688C6826EA0C06AC403443C4604C680B
:10067000E40065D5364C256845F48045256024683E
:1006800022F0030504F480440094324C2E19D6F86D
:10069000084895072F0F09FA07F5AC432E4DA842DD
:1006A00001D1002524E02D4DA84201D101251FE0F4
:1006B0002B4DA84201D102251AE02A4DA84201D1B2
:1006C000032515E0284DA84202D1042510E037E0AB
:1006D000264DA84201D105250AE0254DA84201D1A9
:1006E000062505E0234DA84201D1072500E0082595
:1006F000BD402543C6F80858DBF800405D464E680B
:100700009C43F60300D51C432C60DEF80040754680
:100710004E689C43B60300D51C432C600B4D083536
:100720002C684E689C43F60200D51C432C60074D94
:100730000C352C684E689C43B60200D51C432C60D7
:10074000521C102AFFF44EAFBDE8F88F003C014068
:1007500044380240003001400000024000040240E2
:1007600000080240000C0240001002400014024049
:1007700000180240001C0240014800687047000059
:100780000000002002480168491C01607047000019
:10079000000000200B4810B5016841F400710160B1
:1007A000016841F480610160016841F48071016079
:1007B000032000F075F8002000F006F800F018F8AB
:1007C000002010BD003C024010B5044607484FF41D
:1007D0007A710068B0FBF1F000F037FB002221468F
:1007E000501E00F03DF8002010BD00004000002029
:1007F00010B5032000F054F8002211466FF00B00F2
:1008000000F02EF8002211466FF00A0000F028F8E0
:10081000002211466FF0090000F022F80022114674
:10082000501F00F01DF800221146101F00F018F8AC
:1008300000221146901E00F013F80022BDE810407F
:100840001146501E00F00CB800F01F02012191402B
:100850004009800000F1E020C0F80011704700005E
:10086000F0B40E4B1B680C46C3F30223C3F107051B
:10087000042D00D90425191D072901D2002300E009
:10088000DB1E012606FA05F1491E214099409E40D3
:10089000761E16403143F0BC00F086BC0CED00E043
:1008A000064900F0070208684FF6FF03184040EAC7
:1008B0000220034A10430860704700000CED00E07E
:1008C0000000FA052DE9F047DFF8649105460F4670
:1008D000D9F8000000F00F01F8B28046B94208D202
:1008E000014689F80010D9F8000000F00F00B84266
:1008F00074D128784F4C800705D52068A96820F06E
:10090000F000084320602878C00759D0494968683A
:10091000083901281AD002281BD0032819D00968E9
:10092000890700295ADA216821F003010143216077
:10093000FFF722FF6968064641F28830012911D08D
:1009400002291DD00329824627D035E00968890392
:10095000E7E709688901E4E7FFF70EFF811B5145CE
:1009600001D926E082462068C0F381000128F3D136
:1009700026E000BFFFF700FF811B514501D918E0B9
:1009800082462068C0F381000228F3D118E000BF3E
:10099000FFF7F2FE811B51450BD82068C0F38100A0
:1009A0000328F5D10CE000BFFFF7E6FE811B51459F
:1009B00002D90320BDE8F087206810F00C0FF3D1B6
:1009C000D9F80010484601F00F01B94208D980F863
:1009D0000080006800F00F00B84201D00120E9E774
:1009E0002878400705D52068E96820F4E0500843DE
:1009F00020602878000706D52068296920F4604027
:100A000040EAC100206000F051F82168F02292FA1B
:100A1000A2F201F0F001B2FA82F2D140064A515C32
:100A2000C840064908600020FFF7CEFE0020C1E75D
:100A3000003C0240083802409017000840000020A7
:100A4000014800687047000040000020084809493C
:100A5000006809684FF4E05292FAA2F201F4E05102
:100A6000B2FA82F2D140044A515CC840704700009B
:100A70004000002008380240901700080848094943
:100A8000006809684FF4604292FAA2F201F46041F2
:100A9000B2FA82F2D140044A515CC840704700006B
:100AA00040000020083802409017000830B519486F
:100AB000006810F00C01184812D0441004290ED020
:100AC00008290DD11349091F0A6802F03F030A687B
:100AD000550247F6C07204D5B4FBF3F003E020469C
:100AE00030BDB0FBF3F00B680968134092FAA2F234
:100AF000B2FA82F2D34058434FF4403292FAA2F253
:100B000001F44031B2FA82F2D140491C4900B0FBF5
:100B1000F1F030BD083802400024F4002DE9F84F10
:100B20000546DFF8FC920078A9F1040BC007ABF191
:100B3000040449D0D9F800104846C1F381010129C5
:100B400008D00068C0F3810002280AD1DBF8000059
:100B5000400206D52068800336D5686800286ED02C
:100B600032E06868B0F5803F10D0B0F5A02F206863
:100B700010D020F480302060206820F48020206095
:100B80006868A0B1FFF7F8FD06460CE0206840F465
:100B90008030F4E740F480202060F7E7FFF7ECFDB9
:100BA000801B642871D820688003F7D50CE0FFF71C
:100BB000E3FD064605E000BFFFF7DEFD801B64286D
:100BC000F0D820688003F7D42878964F80074FF03C
:100BD000010A4FF0000841D5D9F80010484611F03D
:100BE0000C0F08D00068C0F3810002280AD1DBF89E
:100BF0000000400206D42068800713D5E868012869
:100C00001DD10FE0E868D8B1C7F800A0FFF7B4FD28
:100C1000064604E0FFF7B0FD801B0228C2D820681A
:100C20008007F7D52068F82292FAA2F22969B2FA71
:100C300082F220F0F8009140084320600EE0ECE0E2
:100C4000C7F80080FFF798FD064604E0FFF794FD23
:100C5000801B022819D820688007F7D4287800075D
:100C600024D57148696989B1C0F800A0FFF784FDF7
:100C7000064604E0FFF780FD801B022805D868487F
:100C80006C3000688007F5D510E07AE0C0F800808D
:100C9000FFF772FD064604E0FFF76EFD801B022899
:100CA0006FD85F486C3000688007F5D4287840071B
:100CB00053D55B483830016841F0805101600068CD
:100CC00000F0805000905948016841F48071016043
:100CD000FFF752FD064604E0FFF74EFD801B022899
:100CE0004FD852480068C005F6D54D4EA868683602
:100CF00001280FD00528306810D020F001003060A6
:100D0000306820F004003060A868B8B1FFF734FD07
:100D100000900FE0306840F00100F4E740F004007C
:100D20003060F7E7FFF728FD0099411A41F288305B
:100D300081426AD830688007F4D50EE0FFF71CFDC9
:100D4000009007E0FFF718FD0099411A41F2883042
:100D500081425AD830688007F4D4A869E8B3D9F83A
:100D60000010C1F38101022957D00228C7F8608022
:100D700003D0FFF701FD05464AE0FFF7FDFC0646FC
:100D800005E042E0FFF7F8FC801B02283DD8206810
:100D90008001F7D4D5E90701084347F6C07292FAFB
:100DA000A2F2696AB2FA82F29140AA6A4FF0FF3366
:100DB00003EB52024FF4403393FAA3F3B3FA83F3F5
:100DC0009A40114308434FF0706292FAA2F2E96A26
:100DD000B2FA82F29140084300E01CE0CBF8000038
:100DE000C7F860A0FFF7C8FC054604E0FFF7C4FCA5
:100DF000401B022809D820688001F7D50BE000BF0E
:100E0000FFF7BAFC401B022802D90320BDE8F88F87
:100E100020688001F4D40020F8E70120F6E7000004
:100E20000838024000004742800E474200700040F0
:100E30004FF0E0210428086903D020F00400086185
:100E4000704740F00400FAE7704710B5401EB0F15B
:100E5000807F01D3012010BD4FF0E02460610F219D
:100E6000601700F0A1F90020A06107202061002098
:100E700010BD10B5FFF7E8FF10BD704770B50268F0
:100E800004461068D168536910F00F0F51D003F079
:100E9000010501F4907635435DD0C20705D0CA053F
:100EA00003D5E26B42F00102E263420705D5DA079F
:100EB00003D0E26B42F00202E263820705D5DA0753
:100EC00003D0E26B42F00402E263020705D5DA07C1
:100ED00003D0E26B42F00802E263E26B002A34D0F6
:100EE000800604D5880602D5204600F051FA206815
:100EF0004069E16BC0F3801001F008010143204616
:100F000024D000F02EFA2068416949061AD54169BB
:100F100021F040014161606BA0B11B490165606B2C
:100F2000FFF7BCF9002810D0606B016DBDE8704080
:100F3000084783060FD58B060DD52046BDE87040C7
:100F400000F026BA2046FFF798FF70BDFFF795FF27
:100F50000020E06370BD030606D50B0604D52046CD
:100F6000BDE8704000F0B0BB4006F3D54806F1D5AF
:100F7000D168204621F04001D160202184F8391049
:100F800000F0C4F870BD0000D112000870B5040074
:100F900004D094F83900002510B106E0012070BD9E
:100FA00084F83850204600F023F8242084F83900D3
:100FB0002068C16821F40051C160204600F02EFA7B
:100FC0002068016921F4904101612068416921F0A4
:100FD0002A0141612068C16841F40051C160E563A4
:100FE000202084F8390084F83A00002070BD000009
:100FF00070B5064600681F4986B0884238D11E4841
:101000000025016841F4802101600068694600F410
:10101000802005904FF44060009002200190012054
:10102000029003200390072004901448FFF7CCFAA5
:10103000144C134820604FF0006060604020C4E909
:1010400002050001C4E90405A561E56125622046A9
:101050006562FFF709FA08B1FFF71FF93463002250
:1010600011462720A663FFF7FBFB2720FFF7ECFBC9
:1010700006B070BD00480040403802400008024001
:1010800058600240840000207047000070B504469C
:1010900090F83900202830D169B362B394F8380051
:1010A00001282AD0012084F838002162A284E28439
:1010B0000025E563212084F83900236B1048D863AC
:1010C000236B10481864236B0F48D864206B1346B9
:1010D00005652668206B321DFFF72EFA21686FF038
:1010E0004000086084F838502068416941F0800170
:1010F0004161002070BD012070BD022070BD000064
:101100002B13000859130008E112000870477047BC
:10111000FEE70000094808B5016841F400110160CC
:101120000068002200F40010009011460E20FFF726
:1011300097FBBDE808400E20FFF786BB3038024021
:10114000094808B5016841F080010160016801F0BB
:1011500080010091016841F004010160006800F025
:101160000400009008BD0000303802400C4810B563
:101170000A4901604FF4E1314160002181600C2295
:10118000C160C0E904128161C161FFF7FFFE002860
:1011900003D0BDE81040FFF780B810BD0048004004
:1011A00044000020FEE770470907090E002806DA10
:1011B00000F00F0000F1E02080F8141D704700F1EE
:1011C000E02080F8001470477047704710B5FFF7B3
:1011D000D9FABDE81040FFF74CBE000030B52548F5
:1011E00093B00025016841F080510160006800F073
:1011F000805011902048016841F4804101600068EE
:10120000022400F4804011900120039010200490EB
:10121000009406940820CDE90750A820CDE90904E0
:1012200004200B906846FFF779FC00B1FEE70CA99B
:101230000F2081E831004FF4A0500F904FF4805000
:10124000109005210CA8FFF73DFB00B1FEE7FFF76A
:10125000F7FB4FF47A71B0FBF1F0FFF7F6FD0420D5
:10126000FFF7E6FD00221146501EFFF7F9FA13B012
:1012700030BD000040380240007000401048016856
:1012800041F4700101600F48016841F00101016003
:101290000C4A00210832116002680B4B1A400260B0
:1012A000031D0A4A1A60026822F48022026005487F
:1012B0000C30016002495806803908607047000010
:1012C00088ED00E000380240FFFFF6FE10300024F9
:1012D00010B5806B0021C185C184FFF7CEFD10BD24
:1012E00070B5846B2068406994F83910C0F3C01061
:1012F0000025212904D118B1E584204600F03FF8EB
:101300002068406994F83A10C0F38010222904D173
:1013100018B1E585204600F024F8E06B40F010009D
:10132000E0632046FFF7A9FD70BD10B50146806B54
:1013300009680968C9050CD40021C18401684A699B
:1013400022F080024A610068C16841F04001C1603A
:1013500010BDFFF7DBFE10BD10B5806BFFF7D7FEA9
:1013600010BD0168CA6822F49072CA6001684A69B7
:1013700022F001024A61202180F83A10704701688A
:10138000CA6822F0C002CA60202180F83910704774
:1013900010B590F83A10222901D0022010BD8168C2
:1013A000B1F5805F11D00169002901681FD049683B
:1013B00001F07F03816A4A1C82620B70C18D491E55
:1013C0000904090CC18518D026E00269816A002A47
:1013D0000268526805D0D2B20A80816A491C8162D3
:1013E000ECE7C2F308020A80816A891CF7E74A68C1
:1013F000816A4B1C83620A70E0E70168CA6822F4C4
:101400009072CA6001684A6922F001024A61202193
:1014100080F83A10FFF738FE002010BD2DE9F041AA
:1014200004460068016921F44052E16811430161FA
:101430002168C86849F20C6290432369A268E56993
:101440001A4363692B431A430243CA6021684869FF
:1014500020F44072A06910434861E1696425B1F548
:10146000004F9748974A21684FF032083FD0914289
:1014700001D081427CD1FFF701FB00EBC00101EB01
:10148000001061688900B0FBF1F6FFF7F7FA00EB96
:10149000C00101EB001061688900B0FBF1F0B0FB06
:1014A000F5F06FF01801484306EB800108EB0110DE
:1014B000B0FBF5F000F0F006FFF7E0FA00EBC0013A
:1014C00001EB001061688900B0FBF1F0B0FBF5F0B2
:1014D00006EB0016FFF7D2FA00EBC00101EB00109B
:1014E00061688900B0FBF1F7FFF7C8FAD2E09142DA
:1014F00001D081423DD1FFF7C1FA00EBC00101EB01
:10150000001061684900B0FBF1F0B0FBF5F0060196
:10151000FFF7B4FA00EBC00101EB0010616849006D
:10152000B0FBF1F7FFF7AAFA00EBC00101EB0010E6
:1015300061684900B0FBF1F0B0FBF5F06FF0180105
:10154000484307EB800108EBC100B0FBF5F000F069
:10155000F80006EB4006FFF791FA00EBC00101EB43
:10156000001061684900B0FBF1F7FFF787FA3CE033
:1015700055E0FFF76BFA00EBC00101EB001061686A
:101580004900B0FBF1F0B0FBF5F00601FFF75EFAA1
:1015900000EBC00101EB001061684900B0FBF1F7FE
:1015A000FFF754FA00EBC00101EB0010616849003D
:1015B000B0FBF1F0B0FBF5F06FF01801484307EB1A
:1015C000800108EBC100B0FBF5F000F0F80006EB7D
:1015D0004006FFF73BFA00EBC00101EB0010616829
:1015E0004900B0FBF1F7FFF731FA00EBC00101EB66
:1015F000001061684900B0FBF1F0B0FBF5F06FF04E
:101600001801484307EB800108EBC100B0FBF5F07F
:1016100000F00700216830448860BDE8F081FFF7E2
:1016200015FA00EBC00101EB001061688900B0FB06
:10163000F1F6FFF70BFA00EBC00101EB0010616857
:101640008900B0FBF1F0B0FBF5F06FF018014843F2
:1016500006EB800108EB0110B0FBF5F000F0F0069E
:10166000FFF7F4F900EBC00101EB0010616889009D
:10167000B0FBF1F0B0FBF5F006EB0016FFF7E6F972
:1016800000EBC00101EB001061688900B0FBF1F7CD
:10169000FFF7DCF900EBC00101EB00106168890085
:1016A000B0FBF1F0B0FBF5F06FF01801484307EB29
:1016B000800108EB0110B0FBF5F000F00F00A9E786
:1016C000001401400010014090F83910212901D088
:1016D000022070478168B1F5805F016A0BD04A1C17
:1016E0000262026809785160C18C491E0904090C24
:1016F000C1840ED017E009880268C1F30801516067
:1017000001690029016A02D0491C0162ECE7891CC9
:10171000FBE70168CA6822F08002CA600068C168FD
:1017200041F04001C1600020704700000148FFF710
:10173000A5BB000044000020FEE702E008C8121F1D
:1017400008C1002AFAD170477047002001E001C1AA
:10175000121F002AFBD17047FFF71CF8FFF73EFD70
:10176000FFF7EEFCFFF7D6FCFFF700FD4FF47A74AD
:101770003B2205490548FFF789FC00B1FEE72046FA
:10178000FEF716FFF4E700000400002044000020EC
:101790000000000001020304010203040607080917
:1017A0000006101600061016C817000800000020DA
:1017B000440000003A1700080C18000844000020FC
:1017C000A40400004A170008000000000D0A2A2A9D
:1017D0002A2A20554152542D4879706572746572D9
:1017E0006D696E616C20636F6D6D756E6963617498
:1017F000696F6E206261736564206F6E20444D4195
:0C180000202A2A2A0D0A00000024F4000F
:040000050800018965
:00000001FF
